{
	"contracts/DecentraWill.sol": {
		"DecentraWill": {
			"abi": [
				{
					"inputs": [],
					"stateMutability": "nonpayable",
					"type": "constructor"
				},
				{
					"inputs": [
						{
							"internalType": "address",
							"name": "token",
							"type": "address"
						},
						{
							"internalType": "address",
							"name": "recipient",
							"type": "address"
						},
						{
							"internalType": "uint256",
							"name": "amount",
							"type": "uint256"
						}
					],
					"name": "adjustAllocation",
					"outputs": [],
					"stateMutability": "nonpayable",
					"type": "function"
				},
				{
					"inputs": [
						{
							"internalType": "address",
							"name": "user",
							"type": "address"
						}
					],
					"name": "getAllocatedTokensByUser",
					"outputs": [
						{
							"internalType": "address[]",
							"name": "",
							"type": "address[]"
						}
					],
					"stateMutability": "view",
					"type": "function"
				},
				{
					"inputs": [
						{
							"internalType": "address",
							"name": "user",
							"type": "address"
						},
						{
							"internalType": "address",
							"name": "token",
							"type": "address"
						}
					],
					"name": "getRecipientsByToken",
					"outputs": [
						{
							"internalType": "address[]",
							"name": "",
							"type": "address[]"
						}
					],
					"stateMutability": "view",
					"type": "function"
				},
				{
					"inputs": [
						{
							"internalType": "address",
							"name": "user",
							"type": "address"
						},
						{
							"internalType": "address",
							"name": "token",
							"type": "address"
						},
						{
							"internalType": "address",
							"name": "recipient",
							"type": "address"
						}
					],
					"name": "isRecipientOfToken",
					"outputs": [
						{
							"internalType": "bool",
							"name": "",
							"type": "bool"
						}
					],
					"stateMutability": "view",
					"type": "function"
				},
				{
					"inputs": [
						{
							"internalType": "address",
							"name": "user",
							"type": "address"
						},
						{
							"internalType": "address",
							"name": "token",
							"type": "address"
						}
					],
					"name": "isTokenAllocatedByUser",
					"outputs": [
						{
							"internalType": "bool",
							"name": "",
							"type": "bool"
						}
					],
					"stateMutability": "view",
					"type": "function"
				},
				{
					"inputs": [],
					"name": "owner",
					"outputs": [
						{
							"internalType": "address",
							"name": "",
							"type": "address"
						}
					],
					"stateMutability": "view",
					"type": "function"
				},
				{
					"inputs": [
						{
							"internalType": "address",
							"name": "user",
							"type": "address"
						},
						{
							"internalType": "address",
							"name": "token",
							"type": "address"
						},
						{
							"internalType": "address",
							"name": "recipient",
							"type": "address"
						}
					],
					"name": "removeRecipientForToken",
					"outputs": [],
					"stateMutability": "nonpayable",
					"type": "function"
				},
				{
					"inputs": [
						{
							"internalType": "address",
							"name": "token",
							"type": "address"
						},
						{
							"internalType": "address",
							"name": "recipient",
							"type": "address"
						},
						{
							"internalType": "uint256",
							"name": "amount",
							"type": "uint256"
						}
					],
					"name": "setAllocation",
					"outputs": [],
					"stateMutability": "nonpayable",
					"type": "function"
				},
				{
					"inputs": [
						{
							"internalType": "address",
							"name": "",
							"type": "address"
						},
						{
							"internalType": "address",
							"name": "",
							"type": "address"
						},
						{
							"internalType": "address",
							"name": "",
							"type": "address"
						}
					],
					"name": "tokenAllocations",
					"outputs": [
						{
							"internalType": "uint256",
							"name": "",
							"type": "uint256"
						}
					],
					"stateMutability": "view",
					"type": "function"
				},
				{
					"inputs": [
						{
							"internalType": "address",
							"name": "creator",
							"type": "address"
						},
						{
							"internalType": "address",
							"name": "token",
							"type": "address"
						},
						{
							"internalType": "uint256",
							"name": "amount",
							"type": "uint256"
						}
					],
					"name": "withdrawTokenForBeneficiary",
					"outputs": [],
					"stateMutability": "nonpayable",
					"type": "function"
				}
			],
			"devdoc": {
				"kind": "dev",
				"methods": {
					"withdrawTokenForBeneficiary(address,address,uint256)": {
						"details": "Withdraws a specified amount of tokens for the beneficiary.",
						"params": {
							"amount": "The amount of tokens to be withdrawn.",
							"creator": "The address of the will creator.",
							"token": "The address of the token to be withdrawn."
						}
					}
				},
				"version": 1
			},
			"evm": {
				"assembly": "    /* \"contracts/DecentraWill.sol\":119:6134  contract DecentraWill {... */\n  mstore(0x40, 0x80)\n    /* \"contracts/DecentraWill.sol\":177:228  constructor() {... */\n  callvalue\n  dup1\n  iszero\n  tag_1\n  jumpi\n  0x00\n  dup1\n  revert\ntag_1:\n  pop\n    /* \"contracts/DecentraWill.sol\":202:207  owner */\n  0x00\n    /* \"contracts/DecentraWill.sol\":202:220  owner = msg.sender */\n  dup1\n  sload\n  not(sub(shl(0xa0, 0x01), 0x01))\n  and\n    /* \"contracts/DecentraWill.sol\":210:220  msg.sender */\n  caller\n    /* \"contracts/DecentraWill.sol\":202:220  owner = msg.sender */\n  or\n  swap1\n  sstore\n    /* \"contracts/DecentraWill.sol\":119:6134  contract DecentraWill {... */\n  dataSize(sub_0)\n  dup1\n  dataOffset(sub_0)\n  0x00\n  codecopy\n  0x00\n  return\nstop\n\nsub_0: assembly {\n        /* \"contracts/DecentraWill.sol\":119:6134  contract DecentraWill {... */\n      mstore(0x40, 0x80)\n      callvalue\n      dup1\n      iszero\n      tag_1\n      jumpi\n      0x00\n      dup1\n      revert\n    tag_1:\n      pop\n      jumpi(tag_2, lt(calldatasize, 0x04))\n      shr(0xe0, calldataload(0x00))\n      dup1\n      0x8da5cb5b\n      gt\n      tag_13\n      jumpi\n      dup1\n      0x8da5cb5b\n      eq\n      tag_8\n      jumpi\n      dup1\n      0xa2bdd08c\n      eq\n      tag_9\n      jumpi\n      dup1\n      0xbd042d2e\n      eq\n      tag_10\n      jumpi\n      dup1\n      0xc3698da4\n      eq\n      tag_11\n      jumpi\n      dup1\n      0xe94640c3\n      eq\n      tag_12\n      jumpi\n      0x00\n      dup1\n      revert\n    tag_13:\n      dup1\n      0x0ac0be3f\n      eq\n      tag_3\n      jumpi\n      dup1\n      0x0db36379\n      eq\n      tag_4\n      jumpi\n      dup1\n      0x0e6cc31f\n      eq\n      tag_5\n      jumpi\n      dup1\n      0x17a436ed\n      eq\n      tag_6\n      jumpi\n      dup1\n      0x5f15b1d9\n      eq\n      tag_7\n      jumpi\n    tag_2:\n      0x00\n      dup1\n      revert\n        /* \"contracts/DecentraWill.sol\":3009:3186  function getRecipientsByToken(... */\n    tag_3:\n      tag_14\n      tag_15\n      calldatasize\n      0x04\n      tag_16\n      jump\t// in\n    tag_15:\n      tag_17\n      jump\t// in\n    tag_14:\n      mload(0x40)\n      tag_18\n      swap2\n      swap1\n      tag_19\n      jump\t// in\n    tag_18:\n      mload(0x40)\n      dup1\n      swap2\n      sub\n      swap1\n      return\n        /* \"contracts/DecentraWill.sol\":2760:2914  function getAllocatedTokensByUser(... */\n    tag_4:\n      tag_14\n      tag_21\n      calldatasize\n      0x04\n      tag_22\n      jump\t// in\n    tag_21:\n      tag_23\n      jump\t// in\n        /* \"contracts/DecentraWill.sol\":1511:1840  function isTokenAllocatedByUser(... */\n    tag_5:\n      tag_25\n      tag_26\n      calldatasize\n      0x04\n      tag_16\n      jump\t// in\n    tag_26:\n      tag_27\n      jump\t// in\n    tag_25:\n      mload(0x40)\n        /* \"#utility.yul\":1476:1490   */\n      swap1\n      iszero\n        /* \"#utility.yul\":1469:1491   */\n      iszero\n        /* \"#utility.yul\":1451:1492   */\n      dup2\n      mstore\n        /* \"#utility.yul\":1439:1441   */\n      0x20\n        /* \"#utility.yul\":1424:1442   */\n      add\n        /* \"contracts/DecentraWill.sol\":1511:1840  function isTokenAllocatedByUser(... */\n      tag_18\n        /* \"#utility.yul\":1311:1498   */\n      jump\n        /* \"contracts/DecentraWill.sol\":478:578  mapping(address => mapping(address => mapping(address => uint256)))... */\n    tag_6:\n      tag_30\n      tag_31\n      calldatasize\n      0x04\n      tag_32\n      jump\t// in\n    tag_31:\n      0x01\n      0x20\n      swap1\n      dup2\n      mstore\n      0x00\n      swap4\n      dup5\n      mstore\n      0x40\n      dup1\n      dup6\n      keccak256\n      dup3\n      mstore\n      swap3\n      dup5\n      mstore\n      dup3\n      dup5\n      keccak256\n      swap1\n      mstore\n      dup3\n      mstore\n      swap1\n      keccak256\n      sload\n      dup2\n      jump\n    tag_30:\n      mload(0x40)\n        /* \"#utility.yul\":1988:2013   */\n      swap1\n      dup2\n      mstore\n        /* \"#utility.yul\":1976:1978   */\n      0x20\n        /* \"#utility.yul\":1961:1979   */\n      add\n        /* \"contracts/DecentraWill.sol\":478:578  mapping(address => mapping(address => mapping(address => uint256)))... */\n      tag_18\n        /* \"#utility.yul\":1842:2019   */\n      jump\n        /* \"contracts/DecentraWill.sol\":2394:2690  function setAllocation(... */\n    tag_7:\n      tag_36\n      tag_37\n      calldatasize\n      0x04\n      tag_38\n      jump\t// in\n    tag_37:\n      tag_39\n      jump\t// in\n    tag_36:\n      stop\n        /* \"contracts/DecentraWill.sol\":148:168  address public owner */\n    tag_8:\n      sload(0x00)\n      tag_40\n      swap1\n      sub(shl(0xa0, 0x01), 0x01)\n      and\n      dup2\n      jump\n    tag_40:\n      mload(0x40)\n      sub(shl(0xa0, 0x01), 0x01)\n        /* \"#utility.yul\":2521:2553   */\n      swap1\n      swap2\n      and\n        /* \"#utility.yul\":2503:2554   */\n      dup2\n      mstore\n        /* \"#utility.yul\":2491:2493   */\n      0x20\n        /* \"#utility.yul\":2476:2494   */\n      add\n        /* \"contracts/DecentraWill.sol\":148:168  address public owner */\n      tag_18\n        /* \"#utility.yul\":2357:2560   */\n      jump\n        /* \"contracts/DecentraWill.sol\":3279:4210  function removeRecipientForToken(... */\n    tag_9:\n      tag_36\n      tag_45\n      calldatasize\n      0x04\n      tag_32\n      jump\t// in\n    tag_45:\n      tag_46\n      jump\t// in\n        /* \"contracts/DecentraWill.sol\":1930:2293  function isRecipientOfToken(... */\n    tag_10:\n      tag_25\n      tag_48\n      calldatasize\n      0x04\n      tag_32\n      jump\t// in\n    tag_48:\n      tag_49\n      jump\t// in\n        /* \"contracts/DecentraWill.sol\":5489:6131  function withdrawTokenForBeneficiary(... */\n    tag_11:\n      tag_36\n      tag_52\n      calldatasize\n      0x04\n      tag_38\n      jump\t// in\n    tag_52:\n      tag_53\n      jump\t// in\n        /* \"contracts/DecentraWill.sol\":4305:4735  function adjustAllocation(... */\n    tag_12:\n      tag_36\n      tag_55\n      calldatasize\n      0x04\n      tag_38\n      jump\t// in\n    tag_55:\n      tag_56\n      jump\t// in\n        /* \"contracts/DecentraWill.sol\":3009:3186  function getRecipientsByToken(... */\n    tag_17:\n      sub(shl(0xa0, 0x01), 0x01)\n        /* \"contracts/DecentraWill.sol\":3150:3171  tokenRecipients[user] */\n      dup1\n      dup4\n      and\n      0x00\n      swap1\n      dup2\n      mstore\n        /* \"contracts/DecentraWill.sol\":3150:3165  tokenRecipients */\n      0x03\n        /* \"contracts/DecentraWill.sol\":3150:3171  tokenRecipients[user] */\n      0x20\n      swap1\n      dup2\n      mstore\n      0x40\n      dup1\n      dup4\n      keccak256\n        /* \"contracts/DecentraWill.sol\":3150:3178  tokenRecipients[user][token] */\n      swap4\n      dup6\n      and\n      dup4\n      mstore\n      swap3\n      dup2\n      mstore\n      swap1\n      dup3\n      swap1\n      keccak256\n        /* \"contracts/DecentraWill.sol\":3143:3178  return tokenRecipients[user][token] */\n      dup1\n      sload\n      dup4\n      mload\n      dup2\n      dup5\n      mul\n      dup2\n      add\n      dup5\n      add\n      swap1\n      swap5\n      mstore\n      dup1\n      dup5\n      mstore\n        /* \"contracts/DecentraWill.sol\":3114:3130  address[] memory */\n      0x60\n      swap4\n        /* \"contracts/DecentraWill.sol\":3143:3178  return tokenRecipients[user][token] */\n      swap3\n      dup4\n      add\n        /* \"contracts/DecentraWill.sol\":3150:3178  tokenRecipients[user][token] */\n      dup3\n        /* \"contracts/DecentraWill.sol\":3143:3178  return tokenRecipients[user][token] */\n      dup3\n      dup1\n      iszero\n      tag_58\n      jumpi\n      0x20\n      mul\n      dup3\n      add\n      swap2\n      swap1\n      0x00\n      mstore\n      keccak256(0x00, 0x20)\n      swap1\n    tag_59:\n      dup2\n      sload\n      sub(shl(0xa0, 0x01), 0x01)\n      and\n      dup2\n      mstore\n      0x01\n      swap1\n      swap2\n      add\n      swap1\n      0x20\n      add\n      dup1\n      dup4\n      gt\n      tag_59\n      jumpi\n    tag_58:\n      pop\n      pop\n      pop\n      pop\n      pop\n      swap1\n      pop\n        /* \"contracts/DecentraWill.sol\":3009:3186  function getRecipientsByToken(... */\n    tag_57:\n      swap3\n      swap2\n      pop\n      pop\n      jump\t// out\n        /* \"contracts/DecentraWill.sol\":2760:2914  function getAllocatedTokensByUser(... */\n    tag_23:\n      sub(shl(0xa0, 0x01), 0x01)\n        /* \"contracts/DecentraWill.sol\":2881:2906  userAllocatedTokens[user] */\n      dup2\n      and\n      0x00\n      swap1\n      dup2\n      mstore\n        /* \"contracts/DecentraWill.sol\":2881:2900  userAllocatedTokens */\n      0x02\n        /* \"contracts/DecentraWill.sol\":2881:2906  userAllocatedTokens[user] */\n      0x20\n      swap1\n      dup2\n      mstore\n      0x40\n      swap2\n      dup3\n      swap1\n      keccak256\n        /* \"contracts/DecentraWill.sol\":2874:2906  return userAllocatedTokens[user] */\n      dup1\n      sload\n      dup4\n      mload\n      dup2\n      dup5\n      mul\n      dup2\n      add\n      dup5\n      add\n      swap1\n      swap5\n      mstore\n      dup1\n      dup5\n      mstore\n        /* \"contracts/DecentraWill.sol\":2845:2861  address[] memory */\n      0x60\n      swap4\n        /* \"contracts/DecentraWill.sol\":2874:2906  return userAllocatedTokens[user] */\n      swap3\n      dup4\n      add\n        /* \"contracts/DecentraWill.sol\":2881:2906  userAllocatedTokens[user] */\n      dup3\n        /* \"contracts/DecentraWill.sol\":2874:2906  return userAllocatedTokens[user] */\n      dup3\n      dup1\n      iszero\n      tag_61\n      jumpi\n      0x20\n      mul\n      dup3\n      add\n      swap2\n      swap1\n      0x00\n      mstore\n      keccak256(0x00, 0x20)\n      swap1\n    tag_62:\n      dup2\n      sload\n      sub(shl(0xa0, 0x01), 0x01)\n      and\n      dup2\n      mstore\n      0x01\n      swap1\n      swap2\n      add\n      swap1\n      0x20\n      add\n      dup1\n      dup4\n      gt\n      tag_62\n      jumpi\n    tag_61:\n      pop\n      pop\n      pop\n      pop\n      pop\n      swap1\n      pop\n        /* \"contracts/DecentraWill.sol\":2760:2914  function getAllocatedTokensByUser(... */\n      swap2\n      swap1\n      pop\n      jump\t// out\n        /* \"contracts/DecentraWill.sol\":1511:1840  function isTokenAllocatedByUser(... */\n    tag_27:\n        /* \"contracts/DecentraWill.sol\":1618:1622  bool */\n      0x00\n      dup1\n        /* \"contracts/DecentraWill.sol\":1635:1810  for (uint i = 0; i < userAllocatedTokens[user].length; i++) {... */\n    tag_64:\n      sub(shl(0xa0, 0x01), 0x01)\n        /* \"contracts/DecentraWill.sol\":1656:1681  userAllocatedTokens[user] */\n      dup5\n      and\n      0x00\n      swap1\n      dup2\n      mstore\n        /* \"contracts/DecentraWill.sol\":1656:1675  userAllocatedTokens */\n      0x02\n        /* \"contracts/DecentraWill.sol\":1656:1681  userAllocatedTokens[user] */\n      0x20\n      mstore\n      0x40\n      swap1\n      keccak256\n        /* \"contracts/DecentraWill.sol\":1656:1688  userAllocatedTokens[user].length */\n      sload\n        /* \"contracts/DecentraWill.sol\":1652:1688  i < userAllocatedTokens[user].length */\n      dup2\n      lt\n        /* \"contracts/DecentraWill.sol\":1635:1810  for (uint i = 0; i < userAllocatedTokens[user].length; i++) {... */\n      iszero\n      tag_65\n      jumpi\n      sub(shl(0xa0, 0x01), 0x01)\n        /* \"contracts/DecentraWill.sol\":1714:1739  userAllocatedTokens[user] */\n      dup5\n      dup2\n      and\n      0x00\n      swap1\n      dup2\n      mstore\n        /* \"contracts/DecentraWill.sol\":1714:1733  userAllocatedTokens */\n      0x02\n        /* \"contracts/DecentraWill.sol\":1714:1739  userAllocatedTokens[user] */\n      0x20\n      mstore\n      0x40\n      swap1\n      keccak256\n        /* \"contracts/DecentraWill.sol\":1714:1742  userAllocatedTokens[user][i] */\n      dup1\n      sload\n        /* \"contracts/DecentraWill.sol\":1714:1751  userAllocatedTokens[user][i] == token */\n      swap2\n      dup6\n      and\n      swap2\n        /* \"contracts/DecentraWill.sol\":1740:1741  i */\n      dup4\n      swap1\n        /* \"contracts/DecentraWill.sol\":1714:1742  userAllocatedTokens[user][i] */\n      dup2\n      lt\n      tag_68\n      jumpi\n      tag_68\n      tag_69\n      jump\t// in\n    tag_68:\n      0x00\n      swap2\n      dup3\n      mstore\n      0x20\n      swap1\n      swap2\n      keccak256\n      add\n      sload\n      sub(shl(0xa0, 0x01), 0x01)\n      and\n        /* \"contracts/DecentraWill.sol\":1714:1751  userAllocatedTokens[user][i] == token */\n      sub\n        /* \"contracts/DecentraWill.sol\":1710:1799  if (userAllocatedTokens[user][i] == token) {... */\n      tag_71\n      jumpi\n        /* \"contracts/DecentraWill.sol\":1779:1783  true */\n      0x01\n        /* \"contracts/DecentraWill.sol\":1772:1783  return true */\n      swap2\n      pop\n      pop\n      jump(tag_57)\n        /* \"contracts/DecentraWill.sol\":1710:1799  if (userAllocatedTokens[user][i] == token) {... */\n    tag_71:\n        /* \"contracts/DecentraWill.sol\":1690:1693  i++ */\n      0x01\n      add\n        /* \"contracts/DecentraWill.sol\":1635:1810  for (uint i = 0; i < userAllocatedTokens[user].length; i++) {... */\n      jump(tag_64)\n    tag_65:\n      pop\n        /* \"contracts/DecentraWill.sol\":1827:1832  false */\n      0x00\n      swap4\n        /* \"contracts/DecentraWill.sol\":1511:1840  function isTokenAllocatedByUser(... */\n      swap3\n      pop\n      pop\n      pop\n      jump\t// out\n        /* \"contracts/DecentraWill.sol\":2394:2690  function setAllocation(... */\n    tag_39:\n        /* \"contracts/DecentraWill.sol\":2536:2546  msg.sender */\n      caller\n        /* \"contracts/DecentraWill.sol\":2519:2547  tokenAllocations[msg.sender] */\n      0x00\n      dup2\n      dup2\n      mstore\n        /* \"contracts/DecentraWill.sol\":2519:2535  tokenAllocations */\n      0x01\n        /* \"contracts/DecentraWill.sol\":2519:2547  tokenAllocations[msg.sender] */\n      0x20\n      swap1\n      dup2\n      mstore\n      0x40\n      dup1\n      dup4\n      keccak256\n      sub(shl(0xa0, 0x01), 0x01)\n        /* \"contracts/DecentraWill.sol\":2519:2554  tokenAllocations[msg.sender][token] */\n      dup9\n      dup2\n      and\n      dup6\n      mstore\n      swap1\n      dup4\n      mstore\n      dup2\n      dup5\n      keccak256\n        /* \"contracts/DecentraWill.sol\":2519:2565  tokenAllocations[msg.sender][token][recipient] */\n      swap1\n      dup8\n      and\n      dup5\n      mstore\n      swap1\n      swap2\n      mstore\n      swap1\n      keccak256\n        /* \"contracts/DecentraWill.sol\":2519:2574  tokenAllocations[msg.sender][token][recipient] = amount */\n      dup3\n      swap1\n      sstore\n        /* \"contracts/DecentraWill.sol\":2585:2620  _addTokenForUser(msg.sender, token) */\n      tag_73\n      swap1\n        /* \"contracts/DecentraWill.sol\":2548:2553  token */\n      dup5\n        /* \"contracts/DecentraWill.sol\":2585:2601  _addTokenForUser */\n      tag_74\n        /* \"contracts/DecentraWill.sol\":2585:2620  _addTokenForUser(msg.sender, token) */\n      jump\t// in\n    tag_73:\n        /* \"contracts/DecentraWill.sol\":2631:2682  _addRecipientForToken(msg.sender, token, recipient) */\n      tag_75\n        /* \"contracts/DecentraWill.sol\":2653:2663  msg.sender */\n      caller\n        /* \"contracts/DecentraWill.sol\":2665:2670  token */\n      dup5\n        /* \"contracts/DecentraWill.sol\":2672:2681  recipient */\n      dup5\n        /* \"contracts/DecentraWill.sol\":2631:2652  _addRecipientForToken */\n      tag_76\n        /* \"contracts/DecentraWill.sol\":2631:2682  _addRecipientForToken(msg.sender, token, recipient) */\n      jump\t// in\n    tag_75:\n        /* \"contracts/DecentraWill.sol\":2394:2690  function setAllocation(... */\n      pop\n      pop\n      pop\n      jump\t// out\n        /* \"contracts/DecentraWill.sol\":3279:4210  function removeRecipientForToken(... */\n    tag_46:\n        /* \"contracts/DecentraWill.sol\":290:295  owner */\n      and(sub(shl(0xa0, 0x01), 0x01), sload(0x00))\n        /* \"contracts/DecentraWill.sol\":276:286  msg.sender */\n      caller\n        /* \"contracts/DecentraWill.sol\":276:295  msg.sender == owner */\n      eq\n        /* \"contracts/DecentraWill.sol\":268:309  require(msg.sender == owner, \"Not owner\") */\n      tag_78\n      jumpi\n      mload(0x40)\n      shl(0xe5, 0x461bcd)\n      dup2\n      mstore\n        /* \"#utility.yul\":2899:2901   */\n      0x20\n        /* \"contracts/DecentraWill.sol\":268:309  require(msg.sender == owner, \"Not owner\") */\n      0x04\n      dup3\n      add\n        /* \"#utility.yul\":2881:2902   */\n      mstore\n        /* \"#utility.yul\":2938:2939   */\n      0x09\n        /* \"#utility.yul\":2918:2936   */\n      0x24\n      dup3\n      add\n        /* \"#utility.yul\":2911:2940   */\n      mstore\n      shl(0xb9, 0x2737ba1037bbb732b9)\n        /* \"#utility.yul\":2956:2974   */\n      0x44\n      dup3\n      add\n        /* \"#utility.yul\":2949:2988   */\n      mstore\n        /* \"#utility.yul\":3005:3023   */\n      0x64\n      add\n        /* \"contracts/DecentraWill.sol\":268:309  require(msg.sender == owner, \"Not owner\") */\n    tag_79:\n      mload(0x40)\n      dup1\n      swap2\n      sub\n      swap1\n      revert\n    tag_78:\n        /* \"contracts/DecentraWill.sol\":3444:3486  isRecipientOfToken(user, token, recipient) */\n      tag_82\n        /* \"contracts/DecentraWill.sol\":3463:3467  user */\n      dup4\n        /* \"contracts/DecentraWill.sol\":3469:3474  token */\n      dup4\n        /* \"contracts/DecentraWill.sol\":3476:3485  recipient */\n      dup4\n        /* \"contracts/DecentraWill.sol\":3444:3462  isRecipientOfToken */\n      tag_49\n        /* \"contracts/DecentraWill.sol\":3444:3486  isRecipientOfToken(user, token, recipient) */\n      jump\t// in\n    tag_82:\n        /* \"contracts/DecentraWill.sol\":3422:3533  require(... */\n      tag_83\n      jumpi\n      mload(0x40)\n      shl(0xe5, 0x461bcd)\n      dup2\n      mstore\n        /* \"#utility.yul\":3236:3238   */\n      0x20\n        /* \"contracts/DecentraWill.sol\":3422:3533  require(... */\n      0x04\n      dup3\n      add\n        /* \"#utility.yul\":3218:3239   */\n      mstore\n        /* \"#utility.yul\":3275:3277   */\n      0x13\n        /* \"#utility.yul\":3255:3273   */\n      0x24\n      dup3\n      add\n        /* \"#utility.yul\":3248:3278   */\n      mstore\n      shl(0x6a, 0x149958da5c1a595b9d081b9bdd08199bdd5b99)\n        /* \"#utility.yul\":3294:3312   */\n      0x44\n      dup3\n      add\n        /* \"#utility.yul\":3287:3336   */\n      mstore\n        /* \"#utility.yul\":3353:3371   */\n      0x64\n      add\n        /* \"contracts/DecentraWill.sol\":3422:3533  require(... */\n      tag_79\n        /* \"#utility.yul\":3034:3377   */\n      jump\n        /* \"contracts/DecentraWill.sol\":3422:3533  require(... */\n    tag_83:\n        /* \"contracts/DecentraWill.sol\":3544:3557  uint256 index */\n      0x00\n        /* \"contracts/DecentraWill.sol\":3568:3758  for (index = 0; index < tokenRecipients[user][token].length; index++) {... */\n    tag_86:\n      sub(shl(0xa0, 0x01), 0x01)\n        /* \"contracts/DecentraWill.sol\":3592:3613  tokenRecipients[user] */\n      dup1\n      dup6\n      and\n      0x00\n      swap1\n      dup2\n      mstore\n        /* \"contracts/DecentraWill.sol\":3592:3607  tokenRecipients */\n      0x03\n        /* \"contracts/DecentraWill.sol\":3592:3613  tokenRecipients[user] */\n      0x20\n      swap1\n      dup2\n      mstore\n      0x40\n      dup1\n      dup4\n      keccak256\n        /* \"contracts/DecentraWill.sol\":3592:3620  tokenRecipients[user][token] */\n      swap4\n      dup8\n      and\n      dup4\n      mstore\n      swap3\n      swap1\n      mstore\n      keccak256\n        /* \"contracts/DecentraWill.sol\":3592:3627  tokenRecipients[user][token].length */\n      sload\n        /* \"contracts/DecentraWill.sol\":3584:3627  index < tokenRecipients[user][token].length */\n      dup2\n      lt\n        /* \"contracts/DecentraWill.sol\":3568:3758  for (index = 0; index < tokenRecipients[user][token].length; index++) {... */\n      iszero\n      tag_87\n      jumpi\n      sub(shl(0xa0, 0x01), 0x01)\n        /* \"contracts/DecentraWill.sol\":3657:3678  tokenRecipients[user] */\n      dup5\n      dup2\n      and\n      0x00\n      swap1\n      dup2\n      mstore\n        /* \"contracts/DecentraWill.sol\":3657:3672  tokenRecipients */\n      0x03\n        /* \"contracts/DecentraWill.sol\":3657:3678  tokenRecipients[user] */\n      0x20\n      swap1\n      dup2\n      mstore\n      0x40\n      dup1\n      dup4\n      keccak256\n        /* \"contracts/DecentraWill.sol\":3657:3685  tokenRecipients[user][token] */\n      dup8\n      dup6\n      and\n      dup5\n      mstore\n      swap1\n      swap2\n      mstore\n      swap1\n      keccak256\n        /* \"contracts/DecentraWill.sol\":3657:3692  tokenRecipients[user][token][index] */\n      dup1\n      sload\n        /* \"contracts/DecentraWill.sol\":3657:3705  tokenRecipients[user][token][index] == recipient */\n      swap2\n      dup5\n      and\n      swap2\n        /* \"contracts/DecentraWill.sol\":3686:3691  index */\n      dup4\n      swap1\n        /* \"contracts/DecentraWill.sol\":3657:3692  tokenRecipients[user][token][index] */\n      dup2\n      lt\n      tag_90\n      jumpi\n      tag_90\n      tag_69\n      jump\t// in\n    tag_90:\n      0x00\n      swap2\n      dup3\n      mstore\n      0x20\n      swap1\n      swap2\n      keccak256\n      add\n      sload\n      sub(shl(0xa0, 0x01), 0x01)\n      and\n        /* \"contracts/DecentraWill.sol\":3653:3747  if (tokenRecipients[user][token][index] == recipient) {... */\n      eq\n        /* \"contracts/DecentraWill.sol\":3726:3731  break */\n      tag_87\n        /* \"contracts/DecentraWill.sol\":3653:3747  if (tokenRecipients[user][token][index] == recipient) {... */\n      jumpi\n        /* \"contracts/DecentraWill.sol\":3629:3636  index++ */\n      0x01\n      add\n        /* \"contracts/DecentraWill.sol\":3568:3758  for (index = 0; index < tokenRecipients[user][token].length; index++) {... */\n      jump(tag_86)\n    tag_87:\n        /* \"contracts/DecentraWill.sol\":3843:3848  index */\n      dup1\n        /* \"contracts/DecentraWill.sol\":3812:4064  for (... */\n    tag_93:\n      sub(shl(0xa0, 0x01), 0x01)\n        /* \"contracts/DecentraWill.sol\":3867:3888  tokenRecipients[user] */\n      dup1\n      dup7\n      and\n      0x00\n      swap1\n      dup2\n      mstore\n        /* \"contracts/DecentraWill.sol\":3867:3882  tokenRecipients */\n      0x03\n        /* \"contracts/DecentraWill.sol\":3867:3888  tokenRecipients[user] */\n      0x20\n      swap1\n      dup2\n      mstore\n      0x40\n      dup1\n      dup4\n      keccak256\n        /* \"contracts/DecentraWill.sol\":3867:3895  tokenRecipients[user][token] */\n      swap4\n      dup9\n      and\n      dup4\n      mstore\n      swap3\n      swap1\n      mstore\n      keccak256\n        /* \"contracts/DecentraWill.sol\":3867:3902  tokenRecipients[user][token].length */\n      sload\n        /* \"contracts/DecentraWill.sol\":3867:3906  tokenRecipients[user][token].length - 1 */\n      tag_96\n      swap1\n        /* \"contracts/DecentraWill.sol\":3905:3906  1 */\n      0x01\n      swap1\n        /* \"contracts/DecentraWill.sol\":3867:3906  tokenRecipients[user][token].length - 1 */\n      tag_97\n      jump\t// in\n    tag_96:\n        /* \"contracts/DecentraWill.sol\":3863:3864  i */\n      dup2\n        /* \"contracts/DecentraWill.sol\":3863:3906  i < tokenRecipients[user][token].length - 1 */\n      lt\n        /* \"contracts/DecentraWill.sol\":3812:4064  for (... */\n      iszero\n      tag_94\n      jumpi\n      sub(shl(0xa0, 0x01), 0x01)\n        /* \"contracts/DecentraWill.sol\":3985:4006  tokenRecipients[user] */\n      dup1\n      dup7\n      and\n      0x00\n      swap1\n      dup2\n      mstore\n        /* \"contracts/DecentraWill.sol\":3985:4000  tokenRecipients */\n      0x03\n        /* \"contracts/DecentraWill.sol\":3985:4006  tokenRecipients[user] */\n      0x20\n      swap1\n      dup2\n      mstore\n      0x40\n      dup1\n      dup4\n      keccak256\n        /* \"contracts/DecentraWill.sol\":3985:4013  tokenRecipients[user][token] */\n      swap4\n      dup9\n      and\n      dup4\n      mstore\n      swap3\n      swap1\n      mstore\n      keccak256\n        /* \"contracts/DecentraWill.sol\":4032:4037  i + 1 */\n      tag_98\n        /* \"contracts/DecentraWill.sol\":4032:4033  i */\n      dup3\n        /* \"contracts/DecentraWill.sol\":4036:4037  1 */\n      0x01\n        /* \"contracts/DecentraWill.sol\":4032:4037  i + 1 */\n      tag_99\n      jump\t// in\n    tag_98:\n        /* \"contracts/DecentraWill.sol\":3985:4052  tokenRecipients[user][token][... */\n      dup2\n      sload\n      dup2\n      lt\n      tag_101\n      jumpi\n      tag_101\n      tag_69\n      jump\t// in\n    tag_101:\n      0x00\n      swap2\n      dup3\n      mstore\n      0x20\n      dup1\n      dup4\n      keccak256\n      swap1\n      swap2\n      add\n      sload\n      sub(shl(0xa0, 0x01), 0x01)\n        /* \"contracts/DecentraWill.sol\":3951:3972  tokenRecipients[user] */\n      dup9\n      dup2\n      and\n      dup5\n      mstore\n        /* \"contracts/DecentraWill.sol\":3951:3966  tokenRecipients */\n      0x03\n        /* \"contracts/DecentraWill.sol\":3951:3972  tokenRecipients[user] */\n      dup4\n      mstore\n      0x40\n      dup1\n      dup6\n      keccak256\n        /* \"contracts/DecentraWill.sol\":3951:3979  tokenRecipients[user][token] */\n      dup10\n      dup4\n      and\n      dup7\n      mstore\n      swap1\n      swap4\n      mstore\n      swap2\n      swap1\n      swap3\n      keccak256\n        /* \"contracts/DecentraWill.sol\":3951:3982  tokenRecipients[user][token][i] */\n      dup1\n      sload\n        /* \"contracts/DecentraWill.sol\":3985:4052  tokenRecipients[user][token][... */\n      swap2\n      swap1\n      swap3\n      and\n      swap2\n        /* \"contracts/DecentraWill.sol\":3951:3979  tokenRecipients[user][token] */\n      swap1\n        /* \"contracts/DecentraWill.sol\":3980:3981  i */\n      dup4\n      swap1\n        /* \"contracts/DecentraWill.sol\":3951:3982  tokenRecipients[user][token][i] */\n      dup2\n      lt\n      tag_104\n      jumpi\n      tag_104\n      tag_69\n      jump\t// in\n    tag_104:\n      0x00\n      swap2\n      dup3\n      mstore\n      0x20\n      swap1\n      swap2\n      keccak256\n      add\n        /* \"contracts/DecentraWill.sol\":3951:4052  tokenRecipients[user][token][i] = tokenRecipients[user][token][... */\n      dup1\n      sload\n      not(sub(shl(0xa0, 0x01), 0x01))\n      and\n      sub(shl(0xa0, 0x01), 0x01)\n      swap3\n      swap1\n      swap3\n      and\n      swap2\n      swap1\n      swap2\n      or\n      swap1\n      sstore\n      0x01\n        /* \"contracts/DecentraWill.sol\":3921:3924  i++ */\n      add\n        /* \"contracts/DecentraWill.sol\":3812:4064  for (... */\n      jump(tag_93)\n    tag_94:\n      pop\n      sub(shl(0xa0, 0x01), 0x01)\n        /* \"contracts/DecentraWill.sol\":4074:4095  tokenRecipients[user] */\n      dup1\n      dup6\n      and\n      0x00\n      swap1\n      dup2\n      mstore\n        /* \"contracts/DecentraWill.sol\":4074:4089  tokenRecipients */\n      0x03\n        /* \"contracts/DecentraWill.sol\":4074:4095  tokenRecipients[user] */\n      0x20\n      swap1\n      dup2\n      mstore\n      0x40\n      dup1\n      dup4\n      keccak256\n        /* \"contracts/DecentraWill.sol\":4074:4102  tokenRecipients[user][token] */\n      swap4\n      dup8\n      and\n      dup4\n      mstore\n      swap3\n      swap1\n      mstore\n      keccak256\n        /* \"contracts/DecentraWill.sol\":4074:4108  tokenRecipients[user][token].pop() */\n      dup1\n      sload\n      dup1\n      tag_107\n      jumpi\n      tag_107\n      tag_108\n      jump\t// in\n    tag_107:\n      0x00\n      dup3\n      dup2\n      mstore\n      0x20\n      dup1\n      dup3\n      keccak256\n      dup4\n      add\n      not(0x00)\n      swap1\n      dup2\n      add\n      dup1\n      sload\n      not(sub(shl(0xa0, 0x01), 0x01))\n      and\n      swap1\n      sstore\n      swap1\n      swap3\n      add\n      swap1\n      swap3\n      sstore\n      sub(shl(0xa0, 0x01), 0x01)\n        /* \"contracts/DecentraWill.sol\":4162:4184  tokenAllocations[user] */\n      swap6\n      dup7\n      and\n      dup3\n      mstore\n        /* \"contracts/DecentraWill.sol\":4074:4108  tokenRecipients[user][token].pop() */\n      0x01\n        /* \"contracts/DecentraWill.sol\":4162:4184  tokenAllocations[user] */\n      dup2\n      mstore\n      0x40\n      dup1\n      dup4\n      keccak256\n        /* \"contracts/DecentraWill.sol\":4162:4191  tokenAllocations[user][token] */\n      swap6\n      dup8\n      and\n      dup4\n      mstore\n      swap5\n      dup2\n      mstore\n      dup5\n      dup3\n      keccak256\n        /* \"contracts/DecentraWill.sol\":4162:4202  tokenAllocations[user][token][recipient] */\n      swap4\n      swap1\n      swap6\n      and\n      dup2\n      mstore\n      swap2\n      swap1\n      swap4\n      mstore\n      swap1\n      dup2\n      keccak256\n        /* \"contracts/DecentraWill.sol\":4155:4202  delete tokenAllocations[user][token][recipient] */\n      sstore\n      pop\n        /* \"contracts/DecentraWill.sol\":3279:4210  function removeRecipientForToken(... */\n      jump\t// out\n        /* \"contracts/DecentraWill.sol\":1930:2293  function isRecipientOfToken(... */\n    tag_49:\n        /* \"contracts/DecentraWill.sol\":2061:2065  bool */\n      0x00\n      dup1\n        /* \"contracts/DecentraWill.sol\":2078:2263  for (uint i = 0; i < tokenRecipients[user][token].length; i++) {... */\n    tag_111:\n      sub(shl(0xa0, 0x01), 0x01)\n        /* \"contracts/DecentraWill.sol\":2099:2120  tokenRecipients[user] */\n      dup1\n      dup7\n      and\n      0x00\n      swap1\n      dup2\n      mstore\n        /* \"contracts/DecentraWill.sol\":2099:2114  tokenRecipients */\n      0x03\n        /* \"contracts/DecentraWill.sol\":2099:2120  tokenRecipients[user] */\n      0x20\n      swap1\n      dup2\n      mstore\n      0x40\n      dup1\n      dup4\n      keccak256\n        /* \"contracts/DecentraWill.sol\":2099:2127  tokenRecipients[user][token] */\n      swap4\n      dup9\n      and\n      dup4\n      mstore\n      swap3\n      swap1\n      mstore\n      keccak256\n        /* \"contracts/DecentraWill.sol\":2099:2134  tokenRecipients[user][token].length */\n      sload\n        /* \"contracts/DecentraWill.sol\":2095:2134  i < tokenRecipients[user][token].length */\n      dup2\n      lt\n        /* \"contracts/DecentraWill.sol\":2078:2263  for (uint i = 0; i < tokenRecipients[user][token].length; i++) {... */\n      iszero\n      tag_112\n      jumpi\n      sub(shl(0xa0, 0x01), 0x01)\n        /* \"contracts/DecentraWill.sol\":2160:2181  tokenRecipients[user] */\n      dup6\n      dup2\n      and\n      0x00\n      swap1\n      dup2\n      mstore\n        /* \"contracts/DecentraWill.sol\":2160:2175  tokenRecipients */\n      0x03\n        /* \"contracts/DecentraWill.sol\":2160:2181  tokenRecipients[user] */\n      0x20\n      swap1\n      dup2\n      mstore\n      0x40\n      dup1\n      dup4\n      keccak256\n        /* \"contracts/DecentraWill.sol\":2160:2188  tokenRecipients[user][token] */\n      dup9\n      dup6\n      and\n      dup5\n      mstore\n      swap1\n      swap2\n      mstore\n      swap1\n      keccak256\n        /* \"contracts/DecentraWill.sol\":2160:2191  tokenRecipients[user][token][i] */\n      dup1\n      sload\n        /* \"contracts/DecentraWill.sol\":2160:2204  tokenRecipients[user][token][i] == recipient */\n      swap2\n      dup6\n      and\n      swap2\n        /* \"contracts/DecentraWill.sol\":2189:2190  i */\n      dup4\n      swap1\n        /* \"contracts/DecentraWill.sol\":2160:2191  tokenRecipients[user][token][i] */\n      dup2\n      lt\n      tag_115\n      jumpi\n      tag_115\n      tag_69\n      jump\t// in\n    tag_115:\n      0x00\n      swap2\n      dup3\n      mstore\n      0x20\n      swap1\n      swap2\n      keccak256\n      add\n      sload\n      sub(shl(0xa0, 0x01), 0x01)\n      and\n        /* \"contracts/DecentraWill.sol\":2160:2204  tokenRecipients[user][token][i] == recipient */\n      sub\n        /* \"contracts/DecentraWill.sol\":2156:2252  if (tokenRecipients[user][token][i] == recipient) {... */\n      tag_117\n      jumpi\n        /* \"contracts/DecentraWill.sol\":2232:2236  true */\n      0x01\n        /* \"contracts/DecentraWill.sol\":2225:2236  return true */\n      swap2\n      pop\n      pop\n      jump(tag_110)\n        /* \"contracts/DecentraWill.sol\":2156:2252  if (tokenRecipients[user][token][i] == recipient) {... */\n    tag_117:\n        /* \"contracts/DecentraWill.sol\":2136:2139  i++ */\n      0x01\n      add\n        /* \"contracts/DecentraWill.sol\":2078:2263  for (uint i = 0; i < tokenRecipients[user][token].length; i++) {... */\n      jump(tag_111)\n    tag_112:\n      pop\n        /* \"contracts/DecentraWill.sol\":2280:2285  false */\n      0x00\n        /* \"contracts/DecentraWill.sol\":2273:2285  return false */\n      swap1\n      pop\n        /* \"contracts/DecentraWill.sol\":1930:2293  function isRecipientOfToken(... */\n    tag_110:\n      swap4\n      swap3\n      pop\n      pop\n      pop\n      jump\t// out\n        /* \"contracts/DecentraWill.sol\":5489:6131  function withdrawTokenForBeneficiary(... */\n    tag_53:\n      sub(shl(0xa0, 0x01), 0x01)\n        /* \"contracts/DecentraWill.sol\":5648:5673  tokenAllocations[creator] */\n      dup1\n      dup5\n      and\n      0x00\n      swap1\n      dup2\n      mstore\n        /* \"contracts/DecentraWill.sol\":5648:5664  tokenAllocations */\n      0x01\n        /* \"contracts/DecentraWill.sol\":5648:5673  tokenAllocations[creator] */\n      0x20\n      swap1\n      dup2\n      mstore\n      0x40\n      dup1\n      dup4\n      keccak256\n        /* \"contracts/DecentraWill.sol\":5648:5680  tokenAllocations[creator][token] */\n      swap4\n      dup7\n      and\n      dup4\n      mstore\n      swap3\n      dup2\n      mstore\n      dup3\n      dup3\n      keccak256\n        /* \"contracts/DecentraWill.sol\":5681:5691  msg.sender */\n      caller\n        /* \"contracts/DecentraWill.sol\":5648:5692  tokenAllocations[creator][token][msg.sender] */\n      dup4\n      mstore\n      swap1\n      mstore\n      keccak256\n      sload\n        /* \"contracts/DecentraWill.sol\":5648:5702  tokenAllocations[creator][token][msg.sender] >= amount */\n      dup2\n      gt\n      iszero\n        /* \"contracts/DecentraWill.sol\":5626:5753  require(... */\n      tag_119\n      jumpi\n      mload(0x40)\n      shl(0xe5, 0x461bcd)\n      dup2\n      mstore\n        /* \"#utility.yul\":4111:4113   */\n      0x20\n        /* \"contracts/DecentraWill.sol\":5626:5753  require(... */\n      0x04\n      dup3\n      add\n        /* \"#utility.yul\":4093:4114   */\n      mstore\n        /* \"#utility.yul\":4150:4152   */\n      0x17\n        /* \"#utility.yul\":4130:4148   */\n      0x24\n      dup3\n      add\n        /* \"#utility.yul\":4123:4153   */\n      mstore\n        /* \"#utility.yul\":4189:4214   */\n      0x496e73756666696369656e7420616c6c6f636174696f6e000000000000000000\n        /* \"#utility.yul\":4169:4187   */\n      0x44\n      dup3\n      add\n        /* \"#utility.yul\":4162:4215   */\n      mstore\n        /* \"#utility.yul\":4232:4250   */\n      0x64\n      add\n        /* \"contracts/DecentraWill.sol\":5626:5753  require(... */\n      tag_79\n        /* \"#utility.yul\":3909:4256   */\n      jump\n        /* \"contracts/DecentraWill.sol\":5626:5753  require(... */\n    tag_119:\n      sub(shl(0xa0, 0x01), 0x01)\n        /* \"contracts/DecentraWill.sol\":5853:5878  tokenAllocations[creator] */\n      dup1\n      dup5\n      and\n      0x00\n      swap1\n      dup2\n      mstore\n        /* \"contracts/DecentraWill.sol\":5853:5869  tokenAllocations */\n      0x01\n        /* \"contracts/DecentraWill.sol\":5853:5878  tokenAllocations[creator] */\n      0x20\n      swap1\n      dup2\n      mstore\n      0x40\n      dup1\n      dup4\n      keccak256\n        /* \"contracts/DecentraWill.sol\":5853:5885  tokenAllocations[creator][token] */\n      swap4\n      dup7\n      and\n      dup4\n      mstore\n      swap3\n      dup2\n      mstore\n      dup3\n      dup3\n      keccak256\n        /* \"contracts/DecentraWill.sol\":5886:5896  msg.sender */\n      caller\n        /* \"contracts/DecentraWill.sol\":5853:5897  tokenAllocations[creator][token][msg.sender] */\n      dup4\n      mstore\n      swap1\n      mstore\n      swap1\n      dup2\n      keccak256\n        /* \"contracts/DecentraWill.sol\":5853:5907  tokenAllocations[creator][token][msg.sender] -= amount */\n      dup1\n      sload\n        /* \"contracts/DecentraWill.sol\":5901:5907  amount */\n      dup4\n      swap3\n        /* \"contracts/DecentraWill.sol\":5853:5878  tokenAllocations[creator] */\n      swap1\n        /* \"contracts/DecentraWill.sol\":5853:5907  tokenAllocations[creator][token][msg.sender] -= amount */\n      tag_122\n      swap1\n        /* \"contracts/DecentraWill.sol\":5901:5907  amount */\n      dup5\n      swap1\n        /* \"contracts/DecentraWill.sol\":5853:5907  tokenAllocations[creator][token][msg.sender] -= amount */\n      tag_97\n      jump\t// in\n    tag_122:\n      swap1\n      swap2\n      sstore\n      pop\n      pop\n        /* \"contracts/DecentraWill.sol\":6025:6080  IERC20(token).transferFrom(creator, msg.sender, amount) */\n      mload(0x40)\n      shl(0xe0, 0x23b872dd)\n      dup2\n      mstore\n      sub(shl(0xa0, 0x01), 0x01)\n        /* \"#utility.yul\":4519:4534   */\n      dup5\n      dup2\n      and\n        /* \"contracts/DecentraWill.sol\":6025:6080  IERC20(token).transferFrom(creator, msg.sender, amount) */\n      0x04\n      dup4\n      add\n        /* \"#utility.yul\":4501:4535   */\n      mstore\n        /* \"contracts/DecentraWill.sol\":6061:6071  msg.sender */\n      caller\n        /* \"#utility.yul\":4551:4569   */\n      0x24\n      dup4\n      add\n        /* \"#utility.yul\":4544:4587   */\n      mstore\n        /* \"#utility.yul\":4603:4621   */\n      0x44\n      dup3\n      add\n        /* \"#utility.yul\":4596:4630   */\n      dup4\n      swap1\n      mstore\n        /* \"contracts/DecentraWill.sol\":6025:6051  IERC20(token).transferFrom */\n      dup4\n      and\n      swap1\n      0x23b872dd\n      swap1\n        /* \"#utility.yul\":4436:4454   */\n      0x64\n      add\n        /* \"contracts/DecentraWill.sol\":6025:6080  IERC20(token).transferFrom(creator, msg.sender, amount) */\n      0x20\n      mload(0x40)\n      dup1\n      dup4\n      sub\n      dup2\n      0x00\n      dup8\n      gas\n      call\n      iszero\n      dup1\n      iszero\n      tag_126\n      jumpi\n      returndatasize\n      0x00\n      dup1\n      returndatacopy\n      revert(0x00, returndatasize)\n    tag_126:\n      pop\n      pop\n      pop\n      pop\n      mload(0x40)\n      returndatasize\n      not(0x1f)\n      0x1f\n      dup3\n      add\n      and\n      dup3\n      add\n      dup1\n      0x40\n      mstore\n      pop\n      dup2\n      add\n      swap1\n      tag_127\n      swap2\n      swap1\n      tag_128\n      jump\t// in\n    tag_127:\n        /* \"contracts/DecentraWill.sol\":6003:6123  require(... */\n      tag_75\n      jumpi\n      mload(0x40)\n      shl(0xe5, 0x461bcd)\n      dup2\n      mstore\n        /* \"#utility.yul\":5125:5127   */\n      0x20\n        /* \"contracts/DecentraWill.sol\":6003:6123  require(... */\n      0x04\n      dup3\n      add\n        /* \"#utility.yul\":5107:5128   */\n      mstore\n        /* \"#utility.yul\":5164:5166   */\n      0x0f\n        /* \"#utility.yul\":5144:5162   */\n      0x24\n      dup3\n      add\n        /* \"#utility.yul\":5137:5167   */\n      mstore\n      shl(0x8a, 0x151c985b9cd9995c8819985a5b1959)\n        /* \"#utility.yul\":5183:5201   */\n      0x44\n      dup3\n      add\n        /* \"#utility.yul\":5176:5221   */\n      mstore\n        /* \"#utility.yul\":5238:5256   */\n      0x64\n      add\n        /* \"contracts/DecentraWill.sol\":6003:6123  require(... */\n      tag_79\n        /* \"#utility.yul\":4923:5262   */\n      jump\n        /* \"contracts/DecentraWill.sol\":4305:4735  function adjustAllocation(... */\n    tag_56:\n        /* \"contracts/DecentraWill.sol\":4437:4443  amount */\n      dup1\n        /* \"contracts/DecentraWill.sol\":4447:4448  0 */\n      0x00\n        /* \"contracts/DecentraWill.sol\":4437:4448  amount == 0 */\n      sub\n        /* \"contracts/DecentraWill.sol\":4433:4728  if (amount == 0) {... */\n      tag_133\n      jumpi\n        /* \"contracts/DecentraWill.sol\":4489:4499  msg.sender */\n      caller\n        /* \"contracts/DecentraWill.sol\":4472:4500  tokenAllocations[msg.sender] */\n      0x00\n      swap1\n      dup2\n      mstore\n        /* \"contracts/DecentraWill.sol\":4472:4488  tokenAllocations */\n      0x01\n        /* \"contracts/DecentraWill.sol\":4472:4500  tokenAllocations[msg.sender] */\n      0x20\n      swap1\n      dup2\n      mstore\n      0x40\n      dup1\n      dup4\n      keccak256\n      sub(shl(0xa0, 0x01), 0x01)\n        /* \"contracts/DecentraWill.sol\":4472:4507  tokenAllocations[msg.sender][token] */\n      dup8\n      dup2\n      and\n      dup6\n      mstore\n      swap1\n      dup4\n      mstore\n      dup2\n      dup5\n      keccak256\n        /* \"contracts/DecentraWill.sol\":4472:4518  tokenAllocations[msg.sender][token][recipient] */\n      swap1\n      dup7\n      and\n      dup5\n      mstore\n      swap1\n      swap2\n      mstore\n      dup2\n      keccak256\n        /* \"contracts/DecentraWill.sol\":4465:4518  delete tokenAllocations[msg.sender][token][recipient] */\n      sstore\n        /* \"contracts/DecentraWill.sol\":2394:2690  function setAllocation(... */\n      pop\n      pop\n      pop\n      jump\t// out\n        /* \"contracts/DecentraWill.sol\":4433:4728  if (amount == 0) {... */\n    tag_133:\n        /* \"contracts/DecentraWill.sol\":4678:4688  msg.sender */\n      caller\n        /* \"contracts/DecentraWill.sol\":4661:4689  tokenAllocations[msg.sender] */\n      0x00\n      swap1\n      dup2\n      mstore\n        /* \"contracts/DecentraWill.sol\":4661:4677  tokenAllocations */\n      0x01\n        /* \"contracts/DecentraWill.sol\":4661:4689  tokenAllocations[msg.sender] */\n      0x20\n      swap1\n      dup2\n      mstore\n      0x40\n      dup1\n      dup4\n      keccak256\n      sub(shl(0xa0, 0x01), 0x01)\n        /* \"contracts/DecentraWill.sol\":4661:4696  tokenAllocations[msg.sender][token] */\n      swap7\n      dup8\n      and\n      dup5\n      mstore\n      dup3\n      mstore\n      dup1\n      dup4\n      keccak256\n        /* \"contracts/DecentraWill.sol\":4661:4707  tokenAllocations[msg.sender][token][recipient] */\n      swap5\n      swap1\n      swap6\n      and\n      dup3\n      mstore\n      swap3\n      swap1\n      swap3\n      mstore\n      swap2\n      swap1\n      keccak256\n        /* \"contracts/DecentraWill.sol\":4661:4716  tokenAllocations[msg.sender][token][recipient] = amount */\n      sstore\n        /* \"contracts/DecentraWill.sol\":4305:4735  function adjustAllocation(... */\n      jump\t// out\n        /* \"contracts/DecentraWill.sol\":910:1097  function _addTokenForUser(address user, address token) private {... */\n    tag_74:\n        /* \"contracts/DecentraWill.sol\":989:1024  isTokenAllocatedByUser(user, token) */\n      tag_136\n        /* \"contracts/DecentraWill.sol\":1012:1016  user */\n      dup3\n        /* \"contracts/DecentraWill.sol\":1018:1023  token */\n      dup3\n        /* \"contracts/DecentraWill.sol\":989:1011  isTokenAllocatedByUser */\n      tag_27\n        /* \"contracts/DecentraWill.sol\":989:1024  isTokenAllocatedByUser(user, token) */\n      jump\t// in\n    tag_136:\n        /* \"contracts/DecentraWill.sol\":984:1090  if (!isTokenAllocatedByUser(user, token)) {... */\n      tag_137\n      jumpi\n      sub(shl(0xa0, 0x01), 0x01)\n        /* \"contracts/DecentraWill.sol\":1041:1066  userAllocatedTokens[user] */\n      dup3\n      dup2\n      and\n      0x00\n      swap1\n      dup2\n      mstore\n        /* \"contracts/DecentraWill.sol\":1041:1060  userAllocatedTokens */\n      0x02\n        /* \"contracts/DecentraWill.sol\":1041:1066  userAllocatedTokens[user] */\n      0x20\n      swap1\n      dup2\n      mstore\n      0x40\n      dup3\n      keccak256\n        /* \"contracts/DecentraWill.sol\":1041:1078  userAllocatedTokens[user].push(token) */\n      dup1\n      sload\n      0x01\n      dup2\n      add\n      dup3\n      sstore\n      swap1\n      dup4\n      mstore\n      swap2\n      keccak256\n      add\n      dup1\n      sload\n      not(sub(shl(0xa0, 0x01), 0x01))\n      and\n      swap2\n      dup4\n      and\n      swap2\n      swap1\n      swap2\n      or\n      swap1\n      sstore\n        /* \"contracts/DecentraWill.sol\":984:1090  if (!isTokenAllocatedByUser(user, token)) {... */\n    tag_137:\n        /* \"contracts/DecentraWill.sol\":910:1097  function _addTokenForUser(address user, address token) private {... */\n      pop\n      pop\n      jump\t// out\n        /* \"contracts/DecentraWill.sol\":1187:1446  function _addRecipientForToken(... */\n    tag_76:\n        /* \"contracts/DecentraWill.sol\":1324:1366  isRecipientOfToken(user, token, recipient) */\n      tag_140\n        /* \"contracts/DecentraWill.sol\":1343:1347  user */\n      dup4\n        /* \"contracts/DecentraWill.sol\":1349:1354  token */\n      dup4\n        /* \"contracts/DecentraWill.sol\":1356:1365  recipient */\n      dup4\n        /* \"contracts/DecentraWill.sol\":1324:1342  isRecipientOfToken */\n      tag_49\n        /* \"contracts/DecentraWill.sol\":1324:1366  isRecipientOfToken(user, token, recipient) */\n      jump\t// in\n    tag_140:\n        /* \"contracts/DecentraWill.sol\":1319:1439  if (!isRecipientOfToken(user, token, recipient)) {... */\n      tag_75\n      jumpi\n      sub(shl(0xa0, 0x01), 0x01)\n        /* \"contracts/DecentraWill.sol\":1383:1404  tokenRecipients[user] */\n      swap3\n      dup4\n      and\n      0x00\n      swap1\n      dup2\n      mstore\n        /* \"contracts/DecentraWill.sol\":1383:1398  tokenRecipients */\n      0x03\n        /* \"contracts/DecentraWill.sol\":1383:1404  tokenRecipients[user] */\n      0x20\n      swap1\n      dup2\n      mstore\n      0x40\n      dup1\n      dup4\n      keccak256\n        /* \"contracts/DecentraWill.sol\":1383:1411  tokenRecipients[user][token] */\n      swap5\n      dup7\n      and\n      dup4\n      mstore\n      swap4\n      dup2\n      mstore\n      swap3\n      dup2\n      keccak256\n        /* \"contracts/DecentraWill.sol\":1383:1427  tokenRecipients[user][token].push(recipient) */\n      dup1\n      sload\n      0x01\n      dup2\n      add\n      dup3\n      sstore\n      swap1\n      dup3\n      mstore\n      swap3\n      swap1\n      keccak256\n      swap1\n      swap2\n      add\n      dup1\n      sload\n      not(sub(shl(0xa0, 0x01), 0x01))\n      and\n      swap2\n      swap1\n      swap3\n      and\n      or\n      swap1\n      sstore\n        /* \"contracts/DecentraWill.sol\":1187:1446  function _addRecipientForToken(... */\n      jump\t// out\n        /* \"#utility.yul\":14:187   */\n    tag_143:\n        /* \"#utility.yul\":82:102   */\n      dup1\n      calldataload\n      sub(shl(0xa0, 0x01), 0x01)\n        /* \"#utility.yul\":131:162   */\n      dup2\n      and\n        /* \"#utility.yul\":121:163   */\n      dup2\n      eq\n        /* \"#utility.yul\":111:181   */\n      tag_147\n      jumpi\n        /* \"#utility.yul\":177:178   */\n      0x00\n        /* \"#utility.yul\":174:175   */\n      dup1\n        /* \"#utility.yul\":167:179   */\n      revert\n        /* \"#utility.yul\":111:181   */\n    tag_147:\n        /* \"#utility.yul\":14:187   */\n      swap2\n      swap1\n      pop\n      jump\t// out\n        /* \"#utility.yul\":192:452   */\n    tag_16:\n        /* \"#utility.yul\":260:266   */\n      0x00\n        /* \"#utility.yul\":268:274   */\n      dup1\n        /* \"#utility.yul\":321:323   */\n      0x40\n        /* \"#utility.yul\":309:318   */\n      dup4\n        /* \"#utility.yul\":300:307   */\n      dup6\n        /* \"#utility.yul\":296:319   */\n      sub\n        /* \"#utility.yul\":292:324   */\n      slt\n        /* \"#utility.yul\":289:341   */\n      iszero\n      tag_149\n      jumpi\n        /* \"#utility.yul\":337:338   */\n      0x00\n        /* \"#utility.yul\":334:335   */\n      dup1\n        /* \"#utility.yul\":327:339   */\n      revert\n        /* \"#utility.yul\":289:341   */\n    tag_149:\n        /* \"#utility.yul\":360:389   */\n      tag_150\n        /* \"#utility.yul\":379:388   */\n      dup4\n        /* \"#utility.yul\":360:389   */\n      tag_143\n      jump\t// in\n    tag_150:\n        /* \"#utility.yul\":350:389   */\n      swap2\n      pop\n        /* \"#utility.yul\":408:446   */\n      tag_151\n        /* \"#utility.yul\":442:444   */\n      0x20\n        /* \"#utility.yul\":431:440   */\n      dup5\n        /* \"#utility.yul\":427:445   */\n      add\n        /* \"#utility.yul\":408:446   */\n      tag_143\n      jump\t// in\n    tag_151:\n        /* \"#utility.yul\":398:446   */\n      swap1\n      pop\n        /* \"#utility.yul\":192:452   */\n      swap3\n      pop\n      swap3\n      swap1\n      pop\n      jump\t// out\n        /* \"#utility.yul\":457:1115   */\n    tag_19:\n        /* \"#utility.yul\":628:630   */\n      0x20\n        /* \"#utility.yul\":680:701   */\n      dup1\n      dup3\n      mstore\n        /* \"#utility.yul\":750:763   */\n      dup3\n      mload\n        /* \"#utility.yul\":653:671   */\n      dup3\n      dup3\n      add\n        /* \"#utility.yul\":772:794   */\n      dup2\n      swap1\n      mstore\n        /* \"#utility.yul\":599:603   */\n      0x00\n      swap2\n        /* \"#utility.yul\":628:630   */\n      swap1\n        /* \"#utility.yul\":851:866   */\n      dup5\n      dup3\n      add\n      swap1\n        /* \"#utility.yul\":825:827   */\n      0x40\n        /* \"#utility.yul\":810:828   */\n      dup6\n      add\n      swap1\n        /* \"#utility.yul\":599:603   */\n      dup5\n        /* \"#utility.yul\":894:1089   */\n    tag_153:\n        /* \"#utility.yul\":908:914   */\n      dup2\n        /* \"#utility.yul\":905:906   */\n      dup2\n        /* \"#utility.yul\":902:915   */\n      lt\n        /* \"#utility.yul\":894:1089   */\n      iszero\n      tag_155\n      jumpi\n        /* \"#utility.yul\":973:986   */\n      dup4\n      mload\n      sub(shl(0xa0, 0x01), 0x01)\n        /* \"#utility.yul\":969:1008   */\n      and\n        /* \"#utility.yul\":957:1009   */\n      dup4\n      mstore\n        /* \"#utility.yul\":1064:1079   */\n      swap3\n      dup5\n      add\n      swap3\n        /* \"#utility.yul\":1029:1041   */\n      swap2\n      dup5\n      add\n      swap2\n        /* \"#utility.yul\":1005:1006   */\n      0x01\n        /* \"#utility.yul\":923:932   */\n      add\n        /* \"#utility.yul\":894:1089   */\n      jump(tag_153)\n    tag_155:\n      pop\n        /* \"#utility.yul\":1106:1109   */\n      swap1\n      swap7\n        /* \"#utility.yul\":457:1115   */\n      swap6\n      pop\n      pop\n      pop\n      pop\n      pop\n      pop\n      jump\t// out\n        /* \"#utility.yul\":1120:1306   */\n    tag_22:\n        /* \"#utility.yul\":1179:1185   */\n      0x00\n        /* \"#utility.yul\":1232:1234   */\n      0x20\n        /* \"#utility.yul\":1220:1229   */\n      dup3\n        /* \"#utility.yul\":1211:1218   */\n      dup5\n        /* \"#utility.yul\":1207:1230   */\n      sub\n        /* \"#utility.yul\":1203:1235   */\n      slt\n        /* \"#utility.yul\":1200:1252   */\n      iszero\n      tag_157\n      jumpi\n        /* \"#utility.yul\":1248:1249   */\n      0x00\n        /* \"#utility.yul\":1245:1246   */\n      dup1\n        /* \"#utility.yul\":1238:1250   */\n      revert\n        /* \"#utility.yul\":1200:1252   */\n    tag_157:\n        /* \"#utility.yul\":1271:1300   */\n      tag_110\n        /* \"#utility.yul\":1290:1299   */\n      dup3\n        /* \"#utility.yul\":1271:1300   */\n      tag_143\n      jump\t// in\n        /* \"#utility.yul\":1503:1837   */\n    tag_32:\n        /* \"#utility.yul\":1580:1586   */\n      0x00\n        /* \"#utility.yul\":1588:1594   */\n      dup1\n        /* \"#utility.yul\":1596:1602   */\n      0x00\n        /* \"#utility.yul\":1649:1651   */\n      0x60\n        /* \"#utility.yul\":1637:1646   */\n      dup5\n        /* \"#utility.yul\":1628:1635   */\n      dup7\n        /* \"#utility.yul\":1624:1647   */\n      sub\n        /* \"#utility.yul\":1620:1652   */\n      slt\n        /* \"#utility.yul\":1617:1669   */\n      iszero\n      tag_161\n      jumpi\n        /* \"#utility.yul\":1665:1666   */\n      0x00\n        /* \"#utility.yul\":1662:1663   */\n      dup1\n        /* \"#utility.yul\":1655:1667   */\n      revert\n        /* \"#utility.yul\":1617:1669   */\n    tag_161:\n        /* \"#utility.yul\":1688:1717   */\n      tag_162\n        /* \"#utility.yul\":1707:1716   */\n      dup5\n        /* \"#utility.yul\":1688:1717   */\n      tag_143\n      jump\t// in\n    tag_162:\n        /* \"#utility.yul\":1678:1717   */\n      swap3\n      pop\n        /* \"#utility.yul\":1736:1774   */\n      tag_163\n        /* \"#utility.yul\":1770:1772   */\n      0x20\n        /* \"#utility.yul\":1759:1768   */\n      dup6\n        /* \"#utility.yul\":1755:1773   */\n      add\n        /* \"#utility.yul\":1736:1774   */\n      tag_143\n      jump\t// in\n    tag_163:\n        /* \"#utility.yul\":1726:1774   */\n      swap2\n      pop\n        /* \"#utility.yul\":1793:1831   */\n      tag_164\n        /* \"#utility.yul\":1827:1829   */\n      0x40\n        /* \"#utility.yul\":1816:1825   */\n      dup6\n        /* \"#utility.yul\":1812:1830   */\n      add\n        /* \"#utility.yul\":1793:1831   */\n      tag_143\n      jump\t// in\n    tag_164:\n        /* \"#utility.yul\":1783:1831   */\n      swap1\n      pop\n        /* \"#utility.yul\":1503:1837   */\n      swap3\n      pop\n      swap3\n      pop\n      swap3\n      jump\t// out\n        /* \"#utility.yul\":2024:2352   */\n    tag_38:\n        /* \"#utility.yul\":2101:2107   */\n      0x00\n        /* \"#utility.yul\":2109:2115   */\n      dup1\n        /* \"#utility.yul\":2117:2123   */\n      0x00\n        /* \"#utility.yul\":2170:2172   */\n      0x60\n        /* \"#utility.yul\":2158:2167   */\n      dup5\n        /* \"#utility.yul\":2149:2156   */\n      dup7\n        /* \"#utility.yul\":2145:2168   */\n      sub\n        /* \"#utility.yul\":2141:2173   */\n      slt\n        /* \"#utility.yul\":2138:2190   */\n      iszero\n      tag_167\n      jumpi\n        /* \"#utility.yul\":2186:2187   */\n      0x00\n        /* \"#utility.yul\":2183:2184   */\n      dup1\n        /* \"#utility.yul\":2176:2188   */\n      revert\n        /* \"#utility.yul\":2138:2190   */\n    tag_167:\n        /* \"#utility.yul\":2209:2238   */\n      tag_168\n        /* \"#utility.yul\":2228:2237   */\n      dup5\n        /* \"#utility.yul\":2209:2238   */\n      tag_143\n      jump\t// in\n    tag_168:\n        /* \"#utility.yul\":2199:2238   */\n      swap3\n      pop\n        /* \"#utility.yul\":2257:2295   */\n      tag_169\n        /* \"#utility.yul\":2291:2293   */\n      0x20\n        /* \"#utility.yul\":2280:2289   */\n      dup6\n        /* \"#utility.yul\":2276:2294   */\n      add\n        /* \"#utility.yul\":2257:2295   */\n      tag_143\n      jump\t// in\n    tag_169:\n        /* \"#utility.yul\":2247:2295   */\n      swap2\n      pop\n        /* \"#utility.yul\":2342:2344   */\n      0x40\n        /* \"#utility.yul\":2331:2340   */\n      dup5\n        /* \"#utility.yul\":2327:2345   */\n      add\n        /* \"#utility.yul\":2314:2346   */\n      calldataload\n        /* \"#utility.yul\":2304:2346   */\n      swap1\n      pop\n        /* \"#utility.yul\":2024:2352   */\n      swap3\n      pop\n      swap3\n      pop\n      swap3\n      jump\t// out\n        /* \"#utility.yul\":2565:2692   */\n    tag_69:\n        /* \"#utility.yul\":2626:2636   */\n      0x4e487b71\n        /* \"#utility.yul\":2621:2624   */\n      0xe0\n        /* \"#utility.yul\":2617:2637   */\n      shl\n        /* \"#utility.yul\":2614:2615   */\n      0x00\n        /* \"#utility.yul\":2607:2638   */\n      mstore\n        /* \"#utility.yul\":2657:2661   */\n      0x32\n        /* \"#utility.yul\":2654:2655   */\n      0x04\n        /* \"#utility.yul\":2647:2662   */\n      mstore\n        /* \"#utility.yul\":2681:2685   */\n      0x24\n        /* \"#utility.yul\":2678:2679   */\n      0x00\n        /* \"#utility.yul\":2671:2686   */\n      revert\n        /* \"#utility.yul\":3382:3509   */\n    tag_144:\n        /* \"#utility.yul\":3443:3453   */\n      0x4e487b71\n        /* \"#utility.yul\":3438:3441   */\n      0xe0\n        /* \"#utility.yul\":3434:3454   */\n      shl\n        /* \"#utility.yul\":3431:3432   */\n      0x00\n        /* \"#utility.yul\":3424:3455   */\n      mstore\n        /* \"#utility.yul\":3474:3478   */\n      0x11\n        /* \"#utility.yul\":3471:3472   */\n      0x04\n        /* \"#utility.yul\":3464:3479   */\n      mstore\n        /* \"#utility.yul\":3498:3502   */\n      0x24\n        /* \"#utility.yul\":3495:3496   */\n      0x00\n        /* \"#utility.yul\":3488:3503   */\n      revert\n        /* \"#utility.yul\":3514:3642   */\n    tag_97:\n        /* \"#utility.yul\":3581:3590   */\n      dup2\n      dup2\n      sub\n        /* \"#utility.yul\":3602:3613   */\n      dup2\n      dup2\n      gt\n        /* \"#utility.yul\":3599:3636   */\n      iszero\n      tag_57\n      jumpi\n        /* \"#utility.yul\":3616:3634   */\n      tag_57\n      tag_144\n      jump\t// in\n        /* \"#utility.yul\":3647:3772   */\n    tag_99:\n        /* \"#utility.yul\":3712:3721   */\n      dup1\n      dup3\n      add\n        /* \"#utility.yul\":3733:3743   */\n      dup1\n      dup3\n      gt\n        /* \"#utility.yul\":3730:3766   */\n      iszero\n      tag_57\n      jumpi\n        /* \"#utility.yul\":3746:3764   */\n      tag_57\n      tag_144\n      jump\t// in\n        /* \"#utility.yul\":3777:3904   */\n    tag_108:\n        /* \"#utility.yul\":3838:3848   */\n      0x4e487b71\n        /* \"#utility.yul\":3833:3836   */\n      0xe0\n        /* \"#utility.yul\":3829:3849   */\n      shl\n        /* \"#utility.yul\":3826:3827   */\n      0x00\n        /* \"#utility.yul\":3819:3850   */\n      mstore\n        /* \"#utility.yul\":3869:3873   */\n      0x31\n        /* \"#utility.yul\":3866:3867   */\n      0x04\n        /* \"#utility.yul\":3859:3874   */\n      mstore\n        /* \"#utility.yul\":3893:3897   */\n      0x24\n        /* \"#utility.yul\":3890:3891   */\n      0x00\n        /* \"#utility.yul\":3883:3898   */\n      revert\n        /* \"#utility.yul\":4641:4918   */\n    tag_128:\n        /* \"#utility.yul\":4708:4714   */\n      0x00\n        /* \"#utility.yul\":4761:4763   */\n      0x20\n        /* \"#utility.yul\":4749:4758   */\n      dup3\n        /* \"#utility.yul\":4740:4747   */\n      dup5\n        /* \"#utility.yul\":4736:4759   */\n      sub\n        /* \"#utility.yul\":4732:4764   */\n      slt\n        /* \"#utility.yul\":4729:4781   */\n      iszero\n      tag_185\n      jumpi\n        /* \"#utility.yul\":4777:4778   */\n      0x00\n        /* \"#utility.yul\":4774:4775   */\n      dup1\n        /* \"#utility.yul\":4767:4779   */\n      revert\n        /* \"#utility.yul\":4729:4781   */\n    tag_185:\n        /* \"#utility.yul\":4809:4818   */\n      dup2\n        /* \"#utility.yul\":4803:4819   */\n      mload\n        /* \"#utility.yul\":4862:4867   */\n      dup1\n        /* \"#utility.yul\":4855:4868   */\n      iszero\n        /* \"#utility.yul\":4848:4869   */\n      iszero\n        /* \"#utility.yul\":4841:4846   */\n      dup2\n        /* \"#utility.yul\":4838:4870   */\n      eq\n        /* \"#utility.yul\":4828:4888   */\n      tag_110\n      jumpi\n        /* \"#utility.yul\":4884:4885   */\n      0x00\n        /* \"#utility.yul\":4881:4882   */\n      dup1\n        /* \"#utility.yul\":4874:4886   */\n      revert\n\n    auxdata: 0xa264697066735822122090e8c62228c4032278f8b6e86329f247d204621844959f73416175b398e443a364736f6c63430008190033\n}\n",
				"bytecode": {
					"linkReferences": {},
					"object": "6080604052348015600e575f80fd5b505f80546001600160a01b03191633179055610b338061002d5f395ff3fe608060405234801561000f575f80fd5b506004361061009b575f3560e01c80638da5cb5b116100635780638da5cb5b14610151578063a2bdd08c1461017b578063bd042d2e1461018e578063c3698da4146101a1578063e94640c3146101b4575f80fd5b80630ac0be3f1461009f5780630db36379146100c85780630e6cc31f146100db57806317a436ed146100fe5780635f15b1d91461013c575b5f80fd5b6100b26100ad36600461096d565b6101c7565b6040516100bf919061099e565b60405180910390f35b6100b26100d63660046109ea565b610248565b6100ee6100e936600461096d565b6102bb565b60405190151581526020016100bf565b61012e61010c366004610a03565b600160209081525f938452604080852082529284528284209052825290205481565b6040519081526020016100bf565b61014f61014a366004610a43565b61033f565b005b5f54610163906001600160a01b031681565b6040516001600160a01b0390911681526020016100bf565b61014f610189366004610a03565b61038a565b6100ee61019c366004610a03565b610625565b61014f6101af366004610a43565b6106c6565b61014f6101c2366004610a43565b610839565b6001600160a01b038083165f90815260036020908152604080832093851683529281529082902080548351818402810184019094528084526060939283018282801561023a57602002820191905f5260205f20905b81546001600160a01b0316815260019091019060200180831161021c575b505050505090505b92915050565b6001600160a01b0381165f908152600260209081526040918290208054835181840281018401909452808452606093928301828280156102af57602002820191905f5260205f20905b81546001600160a01b03168152600190910190602001808311610291575b50505050509050919050565b5f805b6001600160a01b0384165f90815260026020526040902054811015610336576001600160a01b038481165f9081526002602052604090208054918516918390811061030b5761030b610a7c565b5f918252602090912001546001600160a01b03160361032e576001915050610242565b6001016102be565b505f9392505050565b335f8181526001602090815260408083206001600160a01b0388811685529083528184209087168452909152902082905561037a90846108a7565b6103853384846108f7565b505050565b5f546001600160a01b031633146103d45760405162461bcd60e51b81526020600482015260096024820152682737ba1037bbb732b960b91b60448201526064015b60405180910390fd5b6103df838383610625565b6104215760405162461bcd60e51b8152602060048201526013602482015272149958da5c1a595b9d081b9bdd08199bdd5b99606a1b60448201526064016103cb565b5f5b6001600160a01b038085165f908152600360209081526040808320938716835292905220548110156104ab576001600160a01b038481165f908152600360209081526040808320878516845290915290208054918416918390811061048a5761048a610a7c565b5f918252602090912001546001600160a01b0316146104ab57600101610423565b805b6001600160a01b038086165f908152600360209081526040808320938816835292905220546104de90600190610aa4565b81101561059b576001600160a01b038086165f908152600360209081526040808320938816835292905220610514826001610ab7565b8154811061052457610524610a7c565b5f9182526020808320909101546001600160a01b03888116845260038352604080852089831686529093529190922080549190921691908390811061056b5761056b610a7c565b5f91825260209091200180546001600160a01b0319166001600160a01b03929092169190911790556001016104ad565b506001600160a01b038085165f9081526003602090815260408083209387168352929052208054806105cf576105cf610aca565b5f828152602080822083015f1990810180546001600160a01b03191690559092019092556001600160a01b0395861682526001815260408083209587168352948152848220939095168152919093529081205550565b5f805b6001600160a01b038086165f908152600360209081526040808320938816835292905220548110156106ba576001600160a01b038581165f908152600360209081526040808320888516845290915290208054918516918390811061068f5761068f610a7c565b5f918252602090912001546001600160a01b0316036106b25760019150506106bf565b600101610628565b505f90505b9392505050565b6001600160a01b038084165f9081526001602090815260408083209386168352928152828220338352905220548111156107425760405162461bcd60e51b815260206004820152601760248201527f496e73756666696369656e7420616c6c6f636174696f6e00000000000000000060448201526064016103cb565b6001600160a01b038084165f908152600160209081526040808320938616835292815282822033835290529081208054839290610780908490610aa4565b90915550506040516323b872dd60e01b81526001600160a01b038481166004830152336024830152604482018390528316906323b872dd906064016020604051808303815f875af11580156107d7573d5f803e3d5ffd5b505050506040513d601f19601f820116820180604052508101906107fb9190610ade565b6103855760405162461bcd60e51b815260206004820152600f60248201526e151c985b9cd9995c8819985a5b1959608a1b60448201526064016103cb565b805f0361087457335f9081526001602090815260408083206001600160a01b0387811685529083528184209086168452909152812055505050565b335f9081526001602090815260408083206001600160a01b03968716845282528083209490951682529290925291902055565b6108b182826102bb565b6108f3576001600160a01b038281165f9081526002602090815260408220805460018101825590835291200180546001600160a01b0319169183169190911790555b5050565b610902838383610625565b610385576001600160a01b039283165f9081526003602090815260408083209486168352938152928120805460018101825590825292902090910180546001600160a01b03191691909216179055565b80356001600160a01b0381168114610968575f80fd5b919050565b5f806040838503121561097e575f80fd5b61098783610952565b915061099560208401610952565b90509250929050565b602080825282518282018190525f9190848201906040850190845b818110156109de5783516001600160a01b0316835292840192918401916001016109b9565b50909695505050505050565b5f602082840312156109fa575f80fd5b6106bf82610952565b5f805f60608486031215610a15575f80fd5b610a1e84610952565b9250610a2c60208501610952565b9150610a3a60408501610952565b90509250925092565b5f805f60608486031215610a55575f80fd5b610a5e84610952565b9250610a6c60208501610952565b9150604084013590509250925092565b634e487b7160e01b5f52603260045260245ffd5b634e487b7160e01b5f52601160045260245ffd5b8181038181111561024257610242610a90565b8082018082111561024257610242610a90565b634e487b7160e01b5f52603160045260245ffd5b5f60208284031215610aee575f80fd5b815180151581146106bf575f80fdfea264697066735822122090e8c62228c4032278f8b6e86329f247d204621844959f73416175b398e443a364736f6c63430008190033",
					"opcodes": "PUSH1 0x80 PUSH1 0x40 MSTORE CALLVALUE DUP1 ISZERO PUSH1 0xE JUMPI PUSH0 DUP1 REVERT JUMPDEST POP PUSH0 DUP1 SLOAD PUSH1 0x1 PUSH1 0x1 PUSH1 0xA0 SHL SUB NOT AND CALLER OR SWAP1 SSTORE PUSH2 0xB33 DUP1 PUSH2 0x2D PUSH0 CODECOPY PUSH0 RETURN INVALID PUSH1 0x80 PUSH1 0x40 MSTORE CALLVALUE DUP1 ISZERO PUSH2 0xF JUMPI PUSH0 DUP1 REVERT JUMPDEST POP PUSH1 0x4 CALLDATASIZE LT PUSH2 0x9B JUMPI PUSH0 CALLDATALOAD PUSH1 0xE0 SHR DUP1 PUSH4 0x8DA5CB5B GT PUSH2 0x63 JUMPI DUP1 PUSH4 0x8DA5CB5B EQ PUSH2 0x151 JUMPI DUP1 PUSH4 0xA2BDD08C EQ PUSH2 0x17B JUMPI DUP1 PUSH4 0xBD042D2E EQ PUSH2 0x18E JUMPI DUP1 PUSH4 0xC3698DA4 EQ PUSH2 0x1A1 JUMPI DUP1 PUSH4 0xE94640C3 EQ PUSH2 0x1B4 JUMPI PUSH0 DUP1 REVERT JUMPDEST DUP1 PUSH4 0xAC0BE3F EQ PUSH2 0x9F JUMPI DUP1 PUSH4 0xDB36379 EQ PUSH2 0xC8 JUMPI DUP1 PUSH4 0xE6CC31F EQ PUSH2 0xDB JUMPI DUP1 PUSH4 0x17A436ED EQ PUSH2 0xFE JUMPI DUP1 PUSH4 0x5F15B1D9 EQ PUSH2 0x13C JUMPI JUMPDEST PUSH0 DUP1 REVERT JUMPDEST PUSH2 0xB2 PUSH2 0xAD CALLDATASIZE PUSH1 0x4 PUSH2 0x96D JUMP JUMPDEST PUSH2 0x1C7 JUMP JUMPDEST PUSH1 0x40 MLOAD PUSH2 0xBF SWAP2 SWAP1 PUSH2 0x99E JUMP JUMPDEST PUSH1 0x40 MLOAD DUP1 SWAP2 SUB SWAP1 RETURN JUMPDEST PUSH2 0xB2 PUSH2 0xD6 CALLDATASIZE PUSH1 0x4 PUSH2 0x9EA JUMP JUMPDEST PUSH2 0x248 JUMP JUMPDEST PUSH2 0xEE PUSH2 0xE9 CALLDATASIZE PUSH1 0x4 PUSH2 0x96D JUMP JUMPDEST PUSH2 0x2BB JUMP JUMPDEST PUSH1 0x40 MLOAD SWAP1 ISZERO ISZERO DUP2 MSTORE PUSH1 0x20 ADD PUSH2 0xBF JUMP JUMPDEST PUSH2 0x12E PUSH2 0x10C CALLDATASIZE PUSH1 0x4 PUSH2 0xA03 JUMP JUMPDEST PUSH1 0x1 PUSH1 0x20 SWAP1 DUP2 MSTORE PUSH0 SWAP4 DUP5 MSTORE PUSH1 0x40 DUP1 DUP6 KECCAK256 DUP3 MSTORE SWAP3 DUP5 MSTORE DUP3 DUP5 KECCAK256 SWAP1 MSTORE DUP3 MSTORE SWAP1 KECCAK256 SLOAD DUP2 JUMP JUMPDEST PUSH1 0x40 MLOAD SWAP1 DUP2 MSTORE PUSH1 0x20 ADD PUSH2 0xBF JUMP JUMPDEST PUSH2 0x14F PUSH2 0x14A CALLDATASIZE PUSH1 0x4 PUSH2 0xA43 JUMP JUMPDEST PUSH2 0x33F JUMP JUMPDEST STOP JUMPDEST PUSH0 SLOAD PUSH2 0x163 SWAP1 PUSH1 0x1 PUSH1 0x1 PUSH1 0xA0 SHL SUB AND DUP2 JUMP JUMPDEST PUSH1 0x40 MLOAD PUSH1 0x1 PUSH1 0x1 PUSH1 0xA0 SHL SUB SWAP1 SWAP2 AND DUP2 MSTORE PUSH1 0x20 ADD PUSH2 0xBF JUMP JUMPDEST PUSH2 0x14F PUSH2 0x189 CALLDATASIZE PUSH1 0x4 PUSH2 0xA03 JUMP JUMPDEST PUSH2 0x38A JUMP JUMPDEST PUSH2 0xEE PUSH2 0x19C CALLDATASIZE PUSH1 0x4 PUSH2 0xA03 JUMP JUMPDEST PUSH2 0x625 JUMP JUMPDEST PUSH2 0x14F PUSH2 0x1AF CALLDATASIZE PUSH1 0x4 PUSH2 0xA43 JUMP JUMPDEST PUSH2 0x6C6 JUMP JUMPDEST PUSH2 0x14F PUSH2 0x1C2 CALLDATASIZE PUSH1 0x4 PUSH2 0xA43 JUMP JUMPDEST PUSH2 0x839 JUMP JUMPDEST PUSH1 0x1 PUSH1 0x1 PUSH1 0xA0 SHL SUB DUP1 DUP4 AND PUSH0 SWAP1 DUP2 MSTORE PUSH1 0x3 PUSH1 0x20 SWAP1 DUP2 MSTORE PUSH1 0x40 DUP1 DUP4 KECCAK256 SWAP4 DUP6 AND DUP4 MSTORE SWAP3 DUP2 MSTORE SWAP1 DUP3 SWAP1 KECCAK256 DUP1 SLOAD DUP4 MLOAD DUP2 DUP5 MUL DUP2 ADD DUP5 ADD SWAP1 SWAP5 MSTORE DUP1 DUP5 MSTORE PUSH1 0x60 SWAP4 SWAP3 DUP4 ADD DUP3 DUP3 DUP1 ISZERO PUSH2 0x23A JUMPI PUSH1 0x20 MUL DUP3 ADD SWAP2 SWAP1 PUSH0 MSTORE PUSH1 0x20 PUSH0 KECCAK256 SWAP1 JUMPDEST DUP2 SLOAD PUSH1 0x1 PUSH1 0x1 PUSH1 0xA0 SHL SUB AND DUP2 MSTORE PUSH1 0x1 SWAP1 SWAP2 ADD SWAP1 PUSH1 0x20 ADD DUP1 DUP4 GT PUSH2 0x21C JUMPI JUMPDEST POP POP POP POP POP SWAP1 POP JUMPDEST SWAP3 SWAP2 POP POP JUMP JUMPDEST PUSH1 0x1 PUSH1 0x1 PUSH1 0xA0 SHL SUB DUP2 AND PUSH0 SWAP1 DUP2 MSTORE PUSH1 0x2 PUSH1 0x20 SWAP1 DUP2 MSTORE PUSH1 0x40 SWAP2 DUP3 SWAP1 KECCAK256 DUP1 SLOAD DUP4 MLOAD DUP2 DUP5 MUL DUP2 ADD DUP5 ADD SWAP1 SWAP5 MSTORE DUP1 DUP5 MSTORE PUSH1 0x60 SWAP4 SWAP3 DUP4 ADD DUP3 DUP3 DUP1 ISZERO PUSH2 0x2AF JUMPI PUSH1 0x20 MUL DUP3 ADD SWAP2 SWAP1 PUSH0 MSTORE PUSH1 0x20 PUSH0 KECCAK256 SWAP1 JUMPDEST DUP2 SLOAD PUSH1 0x1 PUSH1 0x1 PUSH1 0xA0 SHL SUB AND DUP2 MSTORE PUSH1 0x1 SWAP1 SWAP2 ADD SWAP1 PUSH1 0x20 ADD DUP1 DUP4 GT PUSH2 0x291 JUMPI JUMPDEST POP POP POP POP POP SWAP1 POP SWAP2 SWAP1 POP JUMP JUMPDEST PUSH0 DUP1 JUMPDEST PUSH1 0x1 PUSH1 0x1 PUSH1 0xA0 SHL SUB DUP5 AND PUSH0 SWAP1 DUP2 MSTORE PUSH1 0x2 PUSH1 0x20 MSTORE PUSH1 0x40 SWAP1 KECCAK256 SLOAD DUP2 LT ISZERO PUSH2 0x336 JUMPI PUSH1 0x1 PUSH1 0x1 PUSH1 0xA0 SHL SUB DUP5 DUP2 AND PUSH0 SWAP1 DUP2 MSTORE PUSH1 0x2 PUSH1 0x20 MSTORE PUSH1 0x40 SWAP1 KECCAK256 DUP1 SLOAD SWAP2 DUP6 AND SWAP2 DUP4 SWAP1 DUP2 LT PUSH2 0x30B JUMPI PUSH2 0x30B PUSH2 0xA7C JUMP JUMPDEST PUSH0 SWAP2 DUP3 MSTORE PUSH1 0x20 SWAP1 SWAP2 KECCAK256 ADD SLOAD PUSH1 0x1 PUSH1 0x1 PUSH1 0xA0 SHL SUB AND SUB PUSH2 0x32E JUMPI PUSH1 0x1 SWAP2 POP POP PUSH2 0x242 JUMP JUMPDEST PUSH1 0x1 ADD PUSH2 0x2BE JUMP JUMPDEST POP PUSH0 SWAP4 SWAP3 POP POP POP JUMP JUMPDEST CALLER PUSH0 DUP2 DUP2 MSTORE PUSH1 0x1 PUSH1 0x20 SWAP1 DUP2 MSTORE PUSH1 0x40 DUP1 DUP4 KECCAK256 PUSH1 0x1 PUSH1 0x1 PUSH1 0xA0 SHL SUB DUP9 DUP2 AND DUP6 MSTORE SWAP1 DUP4 MSTORE DUP2 DUP5 KECCAK256 SWAP1 DUP8 AND DUP5 MSTORE SWAP1 SWAP2 MSTORE SWAP1 KECCAK256 DUP3 SWAP1 SSTORE PUSH2 0x37A SWAP1 DUP5 PUSH2 0x8A7 JUMP JUMPDEST PUSH2 0x385 CALLER DUP5 DUP5 PUSH2 0x8F7 JUMP JUMPDEST POP POP POP JUMP JUMPDEST PUSH0 SLOAD PUSH1 0x1 PUSH1 0x1 PUSH1 0xA0 SHL SUB AND CALLER EQ PUSH2 0x3D4 JUMPI PUSH1 0x40 MLOAD PUSH3 0x461BCD PUSH1 0xE5 SHL DUP2 MSTORE PUSH1 0x20 PUSH1 0x4 DUP3 ADD MSTORE PUSH1 0x9 PUSH1 0x24 DUP3 ADD MSTORE PUSH9 0x2737BA1037BBB732B9 PUSH1 0xB9 SHL PUSH1 0x44 DUP3 ADD MSTORE PUSH1 0x64 ADD JUMPDEST PUSH1 0x40 MLOAD DUP1 SWAP2 SUB SWAP1 REVERT JUMPDEST PUSH2 0x3DF DUP4 DUP4 DUP4 PUSH2 0x625 JUMP JUMPDEST PUSH2 0x421 JUMPI PUSH1 0x40 MLOAD PUSH3 0x461BCD PUSH1 0xE5 SHL DUP2 MSTORE PUSH1 0x20 PUSH1 0x4 DUP3 ADD MSTORE PUSH1 0x13 PUSH1 0x24 DUP3 ADD MSTORE PUSH19 0x149958DA5C1A595B9D081B9BDD08199BDD5B99 PUSH1 0x6A SHL PUSH1 0x44 DUP3 ADD MSTORE PUSH1 0x64 ADD PUSH2 0x3CB JUMP JUMPDEST PUSH0 JUMPDEST PUSH1 0x1 PUSH1 0x1 PUSH1 0xA0 SHL SUB DUP1 DUP6 AND PUSH0 SWAP1 DUP2 MSTORE PUSH1 0x3 PUSH1 0x20 SWAP1 DUP2 MSTORE PUSH1 0x40 DUP1 DUP4 KECCAK256 SWAP4 DUP8 AND DUP4 MSTORE SWAP3 SWAP1 MSTORE KECCAK256 SLOAD DUP2 LT ISZERO PUSH2 0x4AB JUMPI PUSH1 0x1 PUSH1 0x1 PUSH1 0xA0 SHL SUB DUP5 DUP2 AND PUSH0 SWAP1 DUP2 MSTORE PUSH1 0x3 PUSH1 0x20 SWAP1 DUP2 MSTORE PUSH1 0x40 DUP1 DUP4 KECCAK256 DUP8 DUP6 AND DUP5 MSTORE SWAP1 SWAP2 MSTORE SWAP1 KECCAK256 DUP1 SLOAD SWAP2 DUP5 AND SWAP2 DUP4 SWAP1 DUP2 LT PUSH2 0x48A JUMPI PUSH2 0x48A PUSH2 0xA7C JUMP JUMPDEST PUSH0 SWAP2 DUP3 MSTORE PUSH1 0x20 SWAP1 SWAP2 KECCAK256 ADD SLOAD PUSH1 0x1 PUSH1 0x1 PUSH1 0xA0 SHL SUB AND EQ PUSH2 0x4AB JUMPI PUSH1 0x1 ADD PUSH2 0x423 JUMP JUMPDEST DUP1 JUMPDEST PUSH1 0x1 PUSH1 0x1 PUSH1 0xA0 SHL SUB DUP1 DUP7 AND PUSH0 SWAP1 DUP2 MSTORE PUSH1 0x3 PUSH1 0x20 SWAP1 DUP2 MSTORE PUSH1 0x40 DUP1 DUP4 KECCAK256 SWAP4 DUP9 AND DUP4 MSTORE SWAP3 SWAP1 MSTORE KECCAK256 SLOAD PUSH2 0x4DE SWAP1 PUSH1 0x1 SWAP1 PUSH2 0xAA4 JUMP JUMPDEST DUP2 LT ISZERO PUSH2 0x59B JUMPI PUSH1 0x1 PUSH1 0x1 PUSH1 0xA0 SHL SUB DUP1 DUP7 AND PUSH0 SWAP1 DUP2 MSTORE PUSH1 0x3 PUSH1 0x20 SWAP1 DUP2 MSTORE PUSH1 0x40 DUP1 DUP4 KECCAK256 SWAP4 DUP9 AND DUP4 MSTORE SWAP3 SWAP1 MSTORE KECCAK256 PUSH2 0x514 DUP3 PUSH1 0x1 PUSH2 0xAB7 JUMP JUMPDEST DUP2 SLOAD DUP2 LT PUSH2 0x524 JUMPI PUSH2 0x524 PUSH2 0xA7C JUMP JUMPDEST PUSH0 SWAP2 DUP3 MSTORE PUSH1 0x20 DUP1 DUP4 KECCAK256 SWAP1 SWAP2 ADD SLOAD PUSH1 0x1 PUSH1 0x1 PUSH1 0xA0 SHL SUB DUP9 DUP2 AND DUP5 MSTORE PUSH1 0x3 DUP4 MSTORE PUSH1 0x40 DUP1 DUP6 KECCAK256 DUP10 DUP4 AND DUP7 MSTORE SWAP1 SWAP4 MSTORE SWAP2 SWAP1 SWAP3 KECCAK256 DUP1 SLOAD SWAP2 SWAP1 SWAP3 AND SWAP2 SWAP1 DUP4 SWAP1 DUP2 LT PUSH2 0x56B JUMPI PUSH2 0x56B PUSH2 0xA7C JUMP JUMPDEST PUSH0 SWAP2 DUP3 MSTORE PUSH1 0x20 SWAP1 SWAP2 KECCAK256 ADD DUP1 SLOAD PUSH1 0x1 PUSH1 0x1 PUSH1 0xA0 SHL SUB NOT AND PUSH1 0x1 PUSH1 0x1 PUSH1 0xA0 SHL SUB SWAP3 SWAP1 SWAP3 AND SWAP2 SWAP1 SWAP2 OR SWAP1 SSTORE PUSH1 0x1 ADD PUSH2 0x4AD JUMP JUMPDEST POP PUSH1 0x1 PUSH1 0x1 PUSH1 0xA0 SHL SUB DUP1 DUP6 AND PUSH0 SWAP1 DUP2 MSTORE PUSH1 0x3 PUSH1 0x20 SWAP1 DUP2 MSTORE PUSH1 0x40 DUP1 DUP4 KECCAK256 SWAP4 DUP8 AND DUP4 MSTORE SWAP3 SWAP1 MSTORE KECCAK256 DUP1 SLOAD DUP1 PUSH2 0x5CF JUMPI PUSH2 0x5CF PUSH2 0xACA JUMP JUMPDEST PUSH0 DUP3 DUP2 MSTORE PUSH1 0x20 DUP1 DUP3 KECCAK256 DUP4 ADD PUSH0 NOT SWAP1 DUP2 ADD DUP1 SLOAD PUSH1 0x1 PUSH1 0x1 PUSH1 0xA0 SHL SUB NOT AND SWAP1 SSTORE SWAP1 SWAP3 ADD SWAP1 SWAP3 SSTORE PUSH1 0x1 PUSH1 0x1 PUSH1 0xA0 SHL SUB SWAP6 DUP7 AND DUP3 MSTORE PUSH1 0x1 DUP2 MSTORE PUSH1 0x40 DUP1 DUP4 KECCAK256 SWAP6 DUP8 AND DUP4 MSTORE SWAP5 DUP2 MSTORE DUP5 DUP3 KECCAK256 SWAP4 SWAP1 SWAP6 AND DUP2 MSTORE SWAP2 SWAP1 SWAP4 MSTORE SWAP1 DUP2 KECCAK256 SSTORE POP JUMP JUMPDEST PUSH0 DUP1 JUMPDEST PUSH1 0x1 PUSH1 0x1 PUSH1 0xA0 SHL SUB DUP1 DUP7 AND PUSH0 SWAP1 DUP2 MSTORE PUSH1 0x3 PUSH1 0x20 SWAP1 DUP2 MSTORE PUSH1 0x40 DUP1 DUP4 KECCAK256 SWAP4 DUP9 AND DUP4 MSTORE SWAP3 SWAP1 MSTORE KECCAK256 SLOAD DUP2 LT ISZERO PUSH2 0x6BA JUMPI PUSH1 0x1 PUSH1 0x1 PUSH1 0xA0 SHL SUB DUP6 DUP2 AND PUSH0 SWAP1 DUP2 MSTORE PUSH1 0x3 PUSH1 0x20 SWAP1 DUP2 MSTORE PUSH1 0x40 DUP1 DUP4 KECCAK256 DUP9 DUP6 AND DUP5 MSTORE SWAP1 SWAP2 MSTORE SWAP1 KECCAK256 DUP1 SLOAD SWAP2 DUP6 AND SWAP2 DUP4 SWAP1 DUP2 LT PUSH2 0x68F JUMPI PUSH2 0x68F PUSH2 0xA7C JUMP JUMPDEST PUSH0 SWAP2 DUP3 MSTORE PUSH1 0x20 SWAP1 SWAP2 KECCAK256 ADD SLOAD PUSH1 0x1 PUSH1 0x1 PUSH1 0xA0 SHL SUB AND SUB PUSH2 0x6B2 JUMPI PUSH1 0x1 SWAP2 POP POP PUSH2 0x6BF JUMP JUMPDEST PUSH1 0x1 ADD PUSH2 0x628 JUMP JUMPDEST POP PUSH0 SWAP1 POP JUMPDEST SWAP4 SWAP3 POP POP POP JUMP JUMPDEST PUSH1 0x1 PUSH1 0x1 PUSH1 0xA0 SHL SUB DUP1 DUP5 AND PUSH0 SWAP1 DUP2 MSTORE PUSH1 0x1 PUSH1 0x20 SWAP1 DUP2 MSTORE PUSH1 0x40 DUP1 DUP4 KECCAK256 SWAP4 DUP7 AND DUP4 MSTORE SWAP3 DUP2 MSTORE DUP3 DUP3 KECCAK256 CALLER DUP4 MSTORE SWAP1 MSTORE KECCAK256 SLOAD DUP2 GT ISZERO PUSH2 0x742 JUMPI PUSH1 0x40 MLOAD PUSH3 0x461BCD PUSH1 0xE5 SHL DUP2 MSTORE PUSH1 0x20 PUSH1 0x4 DUP3 ADD MSTORE PUSH1 0x17 PUSH1 0x24 DUP3 ADD MSTORE PUSH32 0x496E73756666696369656E7420616C6C6F636174696F6E000000000000000000 PUSH1 0x44 DUP3 ADD MSTORE PUSH1 0x64 ADD PUSH2 0x3CB JUMP JUMPDEST PUSH1 0x1 PUSH1 0x1 PUSH1 0xA0 SHL SUB DUP1 DUP5 AND PUSH0 SWAP1 DUP2 MSTORE PUSH1 0x1 PUSH1 0x20 SWAP1 DUP2 MSTORE PUSH1 0x40 DUP1 DUP4 KECCAK256 SWAP4 DUP7 AND DUP4 MSTORE SWAP3 DUP2 MSTORE DUP3 DUP3 KECCAK256 CALLER DUP4 MSTORE SWAP1 MSTORE SWAP1 DUP2 KECCAK256 DUP1 SLOAD DUP4 SWAP3 SWAP1 PUSH2 0x780 SWAP1 DUP5 SWAP1 PUSH2 0xAA4 JUMP JUMPDEST SWAP1 SWAP2 SSTORE POP POP PUSH1 0x40 MLOAD PUSH4 0x23B872DD PUSH1 0xE0 SHL DUP2 MSTORE PUSH1 0x1 PUSH1 0x1 PUSH1 0xA0 SHL SUB DUP5 DUP2 AND PUSH1 0x4 DUP4 ADD MSTORE CALLER PUSH1 0x24 DUP4 ADD MSTORE PUSH1 0x44 DUP3 ADD DUP4 SWAP1 MSTORE DUP4 AND SWAP1 PUSH4 0x23B872DD SWAP1 PUSH1 0x64 ADD PUSH1 0x20 PUSH1 0x40 MLOAD DUP1 DUP4 SUB DUP2 PUSH0 DUP8 GAS CALL ISZERO DUP1 ISZERO PUSH2 0x7D7 JUMPI RETURNDATASIZE PUSH0 DUP1 RETURNDATACOPY RETURNDATASIZE PUSH0 REVERT JUMPDEST POP POP POP POP PUSH1 0x40 MLOAD RETURNDATASIZE PUSH1 0x1F NOT PUSH1 0x1F DUP3 ADD AND DUP3 ADD DUP1 PUSH1 0x40 MSTORE POP DUP2 ADD SWAP1 PUSH2 0x7FB SWAP2 SWAP1 PUSH2 0xADE JUMP JUMPDEST PUSH2 0x385 JUMPI PUSH1 0x40 MLOAD PUSH3 0x461BCD PUSH1 0xE5 SHL DUP2 MSTORE PUSH1 0x20 PUSH1 0x4 DUP3 ADD MSTORE PUSH1 0xF PUSH1 0x24 DUP3 ADD MSTORE PUSH15 0x151C985B9CD9995C8819985A5B1959 PUSH1 0x8A SHL PUSH1 0x44 DUP3 ADD MSTORE PUSH1 0x64 ADD PUSH2 0x3CB JUMP JUMPDEST DUP1 PUSH0 SUB PUSH2 0x874 JUMPI CALLER PUSH0 SWAP1 DUP2 MSTORE PUSH1 0x1 PUSH1 0x20 SWAP1 DUP2 MSTORE PUSH1 0x40 DUP1 DUP4 KECCAK256 PUSH1 0x1 PUSH1 0x1 PUSH1 0xA0 SHL SUB DUP8 DUP2 AND DUP6 MSTORE SWAP1 DUP4 MSTORE DUP2 DUP5 KECCAK256 SWAP1 DUP7 AND DUP5 MSTORE SWAP1 SWAP2 MSTORE DUP2 KECCAK256 SSTORE POP POP POP JUMP JUMPDEST CALLER PUSH0 SWAP1 DUP2 MSTORE PUSH1 0x1 PUSH1 0x20 SWAP1 DUP2 MSTORE PUSH1 0x40 DUP1 DUP4 KECCAK256 PUSH1 0x1 PUSH1 0x1 PUSH1 0xA0 SHL SUB SWAP7 DUP8 AND DUP5 MSTORE DUP3 MSTORE DUP1 DUP4 KECCAK256 SWAP5 SWAP1 SWAP6 AND DUP3 MSTORE SWAP3 SWAP1 SWAP3 MSTORE SWAP2 SWAP1 KECCAK256 SSTORE JUMP JUMPDEST PUSH2 0x8B1 DUP3 DUP3 PUSH2 0x2BB JUMP JUMPDEST PUSH2 0x8F3 JUMPI PUSH1 0x1 PUSH1 0x1 PUSH1 0xA0 SHL SUB DUP3 DUP2 AND PUSH0 SWAP1 DUP2 MSTORE PUSH1 0x2 PUSH1 0x20 SWAP1 DUP2 MSTORE PUSH1 0x40 DUP3 KECCAK256 DUP1 SLOAD PUSH1 0x1 DUP2 ADD DUP3 SSTORE SWAP1 DUP4 MSTORE SWAP2 KECCAK256 ADD DUP1 SLOAD PUSH1 0x1 PUSH1 0x1 PUSH1 0xA0 SHL SUB NOT AND SWAP2 DUP4 AND SWAP2 SWAP1 SWAP2 OR SWAP1 SSTORE JUMPDEST POP POP JUMP JUMPDEST PUSH2 0x902 DUP4 DUP4 DUP4 PUSH2 0x625 JUMP JUMPDEST PUSH2 0x385 JUMPI PUSH1 0x1 PUSH1 0x1 PUSH1 0xA0 SHL SUB SWAP3 DUP4 AND PUSH0 SWAP1 DUP2 MSTORE PUSH1 0x3 PUSH1 0x20 SWAP1 DUP2 MSTORE PUSH1 0x40 DUP1 DUP4 KECCAK256 SWAP5 DUP7 AND DUP4 MSTORE SWAP4 DUP2 MSTORE SWAP3 DUP2 KECCAK256 DUP1 SLOAD PUSH1 0x1 DUP2 ADD DUP3 SSTORE SWAP1 DUP3 MSTORE SWAP3 SWAP1 KECCAK256 SWAP1 SWAP2 ADD DUP1 SLOAD PUSH1 0x1 PUSH1 0x1 PUSH1 0xA0 SHL SUB NOT AND SWAP2 SWAP1 SWAP3 AND OR SWAP1 SSTORE JUMP JUMPDEST DUP1 CALLDATALOAD PUSH1 0x1 PUSH1 0x1 PUSH1 0xA0 SHL SUB DUP2 AND DUP2 EQ PUSH2 0x968 JUMPI PUSH0 DUP1 REVERT JUMPDEST SWAP2 SWAP1 POP JUMP JUMPDEST PUSH0 DUP1 PUSH1 0x40 DUP4 DUP6 SUB SLT ISZERO PUSH2 0x97E JUMPI PUSH0 DUP1 REVERT JUMPDEST PUSH2 0x987 DUP4 PUSH2 0x952 JUMP JUMPDEST SWAP2 POP PUSH2 0x995 PUSH1 0x20 DUP5 ADD PUSH2 0x952 JUMP JUMPDEST SWAP1 POP SWAP3 POP SWAP3 SWAP1 POP JUMP JUMPDEST PUSH1 0x20 DUP1 DUP3 MSTORE DUP3 MLOAD DUP3 DUP3 ADD DUP2 SWAP1 MSTORE PUSH0 SWAP2 SWAP1 DUP5 DUP3 ADD SWAP1 PUSH1 0x40 DUP6 ADD SWAP1 DUP5 JUMPDEST DUP2 DUP2 LT ISZERO PUSH2 0x9DE JUMPI DUP4 MLOAD PUSH1 0x1 PUSH1 0x1 PUSH1 0xA0 SHL SUB AND DUP4 MSTORE SWAP3 DUP5 ADD SWAP3 SWAP2 DUP5 ADD SWAP2 PUSH1 0x1 ADD PUSH2 0x9B9 JUMP JUMPDEST POP SWAP1 SWAP7 SWAP6 POP POP POP POP POP POP JUMP JUMPDEST PUSH0 PUSH1 0x20 DUP3 DUP5 SUB SLT ISZERO PUSH2 0x9FA JUMPI PUSH0 DUP1 REVERT JUMPDEST PUSH2 0x6BF DUP3 PUSH2 0x952 JUMP JUMPDEST PUSH0 DUP1 PUSH0 PUSH1 0x60 DUP5 DUP7 SUB SLT ISZERO PUSH2 0xA15 JUMPI PUSH0 DUP1 REVERT JUMPDEST PUSH2 0xA1E DUP5 PUSH2 0x952 JUMP JUMPDEST SWAP3 POP PUSH2 0xA2C PUSH1 0x20 DUP6 ADD PUSH2 0x952 JUMP JUMPDEST SWAP2 POP PUSH2 0xA3A PUSH1 0x40 DUP6 ADD PUSH2 0x952 JUMP JUMPDEST SWAP1 POP SWAP3 POP SWAP3 POP SWAP3 JUMP JUMPDEST PUSH0 DUP1 PUSH0 PUSH1 0x60 DUP5 DUP7 SUB SLT ISZERO PUSH2 0xA55 JUMPI PUSH0 DUP1 REVERT JUMPDEST PUSH2 0xA5E DUP5 PUSH2 0x952 JUMP JUMPDEST SWAP3 POP PUSH2 0xA6C PUSH1 0x20 DUP6 ADD PUSH2 0x952 JUMP JUMPDEST SWAP2 POP PUSH1 0x40 DUP5 ADD CALLDATALOAD SWAP1 POP SWAP3 POP SWAP3 POP SWAP3 JUMP JUMPDEST PUSH4 0x4E487B71 PUSH1 0xE0 SHL PUSH0 MSTORE PUSH1 0x32 PUSH1 0x4 MSTORE PUSH1 0x24 PUSH0 REVERT JUMPDEST PUSH4 0x4E487B71 PUSH1 0xE0 SHL PUSH0 MSTORE PUSH1 0x11 PUSH1 0x4 MSTORE PUSH1 0x24 PUSH0 REVERT JUMPDEST DUP2 DUP2 SUB DUP2 DUP2 GT ISZERO PUSH2 0x242 JUMPI PUSH2 0x242 PUSH2 0xA90 JUMP JUMPDEST DUP1 DUP3 ADD DUP1 DUP3 GT ISZERO PUSH2 0x242 JUMPI PUSH2 0x242 PUSH2 0xA90 JUMP JUMPDEST PUSH4 0x4E487B71 PUSH1 0xE0 SHL PUSH0 MSTORE PUSH1 0x31 PUSH1 0x4 MSTORE PUSH1 0x24 PUSH0 REVERT JUMPDEST PUSH0 PUSH1 0x20 DUP3 DUP5 SUB SLT ISZERO PUSH2 0xAEE JUMPI PUSH0 DUP1 REVERT JUMPDEST DUP2 MLOAD DUP1 ISZERO ISZERO DUP2 EQ PUSH2 0x6BF JUMPI PUSH0 DUP1 REVERT INVALID LOG2 PUSH5 0x6970667358 0x22 SLT KECCAK256 SWAP1 0xE8 0xC6 0x22 0x28 0xC4 SUB 0x22 PUSH25 0xF8B6E86329F247D204621844959F73416175B398E443A36473 PUSH16 0x6C634300081900330000000000000000 "
				},
				"gasEstimates": {
					"creation": {
						"codeDepositCost": "573400",
						"executionCost": "24838",
						"totalCost": "598238"
					},
					"external": {
						"adjustAllocation(address,address,uint256)": "infinite",
						"getAllocatedTokensByUser(address)": "infinite",
						"getRecipientsByToken(address,address)": "infinite",
						"isRecipientOfToken(address,address,address)": "infinite",
						"isTokenAllocatedByUser(address,address)": "infinite",
						"owner()": "2335",
						"removeRecipientForToken(address,address,address)": "infinite",
						"setAllocation(address,address,uint256)": "infinite",
						"tokenAllocations(address,address,address)": "infinite",
						"withdrawTokenForBeneficiary(address,address,uint256)": "infinite"
					},
					"internal": {
						"_addRecipientForToken(address,address,address)": "infinite",
						"_addTokenForUser(address,address)": "infinite"
					}
				},
				"methodIdentifiers": {
					"adjustAllocation(address,address,uint256)": "e94640c3",
					"getAllocatedTokensByUser(address)": "0db36379",
					"getRecipientsByToken(address,address)": "0ac0be3f",
					"isRecipientOfToken(address,address,address)": "bd042d2e",
					"isTokenAllocatedByUser(address,address)": "0e6cc31f",
					"owner()": "8da5cb5b",
					"removeRecipientForToken(address,address,address)": "a2bdd08c",
					"setAllocation(address,address,uint256)": "5f15b1d9",
					"tokenAllocations(address,address,address)": "17a436ed",
					"withdrawTokenForBeneficiary(address,address,uint256)": "c3698da4"
				}
			},
			"storageLayout": {
				"storage": [
					{
						"astId": 82,
						"contract": "contracts/DecentraWill.sol:DecentraWill",
						"label": "owner",
						"offset": 0,
						"slot": "0",
						"type": "t_address"
					},
					{
						"astId": 111,
						"contract": "contracts/DecentraWill.sol:DecentraWill",
						"label": "tokenAllocations",
						"offset": 0,
						"slot": "1",
						"type": "t_mapping(t_address,t_mapping(t_address,t_mapping(t_address,t_uint256)))"
					},
					{
						"astId": 116,
						"contract": "contracts/DecentraWill.sol:DecentraWill",
						"label": "userAllocatedTokens",
						"offset": 0,
						"slot": "2",
						"type": "t_mapping(t_address,t_array(t_address)dyn_storage)"
					},
					{
						"astId": 123,
						"contract": "contracts/DecentraWill.sol:DecentraWill",
						"label": "tokenRecipients",
						"offset": 0,
						"slot": "3",
						"type": "t_mapping(t_address,t_mapping(t_address,t_array(t_address)dyn_storage))"
					}
				],
				"types": {
					"t_address": {
						"encoding": "inplace",
						"label": "address",
						"numberOfBytes": "20"
					},
					"t_array(t_address)dyn_storage": {
						"base": "t_address",
						"encoding": "dynamic_array",
						"label": "address[]",
						"numberOfBytes": "32"
					},
					"t_mapping(t_address,t_array(t_address)dyn_storage)": {
						"encoding": "mapping",
						"key": "t_address",
						"label": "mapping(address => address[])",
						"numberOfBytes": "32",
						"value": "t_array(t_address)dyn_storage"
					},
					"t_mapping(t_address,t_mapping(t_address,t_array(t_address)dyn_storage))": {
						"encoding": "mapping",
						"key": "t_address",
						"label": "mapping(address => mapping(address => address[]))",
						"numberOfBytes": "32",
						"value": "t_mapping(t_address,t_array(t_address)dyn_storage)"
					},
					"t_mapping(t_address,t_mapping(t_address,t_mapping(t_address,t_uint256)))": {
						"encoding": "mapping",
						"key": "t_address",
						"label": "mapping(address => mapping(address => mapping(address => uint256)))",
						"numberOfBytes": "32",
						"value": "t_mapping(t_address,t_mapping(t_address,t_uint256))"
					},
					"t_mapping(t_address,t_mapping(t_address,t_uint256))": {
						"encoding": "mapping",
						"key": "t_address",
						"label": "mapping(address => mapping(address => uint256))",
						"numberOfBytes": "32",
						"value": "t_mapping(t_address,t_uint256)"
					},
					"t_mapping(t_address,t_uint256)": {
						"encoding": "mapping",
						"key": "t_address",
						"label": "mapping(address => uint256)",
						"numberOfBytes": "32",
						"value": "t_uint256"
					},
					"t_uint256": {
						"encoding": "inplace",
						"label": "uint256",
						"numberOfBytes": "32"
					}
				}
			},
			"userdoc": {
				"kind": "user",
				"methods": {
					"withdrawTokenForBeneficiary(address,address,uint256)": {
						"notice": "This function can only be called by the beneficiary of the token allocation.The function checks if the beneficiary has sufficient allocation before transferring the tokens.The function decreases the allocation before transferring to prevent re-entrancy attacks.The function uses the ERC20 transferFrom function to transfer tokens.The function emits a Transfer event upon successful transfer."
					}
				},
				"version": 1
			}
		}
	}
}