{
	"contracts/DecentraWill.sol": {
		"DecentraWill": {
			"abi": [
				{
					"inputs": [],
					"stateMutability": "nonpayable",
					"type": "constructor"
				},
				{
					"inputs": [
						{
							"internalType": "address",
							"name": "token",
							"type": "address"
						},
						{
							"internalType": "address",
							"name": "recipient",
							"type": "address"
						},
						{
							"internalType": "uint256",
							"name": "amount",
							"type": "uint256"
						}
					],
					"name": "adjustAllocation",
					"outputs": [],
					"stateMutability": "nonpayable",
					"type": "function"
				},
				{
					"inputs": [
						{
							"internalType": "address",
							"name": "user",
							"type": "address"
						}
					],
					"name": "getAllocatedTokensByUser",
					"outputs": [
						{
							"internalType": "address[]",
							"name": "",
							"type": "address[]"
						}
					],
					"stateMutability": "view",
					"type": "function"
				},
				{
					"inputs": [
						{
							"internalType": "address",
							"name": "user",
							"type": "address"
						},
						{
							"internalType": "address",
							"name": "token",
							"type": "address"
						}
					],
					"name": "getRecipientsByToken",
					"outputs": [
						{
							"internalType": "address[]",
							"name": "",
							"type": "address[]"
						}
					],
					"stateMutability": "view",
					"type": "function"
				},
				{
					"inputs": [
						{
							"internalType": "address",
							"name": "user",
							"type": "address"
						},
						{
							"internalType": "address",
							"name": "token",
							"type": "address"
						},
						{
							"internalType": "address",
							"name": "recipient",
							"type": "address"
						}
					],
					"name": "isRecipientOfToken",
					"outputs": [
						{
							"internalType": "bool",
							"name": "",
							"type": "bool"
						}
					],
					"stateMutability": "view",
					"type": "function"
				},
				{
					"inputs": [
						{
							"internalType": "address",
							"name": "user",
							"type": "address"
						},
						{
							"internalType": "address",
							"name": "token",
							"type": "address"
						}
					],
					"name": "isTokenAllocatedByUser",
					"outputs": [
						{
							"internalType": "bool",
							"name": "",
							"type": "bool"
						}
					],
					"stateMutability": "view",
					"type": "function"
				},
				{
					"inputs": [],
					"name": "owner",
					"outputs": [
						{
							"internalType": "address",
							"name": "",
							"type": "address"
						}
					],
					"stateMutability": "view",
					"type": "function"
				},
				{
					"inputs": [
						{
							"internalType": "address",
							"name": "user",
							"type": "address"
						},
						{
							"internalType": "address",
							"name": "token",
							"type": "address"
						},
						{
							"internalType": "address",
							"name": "recipient",
							"type": "address"
						}
					],
					"name": "removeRecipientForToken",
					"outputs": [],
					"stateMutability": "nonpayable",
					"type": "function"
				},
				{
					"inputs": [
						{
							"internalType": "address",
							"name": "token",
							"type": "address"
						},
						{
							"internalType": "address",
							"name": "recipient",
							"type": "address"
						},
						{
							"internalType": "uint256",
							"name": "amount",
							"type": "uint256"
						}
					],
					"name": "setAllocation",
					"outputs": [],
					"stateMutability": "nonpayable",
					"type": "function"
				},
				{
					"inputs": [
						{
							"internalType": "address",
							"name": "",
							"type": "address"
						},
						{
							"internalType": "address",
							"name": "",
							"type": "address"
						},
						{
							"internalType": "address",
							"name": "",
							"type": "address"
						}
					],
					"name": "tokenAllocations",
					"outputs": [
						{
							"internalType": "uint256",
							"name": "",
							"type": "uint256"
						}
					],
					"stateMutability": "view",
					"type": "function"
				}
			],
			"devdoc": {
				"kind": "dev",
				"methods": {},
				"version": 1
			},
			"evm": {
				"assembly": "    /* \"contracts/DecentraWill.sol\":61:4680  contract DecentraWill {... */\n  mstore(0x40, 0x80)\n    /* \"contracts/DecentraWill.sol\":119:170  constructor() {... */\n  callvalue\n  dup1\n  iszero\n  tag_1\n  jumpi\n  0x00\n  dup1\n  revert\ntag_1:\n  pop\n    /* \"contracts/DecentraWill.sol\":144:149  owner */\n  0x00\n    /* \"contracts/DecentraWill.sol\":144:162  owner = msg.sender */\n  dup1\n  sload\n  not(sub(shl(0xa0, 0x01), 0x01))\n  and\n    /* \"contracts/DecentraWill.sol\":152:162  msg.sender */\n  caller\n    /* \"contracts/DecentraWill.sol\":144:162  owner = msg.sender */\n  or\n  swap1\n  sstore\n    /* \"contracts/DecentraWill.sol\":61:4680  contract DecentraWill {... */\n  dataSize(sub_0)\n  dup1\n  dataOffset(sub_0)\n  0x00\n  codecopy\n  0x00\n  return\nstop\n\nsub_0: assembly {\n        /* \"contracts/DecentraWill.sol\":61:4680  contract DecentraWill {... */\n      mstore(0x40, 0x80)\n      callvalue\n      dup1\n      iszero\n      tag_1\n      jumpi\n      0x00\n      dup1\n      revert\n    tag_1:\n      pop\n      jumpi(tag_2, lt(calldatasize, 0x04))\n      shr(0xe0, calldataload(0x00))\n      dup1\n      0x5f15b1d9\n      gt\n      tag_12\n      jumpi\n      dup1\n      0x5f15b1d9\n      eq\n      tag_7\n      jumpi\n      dup1\n      0x8da5cb5b\n      eq\n      tag_8\n      jumpi\n      dup1\n      0xa2bdd08c\n      eq\n      tag_9\n      jumpi\n      dup1\n      0xbd042d2e\n      eq\n      tag_10\n      jumpi\n      dup1\n      0xe94640c3\n      eq\n      tag_11\n      jumpi\n      0x00\n      dup1\n      revert\n    tag_12:\n      dup1\n      0x0ac0be3f\n      eq\n      tag_3\n      jumpi\n      dup1\n      0x0db36379\n      eq\n      tag_4\n      jumpi\n      dup1\n      0x0e6cc31f\n      eq\n      tag_5\n      jumpi\n      dup1\n      0x17a436ed\n      eq\n      tag_6\n      jumpi\n    tag_2:\n      0x00\n      dup1\n      revert\n        /* \"contracts/DecentraWill.sol\":2951:3128  function getRecipientsByToken(... */\n    tag_3:\n      tag_13\n      tag_14\n      calldatasize\n      0x04\n      tag_15\n      jump\t// in\n    tag_14:\n      tag_16\n      jump\t// in\n    tag_13:\n      mload(0x40)\n      tag_17\n      swap2\n      swap1\n      tag_18\n      jump\t// in\n    tag_17:\n      mload(0x40)\n      dup1\n      swap2\n      sub\n      swap1\n      return\n        /* \"contracts/DecentraWill.sol\":2702:2856  function getAllocatedTokensByUser(... */\n    tag_4:\n      tag_13\n      tag_20\n      calldatasize\n      0x04\n      tag_21\n      jump\t// in\n    tag_20:\n      tag_22\n      jump\t// in\n        /* \"contracts/DecentraWill.sol\":1453:1782  function isTokenAllocatedByUser(... */\n    tag_5:\n      tag_24\n      tag_25\n      calldatasize\n      0x04\n      tag_15\n      jump\t// in\n    tag_25:\n      tag_26\n      jump\t// in\n    tag_24:\n      mload(0x40)\n        /* \"#utility.yul\":1476:1490   */\n      swap1\n      iszero\n        /* \"#utility.yul\":1469:1491   */\n      iszero\n        /* \"#utility.yul\":1451:1492   */\n      dup2\n      mstore\n        /* \"#utility.yul\":1439:1441   */\n      0x20\n        /* \"#utility.yul\":1424:1442   */\n      add\n        /* \"contracts/DecentraWill.sol\":1453:1782  function isTokenAllocatedByUser(... */\n      tag_17\n        /* \"#utility.yul\":1311:1498   */\n      jump\n        /* \"contracts/DecentraWill.sol\":420:520  mapping(address => mapping(address => mapping(address => uint256)))... */\n    tag_6:\n      tag_29\n      tag_30\n      calldatasize\n      0x04\n      tag_31\n      jump\t// in\n    tag_30:\n      0x01\n      0x20\n      swap1\n      dup2\n      mstore\n      0x00\n      swap4\n      dup5\n      mstore\n      0x40\n      dup1\n      dup6\n      keccak256\n      dup3\n      mstore\n      swap3\n      dup5\n      mstore\n      dup3\n      dup5\n      keccak256\n      swap1\n      mstore\n      dup3\n      mstore\n      swap1\n      keccak256\n      sload\n      dup2\n      jump\n    tag_29:\n      mload(0x40)\n        /* \"#utility.yul\":1988:2013   */\n      swap1\n      dup2\n      mstore\n        /* \"#utility.yul\":1976:1978   */\n      0x20\n        /* \"#utility.yul\":1961:1979   */\n      add\n        /* \"contracts/DecentraWill.sol\":420:520  mapping(address => mapping(address => mapping(address => uint256)))... */\n      tag_17\n        /* \"#utility.yul\":1842:2019   */\n      jump\n        /* \"contracts/DecentraWill.sol\":2336:2632  function setAllocation(... */\n    tag_7:\n      tag_35\n      tag_36\n      calldatasize\n      0x04\n      tag_37\n      jump\t// in\n    tag_36:\n      tag_38\n      jump\t// in\n    tag_35:\n      stop\n        /* \"contracts/DecentraWill.sol\":90:110  address public owner */\n    tag_8:\n      sload(0x00)\n      tag_39\n      swap1\n      sub(shl(0xa0, 0x01), 0x01)\n      and\n      dup2\n      jump\n    tag_39:\n      mload(0x40)\n      sub(shl(0xa0, 0x01), 0x01)\n        /* \"#utility.yul\":2521:2553   */\n      swap1\n      swap2\n      and\n        /* \"#utility.yul\":2503:2554   */\n      dup2\n      mstore\n        /* \"#utility.yul\":2491:2493   */\n      0x20\n        /* \"#utility.yul\":2476:2494   */\n      add\n        /* \"contracts/DecentraWill.sol\":90:110  address public owner */\n      tag_17\n        /* \"#utility.yul\":2357:2560   */\n      jump\n        /* \"contracts/DecentraWill.sol\":3221:4152  function removeRecipientForToken(... */\n    tag_9:\n      tag_35\n      tag_44\n      calldatasize\n      0x04\n      tag_31\n      jump\t// in\n    tag_44:\n      tag_45\n      jump\t// in\n        /* \"contracts/DecentraWill.sol\":1872:2235  function isRecipientOfToken(... */\n    tag_10:\n      tag_24\n      tag_47\n      calldatasize\n      0x04\n      tag_31\n      jump\t// in\n    tag_47:\n      tag_48\n      jump\t// in\n        /* \"contracts/DecentraWill.sol\":4247:4677  function adjustAllocation(... */\n    tag_11:\n      tag_35\n      tag_51\n      calldatasize\n      0x04\n      tag_37\n      jump\t// in\n    tag_51:\n      tag_52\n      jump\t// in\n        /* \"contracts/DecentraWill.sol\":2951:3128  function getRecipientsByToken(... */\n    tag_16:\n      sub(shl(0xa0, 0x01), 0x01)\n        /* \"contracts/DecentraWill.sol\":3092:3113  tokenRecipients[user] */\n      dup1\n      dup4\n      and\n      0x00\n      swap1\n      dup2\n      mstore\n        /* \"contracts/DecentraWill.sol\":3092:3107  tokenRecipients */\n      0x03\n        /* \"contracts/DecentraWill.sol\":3092:3113  tokenRecipients[user] */\n      0x20\n      swap1\n      dup2\n      mstore\n      0x40\n      dup1\n      dup4\n      keccak256\n        /* \"contracts/DecentraWill.sol\":3092:3120  tokenRecipients[user][token] */\n      swap4\n      dup6\n      and\n      dup4\n      mstore\n      swap3\n      dup2\n      mstore\n      swap1\n      dup3\n      swap1\n      keccak256\n        /* \"contracts/DecentraWill.sol\":3085:3120  return tokenRecipients[user][token] */\n      dup1\n      sload\n      dup4\n      mload\n      dup2\n      dup5\n      mul\n      dup2\n      add\n      dup5\n      add\n      swap1\n      swap5\n      mstore\n      dup1\n      dup5\n      mstore\n        /* \"contracts/DecentraWill.sol\":3056:3072  address[] memory */\n      0x60\n      swap4\n        /* \"contracts/DecentraWill.sol\":3085:3120  return tokenRecipients[user][token] */\n      swap3\n      dup4\n      add\n        /* \"contracts/DecentraWill.sol\":3092:3120  tokenRecipients[user][token] */\n      dup3\n        /* \"contracts/DecentraWill.sol\":3085:3120  return tokenRecipients[user][token] */\n      dup3\n      dup1\n      iszero\n      tag_54\n      jumpi\n      0x20\n      mul\n      dup3\n      add\n      swap2\n      swap1\n      0x00\n      mstore\n      keccak256(0x00, 0x20)\n      swap1\n    tag_55:\n      dup2\n      sload\n      sub(shl(0xa0, 0x01), 0x01)\n      and\n      dup2\n      mstore\n      0x01\n      swap1\n      swap2\n      add\n      swap1\n      0x20\n      add\n      dup1\n      dup4\n      gt\n      tag_55\n      jumpi\n    tag_54:\n      pop\n      pop\n      pop\n      pop\n      pop\n      swap1\n      pop\n        /* \"contracts/DecentraWill.sol\":2951:3128  function getRecipientsByToken(... */\n    tag_53:\n      swap3\n      swap2\n      pop\n      pop\n      jump\t// out\n        /* \"contracts/DecentraWill.sol\":2702:2856  function getAllocatedTokensByUser(... */\n    tag_22:\n      sub(shl(0xa0, 0x01), 0x01)\n        /* \"contracts/DecentraWill.sol\":2823:2848  userAllocatedTokens[user] */\n      dup2\n      and\n      0x00\n      swap1\n      dup2\n      mstore\n        /* \"contracts/DecentraWill.sol\":2823:2842  userAllocatedTokens */\n      0x02\n        /* \"contracts/DecentraWill.sol\":2823:2848  userAllocatedTokens[user] */\n      0x20\n      swap1\n      dup2\n      mstore\n      0x40\n      swap2\n      dup3\n      swap1\n      keccak256\n        /* \"contracts/DecentraWill.sol\":2816:2848  return userAllocatedTokens[user] */\n      dup1\n      sload\n      dup4\n      mload\n      dup2\n      dup5\n      mul\n      dup2\n      add\n      dup5\n      add\n      swap1\n      swap5\n      mstore\n      dup1\n      dup5\n      mstore\n        /* \"contracts/DecentraWill.sol\":2787:2803  address[] memory */\n      0x60\n      swap4\n        /* \"contracts/DecentraWill.sol\":2816:2848  return userAllocatedTokens[user] */\n      swap3\n      dup4\n      add\n        /* \"contracts/DecentraWill.sol\":2823:2848  userAllocatedTokens[user] */\n      dup3\n        /* \"contracts/DecentraWill.sol\":2816:2848  return userAllocatedTokens[user] */\n      dup3\n      dup1\n      iszero\n      tag_57\n      jumpi\n      0x20\n      mul\n      dup3\n      add\n      swap2\n      swap1\n      0x00\n      mstore\n      keccak256(0x00, 0x20)\n      swap1\n    tag_58:\n      dup2\n      sload\n      sub(shl(0xa0, 0x01), 0x01)\n      and\n      dup2\n      mstore\n      0x01\n      swap1\n      swap2\n      add\n      swap1\n      0x20\n      add\n      dup1\n      dup4\n      gt\n      tag_58\n      jumpi\n    tag_57:\n      pop\n      pop\n      pop\n      pop\n      pop\n      swap1\n      pop\n        /* \"contracts/DecentraWill.sol\":2702:2856  function getAllocatedTokensByUser(... */\n      swap2\n      swap1\n      pop\n      jump\t// out\n        /* \"contracts/DecentraWill.sol\":1453:1782  function isTokenAllocatedByUser(... */\n    tag_26:\n        /* \"contracts/DecentraWill.sol\":1560:1564  bool */\n      0x00\n      dup1\n        /* \"contracts/DecentraWill.sol\":1577:1752  for (uint i = 0; i < userAllocatedTokens[user].length; i++) {... */\n    tag_60:\n      sub(shl(0xa0, 0x01), 0x01)\n        /* \"contracts/DecentraWill.sol\":1598:1623  userAllocatedTokens[user] */\n      dup5\n      and\n      0x00\n      swap1\n      dup2\n      mstore\n        /* \"contracts/DecentraWill.sol\":1598:1617  userAllocatedTokens */\n      0x02\n        /* \"contracts/DecentraWill.sol\":1598:1623  userAllocatedTokens[user] */\n      0x20\n      mstore\n      0x40\n      swap1\n      keccak256\n        /* \"contracts/DecentraWill.sol\":1598:1630  userAllocatedTokens[user].length */\n      sload\n        /* \"contracts/DecentraWill.sol\":1594:1630  i < userAllocatedTokens[user].length */\n      dup2\n      lt\n        /* \"contracts/DecentraWill.sol\":1577:1752  for (uint i = 0; i < userAllocatedTokens[user].length; i++) {... */\n      iszero\n      tag_61\n      jumpi\n      sub(shl(0xa0, 0x01), 0x01)\n        /* \"contracts/DecentraWill.sol\":1656:1681  userAllocatedTokens[user] */\n      dup5\n      dup2\n      and\n      0x00\n      swap1\n      dup2\n      mstore\n        /* \"contracts/DecentraWill.sol\":1656:1675  userAllocatedTokens */\n      0x02\n        /* \"contracts/DecentraWill.sol\":1656:1681  userAllocatedTokens[user] */\n      0x20\n      mstore\n      0x40\n      swap1\n      keccak256\n        /* \"contracts/DecentraWill.sol\":1656:1684  userAllocatedTokens[user][i] */\n      dup1\n      sload\n        /* \"contracts/DecentraWill.sol\":1656:1693  userAllocatedTokens[user][i] == token */\n      swap2\n      dup6\n      and\n      swap2\n        /* \"contracts/DecentraWill.sol\":1682:1683  i */\n      dup4\n      swap1\n        /* \"contracts/DecentraWill.sol\":1656:1684  userAllocatedTokens[user][i] */\n      dup2\n      lt\n      tag_64\n      jumpi\n      tag_64\n      tag_65\n      jump\t// in\n    tag_64:\n      0x00\n      swap2\n      dup3\n      mstore\n      0x20\n      swap1\n      swap2\n      keccak256\n      add\n      sload\n      sub(shl(0xa0, 0x01), 0x01)\n      and\n        /* \"contracts/DecentraWill.sol\":1656:1693  userAllocatedTokens[user][i] == token */\n      sub\n        /* \"contracts/DecentraWill.sol\":1652:1741  if (userAllocatedTokens[user][i] == token) {... */\n      tag_67\n      jumpi\n        /* \"contracts/DecentraWill.sol\":1721:1725  true */\n      0x01\n        /* \"contracts/DecentraWill.sol\":1714:1725  return true */\n      swap2\n      pop\n      pop\n      jump(tag_53)\n        /* \"contracts/DecentraWill.sol\":1652:1741  if (userAllocatedTokens[user][i] == token) {... */\n    tag_67:\n        /* \"contracts/DecentraWill.sol\":1632:1635  i++ */\n      0x01\n      add\n        /* \"contracts/DecentraWill.sol\":1577:1752  for (uint i = 0; i < userAllocatedTokens[user].length; i++) {... */\n      jump(tag_60)\n    tag_61:\n      pop\n        /* \"contracts/DecentraWill.sol\":1769:1774  false */\n      0x00\n      swap4\n        /* \"contracts/DecentraWill.sol\":1453:1782  function isTokenAllocatedByUser(... */\n      swap3\n      pop\n      pop\n      pop\n      jump\t// out\n        /* \"contracts/DecentraWill.sol\":2336:2632  function setAllocation(... */\n    tag_38:\n        /* \"contracts/DecentraWill.sol\":2478:2488  msg.sender */\n      caller\n        /* \"contracts/DecentraWill.sol\":2461:2489  tokenAllocations[msg.sender] */\n      0x00\n      dup2\n      dup2\n      mstore\n        /* \"contracts/DecentraWill.sol\":2461:2477  tokenAllocations */\n      0x01\n        /* \"contracts/DecentraWill.sol\":2461:2489  tokenAllocations[msg.sender] */\n      0x20\n      swap1\n      dup2\n      mstore\n      0x40\n      dup1\n      dup4\n      keccak256\n      sub(shl(0xa0, 0x01), 0x01)\n        /* \"contracts/DecentraWill.sol\":2461:2496  tokenAllocations[msg.sender][token] */\n      dup9\n      dup2\n      and\n      dup6\n      mstore\n      swap1\n      dup4\n      mstore\n      dup2\n      dup5\n      keccak256\n        /* \"contracts/DecentraWill.sol\":2461:2507  tokenAllocations[msg.sender][token][recipient] */\n      swap1\n      dup8\n      and\n      dup5\n      mstore\n      swap1\n      swap2\n      mstore\n      swap1\n      keccak256\n        /* \"contracts/DecentraWill.sol\":2461:2516  tokenAllocations[msg.sender][token][recipient] = amount */\n      dup3\n      swap1\n      sstore\n        /* \"contracts/DecentraWill.sol\":2527:2562  _addTokenForUser(msg.sender, token) */\n      tag_69\n      swap1\n        /* \"contracts/DecentraWill.sol\":2490:2495  token */\n      dup5\n        /* \"contracts/DecentraWill.sol\":2527:2543  _addTokenForUser */\n      tag_70\n        /* \"contracts/DecentraWill.sol\":2527:2562  _addTokenForUser(msg.sender, token) */\n      jump\t// in\n    tag_69:\n        /* \"contracts/DecentraWill.sol\":2573:2624  _addRecipientForToken(msg.sender, token, recipient) */\n      tag_71\n        /* \"contracts/DecentraWill.sol\":2595:2605  msg.sender */\n      caller\n        /* \"contracts/DecentraWill.sol\":2607:2612  token */\n      dup5\n        /* \"contracts/DecentraWill.sol\":2614:2623  recipient */\n      dup5\n        /* \"contracts/DecentraWill.sol\":2573:2594  _addRecipientForToken */\n      tag_72\n        /* \"contracts/DecentraWill.sol\":2573:2624  _addRecipientForToken(msg.sender, token, recipient) */\n      jump\t// in\n    tag_71:\n        /* \"contracts/DecentraWill.sol\":2336:2632  function setAllocation(... */\n      pop\n      pop\n      pop\n      jump\t// out\n        /* \"contracts/DecentraWill.sol\":3221:4152  function removeRecipientForToken(... */\n    tag_45:\n        /* \"contracts/DecentraWill.sol\":232:237  owner */\n      and(sub(shl(0xa0, 0x01), 0x01), sload(0x00))\n        /* \"contracts/DecentraWill.sol\":218:228  msg.sender */\n      caller\n        /* \"contracts/DecentraWill.sol\":218:237  msg.sender == owner */\n      eq\n        /* \"contracts/DecentraWill.sol\":210:251  require(msg.sender == owner, \"Not owner\") */\n      tag_74\n      jumpi\n      mload(0x40)\n      shl(0xe5, 0x461bcd)\n      dup2\n      mstore\n        /* \"#utility.yul\":2899:2901   */\n      0x20\n        /* \"contracts/DecentraWill.sol\":210:251  require(msg.sender == owner, \"Not owner\") */\n      0x04\n      dup3\n      add\n        /* \"#utility.yul\":2881:2902   */\n      mstore\n        /* \"#utility.yul\":2938:2939   */\n      0x09\n        /* \"#utility.yul\":2918:2936   */\n      0x24\n      dup3\n      add\n        /* \"#utility.yul\":2911:2940   */\n      mstore\n      shl(0xb9, 0x2737ba1037bbb732b9)\n        /* \"#utility.yul\":2956:2974   */\n      0x44\n      dup3\n      add\n        /* \"#utility.yul\":2949:2988   */\n      mstore\n        /* \"#utility.yul\":3005:3023   */\n      0x64\n      add\n        /* \"contracts/DecentraWill.sol\":210:251  require(msg.sender == owner, \"Not owner\") */\n    tag_75:\n      mload(0x40)\n      dup1\n      swap2\n      sub\n      swap1\n      revert\n    tag_74:\n        /* \"contracts/DecentraWill.sol\":3386:3428  isRecipientOfToken(user, token, recipient) */\n      tag_78\n        /* \"contracts/DecentraWill.sol\":3405:3409  user */\n      dup4\n        /* \"contracts/DecentraWill.sol\":3411:3416  token */\n      dup4\n        /* \"contracts/DecentraWill.sol\":3418:3427  recipient */\n      dup4\n        /* \"contracts/DecentraWill.sol\":3386:3404  isRecipientOfToken */\n      tag_48\n        /* \"contracts/DecentraWill.sol\":3386:3428  isRecipientOfToken(user, token, recipient) */\n      jump\t// in\n    tag_78:\n        /* \"contracts/DecentraWill.sol\":3364:3475  require(... */\n      tag_79\n      jumpi\n      mload(0x40)\n      shl(0xe5, 0x461bcd)\n      dup2\n      mstore\n        /* \"#utility.yul\":3236:3238   */\n      0x20\n        /* \"contracts/DecentraWill.sol\":3364:3475  require(... */\n      0x04\n      dup3\n      add\n        /* \"#utility.yul\":3218:3239   */\n      mstore\n        /* \"#utility.yul\":3275:3277   */\n      0x13\n        /* \"#utility.yul\":3255:3273   */\n      0x24\n      dup3\n      add\n        /* \"#utility.yul\":3248:3278   */\n      mstore\n      shl(0x6a, 0x149958da5c1a595b9d081b9bdd08199bdd5b99)\n        /* \"#utility.yul\":3294:3312   */\n      0x44\n      dup3\n      add\n        /* \"#utility.yul\":3287:3336   */\n      mstore\n        /* \"#utility.yul\":3353:3371   */\n      0x64\n      add\n        /* \"contracts/DecentraWill.sol\":3364:3475  require(... */\n      tag_75\n        /* \"#utility.yul\":3034:3377   */\n      jump\n        /* \"contracts/DecentraWill.sol\":3364:3475  require(... */\n    tag_79:\n        /* \"contracts/DecentraWill.sol\":3486:3499  uint256 index */\n      0x00\n        /* \"contracts/DecentraWill.sol\":3510:3700  for (index = 0; index < tokenRecipients[user][token].length; index++) {... */\n    tag_82:\n      sub(shl(0xa0, 0x01), 0x01)\n        /* \"contracts/DecentraWill.sol\":3534:3555  tokenRecipients[user] */\n      dup1\n      dup6\n      and\n      0x00\n      swap1\n      dup2\n      mstore\n        /* \"contracts/DecentraWill.sol\":3534:3549  tokenRecipients */\n      0x03\n        /* \"contracts/DecentraWill.sol\":3534:3555  tokenRecipients[user] */\n      0x20\n      swap1\n      dup2\n      mstore\n      0x40\n      dup1\n      dup4\n      keccak256\n        /* \"contracts/DecentraWill.sol\":3534:3562  tokenRecipients[user][token] */\n      swap4\n      dup8\n      and\n      dup4\n      mstore\n      swap3\n      swap1\n      mstore\n      keccak256\n        /* \"contracts/DecentraWill.sol\":3534:3569  tokenRecipients[user][token].length */\n      sload\n        /* \"contracts/DecentraWill.sol\":3526:3569  index < tokenRecipients[user][token].length */\n      dup2\n      lt\n        /* \"contracts/DecentraWill.sol\":3510:3700  for (index = 0; index < tokenRecipients[user][token].length; index++) {... */\n      iszero\n      tag_83\n      jumpi\n      sub(shl(0xa0, 0x01), 0x01)\n        /* \"contracts/DecentraWill.sol\":3599:3620  tokenRecipients[user] */\n      dup5\n      dup2\n      and\n      0x00\n      swap1\n      dup2\n      mstore\n        /* \"contracts/DecentraWill.sol\":3599:3614  tokenRecipients */\n      0x03\n        /* \"contracts/DecentraWill.sol\":3599:3620  tokenRecipients[user] */\n      0x20\n      swap1\n      dup2\n      mstore\n      0x40\n      dup1\n      dup4\n      keccak256\n        /* \"contracts/DecentraWill.sol\":3599:3627  tokenRecipients[user][token] */\n      dup8\n      dup6\n      and\n      dup5\n      mstore\n      swap1\n      swap2\n      mstore\n      swap1\n      keccak256\n        /* \"contracts/DecentraWill.sol\":3599:3634  tokenRecipients[user][token][index] */\n      dup1\n      sload\n        /* \"contracts/DecentraWill.sol\":3599:3647  tokenRecipients[user][token][index] == recipient */\n      swap2\n      dup5\n      and\n      swap2\n        /* \"contracts/DecentraWill.sol\":3628:3633  index */\n      dup4\n      swap1\n        /* \"contracts/DecentraWill.sol\":3599:3634  tokenRecipients[user][token][index] */\n      dup2\n      lt\n      tag_86\n      jumpi\n      tag_86\n      tag_65\n      jump\t// in\n    tag_86:\n      0x00\n      swap2\n      dup3\n      mstore\n      0x20\n      swap1\n      swap2\n      keccak256\n      add\n      sload\n      sub(shl(0xa0, 0x01), 0x01)\n      and\n        /* \"contracts/DecentraWill.sol\":3595:3689  if (tokenRecipients[user][token][index] == recipient) {... */\n      eq\n        /* \"contracts/DecentraWill.sol\":3668:3673  break */\n      tag_83\n        /* \"contracts/DecentraWill.sol\":3595:3689  if (tokenRecipients[user][token][index] == recipient) {... */\n      jumpi\n        /* \"contracts/DecentraWill.sol\":3571:3578  index++ */\n      0x01\n      add\n        /* \"contracts/DecentraWill.sol\":3510:3700  for (index = 0; index < tokenRecipients[user][token].length; index++) {... */\n      jump(tag_82)\n    tag_83:\n        /* \"contracts/DecentraWill.sol\":3785:3790  index */\n      dup1\n        /* \"contracts/DecentraWill.sol\":3754:4006  for (... */\n    tag_89:\n      sub(shl(0xa0, 0x01), 0x01)\n        /* \"contracts/DecentraWill.sol\":3809:3830  tokenRecipients[user] */\n      dup1\n      dup7\n      and\n      0x00\n      swap1\n      dup2\n      mstore\n        /* \"contracts/DecentraWill.sol\":3809:3824  tokenRecipients */\n      0x03\n        /* \"contracts/DecentraWill.sol\":3809:3830  tokenRecipients[user] */\n      0x20\n      swap1\n      dup2\n      mstore\n      0x40\n      dup1\n      dup4\n      keccak256\n        /* \"contracts/DecentraWill.sol\":3809:3837  tokenRecipients[user][token] */\n      swap4\n      dup9\n      and\n      dup4\n      mstore\n      swap3\n      swap1\n      mstore\n      keccak256\n        /* \"contracts/DecentraWill.sol\":3809:3844  tokenRecipients[user][token].length */\n      sload\n        /* \"contracts/DecentraWill.sol\":3809:3848  tokenRecipients[user][token].length - 1 */\n      tag_92\n      swap1\n        /* \"contracts/DecentraWill.sol\":3847:3848  1 */\n      0x01\n      swap1\n        /* \"contracts/DecentraWill.sol\":3809:3848  tokenRecipients[user][token].length - 1 */\n      tag_93\n      jump\t// in\n    tag_92:\n        /* \"contracts/DecentraWill.sol\":3805:3806  i */\n      dup2\n        /* \"contracts/DecentraWill.sol\":3805:3848  i < tokenRecipients[user][token].length - 1 */\n      lt\n        /* \"contracts/DecentraWill.sol\":3754:4006  for (... */\n      iszero\n      tag_90\n      jumpi\n      sub(shl(0xa0, 0x01), 0x01)\n        /* \"contracts/DecentraWill.sol\":3927:3948  tokenRecipients[user] */\n      dup1\n      dup7\n      and\n      0x00\n      swap1\n      dup2\n      mstore\n        /* \"contracts/DecentraWill.sol\":3927:3942  tokenRecipients */\n      0x03\n        /* \"contracts/DecentraWill.sol\":3927:3948  tokenRecipients[user] */\n      0x20\n      swap1\n      dup2\n      mstore\n      0x40\n      dup1\n      dup4\n      keccak256\n        /* \"contracts/DecentraWill.sol\":3927:3955  tokenRecipients[user][token] */\n      swap4\n      dup9\n      and\n      dup4\n      mstore\n      swap3\n      swap1\n      mstore\n      keccak256\n        /* \"contracts/DecentraWill.sol\":3974:3979  i + 1 */\n      tag_94\n        /* \"contracts/DecentraWill.sol\":3974:3975  i */\n      dup3\n        /* \"contracts/DecentraWill.sol\":3978:3979  1 */\n      0x01\n        /* \"contracts/DecentraWill.sol\":3974:3979  i + 1 */\n      tag_95\n      jump\t// in\n    tag_94:\n        /* \"contracts/DecentraWill.sol\":3927:3994  tokenRecipients[user][token][... */\n      dup2\n      sload\n      dup2\n      lt\n      tag_97\n      jumpi\n      tag_97\n      tag_65\n      jump\t// in\n    tag_97:\n      0x00\n      swap2\n      dup3\n      mstore\n      0x20\n      dup1\n      dup4\n      keccak256\n      swap1\n      swap2\n      add\n      sload\n      sub(shl(0xa0, 0x01), 0x01)\n        /* \"contracts/DecentraWill.sol\":3893:3914  tokenRecipients[user] */\n      dup9\n      dup2\n      and\n      dup5\n      mstore\n        /* \"contracts/DecentraWill.sol\":3893:3908  tokenRecipients */\n      0x03\n        /* \"contracts/DecentraWill.sol\":3893:3914  tokenRecipients[user] */\n      dup4\n      mstore\n      0x40\n      dup1\n      dup6\n      keccak256\n        /* \"contracts/DecentraWill.sol\":3893:3921  tokenRecipients[user][token] */\n      dup10\n      dup4\n      and\n      dup7\n      mstore\n      swap1\n      swap4\n      mstore\n      swap2\n      swap1\n      swap3\n      keccak256\n        /* \"contracts/DecentraWill.sol\":3893:3924  tokenRecipients[user][token][i] */\n      dup1\n      sload\n        /* \"contracts/DecentraWill.sol\":3927:3994  tokenRecipients[user][token][... */\n      swap2\n      swap1\n      swap3\n      and\n      swap2\n        /* \"contracts/DecentraWill.sol\":3893:3921  tokenRecipients[user][token] */\n      swap1\n        /* \"contracts/DecentraWill.sol\":3922:3923  i */\n      dup4\n      swap1\n        /* \"contracts/DecentraWill.sol\":3893:3924  tokenRecipients[user][token][i] */\n      dup2\n      lt\n      tag_100\n      jumpi\n      tag_100\n      tag_65\n      jump\t// in\n    tag_100:\n      0x00\n      swap2\n      dup3\n      mstore\n      0x20\n      swap1\n      swap2\n      keccak256\n      add\n        /* \"contracts/DecentraWill.sol\":3893:3994  tokenRecipients[user][token][i] = tokenRecipients[user][token][... */\n      dup1\n      sload\n      not(sub(shl(0xa0, 0x01), 0x01))\n      and\n      sub(shl(0xa0, 0x01), 0x01)\n      swap3\n      swap1\n      swap3\n      and\n      swap2\n      swap1\n      swap2\n      or\n      swap1\n      sstore\n      0x01\n        /* \"contracts/DecentraWill.sol\":3863:3866  i++ */\n      add\n        /* \"contracts/DecentraWill.sol\":3754:4006  for (... */\n      jump(tag_89)\n    tag_90:\n      pop\n      sub(shl(0xa0, 0x01), 0x01)\n        /* \"contracts/DecentraWill.sol\":4016:4037  tokenRecipients[user] */\n      dup1\n      dup6\n      and\n      0x00\n      swap1\n      dup2\n      mstore\n        /* \"contracts/DecentraWill.sol\":4016:4031  tokenRecipients */\n      0x03\n        /* \"contracts/DecentraWill.sol\":4016:4037  tokenRecipients[user] */\n      0x20\n      swap1\n      dup2\n      mstore\n      0x40\n      dup1\n      dup4\n      keccak256\n        /* \"contracts/DecentraWill.sol\":4016:4044  tokenRecipients[user][token] */\n      swap4\n      dup8\n      and\n      dup4\n      mstore\n      swap3\n      swap1\n      mstore\n      keccak256\n        /* \"contracts/DecentraWill.sol\":4016:4050  tokenRecipients[user][token].pop() */\n      dup1\n      sload\n      dup1\n      tag_103\n      jumpi\n      tag_103\n      tag_104\n      jump\t// in\n    tag_103:\n      0x00\n      dup3\n      dup2\n      mstore\n      0x20\n      dup1\n      dup3\n      keccak256\n      dup4\n      add\n      not(0x00)\n      swap1\n      dup2\n      add\n      dup1\n      sload\n      not(sub(shl(0xa0, 0x01), 0x01))\n      and\n      swap1\n      sstore\n      swap1\n      swap3\n      add\n      swap1\n      swap3\n      sstore\n      sub(shl(0xa0, 0x01), 0x01)\n        /* \"contracts/DecentraWill.sol\":4104:4126  tokenAllocations[user] */\n      swap6\n      dup7\n      and\n      dup3\n      mstore\n        /* \"contracts/DecentraWill.sol\":4016:4050  tokenRecipients[user][token].pop() */\n      0x01\n        /* \"contracts/DecentraWill.sol\":4104:4126  tokenAllocations[user] */\n      dup2\n      mstore\n      0x40\n      dup1\n      dup4\n      keccak256\n        /* \"contracts/DecentraWill.sol\":4104:4133  tokenAllocations[user][token] */\n      swap6\n      dup8\n      and\n      dup4\n      mstore\n      swap5\n      dup2\n      mstore\n      dup5\n      dup3\n      keccak256\n        /* \"contracts/DecentraWill.sol\":4104:4144  tokenAllocations[user][token][recipient] */\n      swap4\n      swap1\n      swap6\n      and\n      dup2\n      mstore\n      swap2\n      swap1\n      swap4\n      mstore\n      swap1\n      dup2\n      keccak256\n        /* \"contracts/DecentraWill.sol\":4097:4144  delete tokenAllocations[user][token][recipient] */\n      sstore\n      pop\n        /* \"contracts/DecentraWill.sol\":3221:4152  function removeRecipientForToken(... */\n      jump\t// out\n        /* \"contracts/DecentraWill.sol\":1872:2235  function isRecipientOfToken(... */\n    tag_48:\n        /* \"contracts/DecentraWill.sol\":2003:2007  bool */\n      0x00\n      dup1\n        /* \"contracts/DecentraWill.sol\":2020:2205  for (uint i = 0; i < tokenRecipients[user][token].length; i++) {... */\n    tag_107:\n      sub(shl(0xa0, 0x01), 0x01)\n        /* \"contracts/DecentraWill.sol\":2041:2062  tokenRecipients[user] */\n      dup1\n      dup7\n      and\n      0x00\n      swap1\n      dup2\n      mstore\n        /* \"contracts/DecentraWill.sol\":2041:2056  tokenRecipients */\n      0x03\n        /* \"contracts/DecentraWill.sol\":2041:2062  tokenRecipients[user] */\n      0x20\n      swap1\n      dup2\n      mstore\n      0x40\n      dup1\n      dup4\n      keccak256\n        /* \"contracts/DecentraWill.sol\":2041:2069  tokenRecipients[user][token] */\n      swap4\n      dup9\n      and\n      dup4\n      mstore\n      swap3\n      swap1\n      mstore\n      keccak256\n        /* \"contracts/DecentraWill.sol\":2041:2076  tokenRecipients[user][token].length */\n      sload\n        /* \"contracts/DecentraWill.sol\":2037:2076  i < tokenRecipients[user][token].length */\n      dup2\n      lt\n        /* \"contracts/DecentraWill.sol\":2020:2205  for (uint i = 0; i < tokenRecipients[user][token].length; i++) {... */\n      iszero\n      tag_108\n      jumpi\n      sub(shl(0xa0, 0x01), 0x01)\n        /* \"contracts/DecentraWill.sol\":2102:2123  tokenRecipients[user] */\n      dup6\n      dup2\n      and\n      0x00\n      swap1\n      dup2\n      mstore\n        /* \"contracts/DecentraWill.sol\":2102:2117  tokenRecipients */\n      0x03\n        /* \"contracts/DecentraWill.sol\":2102:2123  tokenRecipients[user] */\n      0x20\n      swap1\n      dup2\n      mstore\n      0x40\n      dup1\n      dup4\n      keccak256\n        /* \"contracts/DecentraWill.sol\":2102:2130  tokenRecipients[user][token] */\n      dup9\n      dup6\n      and\n      dup5\n      mstore\n      swap1\n      swap2\n      mstore\n      swap1\n      keccak256\n        /* \"contracts/DecentraWill.sol\":2102:2133  tokenRecipients[user][token][i] */\n      dup1\n      sload\n        /* \"contracts/DecentraWill.sol\":2102:2146  tokenRecipients[user][token][i] == recipient */\n      swap2\n      dup6\n      and\n      swap2\n        /* \"contracts/DecentraWill.sol\":2131:2132  i */\n      dup4\n      swap1\n        /* \"contracts/DecentraWill.sol\":2102:2133  tokenRecipients[user][token][i] */\n      dup2\n      lt\n      tag_111\n      jumpi\n      tag_111\n      tag_65\n      jump\t// in\n    tag_111:\n      0x00\n      swap2\n      dup3\n      mstore\n      0x20\n      swap1\n      swap2\n      keccak256\n      add\n      sload\n      sub(shl(0xa0, 0x01), 0x01)\n      and\n        /* \"contracts/DecentraWill.sol\":2102:2146  tokenRecipients[user][token][i] == recipient */\n      sub\n        /* \"contracts/DecentraWill.sol\":2098:2194  if (tokenRecipients[user][token][i] == recipient) {... */\n      tag_113\n      jumpi\n        /* \"contracts/DecentraWill.sol\":2174:2178  true */\n      0x01\n        /* \"contracts/DecentraWill.sol\":2167:2178  return true */\n      swap2\n      pop\n      pop\n      jump(tag_106)\n        /* \"contracts/DecentraWill.sol\":2098:2194  if (tokenRecipients[user][token][i] == recipient) {... */\n    tag_113:\n        /* \"contracts/DecentraWill.sol\":2078:2081  i++ */\n      0x01\n      add\n        /* \"contracts/DecentraWill.sol\":2020:2205  for (uint i = 0; i < tokenRecipients[user][token].length; i++) {... */\n      jump(tag_107)\n    tag_108:\n      pop\n        /* \"contracts/DecentraWill.sol\":2222:2227  false */\n      0x00\n        /* \"contracts/DecentraWill.sol\":2215:2227  return false */\n      swap1\n      pop\n        /* \"contracts/DecentraWill.sol\":1872:2235  function isRecipientOfToken(... */\n    tag_106:\n      swap4\n      swap3\n      pop\n      pop\n      pop\n      jump\t// out\n        /* \"contracts/DecentraWill.sol\":4247:4677  function adjustAllocation(... */\n    tag_52:\n        /* \"contracts/DecentraWill.sol\":4379:4385  amount */\n      dup1\n        /* \"contracts/DecentraWill.sol\":4389:4390  0 */\n      0x00\n        /* \"contracts/DecentraWill.sol\":4379:4390  amount == 0 */\n      sub\n        /* \"contracts/DecentraWill.sol\":4375:4670  if (amount == 0) {... */\n      tag_115\n      jumpi\n        /* \"contracts/DecentraWill.sol\":4431:4441  msg.sender */\n      caller\n        /* \"contracts/DecentraWill.sol\":4414:4442  tokenAllocations[msg.sender] */\n      0x00\n      swap1\n      dup2\n      mstore\n        /* \"contracts/DecentraWill.sol\":4414:4430  tokenAllocations */\n      0x01\n        /* \"contracts/DecentraWill.sol\":4414:4442  tokenAllocations[msg.sender] */\n      0x20\n      swap1\n      dup2\n      mstore\n      0x40\n      dup1\n      dup4\n      keccak256\n      sub(shl(0xa0, 0x01), 0x01)\n        /* \"contracts/DecentraWill.sol\":4414:4449  tokenAllocations[msg.sender][token] */\n      dup8\n      dup2\n      and\n      dup6\n      mstore\n      swap1\n      dup4\n      mstore\n      dup2\n      dup5\n      keccak256\n        /* \"contracts/DecentraWill.sol\":4414:4460  tokenAllocations[msg.sender][token][recipient] */\n      swap1\n      dup7\n      and\n      dup5\n      mstore\n      swap1\n      swap2\n      mstore\n      dup2\n      keccak256\n        /* \"contracts/DecentraWill.sol\":4407:4460  delete tokenAllocations[msg.sender][token][recipient] */\n      sstore\n        /* \"contracts/DecentraWill.sol\":2336:2632  function setAllocation(... */\n      pop\n      pop\n      pop\n      jump\t// out\n        /* \"contracts/DecentraWill.sol\":4375:4670  if (amount == 0) {... */\n    tag_115:\n        /* \"contracts/DecentraWill.sol\":4620:4630  msg.sender */\n      caller\n        /* \"contracts/DecentraWill.sol\":4603:4631  tokenAllocations[msg.sender] */\n      0x00\n      swap1\n      dup2\n      mstore\n        /* \"contracts/DecentraWill.sol\":4603:4619  tokenAllocations */\n      0x01\n        /* \"contracts/DecentraWill.sol\":4603:4631  tokenAllocations[msg.sender] */\n      0x20\n      swap1\n      dup2\n      mstore\n      0x40\n      dup1\n      dup4\n      keccak256\n      sub(shl(0xa0, 0x01), 0x01)\n        /* \"contracts/DecentraWill.sol\":4603:4638  tokenAllocations[msg.sender][token] */\n      swap7\n      dup8\n      and\n      dup5\n      mstore\n      dup3\n      mstore\n      dup1\n      dup4\n      keccak256\n        /* \"contracts/DecentraWill.sol\":4603:4649  tokenAllocations[msg.sender][token][recipient] */\n      swap5\n      swap1\n      swap6\n      and\n      dup3\n      mstore\n      swap3\n      swap1\n      swap3\n      mstore\n      swap2\n      swap1\n      keccak256\n        /* \"contracts/DecentraWill.sol\":4603:4658  tokenAllocations[msg.sender][token][recipient] = amount */\n      sstore\n        /* \"contracts/DecentraWill.sol\":4247:4677  function adjustAllocation(... */\n      jump\t// out\n        /* \"contracts/DecentraWill.sol\":852:1039  function _addTokenForUser(address user, address token) private {... */\n    tag_70:\n        /* \"contracts/DecentraWill.sol\":931:966  isTokenAllocatedByUser(user, token) */\n      tag_118\n        /* \"contracts/DecentraWill.sol\":954:958  user */\n      dup3\n        /* \"contracts/DecentraWill.sol\":960:965  token */\n      dup3\n        /* \"contracts/DecentraWill.sol\":931:953  isTokenAllocatedByUser */\n      tag_26\n        /* \"contracts/DecentraWill.sol\":931:966  isTokenAllocatedByUser(user, token) */\n      jump\t// in\n    tag_118:\n        /* \"contracts/DecentraWill.sol\":926:1032  if (!isTokenAllocatedByUser(user, token)) {... */\n      tag_119\n      jumpi\n      sub(shl(0xa0, 0x01), 0x01)\n        /* \"contracts/DecentraWill.sol\":983:1008  userAllocatedTokens[user] */\n      dup3\n      dup2\n      and\n      0x00\n      swap1\n      dup2\n      mstore\n        /* \"contracts/DecentraWill.sol\":983:1002  userAllocatedTokens */\n      0x02\n        /* \"contracts/DecentraWill.sol\":983:1008  userAllocatedTokens[user] */\n      0x20\n      swap1\n      dup2\n      mstore\n      0x40\n      dup3\n      keccak256\n        /* \"contracts/DecentraWill.sol\":983:1020  userAllocatedTokens[user].push(token) */\n      dup1\n      sload\n      0x01\n      dup2\n      add\n      dup3\n      sstore\n      swap1\n      dup4\n      mstore\n      swap2\n      keccak256\n      add\n      dup1\n      sload\n      not(sub(shl(0xa0, 0x01), 0x01))\n      and\n      swap2\n      dup4\n      and\n      swap2\n      swap1\n      swap2\n      or\n      swap1\n      sstore\n        /* \"contracts/DecentraWill.sol\":926:1032  if (!isTokenAllocatedByUser(user, token)) {... */\n    tag_119:\n        /* \"contracts/DecentraWill.sol\":852:1039  function _addTokenForUser(address user, address token) private {... */\n      pop\n      pop\n      jump\t// out\n        /* \"contracts/DecentraWill.sol\":1129:1388  function _addRecipientForToken(... */\n    tag_72:\n        /* \"contracts/DecentraWill.sol\":1266:1308  isRecipientOfToken(user, token, recipient) */\n      tag_122\n        /* \"contracts/DecentraWill.sol\":1285:1289  user */\n      dup4\n        /* \"contracts/DecentraWill.sol\":1291:1296  token */\n      dup4\n        /* \"contracts/DecentraWill.sol\":1298:1307  recipient */\n      dup4\n        /* \"contracts/DecentraWill.sol\":1266:1284  isRecipientOfToken */\n      tag_48\n        /* \"contracts/DecentraWill.sol\":1266:1308  isRecipientOfToken(user, token, recipient) */\n      jump\t// in\n    tag_122:\n        /* \"contracts/DecentraWill.sol\":1261:1381  if (!isRecipientOfToken(user, token, recipient)) {... */\n      tag_71\n      jumpi\n      sub(shl(0xa0, 0x01), 0x01)\n        /* \"contracts/DecentraWill.sol\":1325:1346  tokenRecipients[user] */\n      swap3\n      dup4\n      and\n      0x00\n      swap1\n      dup2\n      mstore\n        /* \"contracts/DecentraWill.sol\":1325:1340  tokenRecipients */\n      0x03\n        /* \"contracts/DecentraWill.sol\":1325:1346  tokenRecipients[user] */\n      0x20\n      swap1\n      dup2\n      mstore\n      0x40\n      dup1\n      dup4\n      keccak256\n        /* \"contracts/DecentraWill.sol\":1325:1353  tokenRecipients[user][token] */\n      swap5\n      dup7\n      and\n      dup4\n      mstore\n      swap4\n      dup2\n      mstore\n      swap3\n      dup2\n      keccak256\n        /* \"contracts/DecentraWill.sol\":1325:1369  tokenRecipients[user][token].push(recipient) */\n      dup1\n      sload\n      0x01\n      dup2\n      add\n      dup3\n      sstore\n      swap1\n      dup3\n      mstore\n      swap3\n      swap1\n      keccak256\n      swap1\n      swap2\n      add\n      dup1\n      sload\n      not(sub(shl(0xa0, 0x01), 0x01))\n      and\n      swap2\n      swap1\n      swap3\n      and\n      or\n      swap1\n      sstore\n        /* \"contracts/DecentraWill.sol\":1129:1388  function _addRecipientForToken(... */\n      jump\t// out\n        /* \"#utility.yul\":14:187   */\n    tag_125:\n        /* \"#utility.yul\":82:102   */\n      dup1\n      calldataload\n      sub(shl(0xa0, 0x01), 0x01)\n        /* \"#utility.yul\":131:162   */\n      dup2\n      and\n        /* \"#utility.yul\":121:163   */\n      dup2\n      eq\n        /* \"#utility.yul\":111:181   */\n      tag_129\n      jumpi\n        /* \"#utility.yul\":177:178   */\n      0x00\n        /* \"#utility.yul\":174:175   */\n      dup1\n        /* \"#utility.yul\":167:179   */\n      revert\n        /* \"#utility.yul\":111:181   */\n    tag_129:\n        /* \"#utility.yul\":14:187   */\n      swap2\n      swap1\n      pop\n      jump\t// out\n        /* \"#utility.yul\":192:452   */\n    tag_15:\n        /* \"#utility.yul\":260:266   */\n      0x00\n        /* \"#utility.yul\":268:274   */\n      dup1\n        /* \"#utility.yul\":321:323   */\n      0x40\n        /* \"#utility.yul\":309:318   */\n      dup4\n        /* \"#utility.yul\":300:307   */\n      dup6\n        /* \"#utility.yul\":296:319   */\n      sub\n        /* \"#utility.yul\":292:324   */\n      slt\n        /* \"#utility.yul\":289:341   */\n      iszero\n      tag_131\n      jumpi\n        /* \"#utility.yul\":337:338   */\n      0x00\n        /* \"#utility.yul\":334:335   */\n      dup1\n        /* \"#utility.yul\":327:339   */\n      revert\n        /* \"#utility.yul\":289:341   */\n    tag_131:\n        /* \"#utility.yul\":360:389   */\n      tag_132\n        /* \"#utility.yul\":379:388   */\n      dup4\n        /* \"#utility.yul\":360:389   */\n      tag_125\n      jump\t// in\n    tag_132:\n        /* \"#utility.yul\":350:389   */\n      swap2\n      pop\n        /* \"#utility.yul\":408:446   */\n      tag_133\n        /* \"#utility.yul\":442:444   */\n      0x20\n        /* \"#utility.yul\":431:440   */\n      dup5\n        /* \"#utility.yul\":427:445   */\n      add\n        /* \"#utility.yul\":408:446   */\n      tag_125\n      jump\t// in\n    tag_133:\n        /* \"#utility.yul\":398:446   */\n      swap1\n      pop\n        /* \"#utility.yul\":192:452   */\n      swap3\n      pop\n      swap3\n      swap1\n      pop\n      jump\t// out\n        /* \"#utility.yul\":457:1115   */\n    tag_18:\n        /* \"#utility.yul\":628:630   */\n      0x20\n        /* \"#utility.yul\":680:701   */\n      dup1\n      dup3\n      mstore\n        /* \"#utility.yul\":750:763   */\n      dup3\n      mload\n        /* \"#utility.yul\":653:671   */\n      dup3\n      dup3\n      add\n        /* \"#utility.yul\":772:794   */\n      dup2\n      swap1\n      mstore\n        /* \"#utility.yul\":599:603   */\n      0x00\n      swap2\n        /* \"#utility.yul\":628:630   */\n      swap1\n        /* \"#utility.yul\":851:866   */\n      dup5\n      dup3\n      add\n      swap1\n        /* \"#utility.yul\":825:827   */\n      0x40\n        /* \"#utility.yul\":810:828   */\n      dup6\n      add\n      swap1\n        /* \"#utility.yul\":599:603   */\n      dup5\n        /* \"#utility.yul\":894:1089   */\n    tag_135:\n        /* \"#utility.yul\":908:914   */\n      dup2\n        /* \"#utility.yul\":905:906   */\n      dup2\n        /* \"#utility.yul\":902:915   */\n      lt\n        /* \"#utility.yul\":894:1089   */\n      iszero\n      tag_137\n      jumpi\n        /* \"#utility.yul\":973:986   */\n      dup4\n      mload\n      sub(shl(0xa0, 0x01), 0x01)\n        /* \"#utility.yul\":969:1008   */\n      and\n        /* \"#utility.yul\":957:1009   */\n      dup4\n      mstore\n        /* \"#utility.yul\":1064:1079   */\n      swap3\n      dup5\n      add\n      swap3\n        /* \"#utility.yul\":1029:1041   */\n      swap2\n      dup5\n      add\n      swap2\n        /* \"#utility.yul\":1005:1006   */\n      0x01\n        /* \"#utility.yul\":923:932   */\n      add\n        /* \"#utility.yul\":894:1089   */\n      jump(tag_135)\n    tag_137:\n      pop\n        /* \"#utility.yul\":1106:1109   */\n      swap1\n      swap7\n        /* \"#utility.yul\":457:1115   */\n      swap6\n      pop\n      pop\n      pop\n      pop\n      pop\n      pop\n      jump\t// out\n        /* \"#utility.yul\":1120:1306   */\n    tag_21:\n        /* \"#utility.yul\":1179:1185   */\n      0x00\n        /* \"#utility.yul\":1232:1234   */\n      0x20\n        /* \"#utility.yul\":1220:1229   */\n      dup3\n        /* \"#utility.yul\":1211:1218   */\n      dup5\n        /* \"#utility.yul\":1207:1230   */\n      sub\n        /* \"#utility.yul\":1203:1235   */\n      slt\n        /* \"#utility.yul\":1200:1252   */\n      iszero\n      tag_139\n      jumpi\n        /* \"#utility.yul\":1248:1249   */\n      0x00\n        /* \"#utility.yul\":1245:1246   */\n      dup1\n        /* \"#utility.yul\":1238:1250   */\n      revert\n        /* \"#utility.yul\":1200:1252   */\n    tag_139:\n        /* \"#utility.yul\":1271:1300   */\n      tag_106\n        /* \"#utility.yul\":1290:1299   */\n      dup3\n        /* \"#utility.yul\":1271:1300   */\n      tag_125\n      jump\t// in\n        /* \"#utility.yul\":1503:1837   */\n    tag_31:\n        /* \"#utility.yul\":1580:1586   */\n      0x00\n        /* \"#utility.yul\":1588:1594   */\n      dup1\n        /* \"#utility.yul\":1596:1602   */\n      0x00\n        /* \"#utility.yul\":1649:1651   */\n      0x60\n        /* \"#utility.yul\":1637:1646   */\n      dup5\n        /* \"#utility.yul\":1628:1635   */\n      dup7\n        /* \"#utility.yul\":1624:1647   */\n      sub\n        /* \"#utility.yul\":1620:1652   */\n      slt\n        /* \"#utility.yul\":1617:1669   */\n      iszero\n      tag_143\n      jumpi\n        /* \"#utility.yul\":1665:1666   */\n      0x00\n        /* \"#utility.yul\":1662:1663   */\n      dup1\n        /* \"#utility.yul\":1655:1667   */\n      revert\n        /* \"#utility.yul\":1617:1669   */\n    tag_143:\n        /* \"#utility.yul\":1688:1717   */\n      tag_144\n        /* \"#utility.yul\":1707:1716   */\n      dup5\n        /* \"#utility.yul\":1688:1717   */\n      tag_125\n      jump\t// in\n    tag_144:\n        /* \"#utility.yul\":1678:1717   */\n      swap3\n      pop\n        /* \"#utility.yul\":1736:1774   */\n      tag_145\n        /* \"#utility.yul\":1770:1772   */\n      0x20\n        /* \"#utility.yul\":1759:1768   */\n      dup6\n        /* \"#utility.yul\":1755:1773   */\n      add\n        /* \"#utility.yul\":1736:1774   */\n      tag_125\n      jump\t// in\n    tag_145:\n        /* \"#utility.yul\":1726:1774   */\n      swap2\n      pop\n        /* \"#utility.yul\":1793:1831   */\n      tag_146\n        /* \"#utility.yul\":1827:1829   */\n      0x40\n        /* \"#utility.yul\":1816:1825   */\n      dup6\n        /* \"#utility.yul\":1812:1830   */\n      add\n        /* \"#utility.yul\":1793:1831   */\n      tag_125\n      jump\t// in\n    tag_146:\n        /* \"#utility.yul\":1783:1831   */\n      swap1\n      pop\n        /* \"#utility.yul\":1503:1837   */\n      swap3\n      pop\n      swap3\n      pop\n      swap3\n      jump\t// out\n        /* \"#utility.yul\":2024:2352   */\n    tag_37:\n        /* \"#utility.yul\":2101:2107   */\n      0x00\n        /* \"#utility.yul\":2109:2115   */\n      dup1\n        /* \"#utility.yul\":2117:2123   */\n      0x00\n        /* \"#utility.yul\":2170:2172   */\n      0x60\n        /* \"#utility.yul\":2158:2167   */\n      dup5\n        /* \"#utility.yul\":2149:2156   */\n      dup7\n        /* \"#utility.yul\":2145:2168   */\n      sub\n        /* \"#utility.yul\":2141:2173   */\n      slt\n        /* \"#utility.yul\":2138:2190   */\n      iszero\n      tag_149\n      jumpi\n        /* \"#utility.yul\":2186:2187   */\n      0x00\n        /* \"#utility.yul\":2183:2184   */\n      dup1\n        /* \"#utility.yul\":2176:2188   */\n      revert\n        /* \"#utility.yul\":2138:2190   */\n    tag_149:\n        /* \"#utility.yul\":2209:2238   */\n      tag_150\n        /* \"#utility.yul\":2228:2237   */\n      dup5\n        /* \"#utility.yul\":2209:2238   */\n      tag_125\n      jump\t// in\n    tag_150:\n        /* \"#utility.yul\":2199:2238   */\n      swap3\n      pop\n        /* \"#utility.yul\":2257:2295   */\n      tag_151\n        /* \"#utility.yul\":2291:2293   */\n      0x20\n        /* \"#utility.yul\":2280:2289   */\n      dup6\n        /* \"#utility.yul\":2276:2294   */\n      add\n        /* \"#utility.yul\":2257:2295   */\n      tag_125\n      jump\t// in\n    tag_151:\n        /* \"#utility.yul\":2247:2295   */\n      swap2\n      pop\n        /* \"#utility.yul\":2342:2344   */\n      0x40\n        /* \"#utility.yul\":2331:2340   */\n      dup5\n        /* \"#utility.yul\":2327:2345   */\n      add\n        /* \"#utility.yul\":2314:2346   */\n      calldataload\n        /* \"#utility.yul\":2304:2346   */\n      swap1\n      pop\n        /* \"#utility.yul\":2024:2352   */\n      swap3\n      pop\n      swap3\n      pop\n      swap3\n      jump\t// out\n        /* \"#utility.yul\":2565:2692   */\n    tag_65:\n        /* \"#utility.yul\":2626:2636   */\n      0x4e487b71\n        /* \"#utility.yul\":2621:2624   */\n      0xe0\n        /* \"#utility.yul\":2617:2637   */\n      shl\n        /* \"#utility.yul\":2614:2615   */\n      0x00\n        /* \"#utility.yul\":2607:2638   */\n      mstore\n        /* \"#utility.yul\":2657:2661   */\n      0x32\n        /* \"#utility.yul\":2654:2655   */\n      0x04\n        /* \"#utility.yul\":2647:2662   */\n      mstore\n        /* \"#utility.yul\":2681:2685   */\n      0x24\n        /* \"#utility.yul\":2678:2679   */\n      0x00\n        /* \"#utility.yul\":2671:2686   */\n      revert\n        /* \"#utility.yul\":3382:3509   */\n    tag_126:\n        /* \"#utility.yul\":3443:3453   */\n      0x4e487b71\n        /* \"#utility.yul\":3438:3441   */\n      0xe0\n        /* \"#utility.yul\":3434:3454   */\n      shl\n        /* \"#utility.yul\":3431:3432   */\n      0x00\n        /* \"#utility.yul\":3424:3455   */\n      mstore\n        /* \"#utility.yul\":3474:3478   */\n      0x11\n        /* \"#utility.yul\":3471:3472   */\n      0x04\n        /* \"#utility.yul\":3464:3479   */\n      mstore\n        /* \"#utility.yul\":3498:3502   */\n      0x24\n        /* \"#utility.yul\":3495:3496   */\n      0x00\n        /* \"#utility.yul\":3488:3503   */\n      revert\n        /* \"#utility.yul\":3514:3642   */\n    tag_93:\n        /* \"#utility.yul\":3581:3590   */\n      dup2\n      dup2\n      sub\n        /* \"#utility.yul\":3602:3613   */\n      dup2\n      dup2\n      gt\n        /* \"#utility.yul\":3599:3636   */\n      iszero\n      tag_53\n      jumpi\n        /* \"#utility.yul\":3616:3634   */\n      tag_53\n      tag_126\n      jump\t// in\n        /* \"#utility.yul\":3647:3772   */\n    tag_95:\n        /* \"#utility.yul\":3712:3721   */\n      dup1\n      dup3\n      add\n        /* \"#utility.yul\":3733:3743   */\n      dup1\n      dup3\n      gt\n        /* \"#utility.yul\":3730:3766   */\n      iszero\n      tag_53\n      jumpi\n        /* \"#utility.yul\":3746:3764   */\n      tag_53\n      tag_126\n      jump\t// in\n        /* \"#utility.yul\":3777:3904   */\n    tag_104:\n        /* \"#utility.yul\":3838:3848   */\n      0x4e487b71\n        /* \"#utility.yul\":3833:3836   */\n      0xe0\n        /* \"#utility.yul\":3829:3849   */\n      shl\n        /* \"#utility.yul\":3826:3827   */\n      0x00\n        /* \"#utility.yul\":3819:3850   */\n      mstore\n        /* \"#utility.yul\":3869:3873   */\n      0x31\n        /* \"#utility.yul\":3866:3867   */\n      0x04\n        /* \"#utility.yul\":3859:3874   */\n      mstore\n        /* \"#utility.yul\":3893:3897   */\n      0x24\n        /* \"#utility.yul\":3890:3891   */\n      0x00\n        /* \"#utility.yul\":3883:3898   */\n      revert\n\n    auxdata: 0xa264697066735822122007b0ca7549749b7b2ce49f2f9606704c66fd7307f5d40ad2591f7b650547b21064736f6c63430008180033\n}\n",
				"bytecode": {
					"linkReferences": {},
					"object": "608060405234801561000f575f80fd5b505f80546001600160a01b031916331790556109838061002e5f395ff3fe608060405234801561000f575f80fd5b5060043610610090575f3560e01c80635f15b1d9116100635780635f15b1d9146101315780638da5cb5b14610146578063a2bdd08c14610170578063bd042d2e14610183578063e94640c314610196575f80fd5b80630ac0be3f146100945780630db36379146100bd5780630e6cc31f146100d057806317a436ed146100f3575b5f80fd5b6100a76100a23660046107dc565b6101a9565b6040516100b4919061080d565b60405180910390f35b6100a76100cb366004610859565b61022a565b6100e36100de3660046107dc565b61029d565b60405190151581526020016100b4565b610123610101366004610872565b600160209081525f938452604080852082529284528284209052825290205481565b6040519081526020016100b4565b61014461013f3660046108b2565b610321565b005b5f54610158906001600160a01b031681565b6040516001600160a01b0390911681526020016100b4565b61014461017e366004610872565b61036c565b6100e3610191366004610872565b610607565b6101446101a43660046108b2565b6106a8565b6001600160a01b038083165f90815260036020908152604080832093851683529281529082902080548351818402810184019094528084526060939283018282801561021c57602002820191905f5260205f20905b81546001600160a01b031681526001909101906020018083116101fe575b505050505090505b92915050565b6001600160a01b0381165f9081526002602090815260409182902080548351818402810184019094528084526060939283018282801561029157602002820191905f5260205f20905b81546001600160a01b03168152600190910190602001808311610273575b50505050509050919050565b5f805b6001600160a01b0384165f90815260026020526040902054811015610318576001600160a01b038481165f908152600260205260409020805491851691839081106102ed576102ed6108eb565b5f918252602090912001546001600160a01b031603610310576001915050610224565b6001016102a0565b505f9392505050565b335f8181526001602090815260408083206001600160a01b0388811685529083528184209087168452909152902082905561035c9084610716565b610367338484610766565b505050565b5f546001600160a01b031633146103b65760405162461bcd60e51b81526020600482015260096024820152682737ba1037bbb732b960b91b60448201526064015b60405180910390fd5b6103c1838383610607565b6104035760405162461bcd60e51b8152602060048201526013602482015272149958da5c1a595b9d081b9bdd08199bdd5b99606a1b60448201526064016103ad565b5f5b6001600160a01b038085165f9081526003602090815260408083209387168352929052205481101561048d576001600160a01b038481165f908152600360209081526040808320878516845290915290208054918416918390811061046c5761046c6108eb565b5f918252602090912001546001600160a01b03161461048d57600101610405565b805b6001600160a01b038086165f908152600360209081526040808320938816835292905220546104c090600190610913565b81101561057d576001600160a01b038086165f9081526003602090815260408083209388168352929052206104f6826001610926565b81548110610506576105066108eb565b5f9182526020808320909101546001600160a01b03888116845260038352604080852089831686529093529190922080549190921691908390811061054d5761054d6108eb565b5f91825260209091200180546001600160a01b0319166001600160a01b039290921691909117905560010161048f565b506001600160a01b038085165f9081526003602090815260408083209387168352929052208054806105b1576105b1610939565b5f828152602080822083015f1990810180546001600160a01b03191690559092019092556001600160a01b0395861682526001815260408083209587168352948152848220939095168152919093529081205550565b5f805b6001600160a01b038086165f9081526003602090815260408083209388168352929052205481101561069c576001600160a01b038581165f9081526003602090815260408083208885168452909152902080549185169183908110610671576106716108eb565b5f918252602090912001546001600160a01b0316036106945760019150506106a1565b60010161060a565b505f90505b9392505050565b805f036106e357335f9081526001602090815260408083206001600160a01b0387811685529083528184209086168452909152812055505050565b335f9081526001602090815260408083206001600160a01b03968716845282528083209490951682529290925291902055565b610720828261029d565b610762576001600160a01b038281165f9081526002602090815260408220805460018101825590835291200180546001600160a01b0319169183169190911790555b5050565b610771838383610607565b610367576001600160a01b039283165f9081526003602090815260408083209486168352938152928120805460018101825590825292902090910180546001600160a01b03191691909216179055565b80356001600160a01b03811681146107d7575f80fd5b919050565b5f80604083850312156107ed575f80fd5b6107f6836107c1565b9150610804602084016107c1565b90509250929050565b602080825282518282018190525f9190848201906040850190845b8181101561084d5783516001600160a01b031683529284019291840191600101610828565b50909695505050505050565b5f60208284031215610869575f80fd5b6106a1826107c1565b5f805f60608486031215610884575f80fd5b61088d846107c1565b925061089b602085016107c1565b91506108a9604085016107c1565b90509250925092565b5f805f606084860312156108c4575f80fd5b6108cd846107c1565b92506108db602085016107c1565b9150604084013590509250925092565b634e487b7160e01b5f52603260045260245ffd5b634e487b7160e01b5f52601160045260245ffd5b81810381811115610224576102246108ff565b80820180821115610224576102246108ff565b634e487b7160e01b5f52603160045260245ffdfea264697066735822122007b0ca7549749b7b2ce49f2f9606704c66fd7307f5d40ad2591f7b650547b21064736f6c63430008180033",
					"opcodes": "PUSH1 0x80 PUSH1 0x40 MSTORE CALLVALUE DUP1 ISZERO PUSH2 0xF JUMPI PUSH0 DUP1 REVERT JUMPDEST POP PUSH0 DUP1 SLOAD PUSH1 0x1 PUSH1 0x1 PUSH1 0xA0 SHL SUB NOT AND CALLER OR SWAP1 SSTORE PUSH2 0x983 DUP1 PUSH2 0x2E PUSH0 CODECOPY PUSH0 RETURN INVALID PUSH1 0x80 PUSH1 0x40 MSTORE CALLVALUE DUP1 ISZERO PUSH2 0xF JUMPI PUSH0 DUP1 REVERT JUMPDEST POP PUSH1 0x4 CALLDATASIZE LT PUSH2 0x90 JUMPI PUSH0 CALLDATALOAD PUSH1 0xE0 SHR DUP1 PUSH4 0x5F15B1D9 GT PUSH2 0x63 JUMPI DUP1 PUSH4 0x5F15B1D9 EQ PUSH2 0x131 JUMPI DUP1 PUSH4 0x8DA5CB5B EQ PUSH2 0x146 JUMPI DUP1 PUSH4 0xA2BDD08C EQ PUSH2 0x170 JUMPI DUP1 PUSH4 0xBD042D2E EQ PUSH2 0x183 JUMPI DUP1 PUSH4 0xE94640C3 EQ PUSH2 0x196 JUMPI PUSH0 DUP1 REVERT JUMPDEST DUP1 PUSH4 0xAC0BE3F EQ PUSH2 0x94 JUMPI DUP1 PUSH4 0xDB36379 EQ PUSH2 0xBD JUMPI DUP1 PUSH4 0xE6CC31F EQ PUSH2 0xD0 JUMPI DUP1 PUSH4 0x17A436ED EQ PUSH2 0xF3 JUMPI JUMPDEST PUSH0 DUP1 REVERT JUMPDEST PUSH2 0xA7 PUSH2 0xA2 CALLDATASIZE PUSH1 0x4 PUSH2 0x7DC JUMP JUMPDEST PUSH2 0x1A9 JUMP JUMPDEST PUSH1 0x40 MLOAD PUSH2 0xB4 SWAP2 SWAP1 PUSH2 0x80D JUMP JUMPDEST PUSH1 0x40 MLOAD DUP1 SWAP2 SUB SWAP1 RETURN JUMPDEST PUSH2 0xA7 PUSH2 0xCB CALLDATASIZE PUSH1 0x4 PUSH2 0x859 JUMP JUMPDEST PUSH2 0x22A JUMP JUMPDEST PUSH2 0xE3 PUSH2 0xDE CALLDATASIZE PUSH1 0x4 PUSH2 0x7DC JUMP JUMPDEST PUSH2 0x29D JUMP JUMPDEST PUSH1 0x40 MLOAD SWAP1 ISZERO ISZERO DUP2 MSTORE PUSH1 0x20 ADD PUSH2 0xB4 JUMP JUMPDEST PUSH2 0x123 PUSH2 0x101 CALLDATASIZE PUSH1 0x4 PUSH2 0x872 JUMP JUMPDEST PUSH1 0x1 PUSH1 0x20 SWAP1 DUP2 MSTORE PUSH0 SWAP4 DUP5 MSTORE PUSH1 0x40 DUP1 DUP6 KECCAK256 DUP3 MSTORE SWAP3 DUP5 MSTORE DUP3 DUP5 KECCAK256 SWAP1 MSTORE DUP3 MSTORE SWAP1 KECCAK256 SLOAD DUP2 JUMP JUMPDEST PUSH1 0x40 MLOAD SWAP1 DUP2 MSTORE PUSH1 0x20 ADD PUSH2 0xB4 JUMP JUMPDEST PUSH2 0x144 PUSH2 0x13F CALLDATASIZE PUSH1 0x4 PUSH2 0x8B2 JUMP JUMPDEST PUSH2 0x321 JUMP JUMPDEST STOP JUMPDEST PUSH0 SLOAD PUSH2 0x158 SWAP1 PUSH1 0x1 PUSH1 0x1 PUSH1 0xA0 SHL SUB AND DUP2 JUMP JUMPDEST PUSH1 0x40 MLOAD PUSH1 0x1 PUSH1 0x1 PUSH1 0xA0 SHL SUB SWAP1 SWAP2 AND DUP2 MSTORE PUSH1 0x20 ADD PUSH2 0xB4 JUMP JUMPDEST PUSH2 0x144 PUSH2 0x17E CALLDATASIZE PUSH1 0x4 PUSH2 0x872 JUMP JUMPDEST PUSH2 0x36C JUMP JUMPDEST PUSH2 0xE3 PUSH2 0x191 CALLDATASIZE PUSH1 0x4 PUSH2 0x872 JUMP JUMPDEST PUSH2 0x607 JUMP JUMPDEST PUSH2 0x144 PUSH2 0x1A4 CALLDATASIZE PUSH1 0x4 PUSH2 0x8B2 JUMP JUMPDEST PUSH2 0x6A8 JUMP JUMPDEST PUSH1 0x1 PUSH1 0x1 PUSH1 0xA0 SHL SUB DUP1 DUP4 AND PUSH0 SWAP1 DUP2 MSTORE PUSH1 0x3 PUSH1 0x20 SWAP1 DUP2 MSTORE PUSH1 0x40 DUP1 DUP4 KECCAK256 SWAP4 DUP6 AND DUP4 MSTORE SWAP3 DUP2 MSTORE SWAP1 DUP3 SWAP1 KECCAK256 DUP1 SLOAD DUP4 MLOAD DUP2 DUP5 MUL DUP2 ADD DUP5 ADD SWAP1 SWAP5 MSTORE DUP1 DUP5 MSTORE PUSH1 0x60 SWAP4 SWAP3 DUP4 ADD DUP3 DUP3 DUP1 ISZERO PUSH2 0x21C JUMPI PUSH1 0x20 MUL DUP3 ADD SWAP2 SWAP1 PUSH0 MSTORE PUSH1 0x20 PUSH0 KECCAK256 SWAP1 JUMPDEST DUP2 SLOAD PUSH1 0x1 PUSH1 0x1 PUSH1 0xA0 SHL SUB AND DUP2 MSTORE PUSH1 0x1 SWAP1 SWAP2 ADD SWAP1 PUSH1 0x20 ADD DUP1 DUP4 GT PUSH2 0x1FE JUMPI JUMPDEST POP POP POP POP POP SWAP1 POP JUMPDEST SWAP3 SWAP2 POP POP JUMP JUMPDEST PUSH1 0x1 PUSH1 0x1 PUSH1 0xA0 SHL SUB DUP2 AND PUSH0 SWAP1 DUP2 MSTORE PUSH1 0x2 PUSH1 0x20 SWAP1 DUP2 MSTORE PUSH1 0x40 SWAP2 DUP3 SWAP1 KECCAK256 DUP1 SLOAD DUP4 MLOAD DUP2 DUP5 MUL DUP2 ADD DUP5 ADD SWAP1 SWAP5 MSTORE DUP1 DUP5 MSTORE PUSH1 0x60 SWAP4 SWAP3 DUP4 ADD DUP3 DUP3 DUP1 ISZERO PUSH2 0x291 JUMPI PUSH1 0x20 MUL DUP3 ADD SWAP2 SWAP1 PUSH0 MSTORE PUSH1 0x20 PUSH0 KECCAK256 SWAP1 JUMPDEST DUP2 SLOAD PUSH1 0x1 PUSH1 0x1 PUSH1 0xA0 SHL SUB AND DUP2 MSTORE PUSH1 0x1 SWAP1 SWAP2 ADD SWAP1 PUSH1 0x20 ADD DUP1 DUP4 GT PUSH2 0x273 JUMPI JUMPDEST POP POP POP POP POP SWAP1 POP SWAP2 SWAP1 POP JUMP JUMPDEST PUSH0 DUP1 JUMPDEST PUSH1 0x1 PUSH1 0x1 PUSH1 0xA0 SHL SUB DUP5 AND PUSH0 SWAP1 DUP2 MSTORE PUSH1 0x2 PUSH1 0x20 MSTORE PUSH1 0x40 SWAP1 KECCAK256 SLOAD DUP2 LT ISZERO PUSH2 0x318 JUMPI PUSH1 0x1 PUSH1 0x1 PUSH1 0xA0 SHL SUB DUP5 DUP2 AND PUSH0 SWAP1 DUP2 MSTORE PUSH1 0x2 PUSH1 0x20 MSTORE PUSH1 0x40 SWAP1 KECCAK256 DUP1 SLOAD SWAP2 DUP6 AND SWAP2 DUP4 SWAP1 DUP2 LT PUSH2 0x2ED JUMPI PUSH2 0x2ED PUSH2 0x8EB JUMP JUMPDEST PUSH0 SWAP2 DUP3 MSTORE PUSH1 0x20 SWAP1 SWAP2 KECCAK256 ADD SLOAD PUSH1 0x1 PUSH1 0x1 PUSH1 0xA0 SHL SUB AND SUB PUSH2 0x310 JUMPI PUSH1 0x1 SWAP2 POP POP PUSH2 0x224 JUMP JUMPDEST PUSH1 0x1 ADD PUSH2 0x2A0 JUMP JUMPDEST POP PUSH0 SWAP4 SWAP3 POP POP POP JUMP JUMPDEST CALLER PUSH0 DUP2 DUP2 MSTORE PUSH1 0x1 PUSH1 0x20 SWAP1 DUP2 MSTORE PUSH1 0x40 DUP1 DUP4 KECCAK256 PUSH1 0x1 PUSH1 0x1 PUSH1 0xA0 SHL SUB DUP9 DUP2 AND DUP6 MSTORE SWAP1 DUP4 MSTORE DUP2 DUP5 KECCAK256 SWAP1 DUP8 AND DUP5 MSTORE SWAP1 SWAP2 MSTORE SWAP1 KECCAK256 DUP3 SWAP1 SSTORE PUSH2 0x35C SWAP1 DUP5 PUSH2 0x716 JUMP JUMPDEST PUSH2 0x367 CALLER DUP5 DUP5 PUSH2 0x766 JUMP JUMPDEST POP POP POP JUMP JUMPDEST PUSH0 SLOAD PUSH1 0x1 PUSH1 0x1 PUSH1 0xA0 SHL SUB AND CALLER EQ PUSH2 0x3B6 JUMPI PUSH1 0x40 MLOAD PUSH3 0x461BCD PUSH1 0xE5 SHL DUP2 MSTORE PUSH1 0x20 PUSH1 0x4 DUP3 ADD MSTORE PUSH1 0x9 PUSH1 0x24 DUP3 ADD MSTORE PUSH9 0x2737BA1037BBB732B9 PUSH1 0xB9 SHL PUSH1 0x44 DUP3 ADD MSTORE PUSH1 0x64 ADD JUMPDEST PUSH1 0x40 MLOAD DUP1 SWAP2 SUB SWAP1 REVERT JUMPDEST PUSH2 0x3C1 DUP4 DUP4 DUP4 PUSH2 0x607 JUMP JUMPDEST PUSH2 0x403 JUMPI PUSH1 0x40 MLOAD PUSH3 0x461BCD PUSH1 0xE5 SHL DUP2 MSTORE PUSH1 0x20 PUSH1 0x4 DUP3 ADD MSTORE PUSH1 0x13 PUSH1 0x24 DUP3 ADD MSTORE PUSH19 0x149958DA5C1A595B9D081B9BDD08199BDD5B99 PUSH1 0x6A SHL PUSH1 0x44 DUP3 ADD MSTORE PUSH1 0x64 ADD PUSH2 0x3AD JUMP JUMPDEST PUSH0 JUMPDEST PUSH1 0x1 PUSH1 0x1 PUSH1 0xA0 SHL SUB DUP1 DUP6 AND PUSH0 SWAP1 DUP2 MSTORE PUSH1 0x3 PUSH1 0x20 SWAP1 DUP2 MSTORE PUSH1 0x40 DUP1 DUP4 KECCAK256 SWAP4 DUP8 AND DUP4 MSTORE SWAP3 SWAP1 MSTORE KECCAK256 SLOAD DUP2 LT ISZERO PUSH2 0x48D JUMPI PUSH1 0x1 PUSH1 0x1 PUSH1 0xA0 SHL SUB DUP5 DUP2 AND PUSH0 SWAP1 DUP2 MSTORE PUSH1 0x3 PUSH1 0x20 SWAP1 DUP2 MSTORE PUSH1 0x40 DUP1 DUP4 KECCAK256 DUP8 DUP6 AND DUP5 MSTORE SWAP1 SWAP2 MSTORE SWAP1 KECCAK256 DUP1 SLOAD SWAP2 DUP5 AND SWAP2 DUP4 SWAP1 DUP2 LT PUSH2 0x46C JUMPI PUSH2 0x46C PUSH2 0x8EB JUMP JUMPDEST PUSH0 SWAP2 DUP3 MSTORE PUSH1 0x20 SWAP1 SWAP2 KECCAK256 ADD SLOAD PUSH1 0x1 PUSH1 0x1 PUSH1 0xA0 SHL SUB AND EQ PUSH2 0x48D JUMPI PUSH1 0x1 ADD PUSH2 0x405 JUMP JUMPDEST DUP1 JUMPDEST PUSH1 0x1 PUSH1 0x1 PUSH1 0xA0 SHL SUB DUP1 DUP7 AND PUSH0 SWAP1 DUP2 MSTORE PUSH1 0x3 PUSH1 0x20 SWAP1 DUP2 MSTORE PUSH1 0x40 DUP1 DUP4 KECCAK256 SWAP4 DUP9 AND DUP4 MSTORE SWAP3 SWAP1 MSTORE KECCAK256 SLOAD PUSH2 0x4C0 SWAP1 PUSH1 0x1 SWAP1 PUSH2 0x913 JUMP JUMPDEST DUP2 LT ISZERO PUSH2 0x57D JUMPI PUSH1 0x1 PUSH1 0x1 PUSH1 0xA0 SHL SUB DUP1 DUP7 AND PUSH0 SWAP1 DUP2 MSTORE PUSH1 0x3 PUSH1 0x20 SWAP1 DUP2 MSTORE PUSH1 0x40 DUP1 DUP4 KECCAK256 SWAP4 DUP9 AND DUP4 MSTORE SWAP3 SWAP1 MSTORE KECCAK256 PUSH2 0x4F6 DUP3 PUSH1 0x1 PUSH2 0x926 JUMP JUMPDEST DUP2 SLOAD DUP2 LT PUSH2 0x506 JUMPI PUSH2 0x506 PUSH2 0x8EB JUMP JUMPDEST PUSH0 SWAP2 DUP3 MSTORE PUSH1 0x20 DUP1 DUP4 KECCAK256 SWAP1 SWAP2 ADD SLOAD PUSH1 0x1 PUSH1 0x1 PUSH1 0xA0 SHL SUB DUP9 DUP2 AND DUP5 MSTORE PUSH1 0x3 DUP4 MSTORE PUSH1 0x40 DUP1 DUP6 KECCAK256 DUP10 DUP4 AND DUP7 MSTORE SWAP1 SWAP4 MSTORE SWAP2 SWAP1 SWAP3 KECCAK256 DUP1 SLOAD SWAP2 SWAP1 SWAP3 AND SWAP2 SWAP1 DUP4 SWAP1 DUP2 LT PUSH2 0x54D JUMPI PUSH2 0x54D PUSH2 0x8EB JUMP JUMPDEST PUSH0 SWAP2 DUP3 MSTORE PUSH1 0x20 SWAP1 SWAP2 KECCAK256 ADD DUP1 SLOAD PUSH1 0x1 PUSH1 0x1 PUSH1 0xA0 SHL SUB NOT AND PUSH1 0x1 PUSH1 0x1 PUSH1 0xA0 SHL SUB SWAP3 SWAP1 SWAP3 AND SWAP2 SWAP1 SWAP2 OR SWAP1 SSTORE PUSH1 0x1 ADD PUSH2 0x48F JUMP JUMPDEST POP PUSH1 0x1 PUSH1 0x1 PUSH1 0xA0 SHL SUB DUP1 DUP6 AND PUSH0 SWAP1 DUP2 MSTORE PUSH1 0x3 PUSH1 0x20 SWAP1 DUP2 MSTORE PUSH1 0x40 DUP1 DUP4 KECCAK256 SWAP4 DUP8 AND DUP4 MSTORE SWAP3 SWAP1 MSTORE KECCAK256 DUP1 SLOAD DUP1 PUSH2 0x5B1 JUMPI PUSH2 0x5B1 PUSH2 0x939 JUMP JUMPDEST PUSH0 DUP3 DUP2 MSTORE PUSH1 0x20 DUP1 DUP3 KECCAK256 DUP4 ADD PUSH0 NOT SWAP1 DUP2 ADD DUP1 SLOAD PUSH1 0x1 PUSH1 0x1 PUSH1 0xA0 SHL SUB NOT AND SWAP1 SSTORE SWAP1 SWAP3 ADD SWAP1 SWAP3 SSTORE PUSH1 0x1 PUSH1 0x1 PUSH1 0xA0 SHL SUB SWAP6 DUP7 AND DUP3 MSTORE PUSH1 0x1 DUP2 MSTORE PUSH1 0x40 DUP1 DUP4 KECCAK256 SWAP6 DUP8 AND DUP4 MSTORE SWAP5 DUP2 MSTORE DUP5 DUP3 KECCAK256 SWAP4 SWAP1 SWAP6 AND DUP2 MSTORE SWAP2 SWAP1 SWAP4 MSTORE SWAP1 DUP2 KECCAK256 SSTORE POP JUMP JUMPDEST PUSH0 DUP1 JUMPDEST PUSH1 0x1 PUSH1 0x1 PUSH1 0xA0 SHL SUB DUP1 DUP7 AND PUSH0 SWAP1 DUP2 MSTORE PUSH1 0x3 PUSH1 0x20 SWAP1 DUP2 MSTORE PUSH1 0x40 DUP1 DUP4 KECCAK256 SWAP4 DUP9 AND DUP4 MSTORE SWAP3 SWAP1 MSTORE KECCAK256 SLOAD DUP2 LT ISZERO PUSH2 0x69C JUMPI PUSH1 0x1 PUSH1 0x1 PUSH1 0xA0 SHL SUB DUP6 DUP2 AND PUSH0 SWAP1 DUP2 MSTORE PUSH1 0x3 PUSH1 0x20 SWAP1 DUP2 MSTORE PUSH1 0x40 DUP1 DUP4 KECCAK256 DUP9 DUP6 AND DUP5 MSTORE SWAP1 SWAP2 MSTORE SWAP1 KECCAK256 DUP1 SLOAD SWAP2 DUP6 AND SWAP2 DUP4 SWAP1 DUP2 LT PUSH2 0x671 JUMPI PUSH2 0x671 PUSH2 0x8EB JUMP JUMPDEST PUSH0 SWAP2 DUP3 MSTORE PUSH1 0x20 SWAP1 SWAP2 KECCAK256 ADD SLOAD PUSH1 0x1 PUSH1 0x1 PUSH1 0xA0 SHL SUB AND SUB PUSH2 0x694 JUMPI PUSH1 0x1 SWAP2 POP POP PUSH2 0x6A1 JUMP JUMPDEST PUSH1 0x1 ADD PUSH2 0x60A JUMP JUMPDEST POP PUSH0 SWAP1 POP JUMPDEST SWAP4 SWAP3 POP POP POP JUMP JUMPDEST DUP1 PUSH0 SUB PUSH2 0x6E3 JUMPI CALLER PUSH0 SWAP1 DUP2 MSTORE PUSH1 0x1 PUSH1 0x20 SWAP1 DUP2 MSTORE PUSH1 0x40 DUP1 DUP4 KECCAK256 PUSH1 0x1 PUSH1 0x1 PUSH1 0xA0 SHL SUB DUP8 DUP2 AND DUP6 MSTORE SWAP1 DUP4 MSTORE DUP2 DUP5 KECCAK256 SWAP1 DUP7 AND DUP5 MSTORE SWAP1 SWAP2 MSTORE DUP2 KECCAK256 SSTORE POP POP POP JUMP JUMPDEST CALLER PUSH0 SWAP1 DUP2 MSTORE PUSH1 0x1 PUSH1 0x20 SWAP1 DUP2 MSTORE PUSH1 0x40 DUP1 DUP4 KECCAK256 PUSH1 0x1 PUSH1 0x1 PUSH1 0xA0 SHL SUB SWAP7 DUP8 AND DUP5 MSTORE DUP3 MSTORE DUP1 DUP4 KECCAK256 SWAP5 SWAP1 SWAP6 AND DUP3 MSTORE SWAP3 SWAP1 SWAP3 MSTORE SWAP2 SWAP1 KECCAK256 SSTORE JUMP JUMPDEST PUSH2 0x720 DUP3 DUP3 PUSH2 0x29D JUMP JUMPDEST PUSH2 0x762 JUMPI PUSH1 0x1 PUSH1 0x1 PUSH1 0xA0 SHL SUB DUP3 DUP2 AND PUSH0 SWAP1 DUP2 MSTORE PUSH1 0x2 PUSH1 0x20 SWAP1 DUP2 MSTORE PUSH1 0x40 DUP3 KECCAK256 DUP1 SLOAD PUSH1 0x1 DUP2 ADD DUP3 SSTORE SWAP1 DUP4 MSTORE SWAP2 KECCAK256 ADD DUP1 SLOAD PUSH1 0x1 PUSH1 0x1 PUSH1 0xA0 SHL SUB NOT AND SWAP2 DUP4 AND SWAP2 SWAP1 SWAP2 OR SWAP1 SSTORE JUMPDEST POP POP JUMP JUMPDEST PUSH2 0x771 DUP4 DUP4 DUP4 PUSH2 0x607 JUMP JUMPDEST PUSH2 0x367 JUMPI PUSH1 0x1 PUSH1 0x1 PUSH1 0xA0 SHL SUB SWAP3 DUP4 AND PUSH0 SWAP1 DUP2 MSTORE PUSH1 0x3 PUSH1 0x20 SWAP1 DUP2 MSTORE PUSH1 0x40 DUP1 DUP4 KECCAK256 SWAP5 DUP7 AND DUP4 MSTORE SWAP4 DUP2 MSTORE SWAP3 DUP2 KECCAK256 DUP1 SLOAD PUSH1 0x1 DUP2 ADD DUP3 SSTORE SWAP1 DUP3 MSTORE SWAP3 SWAP1 KECCAK256 SWAP1 SWAP2 ADD DUP1 SLOAD PUSH1 0x1 PUSH1 0x1 PUSH1 0xA0 SHL SUB NOT AND SWAP2 SWAP1 SWAP3 AND OR SWAP1 SSTORE JUMP JUMPDEST DUP1 CALLDATALOAD PUSH1 0x1 PUSH1 0x1 PUSH1 0xA0 SHL SUB DUP2 AND DUP2 EQ PUSH2 0x7D7 JUMPI PUSH0 DUP1 REVERT JUMPDEST SWAP2 SWAP1 POP JUMP JUMPDEST PUSH0 DUP1 PUSH1 0x40 DUP4 DUP6 SUB SLT ISZERO PUSH2 0x7ED JUMPI PUSH0 DUP1 REVERT JUMPDEST PUSH2 0x7F6 DUP4 PUSH2 0x7C1 JUMP JUMPDEST SWAP2 POP PUSH2 0x804 PUSH1 0x20 DUP5 ADD PUSH2 0x7C1 JUMP JUMPDEST SWAP1 POP SWAP3 POP SWAP3 SWAP1 POP JUMP JUMPDEST PUSH1 0x20 DUP1 DUP3 MSTORE DUP3 MLOAD DUP3 DUP3 ADD DUP2 SWAP1 MSTORE PUSH0 SWAP2 SWAP1 DUP5 DUP3 ADD SWAP1 PUSH1 0x40 DUP6 ADD SWAP1 DUP5 JUMPDEST DUP2 DUP2 LT ISZERO PUSH2 0x84D JUMPI DUP4 MLOAD PUSH1 0x1 PUSH1 0x1 PUSH1 0xA0 SHL SUB AND DUP4 MSTORE SWAP3 DUP5 ADD SWAP3 SWAP2 DUP5 ADD SWAP2 PUSH1 0x1 ADD PUSH2 0x828 JUMP JUMPDEST POP SWAP1 SWAP7 SWAP6 POP POP POP POP POP POP JUMP JUMPDEST PUSH0 PUSH1 0x20 DUP3 DUP5 SUB SLT ISZERO PUSH2 0x869 JUMPI PUSH0 DUP1 REVERT JUMPDEST PUSH2 0x6A1 DUP3 PUSH2 0x7C1 JUMP JUMPDEST PUSH0 DUP1 PUSH0 PUSH1 0x60 DUP5 DUP7 SUB SLT ISZERO PUSH2 0x884 JUMPI PUSH0 DUP1 REVERT JUMPDEST PUSH2 0x88D DUP5 PUSH2 0x7C1 JUMP JUMPDEST SWAP3 POP PUSH2 0x89B PUSH1 0x20 DUP6 ADD PUSH2 0x7C1 JUMP JUMPDEST SWAP2 POP PUSH2 0x8A9 PUSH1 0x40 DUP6 ADD PUSH2 0x7C1 JUMP JUMPDEST SWAP1 POP SWAP3 POP SWAP3 POP SWAP3 JUMP JUMPDEST PUSH0 DUP1 PUSH0 PUSH1 0x60 DUP5 DUP7 SUB SLT ISZERO PUSH2 0x8C4 JUMPI PUSH0 DUP1 REVERT JUMPDEST PUSH2 0x8CD DUP5 PUSH2 0x7C1 JUMP JUMPDEST SWAP3 POP PUSH2 0x8DB PUSH1 0x20 DUP6 ADD PUSH2 0x7C1 JUMP JUMPDEST SWAP2 POP PUSH1 0x40 DUP5 ADD CALLDATALOAD SWAP1 POP SWAP3 POP SWAP3 POP SWAP3 JUMP JUMPDEST PUSH4 0x4E487B71 PUSH1 0xE0 SHL PUSH0 MSTORE PUSH1 0x32 PUSH1 0x4 MSTORE PUSH1 0x24 PUSH0 REVERT JUMPDEST PUSH4 0x4E487B71 PUSH1 0xE0 SHL PUSH0 MSTORE PUSH1 0x11 PUSH1 0x4 MSTORE PUSH1 0x24 PUSH0 REVERT JUMPDEST DUP2 DUP2 SUB DUP2 DUP2 GT ISZERO PUSH2 0x224 JUMPI PUSH2 0x224 PUSH2 0x8FF JUMP JUMPDEST DUP1 DUP3 ADD DUP1 DUP3 GT ISZERO PUSH2 0x224 JUMPI PUSH2 0x224 PUSH2 0x8FF JUMP JUMPDEST PUSH4 0x4E487B71 PUSH1 0xE0 SHL PUSH0 MSTORE PUSH1 0x31 PUSH1 0x4 MSTORE PUSH1 0x24 PUSH0 REVERT INVALID LOG2 PUSH5 0x6970667358 0x22 SLT KECCAK256 SMOD 0xB0 0xCA PUSH22 0x49749B7B2CE49F2F9606704C66FD7307F5D40AD2591F PUSH28 0x650547B21064736F6C63430008180033000000000000000000000000 "
				},
				"gasEstimates": {
					"creation": {
						"codeDepositCost": "487000",
						"executionCost": "24756",
						"totalCost": "511756"
					},
					"external": {
						"adjustAllocation(address,address,uint256)": "infinite",
						"getAllocatedTokensByUser(address)": "infinite",
						"getRecipientsByToken(address,address)": "infinite",
						"isRecipientOfToken(address,address,address)": "infinite",
						"isTokenAllocatedByUser(address,address)": "infinite",
						"owner()": "2357",
						"removeRecipientForToken(address,address,address)": "infinite",
						"setAllocation(address,address,uint256)": "infinite",
						"tokenAllocations(address,address,address)": "infinite"
					},
					"internal": {
						"_addRecipientForToken(address,address,address)": "infinite",
						"_addTokenForUser(address,address)": "infinite"
					}
				},
				"methodIdentifiers": {
					"adjustAllocation(address,address,uint256)": "e94640c3",
					"getAllocatedTokensByUser(address)": "0db36379",
					"getRecipientsByToken(address,address)": "0ac0be3f",
					"isRecipientOfToken(address,address,address)": "bd042d2e",
					"isTokenAllocatedByUser(address,address)": "0e6cc31f",
					"owner()": "8da5cb5b",
					"removeRecipientForToken(address,address,address)": "a2bdd08c",
					"setAllocation(address,address,uint256)": "5f15b1d9",
					"tokenAllocations(address,address,address)": "17a436ed"
				}
			},
			"storageLayout": {
				"storage": [
					{
						"astId": 3,
						"contract": "contracts/DecentraWill.sol:DecentraWill",
						"label": "owner",
						"offset": 0,
						"slot": "0",
						"type": "t_address"
					},
					{
						"astId": 32,
						"contract": "contracts/DecentraWill.sol:DecentraWill",
						"label": "tokenAllocations",
						"offset": 0,
						"slot": "1",
						"type": "t_mapping(t_address,t_mapping(t_address,t_mapping(t_address,t_uint256)))"
					},
					{
						"astId": 37,
						"contract": "contracts/DecentraWill.sol:DecentraWill",
						"label": "userAllocatedTokens",
						"offset": 0,
						"slot": "2",
						"type": "t_mapping(t_address,t_array(t_address)dyn_storage)"
					},
					{
						"astId": 44,
						"contract": "contracts/DecentraWill.sol:DecentraWill",
						"label": "tokenRecipients",
						"offset": 0,
						"slot": "3",
						"type": "t_mapping(t_address,t_mapping(t_address,t_array(t_address)dyn_storage))"
					}
				],
				"types": {
					"t_address": {
						"encoding": "inplace",
						"label": "address",
						"numberOfBytes": "20"
					},
					"t_array(t_address)dyn_storage": {
						"base": "t_address",
						"encoding": "dynamic_array",
						"label": "address[]",
						"numberOfBytes": "32"
					},
					"t_mapping(t_address,t_array(t_address)dyn_storage)": {
						"encoding": "mapping",
						"key": "t_address",
						"label": "mapping(address => address[])",
						"numberOfBytes": "32",
						"value": "t_array(t_address)dyn_storage"
					},
					"t_mapping(t_address,t_mapping(t_address,t_array(t_address)dyn_storage))": {
						"encoding": "mapping",
						"key": "t_address",
						"label": "mapping(address => mapping(address => address[]))",
						"numberOfBytes": "32",
						"value": "t_mapping(t_address,t_array(t_address)dyn_storage)"
					},
					"t_mapping(t_address,t_mapping(t_address,t_mapping(t_address,t_uint256)))": {
						"encoding": "mapping",
						"key": "t_address",
						"label": "mapping(address => mapping(address => mapping(address => uint256)))",
						"numberOfBytes": "32",
						"value": "t_mapping(t_address,t_mapping(t_address,t_uint256))"
					},
					"t_mapping(t_address,t_mapping(t_address,t_uint256))": {
						"encoding": "mapping",
						"key": "t_address",
						"label": "mapping(address => mapping(address => uint256))",
						"numberOfBytes": "32",
						"value": "t_mapping(t_address,t_uint256)"
					},
					"t_mapping(t_address,t_uint256)": {
						"encoding": "mapping",
						"key": "t_address",
						"label": "mapping(address => uint256)",
						"numberOfBytes": "32",
						"value": "t_uint256"
					},
					"t_uint256": {
						"encoding": "inplace",
						"label": "uint256",
						"numberOfBytes": "32"
					}
				}
			},
			"userdoc": {
				"kind": "user",
				"methods": {},
				"version": 1
			}
		}
	}
}