{
	"contracts/DecentraWill.sol": {
		"DecentraWill": {
			"abi": [
				{
					"inputs": [],
					"stateMutability": "nonpayable",
					"type": "constructor"
				},
				{
					"inputs": [],
					"name": "NoAllocationAvailable",
					"type": "error"
				},
				{
					"inputs": [],
					"name": "RecipientNotFound",
					"type": "error"
				},
				{
					"inputs": [],
					"name": "TransferFailed",
					"type": "error"
				},
				{
					"inputs": [],
					"name": "Unauthorized",
					"type": "error"
				},
				{
					"anonymous": false,
					"inputs": [
						{
							"indexed": true,
							"internalType": "address",
							"name": "user",
							"type": "address"
						},
						{
							"indexed": true,
							"internalType": "address",
							"name": "token",
							"type": "address"
						},
						{
							"indexed": true,
							"internalType": "address",
							"name": "recipient",
							"type": "address"
						},
						{
							"indexed": false,
							"internalType": "uint256",
							"name": "amount",
							"type": "uint256"
						}
					],
					"name": "AllocationSet",
					"type": "event"
				},
				{
					"anonymous": false,
					"inputs": [
						{
							"indexed": true,
							"internalType": "address",
							"name": "user",
							"type": "address"
						},
						{
							"indexed": true,
							"internalType": "address",
							"name": "token",
							"type": "address"
						},
						{
							"indexed": true,
							"internalType": "address",
							"name": "recipient",
							"type": "address"
						}
					],
					"name": "RecipientRemoved",
					"type": "event"
				},
				{
					"anonymous": false,
					"inputs": [
						{
							"indexed": true,
							"internalType": "address",
							"name": "creator",
							"type": "address"
						},
						{
							"indexed": true,
							"internalType": "address",
							"name": "token",
							"type": "address"
						},
						{
							"indexed": true,
							"internalType": "address",
							"name": "beneficiary",
							"type": "address"
						},
						{
							"indexed": false,
							"internalType": "uint256",
							"name": "amount",
							"type": "uint256"
						}
					],
					"name": "Withdrawal",
					"type": "event"
				},
				{
					"inputs": [
						{
							"internalType": "address",
							"name": "",
							"type": "address"
						},
						{
							"internalType": "uint256",
							"name": "",
							"type": "uint256"
						}
					],
					"name": "creatorsForBeneficiary",
					"outputs": [
						{
							"internalType": "address",
							"name": "",
							"type": "address"
						}
					],
					"stateMutability": "view",
					"type": "function"
				},
				{
					"inputs": [
						{
							"internalType": "address",
							"name": "user",
							"type": "address"
						}
					],
					"name": "getAllocatedTokensByUser",
					"outputs": [
						{
							"internalType": "address[]",
							"name": "",
							"type": "address[]"
						}
					],
					"stateMutability": "view",
					"type": "function"
				},
				{
					"inputs": [
						{
							"internalType": "address",
							"name": "user",
							"type": "address"
						},
						{
							"internalType": "address",
							"name": "token",
							"type": "address"
						}
					],
					"name": "getRecipientsByToken",
					"outputs": [
						{
							"internalType": "address[]",
							"name": "",
							"type": "address[]"
						}
					],
					"stateMutability": "view",
					"type": "function"
				},
				{
					"inputs": [
						{
							"internalType": "address",
							"name": "user",
							"type": "address"
						},
						{
							"internalType": "address",
							"name": "token",
							"type": "address"
						},
						{
							"internalType": "address",
							"name": "recipient",
							"type": "address"
						}
					],
					"name": "isRecipientOfToken",
					"outputs": [
						{
							"internalType": "bool",
							"name": "",
							"type": "bool"
						}
					],
					"stateMutability": "view",
					"type": "function"
				},
				{
					"inputs": [
						{
							"internalType": "address",
							"name": "user",
							"type": "address"
						},
						{
							"internalType": "address",
							"name": "token",
							"type": "address"
						}
					],
					"name": "isTokenAllocatedByUser",
					"outputs": [
						{
							"internalType": "bool",
							"name": "",
							"type": "bool"
						}
					],
					"stateMutability": "view",
					"type": "function"
				},
				{
					"inputs": [],
					"name": "owner",
					"outputs": [
						{
							"internalType": "address",
							"name": "",
							"type": "address"
						}
					],
					"stateMutability": "view",
					"type": "function"
				},
				{
					"inputs": [
						{
							"internalType": "address",
							"name": "user",
							"type": "address"
						},
						{
							"internalType": "address",
							"name": "token",
							"type": "address"
						},
						{
							"internalType": "address",
							"name": "recipient",
							"type": "address"
						}
					],
					"name": "removeRecipientForToken",
					"outputs": [],
					"stateMutability": "nonpayable",
					"type": "function"
				},
				{
					"inputs": [
						{
							"internalType": "address",
							"name": "token",
							"type": "address"
						},
						{
							"internalType": "address",
							"name": "recipient",
							"type": "address"
						},
						{
							"internalType": "uint256",
							"name": "amount",
							"type": "uint256"
						}
					],
					"name": "setAllocation",
					"outputs": [],
					"stateMutability": "nonpayable",
					"type": "function"
				},
				{
					"inputs": [
						{
							"internalType": "address",
							"name": "",
							"type": "address"
						},
						{
							"internalType": "address",
							"name": "",
							"type": "address"
						},
						{
							"internalType": "address",
							"name": "",
							"type": "address"
						}
					],
					"name": "tokenAllocations",
					"outputs": [
						{
							"internalType": "uint256",
							"name": "",
							"type": "uint256"
						}
					],
					"stateMutability": "view",
					"type": "function"
				},
				{
					"inputs": [
						{
							"internalType": "address",
							"name": "creator",
							"type": "address"
						},
						{
							"internalType": "address",
							"name": "token",
							"type": "address"
						},
						{
							"internalType": "uint256",
							"name": "requestedAmount",
							"type": "uint256"
						}
					],
					"name": "withdrawTokenForBeneficiary",
					"outputs": [],
					"stateMutability": "nonpayable",
					"type": "function"
				}
			],
			"devdoc": {
				"kind": "dev",
				"methods": {},
				"version": 1
			},
			"evm": {
				"assembly": "    /* \"contracts/DecentraWill.sol\":119:9945  contract DecentraWill {... */\n  mstore(0x40, 0x80)\n    /* \"contracts/DecentraWill.sol\":953:1004  constructor() {... */\n  callvalue\n  dup1\n  iszero\n  tag_1\n  jumpi\n  0x00\n  dup1\n  revert\ntag_1:\n  pop\n    /* \"contracts/DecentraWill.sol\":978:983  owner */\n  0x00\n    /* \"contracts/DecentraWill.sol\":978:996  owner = msg.sender */\n  dup1\n  sload\n  not(sub(shl(0xa0, 0x01), 0x01))\n  and\n    /* \"contracts/DecentraWill.sol\":986:996  msg.sender */\n  caller\n    /* \"contracts/DecentraWill.sol\":978:996  owner = msg.sender */\n  or\n  swap1\n  sstore\n    /* \"contracts/DecentraWill.sol\":119:9945  contract DecentraWill {... */\n  dataSize(sub_0)\n  dup1\n  dataOffset(sub_0)\n  0x00\n  codecopy\n  0x00\n  return\nstop\n\nsub_0: assembly {\n        /* \"contracts/DecentraWill.sol\":119:9945  contract DecentraWill {... */\n      mstore(0x40, 0x80)\n      callvalue\n      dup1\n      iszero\n      tag_1\n      jumpi\n      0x00\n      dup1\n      revert\n    tag_1:\n      pop\n      jumpi(tag_2, lt(calldatasize, 0x04))\n      shr(0xe0, calldataload(0x00))\n      dup1\n      0x5f15b1d9\n      gt\n      tag_13\n      jumpi\n      dup1\n      0x5f15b1d9\n      eq\n      tag_8\n      jumpi\n      dup1\n      0x8da5cb5b\n      eq\n      tag_9\n      jumpi\n      dup1\n      0xa2bdd08c\n      eq\n      tag_10\n      jumpi\n      dup1\n      0xbd042d2e\n      eq\n      tag_11\n      jumpi\n      dup1\n      0xc3698da4\n      eq\n      tag_12\n      jumpi\n      0x00\n      dup1\n      revert\n    tag_13:\n      dup1\n      0x0ac0be3f\n      eq\n      tag_3\n      jumpi\n      dup1\n      0x0db36379\n      eq\n      tag_4\n      jumpi\n      dup1\n      0x0e6cc31f\n      eq\n      tag_5\n      jumpi\n      dup1\n      0x17a436ed\n      eq\n      tag_6\n      jumpi\n      dup1\n      0x3112fcc6\n      eq\n      tag_7\n      jumpi\n    tag_2:\n      0x00\n      dup1\n      revert\n        /* \"contracts/DecentraWill.sol\":5445:5622  function getRecipientsByToken(... */\n    tag_3:\n      tag_14\n      tag_15\n      calldatasize\n      0x04\n      tag_16\n      jump\t// in\n    tag_15:\n      tag_17\n      jump\t// in\n    tag_14:\n      mload(0x40)\n      tag_18\n      swap2\n      swap1\n      tag_19\n      jump\t// in\n    tag_18:\n      mload(0x40)\n      dup1\n      swap2\n      sub\n      swap1\n      return\n        /* \"contracts/DecentraWill.sol\":5196:5350  function getAllocatedTokensByUser(... */\n    tag_4:\n      tag_14\n      tag_21\n      calldatasize\n      0x04\n      tag_22\n      jump\t// in\n    tag_21:\n      tag_23\n      jump\t// in\n        /* \"contracts/DecentraWill.sol\":2576:2905  function isTokenAllocatedByUser(... */\n    tag_5:\n      tag_25\n      tag_26\n      calldatasize\n      0x04\n      tag_16\n      jump\t// in\n    tag_26:\n      tag_27\n      jump\t// in\n    tag_25:\n      mload(0x40)\n        /* \"#utility.yul\":1476:1490   */\n      swap1\n      iszero\n        /* \"#utility.yul\":1469:1491   */\n      iszero\n        /* \"#utility.yul\":1451:1492   */\n      dup2\n      mstore\n        /* \"#utility.yul\":1439:1441   */\n      0x20\n        /* \"#utility.yul\":1424:1442   */\n      add\n        /* \"contracts/DecentraWill.sol\":2576:2905  function isTokenAllocatedByUser(... */\n      tag_18\n        /* \"#utility.yul\":1311:1498   */\n      jump\n        /* \"contracts/DecentraWill.sol\":1287:1387  mapping(address => mapping(address => mapping(address => uint256)))... */\n    tag_6:\n      tag_30\n      tag_31\n      calldatasize\n      0x04\n      tag_32\n      jump\t// in\n    tag_31:\n      0x01\n      0x20\n      swap1\n      dup2\n      mstore\n      0x00\n      swap4\n      dup5\n      mstore\n      0x40\n      dup1\n      dup6\n      keccak256\n      dup3\n      mstore\n      swap3\n      dup5\n      mstore\n      dup3\n      dup5\n      keccak256\n      swap1\n      mstore\n      dup3\n      mstore\n      swap1\n      keccak256\n      sload\n      dup2\n      jump\n    tag_30:\n      mload(0x40)\n        /* \"#utility.yul\":1988:2013   */\n      swap1\n      dup2\n      mstore\n        /* \"#utility.yul\":1976:1978   */\n      0x20\n        /* \"#utility.yul\":1961:1979   */\n      add\n        /* \"contracts/DecentraWill.sol\":1287:1387  mapping(address => mapping(address => mapping(address => uint256)))... */\n      tag_18\n        /* \"#utility.yul\":1842:2019   */\n      jump\n        /* \"contracts/DecentraWill.sol\":1812:1871  mapping(address => address[]) public creatorsForBeneficiary */\n    tag_7:\n      tag_36\n      tag_37\n      calldatasize\n      0x04\n      tag_38\n      jump\t// in\n    tag_37:\n      tag_39\n      jump\t// in\n    tag_36:\n      mload(0x40)\n      sub(shl(0xa0, 0x01), 0x01)\n        /* \"#utility.yul\":2447:2479   */\n      swap1\n      swap2\n      and\n        /* \"#utility.yul\":2429:2480   */\n      dup2\n      mstore\n        /* \"#utility.yul\":2417:2419   */\n      0x20\n        /* \"#utility.yul\":2402:2420   */\n      add\n        /* \"contracts/DecentraWill.sol\":1812:1871  mapping(address => address[]) public creatorsForBeneficiary */\n      tag_18\n        /* \"#utility.yul\":2283:2486   */\n      jump\n        /* \"contracts/DecentraWill.sol\":4044:5126  function setAllocation(... */\n    tag_8:\n      tag_42\n      tag_43\n      calldatasize\n      0x04\n      tag_44\n      jump\t// in\n    tag_43:\n      tag_45\n      jump\t// in\n    tag_42:\n      stop\n        /* \"contracts/DecentraWill.sol\":148:168  address public owner */\n    tag_9:\n      sload(0x00)\n      tag_36\n      swap1\n      sub(shl(0xa0, 0x01), 0x01)\n      and\n      dup2\n      jump\n        /* \"contracts/DecentraWill.sol\":5715:8651  function removeRecipientForToken(... */\n    tag_10:\n      tag_42\n      tag_50\n      calldatasize\n      0x04\n      tag_32\n      jump\t// in\n    tag_50:\n      tag_51\n      jump\t// in\n        /* \"contracts/DecentraWill.sol\":2995:3358  function isRecipientOfToken(... */\n    tag_11:\n      tag_25\n      tag_53\n      calldatasize\n      0x04\n      tag_32\n      jump\t// in\n    tag_53:\n      tag_54\n      jump\t// in\n        /* \"contracts/DecentraWill.sol\":8659:9942  function withdrawTokenForBeneficiary(... */\n    tag_12:\n      tag_42\n      tag_57\n      calldatasize\n      0x04\n      tag_44\n      jump\t// in\n    tag_57:\n      tag_58\n      jump\t// in\n        /* \"contracts/DecentraWill.sol\":5445:5622  function getRecipientsByToken(... */\n    tag_17:\n      sub(shl(0xa0, 0x01), 0x01)\n        /* \"contracts/DecentraWill.sol\":5586:5607  tokenRecipients[user] */\n      dup1\n      dup4\n      and\n      0x00\n      swap1\n      dup2\n      mstore\n        /* \"contracts/DecentraWill.sol\":5586:5601  tokenRecipients */\n      0x03\n        /* \"contracts/DecentraWill.sol\":5586:5607  tokenRecipients[user] */\n      0x20\n      swap1\n      dup2\n      mstore\n      0x40\n      dup1\n      dup4\n      keccak256\n        /* \"contracts/DecentraWill.sol\":5586:5614  tokenRecipients[user][token] */\n      swap4\n      dup6\n      and\n      dup4\n      mstore\n      swap3\n      dup2\n      mstore\n      swap1\n      dup3\n      swap1\n      keccak256\n        /* \"contracts/DecentraWill.sol\":5579:5614  return tokenRecipients[user][token] */\n      dup1\n      sload\n      dup4\n      mload\n      dup2\n      dup5\n      mul\n      dup2\n      add\n      dup5\n      add\n      swap1\n      swap5\n      mstore\n      dup1\n      dup5\n      mstore\n        /* \"contracts/DecentraWill.sol\":5550:5566  address[] memory */\n      0x60\n      swap4\n        /* \"contracts/DecentraWill.sol\":5579:5614  return tokenRecipients[user][token] */\n      swap3\n      dup4\n      add\n        /* \"contracts/DecentraWill.sol\":5586:5614  tokenRecipients[user][token] */\n      dup3\n        /* \"contracts/DecentraWill.sol\":5579:5614  return tokenRecipients[user][token] */\n      dup3\n      dup1\n      iszero\n      tag_60\n      jumpi\n      0x20\n      mul\n      dup3\n      add\n      swap2\n      swap1\n      0x00\n      mstore\n      keccak256(0x00, 0x20)\n      swap1\n    tag_61:\n      dup2\n      sload\n      sub(shl(0xa0, 0x01), 0x01)\n      and\n      dup2\n      mstore\n      0x01\n      swap1\n      swap2\n      add\n      swap1\n      0x20\n      add\n      dup1\n      dup4\n      gt\n      tag_61\n      jumpi\n    tag_60:\n      pop\n      pop\n      pop\n      pop\n      pop\n      swap1\n      pop\n        /* \"contracts/DecentraWill.sol\":5445:5622  function getRecipientsByToken(... */\n    tag_59:\n      swap3\n      swap2\n      pop\n      pop\n      jump\t// out\n        /* \"contracts/DecentraWill.sol\":5196:5350  function getAllocatedTokensByUser(... */\n    tag_23:\n      sub(shl(0xa0, 0x01), 0x01)\n        /* \"contracts/DecentraWill.sol\":5317:5342  userAllocatedTokens[user] */\n      dup2\n      and\n      0x00\n      swap1\n      dup2\n      mstore\n        /* \"contracts/DecentraWill.sol\":5317:5336  userAllocatedTokens */\n      0x02\n        /* \"contracts/DecentraWill.sol\":5317:5342  userAllocatedTokens[user] */\n      0x20\n      swap1\n      dup2\n      mstore\n      0x40\n      swap2\n      dup3\n      swap1\n      keccak256\n        /* \"contracts/DecentraWill.sol\":5310:5342  return userAllocatedTokens[user] */\n      dup1\n      sload\n      dup4\n      mload\n      dup2\n      dup5\n      mul\n      dup2\n      add\n      dup5\n      add\n      swap1\n      swap5\n      mstore\n      dup1\n      dup5\n      mstore\n        /* \"contracts/DecentraWill.sol\":5281:5297  address[] memory */\n      0x60\n      swap4\n        /* \"contracts/DecentraWill.sol\":5310:5342  return userAllocatedTokens[user] */\n      swap3\n      dup4\n      add\n        /* \"contracts/DecentraWill.sol\":5317:5342  userAllocatedTokens[user] */\n      dup3\n        /* \"contracts/DecentraWill.sol\":5310:5342  return userAllocatedTokens[user] */\n      dup3\n      dup1\n      iszero\n      tag_63\n      jumpi\n      0x20\n      mul\n      dup3\n      add\n      swap2\n      swap1\n      0x00\n      mstore\n      keccak256(0x00, 0x20)\n      swap1\n    tag_64:\n      dup2\n      sload\n      sub(shl(0xa0, 0x01), 0x01)\n      and\n      dup2\n      mstore\n      0x01\n      swap1\n      swap2\n      add\n      swap1\n      0x20\n      add\n      dup1\n      dup4\n      gt\n      tag_64\n      jumpi\n    tag_63:\n      pop\n      pop\n      pop\n      pop\n      pop\n      swap1\n      pop\n        /* \"contracts/DecentraWill.sol\":5196:5350  function getAllocatedTokensByUser(... */\n      swap2\n      swap1\n      pop\n      jump\t// out\n        /* \"contracts/DecentraWill.sol\":2576:2905  function isTokenAllocatedByUser(... */\n    tag_27:\n        /* \"contracts/DecentraWill.sol\":2683:2687  bool */\n      0x00\n      dup1\n        /* \"contracts/DecentraWill.sol\":2700:2875  for (uint i = 0; i < userAllocatedTokens[user].length; i++) {... */\n    tag_66:\n      sub(shl(0xa0, 0x01), 0x01)\n        /* \"contracts/DecentraWill.sol\":2721:2746  userAllocatedTokens[user] */\n      dup5\n      and\n      0x00\n      swap1\n      dup2\n      mstore\n        /* \"contracts/DecentraWill.sol\":2721:2740  userAllocatedTokens */\n      0x02\n        /* \"contracts/DecentraWill.sol\":2721:2746  userAllocatedTokens[user] */\n      0x20\n      mstore\n      0x40\n      swap1\n      keccak256\n        /* \"contracts/DecentraWill.sol\":2721:2753  userAllocatedTokens[user].length */\n      sload\n        /* \"contracts/DecentraWill.sol\":2717:2753  i < userAllocatedTokens[user].length */\n      dup2\n      lt\n        /* \"contracts/DecentraWill.sol\":2700:2875  for (uint i = 0; i < userAllocatedTokens[user].length; i++) {... */\n      iszero\n      tag_67\n      jumpi\n      sub(shl(0xa0, 0x01), 0x01)\n        /* \"contracts/DecentraWill.sol\":2779:2804  userAllocatedTokens[user] */\n      dup5\n      dup2\n      and\n      0x00\n      swap1\n      dup2\n      mstore\n        /* \"contracts/DecentraWill.sol\":2779:2798  userAllocatedTokens */\n      0x02\n        /* \"contracts/DecentraWill.sol\":2779:2804  userAllocatedTokens[user] */\n      0x20\n      mstore\n      0x40\n      swap1\n      keccak256\n        /* \"contracts/DecentraWill.sol\":2779:2807  userAllocatedTokens[user][i] */\n      dup1\n      sload\n        /* \"contracts/DecentraWill.sol\":2779:2816  userAllocatedTokens[user][i] == token */\n      swap2\n      dup6\n      and\n      swap2\n        /* \"contracts/DecentraWill.sol\":2805:2806  i */\n      dup4\n      swap1\n        /* \"contracts/DecentraWill.sol\":2779:2807  userAllocatedTokens[user][i] */\n      dup2\n      lt\n      tag_70\n      jumpi\n      tag_70\n      tag_71\n      jump\t// in\n    tag_70:\n      0x00\n      swap2\n      dup3\n      mstore\n      0x20\n      swap1\n      swap2\n      keccak256\n      add\n      sload\n      sub(shl(0xa0, 0x01), 0x01)\n      and\n        /* \"contracts/DecentraWill.sol\":2779:2816  userAllocatedTokens[user][i] == token */\n      sub\n        /* \"contracts/DecentraWill.sol\":2775:2864  if (userAllocatedTokens[user][i] == token) {... */\n      tag_73\n      jumpi\n        /* \"contracts/DecentraWill.sol\":2844:2848  true */\n      0x01\n        /* \"contracts/DecentraWill.sol\":2837:2848  return true */\n      swap2\n      pop\n      pop\n      jump(tag_59)\n        /* \"contracts/DecentraWill.sol\":2775:2864  if (userAllocatedTokens[user][i] == token) {... */\n    tag_73:\n        /* \"contracts/DecentraWill.sol\":2755:2758  i++ */\n      0x01\n      add\n        /* \"contracts/DecentraWill.sol\":2700:2875  for (uint i = 0; i < userAllocatedTokens[user].length; i++) {... */\n      jump(tag_66)\n    tag_67:\n      pop\n        /* \"contracts/DecentraWill.sol\":2892:2897  false */\n      0x00\n      swap4\n        /* \"contracts/DecentraWill.sol\":2576:2905  function isTokenAllocatedByUser(... */\n      swap3\n      pop\n      pop\n      pop\n      jump\t// out\n        /* \"contracts/DecentraWill.sol\":1812:1871  mapping(address => address[]) public creatorsForBeneficiary */\n    tag_39:\n      mstore(0x20, 0x04)\n      dup2\n      0x00\n      mstore\n      keccak256(0x00, 0x40)\n      dup2\n      dup2\n      sload\n      dup2\n      lt\n      tag_74\n      jumpi\n      0x00\n      dup1\n      revert\n    tag_74:\n      0x00\n      swap2\n      dup3\n      mstore\n      0x20\n      swap1\n      swap2\n      keccak256\n      add\n      sload\n      sub(shl(0xa0, 0x01), 0x01)\n      and\n      swap2\n      pop\n      dup3\n      swap1\n      pop\n      jump\t// out\n        /* \"contracts/DecentraWill.sol\":4044:5126  function setAllocation(... */\n    tag_45:\n        /* \"contracts/DecentraWill.sol\":4173:4179  amount */\n      dup1\n        /* \"contracts/DecentraWill.sol\":4183:4184  0 */\n      0x00\n        /* \"contracts/DecentraWill.sol\":4173:4184  amount == 0 */\n      sub\n        /* \"contracts/DecentraWill.sol\":4169:5119  if (amount == 0) {... */\n      tag_77\n      jumpi\n        /* \"contracts/DecentraWill.sol\":4394:4447  removeRecipientForToken(msg.sender, token, recipient) */\n      tag_78\n        /* \"contracts/DecentraWill.sol\":4418:4428  msg.sender */\n      caller\n        /* \"contracts/DecentraWill.sol\":4430:4435  token */\n      dup5\n        /* \"contracts/DecentraWill.sol\":4437:4446  recipient */\n      dup5\n        /* \"contracts/DecentraWill.sol\":4394:4417  removeRecipientForToken */\n      tag_51\n        /* \"contracts/DecentraWill.sol\":4394:4447  removeRecipientForToken(msg.sender, token, recipient) */\n      jump\t// in\n    tag_78:\n        /* \"contracts/DecentraWill.sol\":4044:5126  function setAllocation(... */\n      pop\n      pop\n      pop\n      jump\t// out\n        /* \"contracts/DecentraWill.sol\":4169:5119  if (amount == 0) {... */\n    tag_77:\n        /* \"contracts/DecentraWill.sol\":4549:4559  msg.sender */\n      caller\n        /* \"contracts/DecentraWill.sol\":4532:4560  tokenAllocations[msg.sender] */\n      0x00\n      dup2\n      dup2\n      mstore\n        /* \"contracts/DecentraWill.sol\":4532:4548  tokenAllocations */\n      0x01\n        /* \"contracts/DecentraWill.sol\":4532:4560  tokenAllocations[msg.sender] */\n      0x20\n      swap1\n      dup2\n      mstore\n      0x40\n      dup1\n      dup4\n      keccak256\n      sub(shl(0xa0, 0x01), 0x01)\n        /* \"contracts/DecentraWill.sol\":4532:4567  tokenAllocations[msg.sender][token] */\n      dup9\n      dup2\n      and\n      dup6\n      mstore\n      swap1\n      dup4\n      mstore\n      dup2\n      dup5\n      keccak256\n        /* \"contracts/DecentraWill.sol\":4532:4578  tokenAllocations[msg.sender][token][recipient] */\n      swap1\n      dup8\n      and\n      dup5\n      mstore\n      swap1\n      swap2\n      mstore\n      swap1\n      keccak256\n        /* \"contracts/DecentraWill.sol\":4532:4587  tokenAllocations[msg.sender][token][recipient] = amount */\n      dup3\n      swap1\n      sstore\n        /* \"contracts/DecentraWill.sol\":4681:4716  _addTokenForUser(msg.sender, token) */\n      tag_80\n      swap1\n        /* \"contracts/DecentraWill.sol\":4561:4566  token */\n      dup5\n        /* \"contracts/DecentraWill.sol\":4681:4697  _addTokenForUser */\n      tag_81\n        /* \"contracts/DecentraWill.sol\":4681:4716  _addTokenForUser(msg.sender, token) */\n      jump\t// in\n    tag_80:\n        /* \"contracts/DecentraWill.sol\":4812:4863  _addRecipientForToken(msg.sender, token, recipient) */\n      tag_82\n        /* \"contracts/DecentraWill.sol\":4834:4844  msg.sender */\n      caller\n        /* \"contracts/DecentraWill.sol\":4846:4851  token */\n      dup5\n        /* \"contracts/DecentraWill.sol\":4853:4862  recipient */\n      dup5\n        /* \"contracts/DecentraWill.sol\":4812:4833  _addRecipientForToken */\n      tag_83\n        /* \"contracts/DecentraWill.sol\":4812:4863  _addRecipientForToken(msg.sender, token, recipient) */\n      jump\t// in\n    tag_82:\n        /* \"contracts/DecentraWill.sol\":4951:4999  _addCreatorForBeneficiary(msg.sender, recipient) */\n      tag_84\n        /* \"contracts/DecentraWill.sol\":4977:4987  msg.sender */\n      caller\n        /* \"contracts/DecentraWill.sol\":4989:4998  recipient */\n      dup4\n        /* \"contracts/DecentraWill.sol\":4951:4976  _addCreatorForBeneficiary */\n      tag_85\n        /* \"contracts/DecentraWill.sol\":4951:4999  _addCreatorForBeneficiary(msg.sender, recipient) */\n      jump\t// in\n    tag_84:\n        /* \"contracts/DecentraWill.sol\":5052:5061  recipient */\n      dup2\n      sub(shl(0xa0, 0x01), 0x01)\n        /* \"contracts/DecentraWill.sol\":5019:5070  AllocationSet(msg.sender, token, recipient, amount) */\n      and\n        /* \"contracts/DecentraWill.sol\":5045:5050  token */\n      dup4\n      sub(shl(0xa0, 0x01), 0x01)\n        /* \"contracts/DecentraWill.sol\":5019:5070  AllocationSet(msg.sender, token, recipient, amount) */\n      and\n        /* \"contracts/DecentraWill.sol\":5033:5043  msg.sender */\n      caller\n      sub(shl(0xa0, 0x01), 0x01)\n        /* \"contracts/DecentraWill.sol\":5019:5070  AllocationSet(msg.sender, token, recipient, amount) */\n      and\n      0x7ae337d22e62927a7215ad9c9a3a275863a9d305944d515360e7a2449dd85cce\n        /* \"contracts/DecentraWill.sol\":5063:5069  amount */\n      dup5\n        /* \"contracts/DecentraWill.sol\":5019:5070  AllocationSet(msg.sender, token, recipient, amount) */\n      mload(0x40)\n      tag_86\n      swap2\n        /* \"#utility.yul\":1988:2013   */\n      dup2\n      mstore\n        /* \"#utility.yul\":1976:1978   */\n      0x20\n        /* \"#utility.yul\":1961:1979   */\n      add\n      swap1\n        /* \"#utility.yul\":1842:2019   */\n      jump\n        /* \"contracts/DecentraWill.sol\":5019:5070  AllocationSet(msg.sender, token, recipient, amount) */\n    tag_86:\n      mload(0x40)\n      dup1\n      swap2\n      sub\n      swap1\n      log4\n        /* \"contracts/DecentraWill.sol\":4044:5126  function setAllocation(... */\n      pop\n      pop\n      pop\n      jump\t// out\n        /* \"contracts/DecentraWill.sol\":5715:8651  function removeRecipientForToken(... */\n    tag_51:\n        /* \"contracts/DecentraWill.sol\":5853:5895  isRecipientOfToken(user, token, recipient) */\n      tag_88\n        /* \"contracts/DecentraWill.sol\":5872:5876  user */\n      dup4\n        /* \"contracts/DecentraWill.sol\":5878:5883  token */\n      dup4\n        /* \"contracts/DecentraWill.sol\":5885:5894  recipient */\n      dup4\n        /* \"contracts/DecentraWill.sol\":5853:5871  isRecipientOfToken */\n      tag_54\n        /* \"contracts/DecentraWill.sol\":5853:5895  isRecipientOfToken(user, token, recipient) */\n      jump\t// in\n    tag_88:\n        /* \"contracts/DecentraWill.sol\":5848:5950  if (!isRecipientOfToken(user, token, recipient)) {... */\n      tag_89\n      jumpi\n        /* \"contracts/DecentraWill.sol\":5919:5938  RecipientNotFound() */\n      mload(0x40)\n      shl(0xe0, 0x66a21ffb)\n      dup2\n      mstore\n      0x04\n      add\n      mload(0x40)\n      dup1\n      swap2\n      sub\n      swap1\n      revert\n        /* \"contracts/DecentraWill.sol\":5848:5950  if (!isRecipientOfToken(user, token, recipient)) {... */\n    tag_89:\n        /* \"contracts/DecentraWill.sol\":6029:6042  uint256 index */\n      0x00\n        /* \"contracts/DecentraWill.sol\":6053:6243  for (index = 0; index < tokenRecipients[user][token].length; index++) {... */\n    tag_90:\n      sub(shl(0xa0, 0x01), 0x01)\n        /* \"contracts/DecentraWill.sol\":6077:6098  tokenRecipients[user] */\n      dup1\n      dup6\n      and\n      0x00\n      swap1\n      dup2\n      mstore\n        /* \"contracts/DecentraWill.sol\":6077:6092  tokenRecipients */\n      0x03\n        /* \"contracts/DecentraWill.sol\":6077:6098  tokenRecipients[user] */\n      0x20\n      swap1\n      dup2\n      mstore\n      0x40\n      dup1\n      dup4\n      keccak256\n        /* \"contracts/DecentraWill.sol\":6077:6105  tokenRecipients[user][token] */\n      swap4\n      dup8\n      and\n      dup4\n      mstore\n      swap3\n      swap1\n      mstore\n      keccak256\n        /* \"contracts/DecentraWill.sol\":6077:6112  tokenRecipients[user][token].length */\n      sload\n        /* \"contracts/DecentraWill.sol\":6069:6112  index < tokenRecipients[user][token].length */\n      dup2\n      lt\n        /* \"contracts/DecentraWill.sol\":6053:6243  for (index = 0; index < tokenRecipients[user][token].length; index++) {... */\n      iszero\n      tag_91\n      jumpi\n      sub(shl(0xa0, 0x01), 0x01)\n        /* \"contracts/DecentraWill.sol\":6142:6163  tokenRecipients[user] */\n      dup5\n      dup2\n      and\n      0x00\n      swap1\n      dup2\n      mstore\n        /* \"contracts/DecentraWill.sol\":6142:6157  tokenRecipients */\n      0x03\n        /* \"contracts/DecentraWill.sol\":6142:6163  tokenRecipients[user] */\n      0x20\n      swap1\n      dup2\n      mstore\n      0x40\n      dup1\n      dup4\n      keccak256\n        /* \"contracts/DecentraWill.sol\":6142:6170  tokenRecipients[user][token] */\n      dup8\n      dup6\n      and\n      dup5\n      mstore\n      swap1\n      swap2\n      mstore\n      swap1\n      keccak256\n        /* \"contracts/DecentraWill.sol\":6142:6177  tokenRecipients[user][token][index] */\n      dup1\n      sload\n        /* \"contracts/DecentraWill.sol\":6142:6190  tokenRecipients[user][token][index] == recipient */\n      swap2\n      dup5\n      and\n      swap2\n        /* \"contracts/DecentraWill.sol\":6171:6176  index */\n      dup4\n      swap1\n        /* \"contracts/DecentraWill.sol\":6142:6177  tokenRecipients[user][token][index] */\n      dup2\n      lt\n      tag_94\n      jumpi\n      tag_94\n      tag_71\n      jump\t// in\n    tag_94:\n      0x00\n      swap2\n      dup3\n      mstore\n      0x20\n      swap1\n      swap2\n      keccak256\n      add\n      sload\n      sub(shl(0xa0, 0x01), 0x01)\n      and\n        /* \"contracts/DecentraWill.sol\":6138:6232  if (tokenRecipients[user][token][index] == recipient) {... */\n      eq\n        /* \"contracts/DecentraWill.sol\":6211:6216  break */\n      tag_91\n        /* \"contracts/DecentraWill.sol\":6138:6232  if (tokenRecipients[user][token][index] == recipient) {... */\n      jumpi\n        /* \"contracts/DecentraWill.sol\":6114:6121  index++ */\n      0x01\n      add\n        /* \"contracts/DecentraWill.sol\":6053:6243  for (index = 0; index < tokenRecipients[user][token].length; index++) {... */\n      jump(tag_90)\n    tag_91:\n        /* \"contracts/DecentraWill.sol\":6284:6289  index */\n      dup1\n        /* \"contracts/DecentraWill.sol\":6253:6505  for (... */\n    tag_97:\n      sub(shl(0xa0, 0x01), 0x01)\n        /* \"contracts/DecentraWill.sol\":6308:6329  tokenRecipients[user] */\n      dup1\n      dup7\n      and\n      0x00\n      swap1\n      dup2\n      mstore\n        /* \"contracts/DecentraWill.sol\":6308:6323  tokenRecipients */\n      0x03\n        /* \"contracts/DecentraWill.sol\":6308:6329  tokenRecipients[user] */\n      0x20\n      swap1\n      dup2\n      mstore\n      0x40\n      dup1\n      dup4\n      keccak256\n        /* \"contracts/DecentraWill.sol\":6308:6336  tokenRecipients[user][token] */\n      swap4\n      dup9\n      and\n      dup4\n      mstore\n      swap3\n      swap1\n      mstore\n      keccak256\n        /* \"contracts/DecentraWill.sol\":6308:6343  tokenRecipients[user][token].length */\n      sload\n        /* \"contracts/DecentraWill.sol\":6308:6347  tokenRecipients[user][token].length - 1 */\n      tag_100\n      swap1\n        /* \"contracts/DecentraWill.sol\":6346:6347  1 */\n      0x01\n      swap1\n        /* \"contracts/DecentraWill.sol\":6308:6347  tokenRecipients[user][token].length - 1 */\n      tag_101\n      jump\t// in\n    tag_100:\n        /* \"contracts/DecentraWill.sol\":6304:6305  i */\n      dup2\n        /* \"contracts/DecentraWill.sol\":6304:6347  i < tokenRecipients[user][token].length - 1 */\n      lt\n        /* \"contracts/DecentraWill.sol\":6253:6505  for (... */\n      iszero\n      tag_98\n      jumpi\n      sub(shl(0xa0, 0x01), 0x01)\n        /* \"contracts/DecentraWill.sol\":6426:6447  tokenRecipients[user] */\n      dup1\n      dup7\n      and\n      0x00\n      swap1\n      dup2\n      mstore\n        /* \"contracts/DecentraWill.sol\":6426:6441  tokenRecipients */\n      0x03\n        /* \"contracts/DecentraWill.sol\":6426:6447  tokenRecipients[user] */\n      0x20\n      swap1\n      dup2\n      mstore\n      0x40\n      dup1\n      dup4\n      keccak256\n        /* \"contracts/DecentraWill.sol\":6426:6454  tokenRecipients[user][token] */\n      swap4\n      dup9\n      and\n      dup4\n      mstore\n      swap3\n      swap1\n      mstore\n      keccak256\n        /* \"contracts/DecentraWill.sol\":6473:6478  i + 1 */\n      tag_102\n        /* \"contracts/DecentraWill.sol\":6473:6474  i */\n      dup3\n        /* \"contracts/DecentraWill.sol\":6477:6478  1 */\n      0x01\n        /* \"contracts/DecentraWill.sol\":6473:6478  i + 1 */\n      tag_103\n      jump\t// in\n    tag_102:\n        /* \"contracts/DecentraWill.sol\":6426:6493  tokenRecipients[user][token][... */\n      dup2\n      sload\n      dup2\n      lt\n      tag_105\n      jumpi\n      tag_105\n      tag_71\n      jump\t// in\n    tag_105:\n      0x00\n      swap2\n      dup3\n      mstore\n      0x20\n      dup1\n      dup4\n      keccak256\n      swap1\n      swap2\n      add\n      sload\n      sub(shl(0xa0, 0x01), 0x01)\n        /* \"contracts/DecentraWill.sol\":6392:6413  tokenRecipients[user] */\n      dup9\n      dup2\n      and\n      dup5\n      mstore\n        /* \"contracts/DecentraWill.sol\":6392:6407  tokenRecipients */\n      0x03\n        /* \"contracts/DecentraWill.sol\":6392:6413  tokenRecipients[user] */\n      dup4\n      mstore\n      0x40\n      dup1\n      dup6\n      keccak256\n        /* \"contracts/DecentraWill.sol\":6392:6420  tokenRecipients[user][token] */\n      dup10\n      dup4\n      and\n      dup7\n      mstore\n      swap1\n      swap4\n      mstore\n      swap2\n      swap1\n      swap3\n      keccak256\n        /* \"contracts/DecentraWill.sol\":6392:6423  tokenRecipients[user][token][i] */\n      dup1\n      sload\n        /* \"contracts/DecentraWill.sol\":6426:6493  tokenRecipients[user][token][... */\n      swap2\n      swap1\n      swap3\n      and\n      swap2\n        /* \"contracts/DecentraWill.sol\":6392:6420  tokenRecipients[user][token] */\n      swap1\n        /* \"contracts/DecentraWill.sol\":6421:6422  i */\n      dup4\n      swap1\n        /* \"contracts/DecentraWill.sol\":6392:6423  tokenRecipients[user][token][i] */\n      dup2\n      lt\n      tag_108\n      jumpi\n      tag_108\n      tag_71\n      jump\t// in\n    tag_108:\n      0x00\n      swap2\n      dup3\n      mstore\n      0x20\n      swap1\n      swap2\n      keccak256\n      add\n        /* \"contracts/DecentraWill.sol\":6392:6493  tokenRecipients[user][token][i] = tokenRecipients[user][token][... */\n      dup1\n      sload\n      not(sub(shl(0xa0, 0x01), 0x01))\n      and\n      sub(shl(0xa0, 0x01), 0x01)\n      swap3\n      swap1\n      swap3\n      and\n      swap2\n      swap1\n      swap2\n      or\n      swap1\n      sstore\n      0x01\n        /* \"contracts/DecentraWill.sol\":6362:6365  i++ */\n      add\n        /* \"contracts/DecentraWill.sol\":6253:6505  for (... */\n      jump(tag_97)\n    tag_98:\n      pop\n      sub(shl(0xa0, 0x01), 0x01)\n        /* \"contracts/DecentraWill.sol\":6515:6536  tokenRecipients[user] */\n      dup1\n      dup6\n      and\n      0x00\n      swap1\n      dup2\n      mstore\n        /* \"contracts/DecentraWill.sol\":6515:6530  tokenRecipients */\n      0x03\n        /* \"contracts/DecentraWill.sol\":6515:6536  tokenRecipients[user] */\n      0x20\n      swap1\n      dup2\n      mstore\n      0x40\n      dup1\n      dup4\n      keccak256\n        /* \"contracts/DecentraWill.sol\":6515:6543  tokenRecipients[user][token] */\n      swap4\n      dup8\n      and\n      dup4\n      mstore\n      swap3\n      swap1\n      mstore\n      keccak256\n        /* \"contracts/DecentraWill.sol\":6515:6549  tokenRecipients[user][token].pop() */\n      dup1\n      sload\n      dup1\n      tag_111\n      jumpi\n      tag_111\n      tag_112\n      jump\t// in\n    tag_111:\n      0x00\n      dup3\n      dup2\n      mstore\n      0x20\n      dup1\n      dup3\n      keccak256\n      dup4\n      add\n      not(0x00)\n      swap1\n      dup2\n      add\n      dup1\n      sload\n      not(sub(shl(0xa0, 0x01), 0x01))\n      and\n      swap1\n      sstore\n      swap1\n      swap3\n      add\n      swap1\n      swap3\n      sstore\n      sub(shl(0xa0, 0x01), 0x01)\n        /* \"contracts/DecentraWill.sol\":6627:6649  tokenAllocations[user] */\n      dup7\n      dup2\n      and\n      dup1\n      dup5\n      mstore\n        /* \"contracts/DecentraWill.sol\":6515:6549  tokenRecipients[user][token].pop() */\n      0x01\n        /* \"contracts/DecentraWill.sol\":6627:6649  tokenAllocations[user] */\n      dup4\n      mstore\n      0x40\n      dup1\n      dup6\n      keccak256\n        /* \"contracts/DecentraWill.sol\":6627:6656  tokenAllocations[user][token] */\n      dup9\n      dup5\n      and\n      dup1\n      dup8\n      mstore\n      swap1\n      dup6\n      mstore\n      dup2\n      dup7\n      keccak256\n        /* \"contracts/DecentraWill.sol\":6627:6667  tokenAllocations[user][token][recipient] */\n      swap4\n      dup9\n      and\n      dup7\n      mstore\n      swap3\n      dup5\n      mstore\n      dup1\n      dup6\n      keccak256\n        /* \"contracts/DecentraWill.sol\":6620:6667  delete tokenAllocations[user][token][recipient] */\n      dup6\n      swap1\n      sstore\n        /* \"contracts/DecentraWill.sol\":6749:6770  tokenRecipients[user] */\n      swap1\n      dup5\n      mstore\n        /* \"contracts/DecentraWill.sol\":6749:6764  tokenRecipients */\n      0x03\n        /* \"contracts/DecentraWill.sol\":6749:6770  tokenRecipients[user] */\n      dup4\n      mstore\n      dup1\n      dup5\n      keccak256\n        /* \"contracts/DecentraWill.sol\":6749:6777  tokenRecipients[user][token] */\n      swap2\n      dup5\n      mstore\n      swap2\n      mstore\n      dup2\n      keccak256\n        /* \"contracts/DecentraWill.sol\":6749:6784  tokenRecipients[user][token].length */\n      sload\n        /* \"contracts/DecentraWill.sol\":6749:6789  tokenRecipients[user][token].length == 0 */\n      swap1\n      sub\n        /* \"contracts/DecentraWill.sol\":6745:7521  if (tokenRecipients[user][token].length == 0) {... */\n      tag_116\n      jumpi\n      pop\n        /* \"contracts/DecentraWill.sol\":6912:6913  0 */\n      0x00\n        /* \"contracts/DecentraWill.sol\":6899:7510  for (index = 0; index < userAllocatedTokens[user].length; index++) {... */\n    tag_115:\n      sub(shl(0xa0, 0x01), 0x01)\n        /* \"contracts/DecentraWill.sol\":6923:6948  userAllocatedTokens[user] */\n      dup5\n      and\n      0x00\n      swap1\n      dup2\n      mstore\n        /* \"contracts/DecentraWill.sol\":6923:6942  userAllocatedTokens */\n      0x02\n        /* \"contracts/DecentraWill.sol\":6923:6948  userAllocatedTokens[user] */\n      0x20\n      mstore\n      0x40\n      swap1\n      keccak256\n        /* \"contracts/DecentraWill.sol\":6923:6955  userAllocatedTokens[user].length */\n      sload\n        /* \"contracts/DecentraWill.sol\":6915:6955  index < userAllocatedTokens[user].length */\n      dup2\n      lt\n        /* \"contracts/DecentraWill.sol\":6899:7510  for (index = 0; index < userAllocatedTokens[user].length; index++) {... */\n      iszero\n      tag_116\n      jumpi\n      sub(shl(0xa0, 0x01), 0x01)\n        /* \"contracts/DecentraWill.sol\":6989:7014  userAllocatedTokens[user] */\n      dup5\n      dup2\n      and\n      0x00\n      swap1\n      dup2\n      mstore\n        /* \"contracts/DecentraWill.sol\":6989:7008  userAllocatedTokens */\n      0x02\n        /* \"contracts/DecentraWill.sol\":6989:7014  userAllocatedTokens[user] */\n      0x20\n      mstore\n      0x40\n      swap1\n      keccak256\n        /* \"contracts/DecentraWill.sol\":6989:7021  userAllocatedTokens[user][index] */\n      dup1\n      sload\n        /* \"contracts/DecentraWill.sol\":6989:7030  userAllocatedTokens[user][index] == token */\n      swap2\n      dup6\n      and\n      swap2\n        /* \"contracts/DecentraWill.sol\":7015:7020  index */\n      dup4\n      swap1\n        /* \"contracts/DecentraWill.sol\":6989:7021  userAllocatedTokens[user][index] */\n      dup2\n      lt\n      tag_119\n      jumpi\n      tag_119\n      tag_71\n      jump\t// in\n    tag_119:\n      0x00\n      swap2\n      dup3\n      mstore\n      0x20\n      swap1\n      swap2\n      keccak256\n      add\n      sload\n      sub(shl(0xa0, 0x01), 0x01)\n      and\n        /* \"contracts/DecentraWill.sol\":6989:7030  userAllocatedTokens[user][index] == token */\n      sub\n        /* \"contracts/DecentraWill.sol\":6985:7495  if (userAllocatedTokens[user][index] == token) {... */\n      tag_121\n      jumpi\n        /* \"contracts/DecentraWill.sol\":7098:7103  index */\n      dup1\n        /* \"contracts/DecentraWill.sol\":7055:7394  for (... */\n    tag_122:\n      sub(shl(0xa0, 0x01), 0x01)\n        /* \"contracts/DecentraWill.sol\":7134:7159  userAllocatedTokens[user] */\n      dup6\n      and\n      0x00\n      swap1\n      dup2\n      mstore\n        /* \"contracts/DecentraWill.sol\":7134:7153  userAllocatedTokens */\n      0x02\n        /* \"contracts/DecentraWill.sol\":7134:7159  userAllocatedTokens[user] */\n      0x20\n      mstore\n      0x40\n      swap1\n      keccak256\n        /* \"contracts/DecentraWill.sol\":7134:7166  userAllocatedTokens[user].length */\n      sload\n        /* \"contracts/DecentraWill.sol\":7134:7170  userAllocatedTokens[user].length - 1 */\n      tag_125\n      swap1\n        /* \"contracts/DecentraWill.sol\":7169:7170  1 */\n      0x01\n      swap1\n        /* \"contracts/DecentraWill.sol\":7134:7170  userAllocatedTokens[user].length - 1 */\n      tag_101\n      jump\t// in\n    tag_125:\n        /* \"contracts/DecentraWill.sol\":7130:7131  i */\n      dup2\n        /* \"contracts/DecentraWill.sol\":7130:7170  i < userAllocatedTokens[user].length - 1 */\n      lt\n        /* \"contracts/DecentraWill.sol\":7055:7394  for (... */\n      iszero\n      tag_123\n      jumpi\n      sub(shl(0xa0, 0x01), 0x01)\n        /* \"contracts/DecentraWill.sol\":7282:7363  userAllocatedTokens[... */\n      dup6\n      and\n      0x00\n      swap1\n      dup2\n      mstore\n        /* \"contracts/DecentraWill.sol\":7282:7301  userAllocatedTokens */\n      0x02\n        /* \"contracts/DecentraWill.sol\":7282:7363  userAllocatedTokens[... */\n      0x20\n      mstore\n      0x40\n      swap1\n      keccak256\n        /* \"contracts/DecentraWill.sol\":7364:7369  i + 1 */\n      tag_126\n        /* \"contracts/DecentraWill.sol\":7364:7365  i */\n      dup3\n        /* \"contracts/DecentraWill.sol\":7368:7369  1 */\n      0x01\n        /* \"contracts/DecentraWill.sol\":7364:7369  i + 1 */\n      tag_103\n      jump\t// in\n    tag_126:\n        /* \"contracts/DecentraWill.sol\":7282:7370  userAllocatedTokens[... */\n      dup2\n      sload\n      dup2\n      lt\n      tag_128\n      jumpi\n      tag_128\n      tag_71\n      jump\t// in\n    tag_128:\n      0x00\n      swap2\n      dup3\n      mstore\n      0x20\n      dup1\n      dup4\n      keccak256\n      swap1\n      swap2\n      add\n      sload\n      sub(shl(0xa0, 0x01), 0x01)\n        /* \"contracts/DecentraWill.sol\":7251:7276  userAllocatedTokens[user] */\n      dup9\n      dup2\n      and\n      dup5\n      mstore\n        /* \"contracts/DecentraWill.sol\":7251:7270  userAllocatedTokens */\n      0x02\n        /* \"contracts/DecentraWill.sol\":7251:7276  userAllocatedTokens[user] */\n      swap1\n      swap3\n      mstore\n      0x40\n      swap1\n      swap3\n      keccak256\n        /* \"contracts/DecentraWill.sol\":7251:7279  userAllocatedTokens[user][i] */\n      dup1\n      sload\n        /* \"contracts/DecentraWill.sol\":7282:7370  userAllocatedTokens[... */\n      swap2\n      swap1\n      swap3\n      and\n      swap2\n        /* \"contracts/DecentraWill.sol\":7251:7276  userAllocatedTokens[user] */\n      swap1\n        /* \"contracts/DecentraWill.sol\":7277:7278  i */\n      dup4\n      swap1\n        /* \"contracts/DecentraWill.sol\":7251:7279  userAllocatedTokens[user][i] */\n      dup2\n      lt\n      tag_131\n      jumpi\n      tag_131\n      tag_71\n      jump\t// in\n    tag_131:\n      0x00\n      swap2\n      dup3\n      mstore\n      0x20\n      swap1\n      swap2\n      keccak256\n      add\n        /* \"contracts/DecentraWill.sol\":7251:7370  userAllocatedTokens[user][i] = userAllocatedTokens[... */\n      dup1\n      sload\n      not(sub(shl(0xa0, 0x01), 0x01))\n      and\n      sub(shl(0xa0, 0x01), 0x01)\n      swap3\n      swap1\n      swap3\n      and\n      swap2\n      swap1\n      swap2\n      or\n      swap1\n      sstore\n      0x01\n        /* \"contracts/DecentraWill.sol\":7197:7200  i++ */\n      add\n        /* \"contracts/DecentraWill.sol\":7055:7394  for (... */\n      jump(tag_122)\n    tag_123:\n      pop\n      sub(shl(0xa0, 0x01), 0x01)\n        /* \"contracts/DecentraWill.sol\":7416:7441  userAllocatedTokens[user] */\n      dup5\n      and\n      0x00\n      swap1\n      dup2\n      mstore\n        /* \"contracts/DecentraWill.sol\":7416:7435  userAllocatedTokens */\n      0x02\n        /* \"contracts/DecentraWill.sol\":7416:7441  userAllocatedTokens[user] */\n      0x20\n      mstore\n      0x40\n      swap1\n      keccak256\n        /* \"contracts/DecentraWill.sol\":7416:7447  userAllocatedTokens[user].pop() */\n      dup1\n      sload\n      dup1\n      tag_134\n      jumpi\n      tag_134\n      tag_112\n      jump\t// in\n    tag_134:\n      0x00\n      dup3\n      dup2\n      mstore\n      0x20\n      swap1\n      keccak256\n      dup2\n      add\n      not(0x00)\n      swap1\n      dup2\n      add\n      dup1\n      sload\n      not(sub(shl(0xa0, 0x01), 0x01))\n      and\n      swap1\n      sstore\n      add\n      swap1\n      sstore\n        /* \"contracts/DecentraWill.sol\":7470:7475  break */\n      jump(tag_116)\n        /* \"contracts/DecentraWill.sol\":6985:7495  if (userAllocatedTokens[user][index] == token) {... */\n    tag_121:\n        /* \"contracts/DecentraWill.sol\":6957:6964  index++ */\n      0x01\n      add\n        /* \"contracts/DecentraWill.sol\":6899:7510  for (index = 0; index < userAllocatedTokens[user].length; index++) {... */\n      jump(tag_115)\n    tag_116:\n      sub(shl(0xa0, 0x01), 0x01)\n        /* \"contracts/DecentraWill.sol\":7687:7712  userAllocatedTokens[user] */\n      dup5\n      and\n        /* \"contracts/DecentraWill.sol\":7609:7633  bool hasOtherAllocations */\n      0x00\n        /* \"contracts/DecentraWill.sol\":7687:7712  userAllocatedTokens[user] */\n      swap1\n      dup2\n      mstore\n        /* \"contracts/DecentraWill.sol\":7687:7706  userAllocatedTokens */\n      0x02\n        /* \"contracts/DecentraWill.sol\":7687:7712  userAllocatedTokens[user] */\n      0x20\n      swap1\n      dup2\n      mstore\n      0x40\n      dup1\n      dup4\n      keccak256\n        /* \"contracts/DecentraWill.sol\":7652:7712  address[] memory allocatedTokens = userAllocatedTokens[user] */\n      dup1\n      sload\n      dup3\n      mload\n      dup2\n      dup6\n      mul\n      dup2\n      add\n      dup6\n      add\n      swap1\n      swap4\n      mstore\n      dup1\n      dup4\n      mstore\n        /* \"contracts/DecentraWill.sol\":7609:7633  bool hasOtherAllocations */\n      dup5\n      swap4\n        /* \"contracts/DecentraWill.sol\":7652:7712  address[] memory allocatedTokens = userAllocatedTokens[user] */\n      dup4\n      add\n        /* \"contracts/DecentraWill.sol\":7687:7712  userAllocatedTokens[user] */\n      dup3\n        /* \"contracts/DecentraWill.sol\":7652:7712  address[] memory allocatedTokens = userAllocatedTokens[user] */\n      dup3\n      dup1\n      iszero\n      tag_136\n      jumpi\n      0x20\n      mul\n      dup3\n      add\n      swap2\n      swap1\n      0x00\n      mstore\n      keccak256(0x00, 0x20)\n      swap1\n    tag_137:\n      dup2\n      sload\n      sub(shl(0xa0, 0x01), 0x01)\n      and\n      dup2\n      mstore\n      0x01\n      swap1\n      swap2\n      add\n      swap1\n      0x20\n      add\n      dup1\n      dup4\n      gt\n      tag_137\n      jumpi\n    tag_136:\n      pop\n      pop\n      pop\n      pop\n      pop\n      swap1\n      pop\n        /* \"contracts/DecentraWill.sol\":7728:7734  uint i */\n      0x00\n        /* \"contracts/DecentraWill.sol\":7723:7947  for (uint i = 0; i < allocatedTokens.length; i++) {... */\n    tag_138:\n        /* \"contracts/DecentraWill.sol\":7744:7759  allocatedTokens */\n      dup2\n        /* \"contracts/DecentraWill.sol\":7744:7766  allocatedTokens.length */\n      mload\n        /* \"contracts/DecentraWill.sol\":7740:7741  i */\n      dup2\n        /* \"contracts/DecentraWill.sol\":7740:7766  i < allocatedTokens.length */\n      lt\n        /* \"contracts/DecentraWill.sol\":7723:7947  for (uint i = 0; i < allocatedTokens.length; i++) {... */\n      iszero\n      tag_139\n      jumpi\n      sub(shl(0xa0, 0x01), 0x01)\n        /* \"contracts/DecentraWill.sol\":7792:7814  tokenAllocations[user] */\n      dup8\n      and\n        /* \"contracts/DecentraWill.sol\":7848:7849  0 */\n      0x00\n        /* \"contracts/DecentraWill.sol\":7792:7814  tokenAllocations[user] */\n      swap1\n      dup2\n      mstore\n        /* \"contracts/DecentraWill.sol\":7792:7808  tokenAllocations */\n      0x01\n        /* \"contracts/DecentraWill.sol\":7792:7814  tokenAllocations[user] */\n      0x20\n      mstore\n      0x40\n      dup2\n      keccak256\n        /* \"contracts/DecentraWill.sol\":7815:7833  allocatedTokens[i] */\n      dup4\n      mload\n        /* \"contracts/DecentraWill.sol\":7848:7849  0 */\n      dup3\n      swap1\n        /* \"contracts/DecentraWill.sol\":7815:7830  allocatedTokens */\n      dup6\n      swap1\n        /* \"contracts/DecentraWill.sol\":7831:7832  i */\n      dup6\n      swap1\n        /* \"contracts/DecentraWill.sol\":7815:7833  allocatedTokens[i] */\n      dup2\n      lt\n      tag_142\n      jumpi\n      tag_142\n      tag_71\n      jump\t// in\n    tag_142:\n      0x20\n      mul\n      0x20\n      add\n      add\n      mload\n      sub(shl(0xa0, 0x01), 0x01)\n        /* \"contracts/DecentraWill.sol\":7792:7834  tokenAllocations[user][allocatedTokens[i]] */\n      and\n      sub(shl(0xa0, 0x01), 0x01)\n      and\n      dup2\n      mstore\n      0x20\n      add\n      swap1\n      dup2\n      mstore\n      0x20\n      add\n      0x00\n      keccak256\n        /* \"contracts/DecentraWill.sol\":7792:7845  tokenAllocations[user][allocatedTokens[i]][recipient] */\n      0x00\n        /* \"contracts/DecentraWill.sol\":7835:7844  recipient */\n      dup8\n      sub(shl(0xa0, 0x01), 0x01)\n        /* \"contracts/DecentraWill.sol\":7792:7845  tokenAllocations[user][allocatedTokens[i]][recipient] */\n      and\n      sub(shl(0xa0, 0x01), 0x01)\n      and\n      dup2\n      mstore\n      0x20\n      add\n      swap1\n      dup2\n      mstore\n      0x20\n      add\n      0x00\n      keccak256\n      sload\n        /* \"contracts/DecentraWill.sol\":7792:7849  tokenAllocations[user][allocatedTokens[i]][recipient] > 0 */\n      gt\n        /* \"contracts/DecentraWill.sol\":7788:7936  if (tokenAllocations[user][allocatedTokens[i]][recipient] > 0) {... */\n      iszero\n      tag_143\n      jumpi\n        /* \"contracts/DecentraWill.sol\":7892:7896  true */\n      0x01\n        /* \"contracts/DecentraWill.sol\":7870:7896  hasOtherAllocations = true */\n      swap3\n      pop\n        /* \"contracts/DecentraWill.sol\":7915:7920  break */\n      jump(tag_139)\n        /* \"contracts/DecentraWill.sol\":7788:7936  if (tokenAllocations[user][allocatedTokens[i]][recipient] > 0) {... */\n    tag_143:\n        /* \"contracts/DecentraWill.sol\":7768:7771  i++ */\n      0x01\n      add\n        /* \"contracts/DecentraWill.sol\":7723:7947  for (uint i = 0; i < allocatedTokens.length; i++) {... */\n      jump(tag_138)\n    tag_139:\n      pop\n        /* \"contracts/DecentraWill.sol\":8058:8077  hasOtherAllocations */\n      dup2\n        /* \"contracts/DecentraWill.sol\":8053:8546  if (!hasOtherAllocations) {... */\n      tag_144\n      jumpi\n      sub(shl(0xa0, 0x01), 0x01)\n        /* \"contracts/DecentraWill.sol\":8127:8160  creatorsForBeneficiary[recipient] */\n      dup5\n      and\n        /* \"contracts/DecentraWill.sol\":8094:8124  address[] storage creatorsList */\n      0x00\n        /* \"contracts/DecentraWill.sol\":8127:8160  creatorsForBeneficiary[recipient] */\n      swap1\n      dup2\n      mstore\n        /* \"contracts/DecentraWill.sol\":8127:8149  creatorsForBeneficiary */\n      0x04\n        /* \"contracts/DecentraWill.sol\":8127:8160  creatorsForBeneficiary[recipient] */\n      0x20\n      mstore\n      0x40\n      dup2\n      keccak256\n      swap1\n        /* \"contracts/DecentraWill.sol\":8175:8535  for (uint i = 0; i < creatorsList.length; i++) {... */\n    tag_145:\n        /* \"contracts/DecentraWill.sol\":8196:8215  creatorsList.length */\n      dup2\n      sload\n        /* \"contracts/DecentraWill.sol\":8192:8215  i < creatorsList.length */\n      dup2\n      lt\n        /* \"contracts/DecentraWill.sol\":8175:8535  for (uint i = 0; i < creatorsList.length; i++) {... */\n      iszero\n      tag_146\n      jumpi\n        /* \"contracts/DecentraWill.sol\":8264:8268  user */\n      dup8\n      sub(shl(0xa0, 0x01), 0x01)\n        /* \"contracts/DecentraWill.sol\":8245:8268  creatorsList[i] == user */\n      and\n        /* \"contracts/DecentraWill.sol\":8245:8257  creatorsList */\n      dup3\n        /* \"contracts/DecentraWill.sol\":8258:8259  i */\n      dup3\n        /* \"contracts/DecentraWill.sol\":8245:8260  creatorsList[i] */\n      dup2\n      sload\n      dup2\n      lt\n      tag_149\n      jumpi\n      tag_149\n      tag_71\n      jump\t// in\n    tag_149:\n      0x00\n      swap2\n      dup3\n      mstore\n      0x20\n      swap1\n      swap2\n      keccak256\n      add\n      sload\n      sub(shl(0xa0, 0x01), 0x01)\n      and\n        /* \"contracts/DecentraWill.sol\":8245:8268  creatorsList[i] == user */\n      sub\n        /* \"contracts/DecentraWill.sol\":8241:8520  if (creatorsList[i] == user) {... */\n      tag_151\n      jumpi\n        /* \"contracts/DecentraWill.sol\":8307:8308  i */\n      dup1\n        /* \"contracts/DecentraWill.sol\":8293:8432  for (uint j = i; j < creatorsList.length - 1; j++) {... */\n    tag_152:\n        /* \"contracts/DecentraWill.sol\":8314:8333  creatorsList.length */\n      dup3\n      sload\n        /* \"contracts/DecentraWill.sol\":8314:8337  creatorsList.length - 1 */\n      tag_155\n      swap1\n        /* \"contracts/DecentraWill.sol\":8336:8337  1 */\n      0x01\n      swap1\n        /* \"contracts/DecentraWill.sol\":8314:8337  creatorsList.length - 1 */\n      tag_101\n      jump\t// in\n    tag_155:\n        /* \"contracts/DecentraWill.sol\":8310:8311  j */\n      dup2\n        /* \"contracts/DecentraWill.sol\":8310:8337  j < creatorsList.length - 1 */\n      lt\n        /* \"contracts/DecentraWill.sol\":8293:8432  for (uint j = i; j < creatorsList.length - 1; j++) {... */\n      iszero\n      tag_153\n      jumpi\n        /* \"contracts/DecentraWill.sol\":8389:8401  creatorsList */\n      dup3\n        /* \"contracts/DecentraWill.sol\":8402:8407  j + 1 */\n      tag_156\n        /* \"contracts/DecentraWill.sol\":8402:8403  j */\n      dup3\n        /* \"contracts/DecentraWill.sol\":8406:8407  1 */\n      0x01\n        /* \"contracts/DecentraWill.sol\":8402:8407  j + 1 */\n      tag_103\n      jump\t// in\n    tag_156:\n        /* \"contracts/DecentraWill.sol\":8389:8408  creatorsList[j + 1] */\n      dup2\n      sload\n      dup2\n      lt\n      tag_158\n      jumpi\n      tag_158\n      tag_71\n      jump\t// in\n    tag_158:\n      swap1\n      0x00\n      mstore\n      keccak256(0x00, 0x20)\n      add\n      0x00\n      swap1\n      sload\n      swap1\n      0x0100\n      exp\n      swap1\n      div\n      sub(shl(0xa0, 0x01), 0x01)\n      and\n        /* \"contracts/DecentraWill.sol\":8371:8383  creatorsList */\n      dup4\n        /* \"contracts/DecentraWill.sol\":8384:8385  j */\n      dup3\n        /* \"contracts/DecentraWill.sol\":8371:8386  creatorsList[j] */\n      dup2\n      sload\n      dup2\n      lt\n      tag_161\n      jumpi\n      tag_161\n      tag_71\n      jump\t// in\n    tag_161:\n      0x00\n      swap2\n      dup3\n      mstore\n      0x20\n      swap1\n      swap2\n      keccak256\n      add\n        /* \"contracts/DecentraWill.sol\":8371:8408  creatorsList[j] = creatorsList[j + 1] */\n      dup1\n      sload\n      not(sub(shl(0xa0, 0x01), 0x01))\n      and\n      sub(shl(0xa0, 0x01), 0x01)\n      swap3\n      swap1\n      swap3\n      and\n      swap2\n      swap1\n      swap2\n      or\n      swap1\n      sstore\n      0x01\n        /* \"contracts/DecentraWill.sol\":8339:8342  j++ */\n      add\n        /* \"contracts/DecentraWill.sol\":8293:8432  for (uint j = i; j < creatorsList.length - 1; j++) {... */\n      jump(tag_152)\n    tag_153:\n      pop\n        /* \"contracts/DecentraWill.sol\":8454:8466  creatorsList */\n      dup2\n        /* \"contracts/DecentraWill.sol\":8454:8472  creatorsList.pop() */\n      dup1\n      sload\n      dup1\n      tag_164\n      jumpi\n      tag_164\n      tag_112\n      jump\t// in\n    tag_164:\n      0x00\n      dup3\n      dup2\n      mstore\n      0x20\n      swap1\n      keccak256\n      dup2\n      add\n      not(0x00)\n      swap1\n      dup2\n      add\n      dup1\n      sload\n      not(sub(shl(0xa0, 0x01), 0x01))\n      and\n      swap1\n      sstore\n      add\n      swap1\n      sstore\n        /* \"contracts/DecentraWill.sol\":8495:8500  break */\n      jump(tag_146)\n        /* \"contracts/DecentraWill.sol\":8241:8520  if (creatorsList[i] == user) {... */\n    tag_151:\n        /* \"contracts/DecentraWill.sol\":8217:8220  i++ */\n      0x01\n      add\n        /* \"contracts/DecentraWill.sol\":8175:8535  for (uint i = 0; i < creatorsList.length; i++) {... */\n      jump(tag_145)\n    tag_146:\n      pop\n        /* \"contracts/DecentraWill.sol\":8079:8546  {... */\n      pop\n        /* \"contracts/DecentraWill.sol\":8053:8546  if (!hasOtherAllocations) {... */\n    tag_144:\n        /* \"contracts/DecentraWill.sol\":8591:8600  recipient */\n      dup4\n      sub(shl(0xa0, 0x01), 0x01)\n        /* \"contracts/DecentraWill.sol\":8561:8601  RecipientRemoved(user, token, recipient) */\n      and\n        /* \"contracts/DecentraWill.sol\":8584:8589  token */\n      dup6\n      sub(shl(0xa0, 0x01), 0x01)\n        /* \"contracts/DecentraWill.sol\":8561:8601  RecipientRemoved(user, token, recipient) */\n      and\n        /* \"contracts/DecentraWill.sol\":8578:8582  user */\n      dup8\n      sub(shl(0xa0, 0x01), 0x01)\n        /* \"contracts/DecentraWill.sol\":8561:8601  RecipientRemoved(user, token, recipient) */\n      and\n      0x8feee98c784e5546d0536039c928d5196ff80e1e67ab22fce85625ab401ce37e\n      mload(0x40)\n      mload(0x40)\n      dup1\n      swap2\n      sub\n      swap1\n      log4\n        /* \"contracts/DecentraWill.sol\":5837:8651  {... */\n      pop\n      pop\n      pop\n        /* \"contracts/DecentraWill.sol\":5715:8651  function removeRecipientForToken(... */\n      pop\n      pop\n      pop\n      jump\t// out\n        /* \"contracts/DecentraWill.sol\":2995:3358  function isRecipientOfToken(... */\n    tag_54:\n        /* \"contracts/DecentraWill.sol\":3126:3130  bool */\n      0x00\n      dup1\n        /* \"contracts/DecentraWill.sol\":3143:3328  for (uint i = 0; i < tokenRecipients[user][token].length; i++) {... */\n    tag_167:\n      sub(shl(0xa0, 0x01), 0x01)\n        /* \"contracts/DecentraWill.sol\":3164:3185  tokenRecipients[user] */\n      dup1\n      dup7\n      and\n      0x00\n      swap1\n      dup2\n      mstore\n        /* \"contracts/DecentraWill.sol\":3164:3179  tokenRecipients */\n      0x03\n        /* \"contracts/DecentraWill.sol\":3164:3185  tokenRecipients[user] */\n      0x20\n      swap1\n      dup2\n      mstore\n      0x40\n      dup1\n      dup4\n      keccak256\n        /* \"contracts/DecentraWill.sol\":3164:3192  tokenRecipients[user][token] */\n      swap4\n      dup9\n      and\n      dup4\n      mstore\n      swap3\n      swap1\n      mstore\n      keccak256\n        /* \"contracts/DecentraWill.sol\":3164:3199  tokenRecipients[user][token].length */\n      sload\n        /* \"contracts/DecentraWill.sol\":3160:3199  i < tokenRecipients[user][token].length */\n      dup2\n      lt\n        /* \"contracts/DecentraWill.sol\":3143:3328  for (uint i = 0; i < tokenRecipients[user][token].length; i++) {... */\n      iszero\n      tag_168\n      jumpi\n      sub(shl(0xa0, 0x01), 0x01)\n        /* \"contracts/DecentraWill.sol\":3225:3246  tokenRecipients[user] */\n      dup6\n      dup2\n      and\n      0x00\n      swap1\n      dup2\n      mstore\n        /* \"contracts/DecentraWill.sol\":3225:3240  tokenRecipients */\n      0x03\n        /* \"contracts/DecentraWill.sol\":3225:3246  tokenRecipients[user] */\n      0x20\n      swap1\n      dup2\n      mstore\n      0x40\n      dup1\n      dup4\n      keccak256\n        /* \"contracts/DecentraWill.sol\":3225:3253  tokenRecipients[user][token] */\n      dup9\n      dup6\n      and\n      dup5\n      mstore\n      swap1\n      swap2\n      mstore\n      swap1\n      keccak256\n        /* \"contracts/DecentraWill.sol\":3225:3256  tokenRecipients[user][token][i] */\n      dup1\n      sload\n        /* \"contracts/DecentraWill.sol\":3225:3269  tokenRecipients[user][token][i] == recipient */\n      swap2\n      dup6\n      and\n      swap2\n        /* \"contracts/DecentraWill.sol\":3254:3255  i */\n      dup4\n      swap1\n        /* \"contracts/DecentraWill.sol\":3225:3256  tokenRecipients[user][token][i] */\n      dup2\n      lt\n      tag_171\n      jumpi\n      tag_171\n      tag_71\n      jump\t// in\n    tag_171:\n      0x00\n      swap2\n      dup3\n      mstore\n      0x20\n      swap1\n      swap2\n      keccak256\n      add\n      sload\n      sub(shl(0xa0, 0x01), 0x01)\n      and\n        /* \"contracts/DecentraWill.sol\":3225:3269  tokenRecipients[user][token][i] == recipient */\n      sub\n        /* \"contracts/DecentraWill.sol\":3221:3317  if (tokenRecipients[user][token][i] == recipient) {... */\n      tag_173\n      jumpi\n        /* \"contracts/DecentraWill.sol\":3297:3301  true */\n      0x01\n        /* \"contracts/DecentraWill.sol\":3290:3301  return true */\n      swap2\n      pop\n      pop\n      jump(tag_166)\n        /* \"contracts/DecentraWill.sol\":3221:3317  if (tokenRecipients[user][token][i] == recipient) {... */\n    tag_173:\n        /* \"contracts/DecentraWill.sol\":3201:3204  i++ */\n      0x01\n      add\n        /* \"contracts/DecentraWill.sol\":3143:3328  for (uint i = 0; i < tokenRecipients[user][token].length; i++) {... */\n      jump(tag_167)\n    tag_168:\n      pop\n        /* \"contracts/DecentraWill.sol\":3345:3350  false */\n      0x00\n        /* \"contracts/DecentraWill.sol\":3338:3350  return false */\n      swap1\n      pop\n        /* \"contracts/DecentraWill.sol\":2995:3358  function isRecipientOfToken(... */\n    tag_166:\n      swap4\n      swap3\n      pop\n      pop\n      pop\n      jump\t// out\n        /* \"contracts/DecentraWill.sol\":8659:9942  function withdrawTokenForBeneficiary(... */\n    tag_58:\n        /* \"contracts/DecentraWill.sol\":8810:8856  isRecipientOfToken(creator, token, msg.sender) */\n      tag_175\n        /* \"contracts/DecentraWill.sol\":8829:8836  creator */\n      dup4\n        /* \"contracts/DecentraWill.sol\":8838:8843  token */\n      dup4\n        /* \"contracts/DecentraWill.sol\":8845:8855  msg.sender */\n      caller\n        /* \"contracts/DecentraWill.sol\":8810:8828  isRecipientOfToken */\n      tag_54\n        /* \"contracts/DecentraWill.sol\":8810:8856  isRecipientOfToken(creator, token, msg.sender) */\n      jump\t// in\n    tag_175:\n        /* \"contracts/DecentraWill.sol\":8805:8911  if (!isRecipientOfToken(creator, token, msg.sender)) {... */\n      tag_176\n      jumpi\n        /* \"contracts/DecentraWill.sol\":8880:8899  RecipientNotFound() */\n      mload(0x40)\n      shl(0xe0, 0x66a21ffb)\n      dup2\n      mstore\n      0x04\n      add\n      mload(0x40)\n      dup1\n      swap2\n      sub\n      swap1\n      revert\n        /* \"contracts/DecentraWill.sol\":8805:8911  if (!isRecipientOfToken(creator, token, msg.sender)) {... */\n    tag_176:\n      sub(shl(0xa0, 0x01), 0x01)\n        /* \"contracts/DecentraWill.sol\":8944:8969  tokenAllocations[creator] */\n      dup1\n      dup5\n      and\n        /* \"contracts/DecentraWill.sol\":8923:8941  uint256 allocation */\n      0x00\n        /* \"contracts/DecentraWill.sol\":8944:8969  tokenAllocations[creator] */\n      swap1\n      dup2\n      mstore\n        /* \"contracts/DecentraWill.sol\":8944:8960  tokenAllocations */\n      0x01\n        /* \"contracts/DecentraWill.sol\":8944:8969  tokenAllocations[creator] */\n      0x20\n      swap1\n      dup2\n      mstore\n      0x40\n      dup1\n      dup4\n      keccak256\n        /* \"contracts/DecentraWill.sol\":8944:8976  tokenAllocations[creator][token] */\n      swap4\n      dup7\n      and\n      dup4\n      mstore\n      swap3\n      dup2\n      mstore\n      dup3\n      dup3\n      keccak256\n        /* \"contracts/DecentraWill.sol\":8977:8987  msg.sender */\n      caller\n        /* \"contracts/DecentraWill.sol\":8944:8988  tokenAllocations[creator][token][msg.sender] */\n      dup4\n      mstore\n      swap1\n      mstore\n      swap1\n      dup2\n      keccak256\n      sload\n      swap1\n        /* \"contracts/DecentraWill.sol\":9003:9018  allocation == 0 */\n      dup2\n      swap1\n      sub\n        /* \"contracts/DecentraWill.sol\":8999:9077  if (allocation == 0) {... */\n      tag_177\n      jumpi\n        /* \"contracts/DecentraWill.sol\":9042:9065  NoAllocationAvailable() */\n      mload(0x40)\n      shl(0xe0, 0xdc49aee1)\n      dup2\n      mstore\n      0x04\n      add\n      mload(0x40)\n      dup1\n      swap2\n      sub\n      swap1\n      revert\n        /* \"contracts/DecentraWill.sol\":8999:9077  if (allocation == 0) {... */\n    tag_177:\n        /* \"contracts/DecentraWill.sol\":9089:9113  uint256 withdrawalAmount */\n      0x00\n        /* \"contracts/DecentraWill.sol\":9135:9145  allocation */\n      dup2\n        /* \"contracts/DecentraWill.sol\":9117:9132  requestedAmount */\n      dup4\n        /* \"contracts/DecentraWill.sol\":9117:9145  requestedAmount > allocation */\n      gt\n        /* \"contracts/DecentraWill.sol\":9116:9203  (requestedAmount > allocation)... */\n      tag_178\n      jumpi\n        /* \"contracts/DecentraWill.sol\":9188:9203  requestedAmount */\n      dup3\n        /* \"contracts/DecentraWill.sol\":9116:9203  (requestedAmount > allocation)... */\n      jump(tag_179)\n    tag_178:\n        /* \"contracts/DecentraWill.sol\":9162:9172  allocation */\n      dup2\n        /* \"contracts/DecentraWill.sol\":9116:9203  (requestedAmount > allocation)... */\n    tag_179:\n      sub(shl(0xa0, 0x01), 0x01)\n        /* \"contracts/DecentraWill.sol\":9303:9328  tokenAllocations[creator] */\n      dup1\n      dup8\n      and\n      0x00\n      swap1\n      dup2\n      mstore\n        /* \"contracts/DecentraWill.sol\":9303:9319  tokenAllocations */\n      0x01\n        /* \"contracts/DecentraWill.sol\":9303:9328  tokenAllocations[creator] */\n      0x20\n      swap1\n      dup2\n      mstore\n      0x40\n      dup1\n      dup4\n      keccak256\n        /* \"contracts/DecentraWill.sol\":9303:9335  tokenAllocations[creator][token] */\n      swap4\n      dup10\n      and\n      dup4\n      mstore\n      swap3\n      dup2\n      mstore\n      dup3\n      dup3\n      keccak256\n        /* \"contracts/DecentraWill.sol\":9336:9346  msg.sender */\n      caller\n        /* \"contracts/DecentraWill.sol\":9303:9347  tokenAllocations[creator][token][msg.sender] */\n      dup4\n      mstore\n      swap1\n      mstore\n      swap1\n      dup2\n      keccak256\n        /* \"contracts/DecentraWill.sol\":9303:9367  tokenAllocations[creator][token][msg.sender] -= withdrawalAmount */\n      dup1\n      sload\n        /* \"contracts/DecentraWill.sol\":9089:9203  uint256 withdrawalAmount = (requestedAmount > allocation)... */\n      swap3\n      swap4\n      pop\n      dup4\n      swap3\n        /* \"contracts/DecentraWill.sol\":9303:9347  tokenAllocations[creator][token][msg.sender] */\n      swap1\n      swap2\n        /* \"contracts/DecentraWill.sol\":9303:9328  tokenAllocations[creator] */\n      swap1\n        /* \"contracts/DecentraWill.sol\":9303:9367  tokenAllocations[creator][token][msg.sender] -= withdrawalAmount */\n      tag_180\n      swap1\n        /* \"contracts/DecentraWill.sol\":9089:9203  uint256 withdrawalAmount = (requestedAmount > allocation)... */\n      dup5\n      swap1\n        /* \"contracts/DecentraWill.sol\":9303:9367  tokenAllocations[creator][token][msg.sender] -= withdrawalAmount */\n      tag_101\n      jump\t// in\n    tag_180:\n      swap1\n      swap2\n      sstore\n      pop\n      pop\n        /* \"contracts/DecentraWill.sol\":9478:9593  IERC20(token).transferFrom(... */\n      mload(0x40)\n      shl(0xe0, 0x23b872dd)\n      dup2\n      mstore\n      sub(shl(0xa0, 0x01), 0x01)\n        /* \"#utility.yul\":3741:3756   */\n      dup7\n      dup2\n      and\n        /* \"contracts/DecentraWill.sol\":9478:9593  IERC20(token).transferFrom(... */\n      0x04\n      dup4\n      add\n        /* \"#utility.yul\":3723:3757   */\n      mstore\n        /* \"contracts/DecentraWill.sol\":9541:9551  msg.sender */\n      caller\n        /* \"#utility.yul\":3773:3791   */\n      0x24\n      dup4\n      add\n        /* \"#utility.yul\":3766:3809   */\n      mstore\n        /* \"#utility.yul\":3825:3843   */\n      0x44\n      dup3\n      add\n        /* \"#utility.yul\":3818:3852   */\n      dup4\n      swap1\n      mstore\n        /* \"contracts/DecentraWill.sol\":9463:9475  bool success */\n      0x00\n      swap2\n        /* \"contracts/DecentraWill.sol\":9478:9504  IERC20(token).transferFrom */\n      swap1\n      dup7\n      and\n      swap1\n      0x23b872dd\n      swap1\n        /* \"#utility.yul\":3658:3676   */\n      0x64\n      add\n        /* \"contracts/DecentraWill.sol\":9478:9593  IERC20(token).transferFrom(... */\n      0x20\n      mload(0x40)\n      dup1\n      dup4\n      sub\n      dup2\n      0x00\n      dup8\n      gas\n      call\n      iszero\n      dup1\n      iszero\n      tag_184\n      jumpi\n      returndatasize\n      0x00\n      dup1\n      returndatacopy\n      revert(0x00, returndatasize)\n    tag_184:\n      pop\n      pop\n      pop\n      pop\n      mload(0x40)\n      returndatasize\n      not(0x1f)\n      0x1f\n      dup3\n      add\n      and\n      dup3\n      add\n      dup1\n      0x40\n      mstore\n      pop\n      dup2\n      add\n      swap1\n      tag_185\n      swap2\n      swap1\n      tag_186\n      jump\t// in\n    tag_185:\n        /* \"contracts/DecentraWill.sol\":9463:9593  bool success = IERC20(token).transferFrom(... */\n      swap1\n      pop\n        /* \"contracts/DecentraWill.sol\":9609:9616  success */\n      dup1\n        /* \"contracts/DecentraWill.sol\":9604:9668  if (!success) {... */\n      tag_187\n      jumpi\n        /* \"contracts/DecentraWill.sol\":9640:9656  TransferFailed() */\n      mload(0x40)\n      shl(0xe3, 0x12171d83)\n      dup2\n      mstore\n      0x04\n      add\n      mload(0x40)\n      dup1\n      swap2\n      sub\n      swap1\n      revert\n        /* \"contracts/DecentraWill.sol\":9604:9668  if (!success) {... */\n    tag_187:\n        /* \"contracts/DecentraWill.sol\":9712:9722  msg.sender */\n      caller\n      sub(shl(0xa0, 0x01), 0x01)\n        /* \"contracts/DecentraWill.sol\":9685:9741  Withdrawal(creator, token, msg.sender, withdrawalAmount) */\n      and\n        /* \"contracts/DecentraWill.sol\":9705:9710  token */\n      dup6\n      sub(shl(0xa0, 0x01), 0x01)\n        /* \"contracts/DecentraWill.sol\":9685:9741  Withdrawal(creator, token, msg.sender, withdrawalAmount) */\n      and\n        /* \"contracts/DecentraWill.sol\":9696:9703  creator */\n      dup8\n      sub(shl(0xa0, 0x01), 0x01)\n        /* \"contracts/DecentraWill.sol\":9685:9741  Withdrawal(creator, token, msg.sender, withdrawalAmount) */\n      and\n      0x342e7ff505a8a0364cd0dc2ff195c315e43bce86b204846ecd36913e117b109e\n        /* \"contracts/DecentraWill.sol\":9724:9740  withdrawalAmount */\n      dup6\n        /* \"contracts/DecentraWill.sol\":9685:9741  Withdrawal(creator, token, msg.sender, withdrawalAmount) */\n      mload(0x40)\n      tag_188\n      swap2\n        /* \"#utility.yul\":1988:2013   */\n      dup2\n      mstore\n        /* \"#utility.yul\":1976:1978   */\n      0x20\n        /* \"#utility.yul\":1961:1979   */\n      add\n      swap1\n        /* \"#utility.yul\":1842:2019   */\n      jump\n        /* \"contracts/DecentraWill.sol\":9685:9741  Withdrawal(creator, token, msg.sender, withdrawalAmount) */\n    tag_188:\n      mload(0x40)\n      dup1\n      swap2\n      sub\n      swap1\n      log4\n      sub(shl(0xa0, 0x01), 0x01)\n        /* \"contracts/DecentraWill.sol\":9806:9831  tokenAllocations[creator] */\n      dup1\n      dup8\n      and\n      0x00\n      swap1\n      dup2\n      mstore\n        /* \"contracts/DecentraWill.sol\":9806:9822  tokenAllocations */\n      0x01\n        /* \"contracts/DecentraWill.sol\":9806:9831  tokenAllocations[creator] */\n      0x20\n      swap1\n      dup2\n      mstore\n      0x40\n      dup1\n      dup4\n      keccak256\n        /* \"contracts/DecentraWill.sol\":9806:9838  tokenAllocations[creator][token] */\n      swap4\n      dup10\n      and\n      dup4\n      mstore\n      swap3\n      dup2\n      mstore\n      dup3\n      dup3\n      keccak256\n        /* \"contracts/DecentraWill.sol\":9839:9849  msg.sender */\n      caller\n        /* \"contracts/DecentraWill.sol\":9806:9850  tokenAllocations[creator][token][msg.sender] */\n      dup4\n      mstore\n      swap1\n      mstore\n      swap1\n      dup2\n      keccak256\n      sload\n        /* \"contracts/DecentraWill.sol\":9806:9855  tokenAllocations[creator][token][msg.sender] == 0 */\n      swap1\n      sub\n        /* \"contracts/DecentraWill.sol\":9802:9935  if (tokenAllocations[creator][token][msg.sender] == 0) {... */\n      tag_190\n      jumpi\n        /* \"contracts/DecentraWill.sol\":9872:9923  removeRecipientForToken(creator, token, msg.sender) */\n      tag_190\n        /* \"contracts/DecentraWill.sol\":9896:9903  creator */\n      dup7\n        /* \"contracts/DecentraWill.sol\":9905:9910  token */\n      dup7\n        /* \"contracts/DecentraWill.sol\":9912:9922  msg.sender */\n      caller\n        /* \"contracts/DecentraWill.sol\":9872:9895  removeRecipientForToken */\n      tag_51\n        /* \"contracts/DecentraWill.sol\":9872:9923  removeRecipientForToken(creator, token, msg.sender) */\n      jump\t// in\n    tag_190:\n        /* \"contracts/DecentraWill.sol\":8794:9942  {... */\n      pop\n      pop\n      pop\n        /* \"contracts/DecentraWill.sol\":8659:9942  function withdrawTokenForBeneficiary(... */\n      pop\n      pop\n      pop\n      jump\t// out\n        /* \"contracts/DecentraWill.sol\":1975:2162  function _addTokenForUser(address user, address token) private {... */\n    tag_81:\n        /* \"contracts/DecentraWill.sol\":2054:2089  isTokenAllocatedByUser(user, token) */\n      tag_192\n        /* \"contracts/DecentraWill.sol\":2077:2081  user */\n      dup3\n        /* \"contracts/DecentraWill.sol\":2083:2088  token */\n      dup3\n        /* \"contracts/DecentraWill.sol\":2054:2076  isTokenAllocatedByUser */\n      tag_27\n        /* \"contracts/DecentraWill.sol\":2054:2089  isTokenAllocatedByUser(user, token) */\n      jump\t// in\n    tag_192:\n        /* \"contracts/DecentraWill.sol\":2049:2155  if (!isTokenAllocatedByUser(user, token)) {... */\n      tag_193\n      jumpi\n      sub(shl(0xa0, 0x01), 0x01)\n        /* \"contracts/DecentraWill.sol\":2106:2131  userAllocatedTokens[user] */\n      dup3\n      dup2\n      and\n      0x00\n      swap1\n      dup2\n      mstore\n        /* \"contracts/DecentraWill.sol\":2106:2125  userAllocatedTokens */\n      0x02\n        /* \"contracts/DecentraWill.sol\":2106:2131  userAllocatedTokens[user] */\n      0x20\n      swap1\n      dup2\n      mstore\n      0x40\n      dup3\n      keccak256\n        /* \"contracts/DecentraWill.sol\":2106:2143  userAllocatedTokens[user].push(token) */\n      dup1\n      sload\n      0x01\n      dup2\n      add\n      dup3\n      sstore\n      swap1\n      dup4\n      mstore\n      swap2\n      keccak256\n      add\n      dup1\n      sload\n      not(sub(shl(0xa0, 0x01), 0x01))\n      and\n      swap2\n      dup4\n      and\n      swap2\n      swap1\n      swap2\n      or\n      swap1\n      sstore\n        /* \"contracts/DecentraWill.sol\":2049:2155  if (!isTokenAllocatedByUser(user, token)) {... */\n    tag_193:\n        /* \"contracts/DecentraWill.sol\":1975:2162  function _addTokenForUser(address user, address token) private {... */\n      pop\n      pop\n      jump\t// out\n        /* \"contracts/DecentraWill.sol\":2252:2511  function _addRecipientForToken(... */\n    tag_83:\n        /* \"contracts/DecentraWill.sol\":2389:2431  isRecipientOfToken(user, token, recipient) */\n      tag_196\n        /* \"contracts/DecentraWill.sol\":2408:2412  user */\n      dup4\n        /* \"contracts/DecentraWill.sol\":2414:2419  token */\n      dup4\n        /* \"contracts/DecentraWill.sol\":2421:2430  recipient */\n      dup4\n        /* \"contracts/DecentraWill.sol\":2389:2407  isRecipientOfToken */\n      tag_54\n        /* \"contracts/DecentraWill.sol\":2389:2431  isRecipientOfToken(user, token, recipient) */\n      jump\t// in\n    tag_196:\n        /* \"contracts/DecentraWill.sol\":2384:2504  if (!isRecipientOfToken(user, token, recipient)) {... */\n      tag_78\n      jumpi\n      sub(shl(0xa0, 0x01), 0x01)\n        /* \"contracts/DecentraWill.sol\":2448:2469  tokenRecipients[user] */\n      swap3\n      dup4\n      and\n      0x00\n      swap1\n      dup2\n      mstore\n        /* \"contracts/DecentraWill.sol\":2448:2463  tokenRecipients */\n      0x03\n        /* \"contracts/DecentraWill.sol\":2448:2469  tokenRecipients[user] */\n      0x20\n      swap1\n      dup2\n      mstore\n      0x40\n      dup1\n      dup4\n      keccak256\n        /* \"contracts/DecentraWill.sol\":2448:2476  tokenRecipients[user][token] */\n      swap5\n      dup7\n      and\n      dup4\n      mstore\n      swap4\n      dup2\n      mstore\n      swap3\n      dup2\n      keccak256\n        /* \"contracts/DecentraWill.sol\":2448:2492  tokenRecipients[user][token].push(recipient) */\n      dup1\n      sload\n      0x01\n      dup2\n      add\n      dup3\n      sstore\n      swap1\n      dup3\n      mstore\n      swap3\n      swap1\n      keccak256\n      swap1\n      swap2\n      add\n      dup1\n      sload\n      not(sub(shl(0xa0, 0x01), 0x01))\n      and\n      swap2\n      swap1\n      swap3\n      and\n      or\n      swap1\n      sstore\n        /* \"contracts/DecentraWill.sol\":2252:2511  function _addRecipientForToken(... */\n      jump\t// out\n        /* \"contracts/DecentraWill.sol\":3446:3943  function _addCreatorForBeneficiary(... */\n    tag_85:\n        /* \"contracts/DecentraWill.sol\":3563:3581  bool creatorExists */\n      0x00\n        /* \"contracts/DecentraWill.sol\":3605:3611  uint i */\n      dup1\n        /* \"contracts/DecentraWill.sol\":3600:3830  for (uint i = 0; i < creatorsForBeneficiary[beneficiary].length; i++) {... */\n    tag_200:\n      sub(shl(0xa0, 0x01), 0x01)\n        /* \"contracts/DecentraWill.sol\":3621:3656  creatorsForBeneficiary[beneficiary] */\n      dup4\n      and\n      0x00\n      swap1\n      dup2\n      mstore\n        /* \"contracts/DecentraWill.sol\":3621:3643  creatorsForBeneficiary */\n      0x04\n        /* \"contracts/DecentraWill.sol\":3621:3656  creatorsForBeneficiary[beneficiary] */\n      0x20\n      mstore\n      0x40\n      swap1\n      keccak256\n        /* \"contracts/DecentraWill.sol\":3621:3663  creatorsForBeneficiary[beneficiary].length */\n      sload\n        /* \"contracts/DecentraWill.sol\":3617:3663  i < creatorsForBeneficiary[beneficiary].length */\n      dup2\n      lt\n        /* \"contracts/DecentraWill.sol\":3600:3830  for (uint i = 0; i < creatorsForBeneficiary[beneficiary].length; i++) {... */\n      iszero\n      tag_201\n      jumpi\n      sub(shl(0xa0, 0x01), 0x01)\n        /* \"contracts/DecentraWill.sol\":3689:3724  creatorsForBeneficiary[beneficiary] */\n      dup4\n      dup2\n      and\n      0x00\n      swap1\n      dup2\n      mstore\n        /* \"contracts/DecentraWill.sol\":3689:3711  creatorsForBeneficiary */\n      0x04\n        /* \"contracts/DecentraWill.sol\":3689:3724  creatorsForBeneficiary[beneficiary] */\n      0x20\n      mstore\n      0x40\n      swap1\n      keccak256\n        /* \"contracts/DecentraWill.sol\":3689:3727  creatorsForBeneficiary[beneficiary][i] */\n      dup1\n      sload\n        /* \"contracts/DecentraWill.sol\":3689:3738  creatorsForBeneficiary[beneficiary][i] == creator */\n      swap2\n      dup7\n      and\n      swap2\n        /* \"contracts/DecentraWill.sol\":3725:3726  i */\n      dup4\n      swap1\n        /* \"contracts/DecentraWill.sol\":3689:3727  creatorsForBeneficiary[beneficiary][i] */\n      dup2\n      lt\n      tag_204\n      jumpi\n      tag_204\n      tag_71\n      jump\t// in\n    tag_204:\n      0x00\n      swap2\n      dup3\n      mstore\n      0x20\n      swap1\n      swap2\n      keccak256\n      add\n      sload\n      sub(shl(0xa0, 0x01), 0x01)\n      and\n        /* \"contracts/DecentraWill.sol\":3689:3738  creatorsForBeneficiary[beneficiary][i] == creator */\n      sub\n        /* \"contracts/DecentraWill.sol\":3685:3819  if (creatorsForBeneficiary[beneficiary][i] == creator) {... */\n      tag_206\n      jumpi\n        /* \"contracts/DecentraWill.sol\":3775:3779  true */\n      0x01\n        /* \"contracts/DecentraWill.sol\":3759:3779  creatorExists = true */\n      swap2\n      pop\n        /* \"contracts/DecentraWill.sol\":3798:3803  break */\n      jump(tag_201)\n        /* \"contracts/DecentraWill.sol\":3685:3819  if (creatorsForBeneficiary[beneficiary][i] == creator) {... */\n    tag_206:\n        /* \"contracts/DecentraWill.sol\":3665:3668  i++ */\n      0x01\n      add\n        /* \"contracts/DecentraWill.sol\":3600:3830  for (uint i = 0; i < creatorsForBeneficiary[beneficiary].length; i++) {... */\n      jump(tag_200)\n    tag_201:\n      pop\n        /* \"contracts/DecentraWill.sol\":3845:3858  creatorExists */\n      dup1\n        /* \"contracts/DecentraWill.sol\":3840:3936  if (!creatorExists) {... */\n      tag_78\n      jumpi\n      pop\n      sub(shl(0xa0, 0x01), 0x01)\n        /* \"contracts/DecentraWill.sol\":3875:3910  creatorsForBeneficiary[beneficiary] */\n      swap1\n      dup2\n      and\n      0x00\n      swap1\n      dup2\n      mstore\n        /* \"contracts/DecentraWill.sol\":3875:3897  creatorsForBeneficiary */\n      0x04\n        /* \"contracts/DecentraWill.sol\":3875:3910  creatorsForBeneficiary[beneficiary] */\n      0x20\n      swap1\n      dup2\n      mstore\n      0x40\n      dup3\n      keccak256\n        /* \"contracts/DecentraWill.sol\":3875:3924  creatorsForBeneficiary[beneficiary].push(creator) */\n      dup1\n      sload\n      0x01\n      dup2\n      add\n      dup3\n      sstore\n      swap1\n      dup4\n      mstore\n      swap2\n      keccak256\n      add\n      dup1\n      sload\n      not(sub(shl(0xa0, 0x01), 0x01))\n      and\n      swap3\n      swap1\n      swap2\n      and\n      swap2\n      swap1\n      swap2\n      or\n      swap1\n      sstore\n        /* \"contracts/DecentraWill.sol\":3446:3943  function _addCreatorForBeneficiary(... */\n      jump\t// out\n        /* \"#utility.yul\":14:187   */\n    tag_209:\n        /* \"#utility.yul\":82:102   */\n      dup1\n      calldataload\n      sub(shl(0xa0, 0x01), 0x01)\n        /* \"#utility.yul\":131:162   */\n      dup2\n      and\n        /* \"#utility.yul\":121:163   */\n      dup2\n      eq\n        /* \"#utility.yul\":111:181   */\n      tag_213\n      jumpi\n        /* \"#utility.yul\":177:178   */\n      0x00\n        /* \"#utility.yul\":174:175   */\n      dup1\n        /* \"#utility.yul\":167:179   */\n      revert\n        /* \"#utility.yul\":111:181   */\n    tag_213:\n        /* \"#utility.yul\":14:187   */\n      swap2\n      swap1\n      pop\n      jump\t// out\n        /* \"#utility.yul\":192:452   */\n    tag_16:\n        /* \"#utility.yul\":260:266   */\n      0x00\n        /* \"#utility.yul\":268:274   */\n      dup1\n        /* \"#utility.yul\":321:323   */\n      0x40\n        /* \"#utility.yul\":309:318   */\n      dup4\n        /* \"#utility.yul\":300:307   */\n      dup6\n        /* \"#utility.yul\":296:319   */\n      sub\n        /* \"#utility.yul\":292:324   */\n      slt\n        /* \"#utility.yul\":289:341   */\n      iszero\n      tag_215\n      jumpi\n        /* \"#utility.yul\":337:338   */\n      0x00\n        /* \"#utility.yul\":334:335   */\n      dup1\n        /* \"#utility.yul\":327:339   */\n      revert\n        /* \"#utility.yul\":289:341   */\n    tag_215:\n        /* \"#utility.yul\":360:389   */\n      tag_216\n        /* \"#utility.yul\":379:388   */\n      dup4\n        /* \"#utility.yul\":360:389   */\n      tag_209\n      jump\t// in\n    tag_216:\n        /* \"#utility.yul\":350:389   */\n      swap2\n      pop\n        /* \"#utility.yul\":408:446   */\n      tag_217\n        /* \"#utility.yul\":442:444   */\n      0x20\n        /* \"#utility.yul\":431:440   */\n      dup5\n        /* \"#utility.yul\":427:445   */\n      add\n        /* \"#utility.yul\":408:446   */\n      tag_209\n      jump\t// in\n    tag_217:\n        /* \"#utility.yul\":398:446   */\n      swap1\n      pop\n        /* \"#utility.yul\":192:452   */\n      swap3\n      pop\n      swap3\n      swap1\n      pop\n      jump\t// out\n        /* \"#utility.yul\":457:1115   */\n    tag_19:\n        /* \"#utility.yul\":628:630   */\n      0x20\n        /* \"#utility.yul\":680:701   */\n      dup1\n      dup3\n      mstore\n        /* \"#utility.yul\":750:763   */\n      dup3\n      mload\n        /* \"#utility.yul\":653:671   */\n      dup3\n      dup3\n      add\n        /* \"#utility.yul\":772:794   */\n      dup2\n      swap1\n      mstore\n        /* \"#utility.yul\":599:603   */\n      0x00\n      swap2\n        /* \"#utility.yul\":628:630   */\n      swap1\n        /* \"#utility.yul\":851:866   */\n      dup5\n      dup3\n      add\n      swap1\n        /* \"#utility.yul\":825:827   */\n      0x40\n        /* \"#utility.yul\":810:828   */\n      dup6\n      add\n      swap1\n        /* \"#utility.yul\":599:603   */\n      dup5\n        /* \"#utility.yul\":894:1089   */\n    tag_219:\n        /* \"#utility.yul\":908:914   */\n      dup2\n        /* \"#utility.yul\":905:906   */\n      dup2\n        /* \"#utility.yul\":902:915   */\n      lt\n        /* \"#utility.yul\":894:1089   */\n      iszero\n      tag_221\n      jumpi\n        /* \"#utility.yul\":973:986   */\n      dup4\n      mload\n      sub(shl(0xa0, 0x01), 0x01)\n        /* \"#utility.yul\":969:1008   */\n      and\n        /* \"#utility.yul\":957:1009   */\n      dup4\n      mstore\n        /* \"#utility.yul\":1064:1079   */\n      swap3\n      dup5\n      add\n      swap3\n        /* \"#utility.yul\":1029:1041   */\n      swap2\n      dup5\n      add\n      swap2\n        /* \"#utility.yul\":1005:1006   */\n      0x01\n        /* \"#utility.yul\":923:932   */\n      add\n        /* \"#utility.yul\":894:1089   */\n      jump(tag_219)\n    tag_221:\n      pop\n        /* \"#utility.yul\":1106:1109   */\n      swap1\n      swap7\n        /* \"#utility.yul\":457:1115   */\n      swap6\n      pop\n      pop\n      pop\n      pop\n      pop\n      pop\n      jump\t// out\n        /* \"#utility.yul\":1120:1306   */\n    tag_22:\n        /* \"#utility.yul\":1179:1185   */\n      0x00\n        /* \"#utility.yul\":1232:1234   */\n      0x20\n        /* \"#utility.yul\":1220:1229   */\n      dup3\n        /* \"#utility.yul\":1211:1218   */\n      dup5\n        /* \"#utility.yul\":1207:1230   */\n      sub\n        /* \"#utility.yul\":1203:1235   */\n      slt\n        /* \"#utility.yul\":1200:1252   */\n      iszero\n      tag_223\n      jumpi\n        /* \"#utility.yul\":1248:1249   */\n      0x00\n        /* \"#utility.yul\":1245:1246   */\n      dup1\n        /* \"#utility.yul\":1238:1250   */\n      revert\n        /* \"#utility.yul\":1200:1252   */\n    tag_223:\n        /* \"#utility.yul\":1271:1300   */\n      tag_166\n        /* \"#utility.yul\":1290:1299   */\n      dup3\n        /* \"#utility.yul\":1271:1300   */\n      tag_209\n      jump\t// in\n        /* \"#utility.yul\":1503:1837   */\n    tag_32:\n        /* \"#utility.yul\":1580:1586   */\n      0x00\n        /* \"#utility.yul\":1588:1594   */\n      dup1\n        /* \"#utility.yul\":1596:1602   */\n      0x00\n        /* \"#utility.yul\":1649:1651   */\n      0x60\n        /* \"#utility.yul\":1637:1646   */\n      dup5\n        /* \"#utility.yul\":1628:1635   */\n      dup7\n        /* \"#utility.yul\":1624:1647   */\n      sub\n        /* \"#utility.yul\":1620:1652   */\n      slt\n        /* \"#utility.yul\":1617:1669   */\n      iszero\n      tag_227\n      jumpi\n        /* \"#utility.yul\":1665:1666   */\n      0x00\n        /* \"#utility.yul\":1662:1663   */\n      dup1\n        /* \"#utility.yul\":1655:1667   */\n      revert\n        /* \"#utility.yul\":1617:1669   */\n    tag_227:\n        /* \"#utility.yul\":1688:1717   */\n      tag_228\n        /* \"#utility.yul\":1707:1716   */\n      dup5\n        /* \"#utility.yul\":1688:1717   */\n      tag_209\n      jump\t// in\n    tag_228:\n        /* \"#utility.yul\":1678:1717   */\n      swap3\n      pop\n        /* \"#utility.yul\":1736:1774   */\n      tag_229\n        /* \"#utility.yul\":1770:1772   */\n      0x20\n        /* \"#utility.yul\":1759:1768   */\n      dup6\n        /* \"#utility.yul\":1755:1773   */\n      add\n        /* \"#utility.yul\":1736:1774   */\n      tag_209\n      jump\t// in\n    tag_229:\n        /* \"#utility.yul\":1726:1774   */\n      swap2\n      pop\n        /* \"#utility.yul\":1793:1831   */\n      tag_230\n        /* \"#utility.yul\":1827:1829   */\n      0x40\n        /* \"#utility.yul\":1816:1825   */\n      dup6\n        /* \"#utility.yul\":1812:1830   */\n      add\n        /* \"#utility.yul\":1793:1831   */\n      tag_209\n      jump\t// in\n    tag_230:\n        /* \"#utility.yul\":1783:1831   */\n      swap1\n      pop\n        /* \"#utility.yul\":1503:1837   */\n      swap3\n      pop\n      swap3\n      pop\n      swap3\n      jump\t// out\n        /* \"#utility.yul\":2024:2278   */\n    tag_38:\n        /* \"#utility.yul\":2092:2098   */\n      0x00\n        /* \"#utility.yul\":2100:2106   */\n      dup1\n        /* \"#utility.yul\":2153:2155   */\n      0x40\n        /* \"#utility.yul\":2141:2150   */\n      dup4\n        /* \"#utility.yul\":2132:2139   */\n      dup6\n        /* \"#utility.yul\":2128:2151   */\n      sub\n        /* \"#utility.yul\":2124:2156   */\n      slt\n        /* \"#utility.yul\":2121:2173   */\n      iszero\n      tag_233\n      jumpi\n        /* \"#utility.yul\":2169:2170   */\n      0x00\n        /* \"#utility.yul\":2166:2167   */\n      dup1\n        /* \"#utility.yul\":2159:2171   */\n      revert\n        /* \"#utility.yul\":2121:2173   */\n    tag_233:\n        /* \"#utility.yul\":2192:2221   */\n      tag_234\n        /* \"#utility.yul\":2211:2220   */\n      dup4\n        /* \"#utility.yul\":2192:2221   */\n      tag_209\n      jump\t// in\n    tag_234:\n        /* \"#utility.yul\":2182:2221   */\n      swap5\n        /* \"#utility.yul\":2268:2270   */\n      0x20\n        /* \"#utility.yul\":2253:2271   */\n      swap4\n      swap1\n      swap4\n      add\n        /* \"#utility.yul\":2240:2272   */\n      calldataload\n      swap4\n      pop\n      pop\n      pop\n        /* \"#utility.yul\":2024:2278   */\n      jump\t// out\n        /* \"#utility.yul\":2491:2819   */\n    tag_44:\n        /* \"#utility.yul\":2568:2574   */\n      0x00\n        /* \"#utility.yul\":2576:2582   */\n      dup1\n        /* \"#utility.yul\":2584:2590   */\n      0x00\n        /* \"#utility.yul\":2637:2639   */\n      0x60\n        /* \"#utility.yul\":2625:2634   */\n      dup5\n        /* \"#utility.yul\":2616:2623   */\n      dup7\n        /* \"#utility.yul\":2612:2635   */\n      sub\n        /* \"#utility.yul\":2608:2640   */\n      slt\n        /* \"#utility.yul\":2605:2657   */\n      iszero\n      tag_237\n      jumpi\n        /* \"#utility.yul\":2653:2654   */\n      0x00\n        /* \"#utility.yul\":2650:2651   */\n      dup1\n        /* \"#utility.yul\":2643:2655   */\n      revert\n        /* \"#utility.yul\":2605:2657   */\n    tag_237:\n        /* \"#utility.yul\":2676:2705   */\n      tag_238\n        /* \"#utility.yul\":2695:2704   */\n      dup5\n        /* \"#utility.yul\":2676:2705   */\n      tag_209\n      jump\t// in\n    tag_238:\n        /* \"#utility.yul\":2666:2705   */\n      swap3\n      pop\n        /* \"#utility.yul\":2724:2762   */\n      tag_239\n        /* \"#utility.yul\":2758:2760   */\n      0x20\n        /* \"#utility.yul\":2747:2756   */\n      dup6\n        /* \"#utility.yul\":2743:2761   */\n      add\n        /* \"#utility.yul\":2724:2762   */\n      tag_209\n      jump\t// in\n    tag_239:\n        /* \"#utility.yul\":2714:2762   */\n      swap2\n      pop\n        /* \"#utility.yul\":2809:2811   */\n      0x40\n        /* \"#utility.yul\":2798:2807   */\n      dup5\n        /* \"#utility.yul\":2794:2812   */\n      add\n        /* \"#utility.yul\":2781:2813   */\n      calldataload\n        /* \"#utility.yul\":2771:2813   */\n      swap1\n      pop\n        /* \"#utility.yul\":2491:2819   */\n      swap3\n      pop\n      swap3\n      pop\n      swap3\n      jump\t// out\n        /* \"#utility.yul\":2824:2951   */\n    tag_71:\n        /* \"#utility.yul\":2885:2895   */\n      0x4e487b71\n        /* \"#utility.yul\":2880:2883   */\n      0xe0\n        /* \"#utility.yul\":2876:2896   */\n      shl\n        /* \"#utility.yul\":2873:2874   */\n      0x00\n        /* \"#utility.yul\":2866:2897   */\n      mstore\n        /* \"#utility.yul\":2916:2920   */\n      0x32\n        /* \"#utility.yul\":2913:2914   */\n      0x04\n        /* \"#utility.yul\":2906:2921   */\n      mstore\n        /* \"#utility.yul\":2940:2944   */\n      0x24\n        /* \"#utility.yul\":2937:2938   */\n      0x00\n        /* \"#utility.yul\":2930:2945   */\n      revert\n        /* \"#utility.yul\":2956:3083   */\n    tag_210:\n        /* \"#utility.yul\":3017:3027   */\n      0x4e487b71\n        /* \"#utility.yul\":3012:3015   */\n      0xe0\n        /* \"#utility.yul\":3008:3028   */\n      shl\n        /* \"#utility.yul\":3005:3006   */\n      0x00\n        /* \"#utility.yul\":2998:3029   */\n      mstore\n        /* \"#utility.yul\":3048:3052   */\n      0x11\n        /* \"#utility.yul\":3045:3046   */\n      0x04\n        /* \"#utility.yul\":3038:3053   */\n      mstore\n        /* \"#utility.yul\":3072:3076   */\n      0x24\n        /* \"#utility.yul\":3069:3070   */\n      0x00\n        /* \"#utility.yul\":3062:3077   */\n      revert\n        /* \"#utility.yul\":3088:3216   */\n    tag_101:\n        /* \"#utility.yul\":3155:3164   */\n      dup2\n      dup2\n      sub\n        /* \"#utility.yul\":3176:3187   */\n      dup2\n      dup2\n      gt\n        /* \"#utility.yul\":3173:3210   */\n      iszero\n      tag_59\n      jumpi\n        /* \"#utility.yul\":3190:3208   */\n      tag_59\n      tag_210\n      jump\t// in\n        /* \"#utility.yul\":3221:3346   */\n    tag_103:\n        /* \"#utility.yul\":3286:3295   */\n      dup1\n      dup3\n      add\n        /* \"#utility.yul\":3307:3317   */\n      dup1\n      dup3\n      gt\n        /* \"#utility.yul\":3304:3340   */\n      iszero\n      tag_59\n      jumpi\n        /* \"#utility.yul\":3320:3338   */\n      tag_59\n      tag_210\n      jump\t// in\n        /* \"#utility.yul\":3351:3478   */\n    tag_112:\n        /* \"#utility.yul\":3412:3422   */\n      0x4e487b71\n        /* \"#utility.yul\":3407:3410   */\n      0xe0\n        /* \"#utility.yul\":3403:3423   */\n      shl\n        /* \"#utility.yul\":3400:3401   */\n      0x00\n        /* \"#utility.yul\":3393:3424   */\n      mstore\n        /* \"#utility.yul\":3443:3447   */\n      0x31\n        /* \"#utility.yul\":3440:3441   */\n      0x04\n        /* \"#utility.yul\":3433:3448   */\n      mstore\n        /* \"#utility.yul\":3467:3471   */\n      0x24\n        /* \"#utility.yul\":3464:3465   */\n      0x00\n        /* \"#utility.yul\":3457:3472   */\n      revert\n        /* \"#utility.yul\":3863:4140   */\n    tag_186:\n        /* \"#utility.yul\":3930:3936   */\n      0x00\n        /* \"#utility.yul\":3983:3985   */\n      0x20\n        /* \"#utility.yul\":3971:3980   */\n      dup3\n        /* \"#utility.yul\":3962:3969   */\n      dup5\n        /* \"#utility.yul\":3958:3981   */\n      sub\n        /* \"#utility.yul\":3954:3986   */\n      slt\n        /* \"#utility.yul\":3951:4003   */\n      iszero\n      tag_251\n      jumpi\n        /* \"#utility.yul\":3999:4000   */\n      0x00\n        /* \"#utility.yul\":3996:3997   */\n      dup1\n        /* \"#utility.yul\":3989:4001   */\n      revert\n        /* \"#utility.yul\":3951:4003   */\n    tag_251:\n        /* \"#utility.yul\":4031:4040   */\n      dup2\n        /* \"#utility.yul\":4025:4041   */\n      mload\n        /* \"#utility.yul\":4084:4089   */\n      dup1\n        /* \"#utility.yul\":4077:4090   */\n      iszero\n        /* \"#utility.yul\":4070:4091   */\n      iszero\n        /* \"#utility.yul\":4063:4068   */\n      dup2\n        /* \"#utility.yul\":4060:4092   */\n      eq\n        /* \"#utility.yul\":4050:4110   */\n      tag_166\n      jumpi\n        /* \"#utility.yul\":4106:4107   */\n      0x00\n        /* \"#utility.yul\":4103:4104   */\n      dup1\n        /* \"#utility.yul\":4096:4108   */\n      revert\n\n    auxdata: 0xa26469706673582212201a6547892384278ca6abe4e2360ebcae7106757f94d2bb0b2c5975217b16b70f64736f6c63430008190033\n}\n",
				"bytecode": {
					"linkReferences": {},
					"object": "6080604052348015600e575f80fd5b505f80546001600160a01b031916331790556110a28061002d5f395ff3fe608060405234801561000f575f80fd5b506004361061009b575f3560e01c80635f15b1d9116100635780635f15b1d9146101675780638da5cb5b1461017c578063a2bdd08c1461018e578063bd042d2e146101a1578063c3698da4146101b4575f80fd5b80630ac0be3f1461009f5780630db36379146100c85780630e6cc31f146100db57806317a436ed146100fe5780633112fcc61461013c575b5f80fd5b6100b26100ad366004610eb4565b6101c7565b6040516100bf9190610ee5565b60405180910390f35b6100b26100d6366004610f31565b610248565b6100ee6100e9366004610eb4565b6102bb565b60405190151581526020016100bf565b61012e61010c366004610f4a565b600160209081525f938452604080852082529284528284209052825290205481565b6040519081526020016100bf565b61014f61014a366004610f8a565b61033f565b6040516001600160a01b0390911681526020016100bf565b61017a610175366004610fb2565b610373565b005b5f5461014f906001600160a01b031681565b61017a61019c366004610f4a565b610436565b6100ee6101af366004610f4a565b610a84565b61017a6101c2366004610fb2565b610b25565b6001600160a01b038083165f90815260036020908152604080832093851683529281529082902080548351818402810184019094528084526060939283018282801561023a57602002820191905f5260205f20905b81546001600160a01b0316815260019091019060200180831161021c575b505050505090505b92915050565b6001600160a01b0381165f908152600260209081526040918290208054835181840281018401909452808452606093928301828280156102af57602002820191905f5260205f20905b81546001600160a01b03168152600190910190602001808311610291575b50505050509050919050565b5f805b6001600160a01b0384165f90815260026020526040902054811015610336576001600160a01b038481165f9081526002602052604090208054918516918390811061030b5761030b610feb565b5f918252602090912001546001600160a01b03160361032e576001915050610242565b6001016102be565b505f9392505050565b6004602052815f5260405f208181548110610358575f80fd5b5f918252602090912001546001600160a01b03169150829050565b805f0361038a57610385338484610436565b505050565b335f8181526001602090815260408083206001600160a01b038881168552908352818420908716845290915290208290556103c59084610d2d565b6103d0338484610d7d565b6103da3383610dd8565b816001600160a01b0316836001600160a01b0316336001600160a01b03167f7ae337d22e62927a7215ad9c9a3a275863a9d305944d515360e7a2449dd85cce8460405161042991815260200190565b60405180910390a4505050565b610441838383610a84565b61045e576040516366a21ffb60e01b815260040160405180910390fd5b5f5b6001600160a01b038085165f908152600360209081526040808320938716835292905220548110156104e8576001600160a01b038481165f90815260036020908152604080832087851684529091529020805491841691839081106104c7576104c7610feb565b5f918252602090912001546001600160a01b0316146104e857600101610460565b805b6001600160a01b038086165f9081526003602090815260408083209388168352929052205461051b90600190611013565b8110156105d8576001600160a01b038086165f908152600360209081526040808320938816835292905220610551826001611026565b8154811061056157610561610feb565b5f9182526020808320909101546001600160a01b0388811684526003835260408085208983168652909352919092208054919092169190839081106105a8576105a8610feb565b5f91825260209091200180546001600160a01b0319166001600160a01b03929092169190911790556001016104ea565b506001600160a01b038085165f90815260036020908152604080832093871683529290522080548061060c5761060c611039565b5f828152602080822083015f1990810180546001600160a01b03191690559092019092556001600160a01b038681168084526001835260408085208884168087529085528186209388168652928452808520859055908452600383528084209184529152812054900361080157505f5b6001600160a01b0384165f90815260026020526040902054811015610801576001600160a01b038481165f908152600260205260409020805491851691839081106106c9576106c9610feb565b5f918252602090912001546001600160a01b0316036107f957805b6001600160a01b0385165f9081526002602052604090205461070890600190611013565b8110156107ad576001600160a01b0385165f908152600260205260409020610731826001611026565b8154811061074157610741610feb565b5f9182526020808320909101546001600160a01b0388811684526002909252604090922080549190921691908390811061077d5761077d610feb565b5f91825260209091200180546001600160a01b0319166001600160a01b03929092169190911790556001016106e4565b506001600160a01b0384165f9081526002602052604090208054806107d4576107d4611039565b5f8281526020902081015f1990810180546001600160a01b0319169055019055610801565b60010161067c565b6001600160a01b0384165f9081526002602090815260408083208054825181850281018501909352808352849383018282801561086557602002820191905f5260205f20905b81546001600160a01b03168152600190910190602001808311610847575b505050505090505f5b8151811015610904576001600160a01b0387165f908152600160205260408120835182908590859081106108a4576108a4610feb565b60200260200101516001600160a01b03166001600160a01b031681526020019081526020015f205f876001600160a01b03166001600160a01b031681526020019081526020015f205411156108fc5760019250610904565b60010161086e565b5081610a32576001600160a01b0384165f908152600460205260408120905b8154811015610a2f57876001600160a01b031682828154811061094857610948610feb565b5f918252602090912001546001600160a01b031603610a2757805b825461097190600190611013565b8110156109f15782610984826001611026565b8154811061099457610994610feb565b905f5260205f20015f9054906101000a90046001600160a01b03168382815481106109c1576109c1610feb565b5f91825260209091200180546001600160a01b0319166001600160a01b0392909216919091179055600101610963565b5081805480610a0257610a02611039565b5f8281526020902081015f1990810180546001600160a01b0319169055019055610a2f565b600101610923565b50505b836001600160a01b0316856001600160a01b0316876001600160a01b03167f8feee98c784e5546d0536039c928d5196ff80e1e67ab22fce85625ab401ce37e60405160405180910390a4505050505050565b5f805b6001600160a01b038086165f90815260036020908152604080832093881683529290522054811015610b19576001600160a01b038581165f9081526003602090815260408083208885168452909152902080549185169183908110610aee57610aee610feb565b5f918252602090912001546001600160a01b031603610b11576001915050610b1e565b600101610a87565b505f90505b9392505050565b610b30838333610a84565b610b4d576040516366a21ffb60e01b815260040160405180910390fd5b6001600160a01b038084165f908152600160209081526040808320938616835292815282822033835290529081205490819003610b9d5760405163dc49aee160e01b815260040160405180910390fd5b5f818311610bab5782610bad565b815b6001600160a01b038087165f9081526001602090815260408083209389168352928152828220338352905290812080549293508392909190610bf0908490611013565b90915550506040516323b872dd60e01b81526001600160a01b038681166004830152336024830152604482018390525f91908616906323b872dd906064016020604051808303815f875af1158015610c4a573d5f803e3d5ffd5b505050506040513d601f19601f82011682018060405250810190610c6e919061104d565b905080610c8e576040516312171d8360e31b815260040160405180910390fd5b336001600160a01b0316856001600160a01b0316876001600160a01b03167f342e7ff505a8a0364cd0dc2ff195c315e43bce86b204846ecd36913e117b109e85604051610cdd91815260200190565b60405180910390a46001600160a01b038087165f90815260016020908152604080832093891683529281528282203383529052908120549003610d2557610d25868633610436565b505050505050565b610d3782826102bb565b610d79576001600160a01b038281165f9081526002602090815260408220805460018101825590835291200180546001600160a01b0319169183169190911790555b5050565b610d88838383610a84565b610385576001600160a01b039283165f9081526003602090815260408083209486168352938152928120805460018101825590825292902090910180546001600160a01b03191691909216179055565b5f805b6001600160a01b0383165f90815260046020526040902054811015610e52576001600160a01b038381165f90815260046020526040902080549186169183908110610e2857610e28610feb565b5f918252602090912001546001600160a01b031603610e4a5760019150610e52565b600101610ddb565b508061038557506001600160a01b039081165f9081526004602090815260408220805460018101825590835291200180546001600160a01b03191692909116919091179055565b80356001600160a01b0381168114610eaf575f80fd5b919050565b5f8060408385031215610ec5575f80fd5b610ece83610e99565b9150610edc60208401610e99565b90509250929050565b602080825282518282018190525f9190848201906040850190845b81811015610f255783516001600160a01b031683529284019291840191600101610f00565b50909695505050505050565b5f60208284031215610f41575f80fd5b610b1e82610e99565b5f805f60608486031215610f5c575f80fd5b610f6584610e99565b9250610f7360208501610e99565b9150610f8160408501610e99565b90509250925092565b5f8060408385031215610f9b575f80fd5b610fa483610e99565b946020939093013593505050565b5f805f60608486031215610fc4575f80fd5b610fcd84610e99565b9250610fdb60208501610e99565b9150604084013590509250925092565b634e487b7160e01b5f52603260045260245ffd5b634e487b7160e01b5f52601160045260245ffd5b8181038181111561024257610242610fff565b8082018082111561024257610242610fff565b634e487b7160e01b5f52603160045260245ffd5b5f6020828403121561105d575f80fd5b81518015158114610b1e575f80fdfea26469706673582212201a6547892384278ca6abe4e2360ebcae7106757f94d2bb0b2c5975217b16b70f64736f6c63430008190033",
					"opcodes": "PUSH1 0x80 PUSH1 0x40 MSTORE CALLVALUE DUP1 ISZERO PUSH1 0xE JUMPI PUSH0 DUP1 REVERT JUMPDEST POP PUSH0 DUP1 SLOAD PUSH1 0x1 PUSH1 0x1 PUSH1 0xA0 SHL SUB NOT AND CALLER OR SWAP1 SSTORE PUSH2 0x10A2 DUP1 PUSH2 0x2D PUSH0 CODECOPY PUSH0 RETURN INVALID PUSH1 0x80 PUSH1 0x40 MSTORE CALLVALUE DUP1 ISZERO PUSH2 0xF JUMPI PUSH0 DUP1 REVERT JUMPDEST POP PUSH1 0x4 CALLDATASIZE LT PUSH2 0x9B JUMPI PUSH0 CALLDATALOAD PUSH1 0xE0 SHR DUP1 PUSH4 0x5F15B1D9 GT PUSH2 0x63 JUMPI DUP1 PUSH4 0x5F15B1D9 EQ PUSH2 0x167 JUMPI DUP1 PUSH4 0x8DA5CB5B EQ PUSH2 0x17C JUMPI DUP1 PUSH4 0xA2BDD08C EQ PUSH2 0x18E JUMPI DUP1 PUSH4 0xBD042D2E EQ PUSH2 0x1A1 JUMPI DUP1 PUSH4 0xC3698DA4 EQ PUSH2 0x1B4 JUMPI PUSH0 DUP1 REVERT JUMPDEST DUP1 PUSH4 0xAC0BE3F EQ PUSH2 0x9F JUMPI DUP1 PUSH4 0xDB36379 EQ PUSH2 0xC8 JUMPI DUP1 PUSH4 0xE6CC31F EQ PUSH2 0xDB JUMPI DUP1 PUSH4 0x17A436ED EQ PUSH2 0xFE JUMPI DUP1 PUSH4 0x3112FCC6 EQ PUSH2 0x13C JUMPI JUMPDEST PUSH0 DUP1 REVERT JUMPDEST PUSH2 0xB2 PUSH2 0xAD CALLDATASIZE PUSH1 0x4 PUSH2 0xEB4 JUMP JUMPDEST PUSH2 0x1C7 JUMP JUMPDEST PUSH1 0x40 MLOAD PUSH2 0xBF SWAP2 SWAP1 PUSH2 0xEE5 JUMP JUMPDEST PUSH1 0x40 MLOAD DUP1 SWAP2 SUB SWAP1 RETURN JUMPDEST PUSH2 0xB2 PUSH2 0xD6 CALLDATASIZE PUSH1 0x4 PUSH2 0xF31 JUMP JUMPDEST PUSH2 0x248 JUMP JUMPDEST PUSH2 0xEE PUSH2 0xE9 CALLDATASIZE PUSH1 0x4 PUSH2 0xEB4 JUMP JUMPDEST PUSH2 0x2BB JUMP JUMPDEST PUSH1 0x40 MLOAD SWAP1 ISZERO ISZERO DUP2 MSTORE PUSH1 0x20 ADD PUSH2 0xBF JUMP JUMPDEST PUSH2 0x12E PUSH2 0x10C CALLDATASIZE PUSH1 0x4 PUSH2 0xF4A JUMP JUMPDEST PUSH1 0x1 PUSH1 0x20 SWAP1 DUP2 MSTORE PUSH0 SWAP4 DUP5 MSTORE PUSH1 0x40 DUP1 DUP6 KECCAK256 DUP3 MSTORE SWAP3 DUP5 MSTORE DUP3 DUP5 KECCAK256 SWAP1 MSTORE DUP3 MSTORE SWAP1 KECCAK256 SLOAD DUP2 JUMP JUMPDEST PUSH1 0x40 MLOAD SWAP1 DUP2 MSTORE PUSH1 0x20 ADD PUSH2 0xBF JUMP JUMPDEST PUSH2 0x14F PUSH2 0x14A CALLDATASIZE PUSH1 0x4 PUSH2 0xF8A JUMP JUMPDEST PUSH2 0x33F JUMP JUMPDEST PUSH1 0x40 MLOAD PUSH1 0x1 PUSH1 0x1 PUSH1 0xA0 SHL SUB SWAP1 SWAP2 AND DUP2 MSTORE PUSH1 0x20 ADD PUSH2 0xBF JUMP JUMPDEST PUSH2 0x17A PUSH2 0x175 CALLDATASIZE PUSH1 0x4 PUSH2 0xFB2 JUMP JUMPDEST PUSH2 0x373 JUMP JUMPDEST STOP JUMPDEST PUSH0 SLOAD PUSH2 0x14F SWAP1 PUSH1 0x1 PUSH1 0x1 PUSH1 0xA0 SHL SUB AND DUP2 JUMP JUMPDEST PUSH2 0x17A PUSH2 0x19C CALLDATASIZE PUSH1 0x4 PUSH2 0xF4A JUMP JUMPDEST PUSH2 0x436 JUMP JUMPDEST PUSH2 0xEE PUSH2 0x1AF CALLDATASIZE PUSH1 0x4 PUSH2 0xF4A JUMP JUMPDEST PUSH2 0xA84 JUMP JUMPDEST PUSH2 0x17A PUSH2 0x1C2 CALLDATASIZE PUSH1 0x4 PUSH2 0xFB2 JUMP JUMPDEST PUSH2 0xB25 JUMP JUMPDEST PUSH1 0x1 PUSH1 0x1 PUSH1 0xA0 SHL SUB DUP1 DUP4 AND PUSH0 SWAP1 DUP2 MSTORE PUSH1 0x3 PUSH1 0x20 SWAP1 DUP2 MSTORE PUSH1 0x40 DUP1 DUP4 KECCAK256 SWAP4 DUP6 AND DUP4 MSTORE SWAP3 DUP2 MSTORE SWAP1 DUP3 SWAP1 KECCAK256 DUP1 SLOAD DUP4 MLOAD DUP2 DUP5 MUL DUP2 ADD DUP5 ADD SWAP1 SWAP5 MSTORE DUP1 DUP5 MSTORE PUSH1 0x60 SWAP4 SWAP3 DUP4 ADD DUP3 DUP3 DUP1 ISZERO PUSH2 0x23A JUMPI PUSH1 0x20 MUL DUP3 ADD SWAP2 SWAP1 PUSH0 MSTORE PUSH1 0x20 PUSH0 KECCAK256 SWAP1 JUMPDEST DUP2 SLOAD PUSH1 0x1 PUSH1 0x1 PUSH1 0xA0 SHL SUB AND DUP2 MSTORE PUSH1 0x1 SWAP1 SWAP2 ADD SWAP1 PUSH1 0x20 ADD DUP1 DUP4 GT PUSH2 0x21C JUMPI JUMPDEST POP POP POP POP POP SWAP1 POP JUMPDEST SWAP3 SWAP2 POP POP JUMP JUMPDEST PUSH1 0x1 PUSH1 0x1 PUSH1 0xA0 SHL SUB DUP2 AND PUSH0 SWAP1 DUP2 MSTORE PUSH1 0x2 PUSH1 0x20 SWAP1 DUP2 MSTORE PUSH1 0x40 SWAP2 DUP3 SWAP1 KECCAK256 DUP1 SLOAD DUP4 MLOAD DUP2 DUP5 MUL DUP2 ADD DUP5 ADD SWAP1 SWAP5 MSTORE DUP1 DUP5 MSTORE PUSH1 0x60 SWAP4 SWAP3 DUP4 ADD DUP3 DUP3 DUP1 ISZERO PUSH2 0x2AF JUMPI PUSH1 0x20 MUL DUP3 ADD SWAP2 SWAP1 PUSH0 MSTORE PUSH1 0x20 PUSH0 KECCAK256 SWAP1 JUMPDEST DUP2 SLOAD PUSH1 0x1 PUSH1 0x1 PUSH1 0xA0 SHL SUB AND DUP2 MSTORE PUSH1 0x1 SWAP1 SWAP2 ADD SWAP1 PUSH1 0x20 ADD DUP1 DUP4 GT PUSH2 0x291 JUMPI JUMPDEST POP POP POP POP POP SWAP1 POP SWAP2 SWAP1 POP JUMP JUMPDEST PUSH0 DUP1 JUMPDEST PUSH1 0x1 PUSH1 0x1 PUSH1 0xA0 SHL SUB DUP5 AND PUSH0 SWAP1 DUP2 MSTORE PUSH1 0x2 PUSH1 0x20 MSTORE PUSH1 0x40 SWAP1 KECCAK256 SLOAD DUP2 LT ISZERO PUSH2 0x336 JUMPI PUSH1 0x1 PUSH1 0x1 PUSH1 0xA0 SHL SUB DUP5 DUP2 AND PUSH0 SWAP1 DUP2 MSTORE PUSH1 0x2 PUSH1 0x20 MSTORE PUSH1 0x40 SWAP1 KECCAK256 DUP1 SLOAD SWAP2 DUP6 AND SWAP2 DUP4 SWAP1 DUP2 LT PUSH2 0x30B JUMPI PUSH2 0x30B PUSH2 0xFEB JUMP JUMPDEST PUSH0 SWAP2 DUP3 MSTORE PUSH1 0x20 SWAP1 SWAP2 KECCAK256 ADD SLOAD PUSH1 0x1 PUSH1 0x1 PUSH1 0xA0 SHL SUB AND SUB PUSH2 0x32E JUMPI PUSH1 0x1 SWAP2 POP POP PUSH2 0x242 JUMP JUMPDEST PUSH1 0x1 ADD PUSH2 0x2BE JUMP JUMPDEST POP PUSH0 SWAP4 SWAP3 POP POP POP JUMP JUMPDEST PUSH1 0x4 PUSH1 0x20 MSTORE DUP2 PUSH0 MSTORE PUSH1 0x40 PUSH0 KECCAK256 DUP2 DUP2 SLOAD DUP2 LT PUSH2 0x358 JUMPI PUSH0 DUP1 REVERT JUMPDEST PUSH0 SWAP2 DUP3 MSTORE PUSH1 0x20 SWAP1 SWAP2 KECCAK256 ADD SLOAD PUSH1 0x1 PUSH1 0x1 PUSH1 0xA0 SHL SUB AND SWAP2 POP DUP3 SWAP1 POP JUMP JUMPDEST DUP1 PUSH0 SUB PUSH2 0x38A JUMPI PUSH2 0x385 CALLER DUP5 DUP5 PUSH2 0x436 JUMP JUMPDEST POP POP POP JUMP JUMPDEST CALLER PUSH0 DUP2 DUP2 MSTORE PUSH1 0x1 PUSH1 0x20 SWAP1 DUP2 MSTORE PUSH1 0x40 DUP1 DUP4 KECCAK256 PUSH1 0x1 PUSH1 0x1 PUSH1 0xA0 SHL SUB DUP9 DUP2 AND DUP6 MSTORE SWAP1 DUP4 MSTORE DUP2 DUP5 KECCAK256 SWAP1 DUP8 AND DUP5 MSTORE SWAP1 SWAP2 MSTORE SWAP1 KECCAK256 DUP3 SWAP1 SSTORE PUSH2 0x3C5 SWAP1 DUP5 PUSH2 0xD2D JUMP JUMPDEST PUSH2 0x3D0 CALLER DUP5 DUP5 PUSH2 0xD7D JUMP JUMPDEST PUSH2 0x3DA CALLER DUP4 PUSH2 0xDD8 JUMP JUMPDEST DUP2 PUSH1 0x1 PUSH1 0x1 PUSH1 0xA0 SHL SUB AND DUP4 PUSH1 0x1 PUSH1 0x1 PUSH1 0xA0 SHL SUB AND CALLER PUSH1 0x1 PUSH1 0x1 PUSH1 0xA0 SHL SUB AND PUSH32 0x7AE337D22E62927A7215AD9C9A3A275863A9D305944D515360E7A2449DD85CCE DUP5 PUSH1 0x40 MLOAD PUSH2 0x429 SWAP2 DUP2 MSTORE PUSH1 0x20 ADD SWAP1 JUMP JUMPDEST PUSH1 0x40 MLOAD DUP1 SWAP2 SUB SWAP1 LOG4 POP POP POP JUMP JUMPDEST PUSH2 0x441 DUP4 DUP4 DUP4 PUSH2 0xA84 JUMP JUMPDEST PUSH2 0x45E JUMPI PUSH1 0x40 MLOAD PUSH4 0x66A21FFB PUSH1 0xE0 SHL DUP2 MSTORE PUSH1 0x4 ADD PUSH1 0x40 MLOAD DUP1 SWAP2 SUB SWAP1 REVERT JUMPDEST PUSH0 JUMPDEST PUSH1 0x1 PUSH1 0x1 PUSH1 0xA0 SHL SUB DUP1 DUP6 AND PUSH0 SWAP1 DUP2 MSTORE PUSH1 0x3 PUSH1 0x20 SWAP1 DUP2 MSTORE PUSH1 0x40 DUP1 DUP4 KECCAK256 SWAP4 DUP8 AND DUP4 MSTORE SWAP3 SWAP1 MSTORE KECCAK256 SLOAD DUP2 LT ISZERO PUSH2 0x4E8 JUMPI PUSH1 0x1 PUSH1 0x1 PUSH1 0xA0 SHL SUB DUP5 DUP2 AND PUSH0 SWAP1 DUP2 MSTORE PUSH1 0x3 PUSH1 0x20 SWAP1 DUP2 MSTORE PUSH1 0x40 DUP1 DUP4 KECCAK256 DUP8 DUP6 AND DUP5 MSTORE SWAP1 SWAP2 MSTORE SWAP1 KECCAK256 DUP1 SLOAD SWAP2 DUP5 AND SWAP2 DUP4 SWAP1 DUP2 LT PUSH2 0x4C7 JUMPI PUSH2 0x4C7 PUSH2 0xFEB JUMP JUMPDEST PUSH0 SWAP2 DUP3 MSTORE PUSH1 0x20 SWAP1 SWAP2 KECCAK256 ADD SLOAD PUSH1 0x1 PUSH1 0x1 PUSH1 0xA0 SHL SUB AND EQ PUSH2 0x4E8 JUMPI PUSH1 0x1 ADD PUSH2 0x460 JUMP JUMPDEST DUP1 JUMPDEST PUSH1 0x1 PUSH1 0x1 PUSH1 0xA0 SHL SUB DUP1 DUP7 AND PUSH0 SWAP1 DUP2 MSTORE PUSH1 0x3 PUSH1 0x20 SWAP1 DUP2 MSTORE PUSH1 0x40 DUP1 DUP4 KECCAK256 SWAP4 DUP9 AND DUP4 MSTORE SWAP3 SWAP1 MSTORE KECCAK256 SLOAD PUSH2 0x51B SWAP1 PUSH1 0x1 SWAP1 PUSH2 0x1013 JUMP JUMPDEST DUP2 LT ISZERO PUSH2 0x5D8 JUMPI PUSH1 0x1 PUSH1 0x1 PUSH1 0xA0 SHL SUB DUP1 DUP7 AND PUSH0 SWAP1 DUP2 MSTORE PUSH1 0x3 PUSH1 0x20 SWAP1 DUP2 MSTORE PUSH1 0x40 DUP1 DUP4 KECCAK256 SWAP4 DUP9 AND DUP4 MSTORE SWAP3 SWAP1 MSTORE KECCAK256 PUSH2 0x551 DUP3 PUSH1 0x1 PUSH2 0x1026 JUMP JUMPDEST DUP2 SLOAD DUP2 LT PUSH2 0x561 JUMPI PUSH2 0x561 PUSH2 0xFEB JUMP JUMPDEST PUSH0 SWAP2 DUP3 MSTORE PUSH1 0x20 DUP1 DUP4 KECCAK256 SWAP1 SWAP2 ADD SLOAD PUSH1 0x1 PUSH1 0x1 PUSH1 0xA0 SHL SUB DUP9 DUP2 AND DUP5 MSTORE PUSH1 0x3 DUP4 MSTORE PUSH1 0x40 DUP1 DUP6 KECCAK256 DUP10 DUP4 AND DUP7 MSTORE SWAP1 SWAP4 MSTORE SWAP2 SWAP1 SWAP3 KECCAK256 DUP1 SLOAD SWAP2 SWAP1 SWAP3 AND SWAP2 SWAP1 DUP4 SWAP1 DUP2 LT PUSH2 0x5A8 JUMPI PUSH2 0x5A8 PUSH2 0xFEB JUMP JUMPDEST PUSH0 SWAP2 DUP3 MSTORE PUSH1 0x20 SWAP1 SWAP2 KECCAK256 ADD DUP1 SLOAD PUSH1 0x1 PUSH1 0x1 PUSH1 0xA0 SHL SUB NOT AND PUSH1 0x1 PUSH1 0x1 PUSH1 0xA0 SHL SUB SWAP3 SWAP1 SWAP3 AND SWAP2 SWAP1 SWAP2 OR SWAP1 SSTORE PUSH1 0x1 ADD PUSH2 0x4EA JUMP JUMPDEST POP PUSH1 0x1 PUSH1 0x1 PUSH1 0xA0 SHL SUB DUP1 DUP6 AND PUSH0 SWAP1 DUP2 MSTORE PUSH1 0x3 PUSH1 0x20 SWAP1 DUP2 MSTORE PUSH1 0x40 DUP1 DUP4 KECCAK256 SWAP4 DUP8 AND DUP4 MSTORE SWAP3 SWAP1 MSTORE KECCAK256 DUP1 SLOAD DUP1 PUSH2 0x60C JUMPI PUSH2 0x60C PUSH2 0x1039 JUMP JUMPDEST PUSH0 DUP3 DUP2 MSTORE PUSH1 0x20 DUP1 DUP3 KECCAK256 DUP4 ADD PUSH0 NOT SWAP1 DUP2 ADD DUP1 SLOAD PUSH1 0x1 PUSH1 0x1 PUSH1 0xA0 SHL SUB NOT AND SWAP1 SSTORE SWAP1 SWAP3 ADD SWAP1 SWAP3 SSTORE PUSH1 0x1 PUSH1 0x1 PUSH1 0xA0 SHL SUB DUP7 DUP2 AND DUP1 DUP5 MSTORE PUSH1 0x1 DUP4 MSTORE PUSH1 0x40 DUP1 DUP6 KECCAK256 DUP9 DUP5 AND DUP1 DUP8 MSTORE SWAP1 DUP6 MSTORE DUP2 DUP7 KECCAK256 SWAP4 DUP9 AND DUP7 MSTORE SWAP3 DUP5 MSTORE DUP1 DUP6 KECCAK256 DUP6 SWAP1 SSTORE SWAP1 DUP5 MSTORE PUSH1 0x3 DUP4 MSTORE DUP1 DUP5 KECCAK256 SWAP2 DUP5 MSTORE SWAP2 MSTORE DUP2 KECCAK256 SLOAD SWAP1 SUB PUSH2 0x801 JUMPI POP PUSH0 JUMPDEST PUSH1 0x1 PUSH1 0x1 PUSH1 0xA0 SHL SUB DUP5 AND PUSH0 SWAP1 DUP2 MSTORE PUSH1 0x2 PUSH1 0x20 MSTORE PUSH1 0x40 SWAP1 KECCAK256 SLOAD DUP2 LT ISZERO PUSH2 0x801 JUMPI PUSH1 0x1 PUSH1 0x1 PUSH1 0xA0 SHL SUB DUP5 DUP2 AND PUSH0 SWAP1 DUP2 MSTORE PUSH1 0x2 PUSH1 0x20 MSTORE PUSH1 0x40 SWAP1 KECCAK256 DUP1 SLOAD SWAP2 DUP6 AND SWAP2 DUP4 SWAP1 DUP2 LT PUSH2 0x6C9 JUMPI PUSH2 0x6C9 PUSH2 0xFEB JUMP JUMPDEST PUSH0 SWAP2 DUP3 MSTORE PUSH1 0x20 SWAP1 SWAP2 KECCAK256 ADD SLOAD PUSH1 0x1 PUSH1 0x1 PUSH1 0xA0 SHL SUB AND SUB PUSH2 0x7F9 JUMPI DUP1 JUMPDEST PUSH1 0x1 PUSH1 0x1 PUSH1 0xA0 SHL SUB DUP6 AND PUSH0 SWAP1 DUP2 MSTORE PUSH1 0x2 PUSH1 0x20 MSTORE PUSH1 0x40 SWAP1 KECCAK256 SLOAD PUSH2 0x708 SWAP1 PUSH1 0x1 SWAP1 PUSH2 0x1013 JUMP JUMPDEST DUP2 LT ISZERO PUSH2 0x7AD JUMPI PUSH1 0x1 PUSH1 0x1 PUSH1 0xA0 SHL SUB DUP6 AND PUSH0 SWAP1 DUP2 MSTORE PUSH1 0x2 PUSH1 0x20 MSTORE PUSH1 0x40 SWAP1 KECCAK256 PUSH2 0x731 DUP3 PUSH1 0x1 PUSH2 0x1026 JUMP JUMPDEST DUP2 SLOAD DUP2 LT PUSH2 0x741 JUMPI PUSH2 0x741 PUSH2 0xFEB JUMP JUMPDEST PUSH0 SWAP2 DUP3 MSTORE PUSH1 0x20 DUP1 DUP4 KECCAK256 SWAP1 SWAP2 ADD SLOAD PUSH1 0x1 PUSH1 0x1 PUSH1 0xA0 SHL SUB DUP9 DUP2 AND DUP5 MSTORE PUSH1 0x2 SWAP1 SWAP3 MSTORE PUSH1 0x40 SWAP1 SWAP3 KECCAK256 DUP1 SLOAD SWAP2 SWAP1 SWAP3 AND SWAP2 SWAP1 DUP4 SWAP1 DUP2 LT PUSH2 0x77D JUMPI PUSH2 0x77D PUSH2 0xFEB JUMP JUMPDEST PUSH0 SWAP2 DUP3 MSTORE PUSH1 0x20 SWAP1 SWAP2 KECCAK256 ADD DUP1 SLOAD PUSH1 0x1 PUSH1 0x1 PUSH1 0xA0 SHL SUB NOT AND PUSH1 0x1 PUSH1 0x1 PUSH1 0xA0 SHL SUB SWAP3 SWAP1 SWAP3 AND SWAP2 SWAP1 SWAP2 OR SWAP1 SSTORE PUSH1 0x1 ADD PUSH2 0x6E4 JUMP JUMPDEST POP PUSH1 0x1 PUSH1 0x1 PUSH1 0xA0 SHL SUB DUP5 AND PUSH0 SWAP1 DUP2 MSTORE PUSH1 0x2 PUSH1 0x20 MSTORE PUSH1 0x40 SWAP1 KECCAK256 DUP1 SLOAD DUP1 PUSH2 0x7D4 JUMPI PUSH2 0x7D4 PUSH2 0x1039 JUMP JUMPDEST PUSH0 DUP3 DUP2 MSTORE PUSH1 0x20 SWAP1 KECCAK256 DUP2 ADD PUSH0 NOT SWAP1 DUP2 ADD DUP1 SLOAD PUSH1 0x1 PUSH1 0x1 PUSH1 0xA0 SHL SUB NOT AND SWAP1 SSTORE ADD SWAP1 SSTORE PUSH2 0x801 JUMP JUMPDEST PUSH1 0x1 ADD PUSH2 0x67C JUMP JUMPDEST PUSH1 0x1 PUSH1 0x1 PUSH1 0xA0 SHL SUB DUP5 AND PUSH0 SWAP1 DUP2 MSTORE PUSH1 0x2 PUSH1 0x20 SWAP1 DUP2 MSTORE PUSH1 0x40 DUP1 DUP4 KECCAK256 DUP1 SLOAD DUP3 MLOAD DUP2 DUP6 MUL DUP2 ADD DUP6 ADD SWAP1 SWAP4 MSTORE DUP1 DUP4 MSTORE DUP5 SWAP4 DUP4 ADD DUP3 DUP3 DUP1 ISZERO PUSH2 0x865 JUMPI PUSH1 0x20 MUL DUP3 ADD SWAP2 SWAP1 PUSH0 MSTORE PUSH1 0x20 PUSH0 KECCAK256 SWAP1 JUMPDEST DUP2 SLOAD PUSH1 0x1 PUSH1 0x1 PUSH1 0xA0 SHL SUB AND DUP2 MSTORE PUSH1 0x1 SWAP1 SWAP2 ADD SWAP1 PUSH1 0x20 ADD DUP1 DUP4 GT PUSH2 0x847 JUMPI JUMPDEST POP POP POP POP POP SWAP1 POP PUSH0 JUMPDEST DUP2 MLOAD DUP2 LT ISZERO PUSH2 0x904 JUMPI PUSH1 0x1 PUSH1 0x1 PUSH1 0xA0 SHL SUB DUP8 AND PUSH0 SWAP1 DUP2 MSTORE PUSH1 0x1 PUSH1 0x20 MSTORE PUSH1 0x40 DUP2 KECCAK256 DUP4 MLOAD DUP3 SWAP1 DUP6 SWAP1 DUP6 SWAP1 DUP2 LT PUSH2 0x8A4 JUMPI PUSH2 0x8A4 PUSH2 0xFEB JUMP JUMPDEST PUSH1 0x20 MUL PUSH1 0x20 ADD ADD MLOAD PUSH1 0x1 PUSH1 0x1 PUSH1 0xA0 SHL SUB AND PUSH1 0x1 PUSH1 0x1 PUSH1 0xA0 SHL SUB AND DUP2 MSTORE PUSH1 0x20 ADD SWAP1 DUP2 MSTORE PUSH1 0x20 ADD PUSH0 KECCAK256 PUSH0 DUP8 PUSH1 0x1 PUSH1 0x1 PUSH1 0xA0 SHL SUB AND PUSH1 0x1 PUSH1 0x1 PUSH1 0xA0 SHL SUB AND DUP2 MSTORE PUSH1 0x20 ADD SWAP1 DUP2 MSTORE PUSH1 0x20 ADD PUSH0 KECCAK256 SLOAD GT ISZERO PUSH2 0x8FC JUMPI PUSH1 0x1 SWAP3 POP PUSH2 0x904 JUMP JUMPDEST PUSH1 0x1 ADD PUSH2 0x86E JUMP JUMPDEST POP DUP2 PUSH2 0xA32 JUMPI PUSH1 0x1 PUSH1 0x1 PUSH1 0xA0 SHL SUB DUP5 AND PUSH0 SWAP1 DUP2 MSTORE PUSH1 0x4 PUSH1 0x20 MSTORE PUSH1 0x40 DUP2 KECCAK256 SWAP1 JUMPDEST DUP2 SLOAD DUP2 LT ISZERO PUSH2 0xA2F JUMPI DUP8 PUSH1 0x1 PUSH1 0x1 PUSH1 0xA0 SHL SUB AND DUP3 DUP3 DUP2 SLOAD DUP2 LT PUSH2 0x948 JUMPI PUSH2 0x948 PUSH2 0xFEB JUMP JUMPDEST PUSH0 SWAP2 DUP3 MSTORE PUSH1 0x20 SWAP1 SWAP2 KECCAK256 ADD SLOAD PUSH1 0x1 PUSH1 0x1 PUSH1 0xA0 SHL SUB AND SUB PUSH2 0xA27 JUMPI DUP1 JUMPDEST DUP3 SLOAD PUSH2 0x971 SWAP1 PUSH1 0x1 SWAP1 PUSH2 0x1013 JUMP JUMPDEST DUP2 LT ISZERO PUSH2 0x9F1 JUMPI DUP3 PUSH2 0x984 DUP3 PUSH1 0x1 PUSH2 0x1026 JUMP JUMPDEST DUP2 SLOAD DUP2 LT PUSH2 0x994 JUMPI PUSH2 0x994 PUSH2 0xFEB JUMP JUMPDEST SWAP1 PUSH0 MSTORE PUSH1 0x20 PUSH0 KECCAK256 ADD PUSH0 SWAP1 SLOAD SWAP1 PUSH2 0x100 EXP SWAP1 DIV PUSH1 0x1 PUSH1 0x1 PUSH1 0xA0 SHL SUB AND DUP4 DUP3 DUP2 SLOAD DUP2 LT PUSH2 0x9C1 JUMPI PUSH2 0x9C1 PUSH2 0xFEB JUMP JUMPDEST PUSH0 SWAP2 DUP3 MSTORE PUSH1 0x20 SWAP1 SWAP2 KECCAK256 ADD DUP1 SLOAD PUSH1 0x1 PUSH1 0x1 PUSH1 0xA0 SHL SUB NOT AND PUSH1 0x1 PUSH1 0x1 PUSH1 0xA0 SHL SUB SWAP3 SWAP1 SWAP3 AND SWAP2 SWAP1 SWAP2 OR SWAP1 SSTORE PUSH1 0x1 ADD PUSH2 0x963 JUMP JUMPDEST POP DUP2 DUP1 SLOAD DUP1 PUSH2 0xA02 JUMPI PUSH2 0xA02 PUSH2 0x1039 JUMP JUMPDEST PUSH0 DUP3 DUP2 MSTORE PUSH1 0x20 SWAP1 KECCAK256 DUP2 ADD PUSH0 NOT SWAP1 DUP2 ADD DUP1 SLOAD PUSH1 0x1 PUSH1 0x1 PUSH1 0xA0 SHL SUB NOT AND SWAP1 SSTORE ADD SWAP1 SSTORE PUSH2 0xA2F JUMP JUMPDEST PUSH1 0x1 ADD PUSH2 0x923 JUMP JUMPDEST POP POP JUMPDEST DUP4 PUSH1 0x1 PUSH1 0x1 PUSH1 0xA0 SHL SUB AND DUP6 PUSH1 0x1 PUSH1 0x1 PUSH1 0xA0 SHL SUB AND DUP8 PUSH1 0x1 PUSH1 0x1 PUSH1 0xA0 SHL SUB AND PUSH32 0x8FEEE98C784E5546D0536039C928D5196FF80E1E67AB22FCE85625AB401CE37E PUSH1 0x40 MLOAD PUSH1 0x40 MLOAD DUP1 SWAP2 SUB SWAP1 LOG4 POP POP POP POP POP POP JUMP JUMPDEST PUSH0 DUP1 JUMPDEST PUSH1 0x1 PUSH1 0x1 PUSH1 0xA0 SHL SUB DUP1 DUP7 AND PUSH0 SWAP1 DUP2 MSTORE PUSH1 0x3 PUSH1 0x20 SWAP1 DUP2 MSTORE PUSH1 0x40 DUP1 DUP4 KECCAK256 SWAP4 DUP9 AND DUP4 MSTORE SWAP3 SWAP1 MSTORE KECCAK256 SLOAD DUP2 LT ISZERO PUSH2 0xB19 JUMPI PUSH1 0x1 PUSH1 0x1 PUSH1 0xA0 SHL SUB DUP6 DUP2 AND PUSH0 SWAP1 DUP2 MSTORE PUSH1 0x3 PUSH1 0x20 SWAP1 DUP2 MSTORE PUSH1 0x40 DUP1 DUP4 KECCAK256 DUP9 DUP6 AND DUP5 MSTORE SWAP1 SWAP2 MSTORE SWAP1 KECCAK256 DUP1 SLOAD SWAP2 DUP6 AND SWAP2 DUP4 SWAP1 DUP2 LT PUSH2 0xAEE JUMPI PUSH2 0xAEE PUSH2 0xFEB JUMP JUMPDEST PUSH0 SWAP2 DUP3 MSTORE PUSH1 0x20 SWAP1 SWAP2 KECCAK256 ADD SLOAD PUSH1 0x1 PUSH1 0x1 PUSH1 0xA0 SHL SUB AND SUB PUSH2 0xB11 JUMPI PUSH1 0x1 SWAP2 POP POP PUSH2 0xB1E JUMP JUMPDEST PUSH1 0x1 ADD PUSH2 0xA87 JUMP JUMPDEST POP PUSH0 SWAP1 POP JUMPDEST SWAP4 SWAP3 POP POP POP JUMP JUMPDEST PUSH2 0xB30 DUP4 DUP4 CALLER PUSH2 0xA84 JUMP JUMPDEST PUSH2 0xB4D JUMPI PUSH1 0x40 MLOAD PUSH4 0x66A21FFB PUSH1 0xE0 SHL DUP2 MSTORE PUSH1 0x4 ADD PUSH1 0x40 MLOAD DUP1 SWAP2 SUB SWAP1 REVERT JUMPDEST PUSH1 0x1 PUSH1 0x1 PUSH1 0xA0 SHL SUB DUP1 DUP5 AND PUSH0 SWAP1 DUP2 MSTORE PUSH1 0x1 PUSH1 0x20 SWAP1 DUP2 MSTORE PUSH1 0x40 DUP1 DUP4 KECCAK256 SWAP4 DUP7 AND DUP4 MSTORE SWAP3 DUP2 MSTORE DUP3 DUP3 KECCAK256 CALLER DUP4 MSTORE SWAP1 MSTORE SWAP1 DUP2 KECCAK256 SLOAD SWAP1 DUP2 SWAP1 SUB PUSH2 0xB9D JUMPI PUSH1 0x40 MLOAD PUSH4 0xDC49AEE1 PUSH1 0xE0 SHL DUP2 MSTORE PUSH1 0x4 ADD PUSH1 0x40 MLOAD DUP1 SWAP2 SUB SWAP1 REVERT JUMPDEST PUSH0 DUP2 DUP4 GT PUSH2 0xBAB JUMPI DUP3 PUSH2 0xBAD JUMP JUMPDEST DUP2 JUMPDEST PUSH1 0x1 PUSH1 0x1 PUSH1 0xA0 SHL SUB DUP1 DUP8 AND PUSH0 SWAP1 DUP2 MSTORE PUSH1 0x1 PUSH1 0x20 SWAP1 DUP2 MSTORE PUSH1 0x40 DUP1 DUP4 KECCAK256 SWAP4 DUP10 AND DUP4 MSTORE SWAP3 DUP2 MSTORE DUP3 DUP3 KECCAK256 CALLER DUP4 MSTORE SWAP1 MSTORE SWAP1 DUP2 KECCAK256 DUP1 SLOAD SWAP3 SWAP4 POP DUP4 SWAP3 SWAP1 SWAP2 SWAP1 PUSH2 0xBF0 SWAP1 DUP5 SWAP1 PUSH2 0x1013 JUMP JUMPDEST SWAP1 SWAP2 SSTORE POP POP PUSH1 0x40 MLOAD PUSH4 0x23B872DD PUSH1 0xE0 SHL DUP2 MSTORE PUSH1 0x1 PUSH1 0x1 PUSH1 0xA0 SHL SUB DUP7 DUP2 AND PUSH1 0x4 DUP4 ADD MSTORE CALLER PUSH1 0x24 DUP4 ADD MSTORE PUSH1 0x44 DUP3 ADD DUP4 SWAP1 MSTORE PUSH0 SWAP2 SWAP1 DUP7 AND SWAP1 PUSH4 0x23B872DD SWAP1 PUSH1 0x64 ADD PUSH1 0x20 PUSH1 0x40 MLOAD DUP1 DUP4 SUB DUP2 PUSH0 DUP8 GAS CALL ISZERO DUP1 ISZERO PUSH2 0xC4A JUMPI RETURNDATASIZE PUSH0 DUP1 RETURNDATACOPY RETURNDATASIZE PUSH0 REVERT JUMPDEST POP POP POP POP PUSH1 0x40 MLOAD RETURNDATASIZE PUSH1 0x1F NOT PUSH1 0x1F DUP3 ADD AND DUP3 ADD DUP1 PUSH1 0x40 MSTORE POP DUP2 ADD SWAP1 PUSH2 0xC6E SWAP2 SWAP1 PUSH2 0x104D JUMP JUMPDEST SWAP1 POP DUP1 PUSH2 0xC8E JUMPI PUSH1 0x40 MLOAD PUSH4 0x12171D83 PUSH1 0xE3 SHL DUP2 MSTORE PUSH1 0x4 ADD PUSH1 0x40 MLOAD DUP1 SWAP2 SUB SWAP1 REVERT JUMPDEST CALLER PUSH1 0x1 PUSH1 0x1 PUSH1 0xA0 SHL SUB AND DUP6 PUSH1 0x1 PUSH1 0x1 PUSH1 0xA0 SHL SUB AND DUP8 PUSH1 0x1 PUSH1 0x1 PUSH1 0xA0 SHL SUB AND PUSH32 0x342E7FF505A8A0364CD0DC2FF195C315E43BCE86B204846ECD36913E117B109E DUP6 PUSH1 0x40 MLOAD PUSH2 0xCDD SWAP2 DUP2 MSTORE PUSH1 0x20 ADD SWAP1 JUMP JUMPDEST PUSH1 0x40 MLOAD DUP1 SWAP2 SUB SWAP1 LOG4 PUSH1 0x1 PUSH1 0x1 PUSH1 0xA0 SHL SUB DUP1 DUP8 AND PUSH0 SWAP1 DUP2 MSTORE PUSH1 0x1 PUSH1 0x20 SWAP1 DUP2 MSTORE PUSH1 0x40 DUP1 DUP4 KECCAK256 SWAP4 DUP10 AND DUP4 MSTORE SWAP3 DUP2 MSTORE DUP3 DUP3 KECCAK256 CALLER DUP4 MSTORE SWAP1 MSTORE SWAP1 DUP2 KECCAK256 SLOAD SWAP1 SUB PUSH2 0xD25 JUMPI PUSH2 0xD25 DUP7 DUP7 CALLER PUSH2 0x436 JUMP JUMPDEST POP POP POP POP POP POP JUMP JUMPDEST PUSH2 0xD37 DUP3 DUP3 PUSH2 0x2BB JUMP JUMPDEST PUSH2 0xD79 JUMPI PUSH1 0x1 PUSH1 0x1 PUSH1 0xA0 SHL SUB DUP3 DUP2 AND PUSH0 SWAP1 DUP2 MSTORE PUSH1 0x2 PUSH1 0x20 SWAP1 DUP2 MSTORE PUSH1 0x40 DUP3 KECCAK256 DUP1 SLOAD PUSH1 0x1 DUP2 ADD DUP3 SSTORE SWAP1 DUP4 MSTORE SWAP2 KECCAK256 ADD DUP1 SLOAD PUSH1 0x1 PUSH1 0x1 PUSH1 0xA0 SHL SUB NOT AND SWAP2 DUP4 AND SWAP2 SWAP1 SWAP2 OR SWAP1 SSTORE JUMPDEST POP POP JUMP JUMPDEST PUSH2 0xD88 DUP4 DUP4 DUP4 PUSH2 0xA84 JUMP JUMPDEST PUSH2 0x385 JUMPI PUSH1 0x1 PUSH1 0x1 PUSH1 0xA0 SHL SUB SWAP3 DUP4 AND PUSH0 SWAP1 DUP2 MSTORE PUSH1 0x3 PUSH1 0x20 SWAP1 DUP2 MSTORE PUSH1 0x40 DUP1 DUP4 KECCAK256 SWAP5 DUP7 AND DUP4 MSTORE SWAP4 DUP2 MSTORE SWAP3 DUP2 KECCAK256 DUP1 SLOAD PUSH1 0x1 DUP2 ADD DUP3 SSTORE SWAP1 DUP3 MSTORE SWAP3 SWAP1 KECCAK256 SWAP1 SWAP2 ADD DUP1 SLOAD PUSH1 0x1 PUSH1 0x1 PUSH1 0xA0 SHL SUB NOT AND SWAP2 SWAP1 SWAP3 AND OR SWAP1 SSTORE JUMP JUMPDEST PUSH0 DUP1 JUMPDEST PUSH1 0x1 PUSH1 0x1 PUSH1 0xA0 SHL SUB DUP4 AND PUSH0 SWAP1 DUP2 MSTORE PUSH1 0x4 PUSH1 0x20 MSTORE PUSH1 0x40 SWAP1 KECCAK256 SLOAD DUP2 LT ISZERO PUSH2 0xE52 JUMPI PUSH1 0x1 PUSH1 0x1 PUSH1 0xA0 SHL SUB DUP4 DUP2 AND PUSH0 SWAP1 DUP2 MSTORE PUSH1 0x4 PUSH1 0x20 MSTORE PUSH1 0x40 SWAP1 KECCAK256 DUP1 SLOAD SWAP2 DUP7 AND SWAP2 DUP4 SWAP1 DUP2 LT PUSH2 0xE28 JUMPI PUSH2 0xE28 PUSH2 0xFEB JUMP JUMPDEST PUSH0 SWAP2 DUP3 MSTORE PUSH1 0x20 SWAP1 SWAP2 KECCAK256 ADD SLOAD PUSH1 0x1 PUSH1 0x1 PUSH1 0xA0 SHL SUB AND SUB PUSH2 0xE4A JUMPI PUSH1 0x1 SWAP2 POP PUSH2 0xE52 JUMP JUMPDEST PUSH1 0x1 ADD PUSH2 0xDDB JUMP JUMPDEST POP DUP1 PUSH2 0x385 JUMPI POP PUSH1 0x1 PUSH1 0x1 PUSH1 0xA0 SHL SUB SWAP1 DUP2 AND PUSH0 SWAP1 DUP2 MSTORE PUSH1 0x4 PUSH1 0x20 SWAP1 DUP2 MSTORE PUSH1 0x40 DUP3 KECCAK256 DUP1 SLOAD PUSH1 0x1 DUP2 ADD DUP3 SSTORE SWAP1 DUP4 MSTORE SWAP2 KECCAK256 ADD DUP1 SLOAD PUSH1 0x1 PUSH1 0x1 PUSH1 0xA0 SHL SUB NOT AND SWAP3 SWAP1 SWAP2 AND SWAP2 SWAP1 SWAP2 OR SWAP1 SSTORE JUMP JUMPDEST DUP1 CALLDATALOAD PUSH1 0x1 PUSH1 0x1 PUSH1 0xA0 SHL SUB DUP2 AND DUP2 EQ PUSH2 0xEAF JUMPI PUSH0 DUP1 REVERT JUMPDEST SWAP2 SWAP1 POP JUMP JUMPDEST PUSH0 DUP1 PUSH1 0x40 DUP4 DUP6 SUB SLT ISZERO PUSH2 0xEC5 JUMPI PUSH0 DUP1 REVERT JUMPDEST PUSH2 0xECE DUP4 PUSH2 0xE99 JUMP JUMPDEST SWAP2 POP PUSH2 0xEDC PUSH1 0x20 DUP5 ADD PUSH2 0xE99 JUMP JUMPDEST SWAP1 POP SWAP3 POP SWAP3 SWAP1 POP JUMP JUMPDEST PUSH1 0x20 DUP1 DUP3 MSTORE DUP3 MLOAD DUP3 DUP3 ADD DUP2 SWAP1 MSTORE PUSH0 SWAP2 SWAP1 DUP5 DUP3 ADD SWAP1 PUSH1 0x40 DUP6 ADD SWAP1 DUP5 JUMPDEST DUP2 DUP2 LT ISZERO PUSH2 0xF25 JUMPI DUP4 MLOAD PUSH1 0x1 PUSH1 0x1 PUSH1 0xA0 SHL SUB AND DUP4 MSTORE SWAP3 DUP5 ADD SWAP3 SWAP2 DUP5 ADD SWAP2 PUSH1 0x1 ADD PUSH2 0xF00 JUMP JUMPDEST POP SWAP1 SWAP7 SWAP6 POP POP POP POP POP POP JUMP JUMPDEST PUSH0 PUSH1 0x20 DUP3 DUP5 SUB SLT ISZERO PUSH2 0xF41 JUMPI PUSH0 DUP1 REVERT JUMPDEST PUSH2 0xB1E DUP3 PUSH2 0xE99 JUMP JUMPDEST PUSH0 DUP1 PUSH0 PUSH1 0x60 DUP5 DUP7 SUB SLT ISZERO PUSH2 0xF5C JUMPI PUSH0 DUP1 REVERT JUMPDEST PUSH2 0xF65 DUP5 PUSH2 0xE99 JUMP JUMPDEST SWAP3 POP PUSH2 0xF73 PUSH1 0x20 DUP6 ADD PUSH2 0xE99 JUMP JUMPDEST SWAP2 POP PUSH2 0xF81 PUSH1 0x40 DUP6 ADD PUSH2 0xE99 JUMP JUMPDEST SWAP1 POP SWAP3 POP SWAP3 POP SWAP3 JUMP JUMPDEST PUSH0 DUP1 PUSH1 0x40 DUP4 DUP6 SUB SLT ISZERO PUSH2 0xF9B JUMPI PUSH0 DUP1 REVERT JUMPDEST PUSH2 0xFA4 DUP4 PUSH2 0xE99 JUMP JUMPDEST SWAP5 PUSH1 0x20 SWAP4 SWAP1 SWAP4 ADD CALLDATALOAD SWAP4 POP POP POP JUMP JUMPDEST PUSH0 DUP1 PUSH0 PUSH1 0x60 DUP5 DUP7 SUB SLT ISZERO PUSH2 0xFC4 JUMPI PUSH0 DUP1 REVERT JUMPDEST PUSH2 0xFCD DUP5 PUSH2 0xE99 JUMP JUMPDEST SWAP3 POP PUSH2 0xFDB PUSH1 0x20 DUP6 ADD PUSH2 0xE99 JUMP JUMPDEST SWAP2 POP PUSH1 0x40 DUP5 ADD CALLDATALOAD SWAP1 POP SWAP3 POP SWAP3 POP SWAP3 JUMP JUMPDEST PUSH4 0x4E487B71 PUSH1 0xE0 SHL PUSH0 MSTORE PUSH1 0x32 PUSH1 0x4 MSTORE PUSH1 0x24 PUSH0 REVERT JUMPDEST PUSH4 0x4E487B71 PUSH1 0xE0 SHL PUSH0 MSTORE PUSH1 0x11 PUSH1 0x4 MSTORE PUSH1 0x24 PUSH0 REVERT JUMPDEST DUP2 DUP2 SUB DUP2 DUP2 GT ISZERO PUSH2 0x242 JUMPI PUSH2 0x242 PUSH2 0xFFF JUMP JUMPDEST DUP1 DUP3 ADD DUP1 DUP3 GT ISZERO PUSH2 0x242 JUMPI PUSH2 0x242 PUSH2 0xFFF JUMP JUMPDEST PUSH4 0x4E487B71 PUSH1 0xE0 SHL PUSH0 MSTORE PUSH1 0x31 PUSH1 0x4 MSTORE PUSH1 0x24 PUSH0 REVERT JUMPDEST PUSH0 PUSH1 0x20 DUP3 DUP5 SUB SLT ISZERO PUSH2 0x105D JUMPI PUSH0 DUP1 REVERT JUMPDEST DUP2 MLOAD DUP1 ISZERO ISZERO DUP2 EQ PUSH2 0xB1E JUMPI PUSH0 DUP1 REVERT INVALID LOG2 PUSH5 0x6970667358 0x22 SLT KECCAK256 BYTE PUSH6 0x47892384278C 0xA6 0xAB 0xE4 0xE2 CALLDATASIZE 0xE 0xBC 0xAE PUSH18 0x6757F94D2BB0B2C5975217B16B70F64736F PUSH13 0x63430008190033000000000000 "
				},
				"gasEstimates": {
					"creation": {
						"codeDepositCost": "851600",
						"executionCost": "25122",
						"totalCost": "876722"
					},
					"external": {
						"creatorsForBeneficiary(address,uint256)": "4868",
						"getAllocatedTokensByUser(address)": "infinite",
						"getRecipientsByToken(address,address)": "infinite",
						"isRecipientOfToken(address,address,address)": "infinite",
						"isTokenAllocatedByUser(address,address)": "infinite",
						"owner()": "2357",
						"removeRecipientForToken(address,address,address)": "infinite",
						"setAllocation(address,address,uint256)": "infinite",
						"tokenAllocations(address,address,address)": "infinite",
						"withdrawTokenForBeneficiary(address,address,uint256)": "infinite"
					},
					"internal": {
						"_addCreatorForBeneficiary(address,address)": "infinite",
						"_addRecipientForToken(address,address,address)": "infinite",
						"_addTokenForUser(address,address)": "infinite"
					}
				},
				"methodIdentifiers": {
					"creatorsForBeneficiary(address,uint256)": "3112fcc6",
					"getAllocatedTokensByUser(address)": "0db36379",
					"getRecipientsByToken(address,address)": "0ac0be3f",
					"isRecipientOfToken(address,address,address)": "bd042d2e",
					"isTokenAllocatedByUser(address,address)": "0e6cc31f",
					"owner()": "8da5cb5b",
					"removeRecipientForToken(address,address,address)": "a2bdd08c",
					"setAllocation(address,address,uint256)": "5f15b1d9",
					"tokenAllocations(address,address,address)": "17a436ed",
					"withdrawTokenForBeneficiary(address,address,uint256)": "c3698da4"
				}
			},
			"storageLayout": {
				"storage": [
					{
						"astId": 82,
						"contract": "contracts/DecentraWill.sol:DecentraWill",
						"label": "owner",
						"offset": 0,
						"slot": "0",
						"type": "t_address"
					},
					{
						"astId": 148,
						"contract": "contracts/DecentraWill.sol:DecentraWill",
						"label": "tokenAllocations",
						"offset": 0,
						"slot": "1",
						"type": "t_mapping(t_address,t_mapping(t_address,t_mapping(t_address,t_uint256)))"
					},
					{
						"astId": 153,
						"contract": "contracts/DecentraWill.sol:DecentraWill",
						"label": "userAllocatedTokens",
						"offset": 0,
						"slot": "2",
						"type": "t_mapping(t_address,t_array(t_address)dyn_storage)"
					},
					{
						"astId": 160,
						"contract": "contracts/DecentraWill.sol:DecentraWill",
						"label": "tokenRecipients",
						"offset": 0,
						"slot": "3",
						"type": "t_mapping(t_address,t_mapping(t_address,t_array(t_address)dyn_storage))"
					},
					{
						"astId": 165,
						"contract": "contracts/DecentraWill.sol:DecentraWill",
						"label": "creatorsForBeneficiary",
						"offset": 0,
						"slot": "4",
						"type": "t_mapping(t_address,t_array(t_address)dyn_storage)"
					}
				],
				"types": {
					"t_address": {
						"encoding": "inplace",
						"label": "address",
						"numberOfBytes": "20"
					},
					"t_array(t_address)dyn_storage": {
						"base": "t_address",
						"encoding": "dynamic_array",
						"label": "address[]",
						"numberOfBytes": "32"
					},
					"t_mapping(t_address,t_array(t_address)dyn_storage)": {
						"encoding": "mapping",
						"key": "t_address",
						"label": "mapping(address => address[])",
						"numberOfBytes": "32",
						"value": "t_array(t_address)dyn_storage"
					},
					"t_mapping(t_address,t_mapping(t_address,t_array(t_address)dyn_storage))": {
						"encoding": "mapping",
						"key": "t_address",
						"label": "mapping(address => mapping(address => address[]))",
						"numberOfBytes": "32",
						"value": "t_mapping(t_address,t_array(t_address)dyn_storage)"
					},
					"t_mapping(t_address,t_mapping(t_address,t_mapping(t_address,t_uint256)))": {
						"encoding": "mapping",
						"key": "t_address",
						"label": "mapping(address => mapping(address => mapping(address => uint256)))",
						"numberOfBytes": "32",
						"value": "t_mapping(t_address,t_mapping(t_address,t_uint256))"
					},
					"t_mapping(t_address,t_mapping(t_address,t_uint256))": {
						"encoding": "mapping",
						"key": "t_address",
						"label": "mapping(address => mapping(address => uint256))",
						"numberOfBytes": "32",
						"value": "t_mapping(t_address,t_uint256)"
					},
					"t_mapping(t_address,t_uint256)": {
						"encoding": "mapping",
						"key": "t_address",
						"label": "mapping(address => uint256)",
						"numberOfBytes": "32",
						"value": "t_uint256"
					},
					"t_uint256": {
						"encoding": "inplace",
						"label": "uint256",
						"numberOfBytes": "32"
					}
				}
			},
			"userdoc": {
				"kind": "user",
				"methods": {},
				"version": 1
			}
		}
	}
}