{
	"contracts/DecentraWill.sol": {
		"DecentraWill": {
			"abi": [
				{
					"inputs": [],
					"stateMutability": "nonpayable",
					"type": "constructor"
				},
				{
					"inputs": [],
					"name": "DeadlineNotMet",
					"type": "error"
				},
				{
					"inputs": [],
					"name": "InvalidDeadline",
					"type": "error"
				},
				{
					"inputs": [],
					"name": "NoAllocationAvailable",
					"type": "error"
				},
				{
					"inputs": [],
					"name": "RecipientNotFound",
					"type": "error"
				},
				{
					"inputs": [],
					"name": "TransferFailed",
					"type": "error"
				},
				{
					"inputs": [],
					"name": "Unauthorized",
					"type": "error"
				},
				{
					"anonymous": false,
					"inputs": [
						{
							"indexed": true,
							"internalType": "address",
							"name": "user",
							"type": "address"
						},
						{
							"indexed": true,
							"internalType": "address",
							"name": "token",
							"type": "address"
						},
						{
							"indexed": true,
							"internalType": "address",
							"name": "recipient",
							"type": "address"
						},
						{
							"indexed": false,
							"internalType": "uint256",
							"name": "amount",
							"type": "uint256"
						}
					],
					"name": "AllocationSet",
					"type": "event"
				},
				{
					"anonymous": false,
					"inputs": [
						{
							"indexed": true,
							"internalType": "address",
							"name": "user",
							"type": "address"
						},
						{
							"indexed": true,
							"internalType": "address",
							"name": "token",
							"type": "address"
						},
						{
							"indexed": true,
							"internalType": "address",
							"name": "recipient",
							"type": "address"
						}
					],
					"name": "RecipientRemoved",
					"type": "event"
				},
				{
					"anonymous": false,
					"inputs": [
						{
							"indexed": true,
							"internalType": "address",
							"name": "creator",
							"type": "address"
						},
						{
							"indexed": true,
							"internalType": "address",
							"name": "token",
							"type": "address"
						},
						{
							"indexed": true,
							"internalType": "address",
							"name": "beneficiary",
							"type": "address"
						},
						{
							"indexed": false,
							"internalType": "uint256",
							"name": "amount",
							"type": "uint256"
						}
					],
					"name": "Withdrawal",
					"type": "event"
				},
				{
					"inputs": [
						{
							"internalType": "address",
							"name": "",
							"type": "address"
						}
					],
					"name": "creatorDeadlines",
					"outputs": [
						{
							"internalType": "uint256",
							"name": "",
							"type": "uint256"
						}
					],
					"stateMutability": "view",
					"type": "function"
				},
				{
					"inputs": [
						{
							"internalType": "address",
							"name": "",
							"type": "address"
						},
						{
							"internalType": "uint256",
							"name": "",
							"type": "uint256"
						}
					],
					"name": "creatorsForBeneficiary",
					"outputs": [
						{
							"internalType": "address",
							"name": "",
							"type": "address"
						}
					],
					"stateMutability": "view",
					"type": "function"
				},
				{
					"inputs": [
						{
							"internalType": "address",
							"name": "user",
							"type": "address"
						}
					],
					"name": "getAllocatedTokensByUser",
					"outputs": [
						{
							"internalType": "address[]",
							"name": "",
							"type": "address[]"
						}
					],
					"stateMutability": "view",
					"type": "function"
				},
				{
					"inputs": [
						{
							"internalType": "address",
							"name": "user",
							"type": "address"
						},
						{
							"internalType": "address",
							"name": "token",
							"type": "address"
						}
					],
					"name": "getRecipientsByToken",
					"outputs": [
						{
							"internalType": "address[]",
							"name": "",
							"type": "address[]"
						}
					],
					"stateMutability": "view",
					"type": "function"
				},
				{
					"inputs": [
						{
							"internalType": "address",
							"name": "user",
							"type": "address"
						},
						{
							"internalType": "address",
							"name": "token",
							"type": "address"
						},
						{
							"internalType": "address",
							"name": "recipient",
							"type": "address"
						}
					],
					"name": "isRecipientOfToken",
					"outputs": [
						{
							"internalType": "bool",
							"name": "",
							"type": "bool"
						}
					],
					"stateMutability": "view",
					"type": "function"
				},
				{
					"inputs": [
						{
							"internalType": "address",
							"name": "user",
							"type": "address"
						},
						{
							"internalType": "address",
							"name": "token",
							"type": "address"
						}
					],
					"name": "isTokenAllocatedByUser",
					"outputs": [
						{
							"internalType": "bool",
							"name": "",
							"type": "bool"
						}
					],
					"stateMutability": "view",
					"type": "function"
				},
				{
					"inputs": [],
					"name": "owner",
					"outputs": [
						{
							"internalType": "address",
							"name": "",
							"type": "address"
						}
					],
					"stateMutability": "view",
					"type": "function"
				},
				{
					"inputs": [
						{
							"internalType": "address",
							"name": "user",
							"type": "address"
						},
						{
							"internalType": "address",
							"name": "token",
							"type": "address"
						},
						{
							"internalType": "address",
							"name": "recipient",
							"type": "address"
						}
					],
					"name": "removeRecipientForToken",
					"outputs": [],
					"stateMutability": "nonpayable",
					"type": "function"
				},
				{
					"inputs": [
						{
							"internalType": "address",
							"name": "token",
							"type": "address"
						},
						{
							"internalType": "address",
							"name": "recipient",
							"type": "address"
						},
						{
							"internalType": "uint256",
							"name": "amount",
							"type": "uint256"
						}
					],
					"name": "setAllocation",
					"outputs": [],
					"stateMutability": "nonpayable",
					"type": "function"
				},
				{
					"inputs": [
						{
							"internalType": "uint256",
							"name": "newDeadline",
							"type": "uint256"
						}
					],
					"name": "setCreatorDeadline",
					"outputs": [],
					"stateMutability": "nonpayable",
					"type": "function"
				},
				{
					"inputs": [
						{
							"internalType": "address",
							"name": "",
							"type": "address"
						},
						{
							"internalType": "address",
							"name": "",
							"type": "address"
						},
						{
							"internalType": "address",
							"name": "",
							"type": "address"
						}
					],
					"name": "tokenAllocations",
					"outputs": [
						{
							"internalType": "uint256",
							"name": "",
							"type": "uint256"
						}
					],
					"stateMutability": "view",
					"type": "function"
				},
				{
					"inputs": [
						{
							"internalType": "address",
							"name": "creator",
							"type": "address"
						},
						{
							"internalType": "address",
							"name": "token",
							"type": "address"
						},
						{
							"internalType": "uint256",
							"name": "requestedAmount",
							"type": "uint256"
						}
					],
					"name": "withdrawTokenForBeneficiary",
					"outputs": [],
					"stateMutability": "nonpayable",
					"type": "function"
				}
			],
			"devdoc": {
				"kind": "dev",
				"methods": {},
				"version": 1
			},
			"evm": {
				"assembly": "    /* \"contracts/DecentraWill.sol\":119:10662  contract DecentraWill {... */\n  mstore(0x40, 0x80)\n    /* \"contracts/DecentraWill.sol\":1115:1166  constructor() {... */\n  callvalue\n  dup1\n  iszero\n  tag_1\n  jumpi\n  0x00\n  dup1\n  revert\ntag_1:\n  pop\n    /* \"contracts/DecentraWill.sol\":1148:1158  msg.sender */\n  caller\n    /* \"contracts/DecentraWill.sol\":1140:1145  owner */\n  0x00\n  dup1\n    /* \"contracts/DecentraWill.sol\":1140:1158  owner = msg.sender */\n  0x0100\n  exp\n  dup2\n  sload\n  dup2\n  0xffffffffffffffffffffffffffffffffffffffff\n  mul\n  not\n  and\n  swap1\n  dup4\n  0xffffffffffffffffffffffffffffffffffffffff\n  and\n  mul\n  or\n  swap1\n  sstore\n  pop\n    /* \"contracts/DecentraWill.sol\":119:10662  contract DecentraWill {... */\n  dataSize(sub_0)\n  dup1\n  dataOffset(sub_0)\n  0x00\n  codecopy\n  0x00\n  return\nstop\n\nsub_0: assembly {\n        /* \"contracts/DecentraWill.sol\":119:10662  contract DecentraWill {... */\n      mstore(0x40, 0x80)\n      callvalue\n      dup1\n      iszero\n      tag_1\n      jumpi\n      0x00\n      dup1\n      revert\n    tag_1:\n      pop\n      jumpi(tag_2, lt(calldatasize, 0x04))\n      shr(0xe0, calldataload(0x00))\n      dup1\n      0x6a066be8\n      gt\n      tag_15\n      jumpi\n      dup1\n      0x6a066be8\n      eq\n      tag_9\n      jumpi\n      dup1\n      0x8da5cb5b\n      eq\n      tag_10\n      jumpi\n      dup1\n      0xa2bdd08c\n      eq\n      tag_11\n      jumpi\n      dup1\n      0xb5eec1c8\n      eq\n      tag_12\n      jumpi\n      dup1\n      0xbd042d2e\n      eq\n      tag_13\n      jumpi\n      dup1\n      0xc3698da4\n      eq\n      tag_14\n      jumpi\n      jump(tag_2)\n    tag_15:\n      dup1\n      0x0ac0be3f\n      eq\n      tag_3\n      jumpi\n      dup1\n      0x0db36379\n      eq\n      tag_4\n      jumpi\n      dup1\n      0x0e6cc31f\n      eq\n      tag_5\n      jumpi\n      dup1\n      0x17a436ed\n      eq\n      tag_6\n      jumpi\n      dup1\n      0x3112fcc6\n      eq\n      tag_7\n      jumpi\n      dup1\n      0x5f15b1d9\n      eq\n      tag_8\n      jumpi\n    tag_2:\n      0x00\n      dup1\n      revert\n        /* \"contracts/DecentraWill.sol\":5720:5897  function getRecipientsByToken(... */\n    tag_3:\n      tag_16\n      0x04\n      dup1\n      calldatasize\n      sub\n      dup2\n      add\n      swap1\n      tag_17\n      swap2\n      swap1\n      tag_18\n      jump\t// in\n    tag_17:\n      tag_19\n      jump\t// in\n    tag_16:\n      mload(0x40)\n      tag_20\n      swap2\n      swap1\n      tag_21\n      jump\t// in\n    tag_20:\n      mload(0x40)\n      dup1\n      swap2\n      sub\n      swap1\n      return\n        /* \"contracts/DecentraWill.sol\":5471:5625  function getAllocatedTokensByUser(... */\n    tag_4:\n      tag_22\n      0x04\n      dup1\n      calldatasize\n      sub\n      dup2\n      add\n      swap1\n      tag_23\n      swap2\n      swap1\n      tag_24\n      jump\t// in\n    tag_23:\n      tag_25\n      jump\t// in\n    tag_22:\n      mload(0x40)\n      tag_26\n      swap2\n      swap1\n      tag_21\n      jump\t// in\n    tag_26:\n      mload(0x40)\n      dup1\n      swap2\n      sub\n      swap1\n      return\n        /* \"contracts/DecentraWill.sol\":2849:3178  function isTokenAllocatedByUser(... */\n    tag_5:\n      tag_27\n      0x04\n      dup1\n      calldatasize\n      sub\n      dup2\n      add\n      swap1\n      tag_28\n      swap2\n      swap1\n      tag_18\n      jump\t// in\n    tag_28:\n      tag_29\n      jump\t// in\n    tag_27:\n      mload(0x40)\n      tag_30\n      swap2\n      swap1\n      tag_31\n      jump\t// in\n    tag_30:\n      mload(0x40)\n      dup1\n      swap2\n      sub\n      swap1\n      return\n        /* \"contracts/DecentraWill.sol\":1449:1549  mapping(address => mapping(address => mapping(address => uint256)))... */\n    tag_6:\n      tag_32\n      0x04\n      dup1\n      calldatasize\n      sub\n      dup2\n      add\n      swap1\n      tag_33\n      swap2\n      swap1\n      tag_34\n      jump\t// in\n    tag_33:\n      tag_35\n      jump\t// in\n    tag_32:\n      mload(0x40)\n      tag_36\n      swap2\n      swap1\n      tag_37\n      jump\t// in\n    tag_36:\n      mload(0x40)\n      dup1\n      swap2\n      sub\n      swap1\n      return\n        /* \"contracts/DecentraWill.sol\":2085:2144  mapping(address => address[]) public creatorsForBeneficiary */\n    tag_7:\n      tag_38\n      0x04\n      dup1\n      calldatasize\n      sub\n      dup2\n      add\n      swap1\n      tag_39\n      swap2\n      swap1\n      tag_40\n      jump\t// in\n    tag_39:\n      tag_41\n      jump\t// in\n    tag_38:\n      mload(0x40)\n      tag_42\n      swap2\n      swap1\n      tag_43\n      jump\t// in\n    tag_42:\n      mload(0x40)\n      dup1\n      swap2\n      sub\n      swap1\n      return\n        /* \"contracts/DecentraWill.sol\":4317:5401  function setAllocation(... */\n    tag_8:\n      tag_44\n      0x04\n      dup1\n      calldatasize\n      sub\n      dup2\n      add\n      swap1\n      tag_45\n      swap2\n      swap1\n      tag_46\n      jump\t// in\n    tag_45:\n      tag_47\n      jump\t// in\n    tag_44:\n      stop\n        /* \"contracts/DecentraWill.sol\":10445:10659  function setCreatorDeadline(uint256 newDeadline) public {... */\n    tag_9:\n      tag_48\n      0x04\n      dup1\n      calldatasize\n      sub\n      dup2\n      add\n      swap1\n      tag_49\n      swap2\n      swap1\n      tag_50\n      jump\t// in\n    tag_49:\n      tag_51\n      jump\t// in\n    tag_48:\n      stop\n        /* \"contracts/DecentraWill.sol\":148:168  address public owner */\n    tag_10:\n      tag_52\n      tag_53\n      jump\t// in\n    tag_52:\n      mload(0x40)\n      tag_54\n      swap2\n      swap1\n      tag_43\n      jump\t// in\n    tag_54:\n      mload(0x40)\n      dup1\n      swap2\n      sub\n      swap1\n      return\n        /* \"contracts/DecentraWill.sol\":5990:8928  function removeRecipientForToken(... */\n    tag_11:\n      tag_55\n      0x04\n      dup1\n      calldatasize\n      sub\n      dup2\n      add\n      swap1\n      tag_56\n      swap2\n      swap1\n      tag_34\n      jump\t// in\n    tag_56:\n      tag_57\n      jump\t// in\n    tag_55:\n      stop\n        /* \"contracts/DecentraWill.sol\":1609:1660  mapping(address => uint256) public creatorDeadlines */\n    tag_12:\n      tag_58\n      0x04\n      dup1\n      calldatasize\n      sub\n      dup2\n      add\n      swap1\n      tag_59\n      swap2\n      swap1\n      tag_24\n      jump\t// in\n    tag_59:\n      tag_60\n      jump\t// in\n    tag_58:\n      mload(0x40)\n      tag_61\n      swap2\n      swap1\n      tag_37\n      jump\t// in\n    tag_61:\n      mload(0x40)\n      dup1\n      swap2\n      sub\n      swap1\n      return\n        /* \"contracts/DecentraWill.sol\":3268:3631  function isRecipientOfToken(... */\n    tag_13:\n      tag_62\n      0x04\n      dup1\n      calldatasize\n      sub\n      dup2\n      add\n      swap1\n      tag_63\n      swap2\n      swap1\n      tag_34\n      jump\t// in\n    tag_63:\n      tag_64\n      jump\t// in\n    tag_62:\n      mload(0x40)\n      tag_65\n      swap2\n      swap1\n      tag_31\n      jump\t// in\n    tag_65:\n      mload(0x40)\n      dup1\n      swap2\n      sub\n      swap1\n      return\n        /* \"contracts/DecentraWill.sol\":8936:10437  function withdrawTokenForBeneficiary(... */\n    tag_14:\n      tag_66\n      0x04\n      dup1\n      calldatasize\n      sub\n      dup2\n      add\n      swap1\n      tag_67\n      swap2\n      swap1\n      tag_46\n      jump\t// in\n    tag_67:\n      tag_68\n      jump\t// in\n    tag_66:\n      stop\n        /* \"contracts/DecentraWill.sol\":5720:5897  function getRecipientsByToken(... */\n    tag_19:\n        /* \"contracts/DecentraWill.sol\":5825:5841  address[] memory */\n      0x60\n        /* \"contracts/DecentraWill.sol\":5861:5876  tokenRecipients */\n      0x04\n        /* \"contracts/DecentraWill.sol\":5861:5882  tokenRecipients[user] */\n      0x00\n        /* \"contracts/DecentraWill.sol\":5877:5881  user */\n      dup5\n        /* \"contracts/DecentraWill.sol\":5861:5882  tokenRecipients[user] */\n      0xffffffffffffffffffffffffffffffffffffffff\n      and\n      0xffffffffffffffffffffffffffffffffffffffff\n      and\n      dup2\n      mstore\n      0x20\n      add\n      swap1\n      dup2\n      mstore\n      0x20\n      add\n      0x00\n      keccak256\n        /* \"contracts/DecentraWill.sol\":5861:5889  tokenRecipients[user][token] */\n      0x00\n        /* \"contracts/DecentraWill.sol\":5883:5888  token */\n      dup4\n        /* \"contracts/DecentraWill.sol\":5861:5889  tokenRecipients[user][token] */\n      0xffffffffffffffffffffffffffffffffffffffff\n      and\n      0xffffffffffffffffffffffffffffffffffffffff\n      and\n      dup2\n      mstore\n      0x20\n      add\n      swap1\n      dup2\n      mstore\n      0x20\n      add\n      0x00\n      keccak256\n        /* \"contracts/DecentraWill.sol\":5854:5889  return tokenRecipients[user][token] */\n      dup1\n      sload\n      dup1\n      0x20\n      mul\n      0x20\n      add\n      mload(0x40)\n      swap1\n      dup2\n      add\n      0x40\n      mstore\n      dup1\n      swap3\n      swap2\n      swap1\n      dup2\n      dup2\n      mstore\n      0x20\n      add\n      dup3\n      dup1\n      sload\n      dup1\n      iszero\n      tag_70\n      jumpi\n      0x20\n      mul\n      dup3\n      add\n      swap2\n      swap1\n      0x00\n      mstore\n      keccak256(0x00, 0x20)\n      swap1\n    tag_71:\n      dup2\n      0x00\n      swap1\n      sload\n      swap1\n      0x0100\n      exp\n      swap1\n      div\n      0xffffffffffffffffffffffffffffffffffffffff\n      and\n      0xffffffffffffffffffffffffffffffffffffffff\n      and\n      dup2\n      mstore\n      0x20\n      add\n      swap1\n      0x01\n      add\n      swap1\n      dup1\n      dup4\n      gt\n      tag_71\n      jumpi\n    tag_70:\n      pop\n      pop\n      pop\n      pop\n      pop\n      swap1\n      pop\n        /* \"contracts/DecentraWill.sol\":5720:5897  function getRecipientsByToken(... */\n      swap3\n      swap2\n      pop\n      pop\n      jump\t// out\n        /* \"contracts/DecentraWill.sol\":5471:5625  function getAllocatedTokensByUser(... */\n    tag_25:\n        /* \"contracts/DecentraWill.sol\":5556:5572  address[] memory */\n      0x60\n        /* \"contracts/DecentraWill.sol\":5592:5611  userAllocatedTokens */\n      0x03\n        /* \"contracts/DecentraWill.sol\":5592:5617  userAllocatedTokens[user] */\n      0x00\n        /* \"contracts/DecentraWill.sol\":5612:5616  user */\n      dup4\n        /* \"contracts/DecentraWill.sol\":5592:5617  userAllocatedTokens[user] */\n      0xffffffffffffffffffffffffffffffffffffffff\n      and\n      0xffffffffffffffffffffffffffffffffffffffff\n      and\n      dup2\n      mstore\n      0x20\n      add\n      swap1\n      dup2\n      mstore\n      0x20\n      add\n      0x00\n      keccak256\n        /* \"contracts/DecentraWill.sol\":5585:5617  return userAllocatedTokens[user] */\n      dup1\n      sload\n      dup1\n      0x20\n      mul\n      0x20\n      add\n      mload(0x40)\n      swap1\n      dup2\n      add\n      0x40\n      mstore\n      dup1\n      swap3\n      swap2\n      swap1\n      dup2\n      dup2\n      mstore\n      0x20\n      add\n      dup3\n      dup1\n      sload\n      dup1\n      iszero\n      tag_73\n      jumpi\n      0x20\n      mul\n      dup3\n      add\n      swap2\n      swap1\n      0x00\n      mstore\n      keccak256(0x00, 0x20)\n      swap1\n    tag_74:\n      dup2\n      0x00\n      swap1\n      sload\n      swap1\n      0x0100\n      exp\n      swap1\n      div\n      0xffffffffffffffffffffffffffffffffffffffff\n      and\n      0xffffffffffffffffffffffffffffffffffffffff\n      and\n      dup2\n      mstore\n      0x20\n      add\n      swap1\n      0x01\n      add\n      swap1\n      dup1\n      dup4\n      gt\n      tag_74\n      jumpi\n    tag_73:\n      pop\n      pop\n      pop\n      pop\n      pop\n      swap1\n      pop\n        /* \"contracts/DecentraWill.sol\":5471:5625  function getAllocatedTokensByUser(... */\n      swap2\n      swap1\n      pop\n      jump\t// out\n        /* \"contracts/DecentraWill.sol\":2849:3178  function isTokenAllocatedByUser(... */\n    tag_29:\n        /* \"contracts/DecentraWill.sol\":2956:2960  bool */\n      0x00\n        /* \"contracts/DecentraWill.sol\":2978:2984  uint i */\n      dup1\n        /* \"contracts/DecentraWill.sol\":2987:2988  0 */\n      0x00\n        /* \"contracts/DecentraWill.sol\":2978:2988  uint i = 0 */\n      swap1\n      pop\n        /* \"contracts/DecentraWill.sol\":2973:3148  for (uint i = 0; i < userAllocatedTokens[user].length; i++) {... */\n    tag_76:\n        /* \"contracts/DecentraWill.sol\":2994:3013  userAllocatedTokens */\n      0x03\n        /* \"contracts/DecentraWill.sol\":2994:3019  userAllocatedTokens[user] */\n      0x00\n        /* \"contracts/DecentraWill.sol\":3014:3018  user */\n      dup6\n        /* \"contracts/DecentraWill.sol\":2994:3019  userAllocatedTokens[user] */\n      0xffffffffffffffffffffffffffffffffffffffff\n      and\n      0xffffffffffffffffffffffffffffffffffffffff\n      and\n      dup2\n      mstore\n      0x20\n      add\n      swap1\n      dup2\n      mstore\n      0x20\n      add\n      0x00\n      keccak256\n        /* \"contracts/DecentraWill.sol\":2994:3026  userAllocatedTokens[user].length */\n      dup1\n      sload\n      swap1\n      pop\n        /* \"contracts/DecentraWill.sol\":2990:2991  i */\n      dup2\n        /* \"contracts/DecentraWill.sol\":2990:3026  i < userAllocatedTokens[user].length */\n      lt\n        /* \"contracts/DecentraWill.sol\":2973:3148  for (uint i = 0; i < userAllocatedTokens[user].length; i++) {... */\n      iszero\n      tag_77\n      jumpi\n        /* \"contracts/DecentraWill.sol\":3084:3089  token */\n      dup3\n        /* \"contracts/DecentraWill.sol\":3052:3089  userAllocatedTokens[user][i] == token */\n      0xffffffffffffffffffffffffffffffffffffffff\n      and\n        /* \"contracts/DecentraWill.sol\":3052:3071  userAllocatedTokens */\n      0x03\n        /* \"contracts/DecentraWill.sol\":3052:3077  userAllocatedTokens[user] */\n      0x00\n        /* \"contracts/DecentraWill.sol\":3072:3076  user */\n      dup7\n        /* \"contracts/DecentraWill.sol\":3052:3077  userAllocatedTokens[user] */\n      0xffffffffffffffffffffffffffffffffffffffff\n      and\n      0xffffffffffffffffffffffffffffffffffffffff\n      and\n      dup2\n      mstore\n      0x20\n      add\n      swap1\n      dup2\n      mstore\n      0x20\n      add\n      0x00\n      keccak256\n        /* \"contracts/DecentraWill.sol\":3078:3079  i */\n      dup3\n        /* \"contracts/DecentraWill.sol\":3052:3080  userAllocatedTokens[user][i] */\n      dup2\n      sload\n      dup2\n      lt\n      tag_79\n      jumpi\n      tag_80\n      tag_81\n      jump\t// in\n    tag_80:\n    tag_79:\n      swap1\n      0x00\n      mstore\n      keccak256(0x00, 0x20)\n      add\n      0x00\n      swap1\n      sload\n      swap1\n      0x0100\n      exp\n      swap1\n      div\n      0xffffffffffffffffffffffffffffffffffffffff\n      and\n        /* \"contracts/DecentraWill.sol\":3052:3089  userAllocatedTokens[user][i] == token */\n      0xffffffffffffffffffffffffffffffffffffffff\n      and\n      sub\n        /* \"contracts/DecentraWill.sol\":3048:3137  if (userAllocatedTokens[user][i] == token) {... */\n      tag_83\n      jumpi\n        /* \"contracts/DecentraWill.sol\":3117:3121  true */\n      0x01\n        /* \"contracts/DecentraWill.sol\":3110:3121  return true */\n      swap2\n      pop\n      pop\n      jump(tag_75)\n        /* \"contracts/DecentraWill.sol\":3048:3137  if (userAllocatedTokens[user][i] == token) {... */\n    tag_83:\n        /* \"contracts/DecentraWill.sol\":3028:3031  i++ */\n      dup1\n      dup1\n      0x01\n      add\n      swap2\n      pop\n      pop\n        /* \"contracts/DecentraWill.sol\":2973:3148  for (uint i = 0; i < userAllocatedTokens[user].length; i++) {... */\n      jump(tag_76)\n    tag_77:\n      pop\n        /* \"contracts/DecentraWill.sol\":3165:3170  false */\n      0x00\n        /* \"contracts/DecentraWill.sol\":3158:3170  return false */\n      swap1\n      pop\n        /* \"contracts/DecentraWill.sol\":2849:3178  function isTokenAllocatedByUser(... */\n    tag_75:\n      swap3\n      swap2\n      pop\n      pop\n      jump\t// out\n        /* \"contracts/DecentraWill.sol\":1449:1549  mapping(address => mapping(address => mapping(address => uint256)))... */\n    tag_35:\n      mstore(0x20, 0x01)\n      dup3\n      0x00\n      mstore\n      mstore(0x20, keccak256(0x00, 0x40))\n      dup2\n      0x00\n      mstore\n      mstore(0x20, keccak256(0x00, 0x40))\n      dup1\n      0x00\n      mstore\n      keccak256(0x00, 0x40)\n      0x00\n      swap3\n      pop\n      swap3\n      pop\n      pop\n      pop\n      sload\n      dup2\n      jump\t// out\n        /* \"contracts/DecentraWill.sol\":2085:2144  mapping(address => address[]) public creatorsForBeneficiary */\n    tag_41:\n      mstore(0x20, 0x05)\n      dup2\n      0x00\n      mstore\n      keccak256(0x00, 0x40)\n      dup2\n      dup2\n      sload\n      dup2\n      lt\n      tag_84\n      jumpi\n      0x00\n      dup1\n      revert\n    tag_84:\n      swap1\n      0x00\n      mstore\n      keccak256(0x00, 0x20)\n      add\n      0x00\n      swap2\n      pop\n      swap2\n      pop\n      swap1\n      sload\n      swap1\n      0x0100\n      exp\n      swap1\n      div\n      0xffffffffffffffffffffffffffffffffffffffff\n      and\n      dup2\n      jump\t// out\n        /* \"contracts/DecentraWill.sol\":4317:5401  function setAllocation(... */\n    tag_47:\n        /* \"contracts/DecentraWill.sol\":4456:4457  0 */\n      0x00\n        /* \"contracts/DecentraWill.sol\":4446:4452  amount */\n      dup2\n        /* \"contracts/DecentraWill.sol\":4446:4457  amount == 0 */\n      sub\n        /* \"contracts/DecentraWill.sol\":4442:5394  if (amount == 0) {... */\n      tag_87\n      jumpi\n        /* \"contracts/DecentraWill.sol\":4667:4720  removeRecipientForToken(msg.sender, token, recipient) */\n      tag_88\n        /* \"contracts/DecentraWill.sol\":4691:4701  msg.sender */\n      caller\n        /* \"contracts/DecentraWill.sol\":4703:4708  token */\n      dup5\n        /* \"contracts/DecentraWill.sol\":4710:4719  recipient */\n      dup5\n        /* \"contracts/DecentraWill.sol\":4667:4690  removeRecipientForToken */\n      tag_57\n        /* \"contracts/DecentraWill.sol\":4667:4720  removeRecipientForToken(msg.sender, token, recipient) */\n      jump\t// in\n    tag_88:\n        /* \"contracts/DecentraWill.sol\":4442:5394  if (amount == 0) {... */\n      jump(tag_89)\n    tag_87:\n        /* \"contracts/DecentraWill.sol\":4854:4860  amount */\n      dup1\n        /* \"contracts/DecentraWill.sol\":4805:4821  tokenAllocations */\n      0x01\n        /* \"contracts/DecentraWill.sol\":4805:4833  tokenAllocations[msg.sender] */\n      0x00\n        /* \"contracts/DecentraWill.sol\":4822:4832  msg.sender */\n      caller\n        /* \"contracts/DecentraWill.sol\":4805:4833  tokenAllocations[msg.sender] */\n      0xffffffffffffffffffffffffffffffffffffffff\n      and\n      0xffffffffffffffffffffffffffffffffffffffff\n      and\n      dup2\n      mstore\n      0x20\n      add\n      swap1\n      dup2\n      mstore\n      0x20\n      add\n      0x00\n      keccak256\n        /* \"contracts/DecentraWill.sol\":4805:4840  tokenAllocations[msg.sender][token] */\n      0x00\n        /* \"contracts/DecentraWill.sol\":4834:4839  token */\n      dup6\n        /* \"contracts/DecentraWill.sol\":4805:4840  tokenAllocations[msg.sender][token] */\n      0xffffffffffffffffffffffffffffffffffffffff\n      and\n      0xffffffffffffffffffffffffffffffffffffffff\n      and\n      dup2\n      mstore\n      0x20\n      add\n      swap1\n      dup2\n      mstore\n      0x20\n      add\n      0x00\n      keccak256\n        /* \"contracts/DecentraWill.sol\":4805:4851  tokenAllocations[msg.sender][token][recipient] */\n      0x00\n        /* \"contracts/DecentraWill.sol\":4841:4850  recipient */\n      dup5\n        /* \"contracts/DecentraWill.sol\":4805:4851  tokenAllocations[msg.sender][token][recipient] */\n      0xffffffffffffffffffffffffffffffffffffffff\n      and\n      0xffffffffffffffffffffffffffffffffffffffff\n      and\n      dup2\n      mstore\n      0x20\n      add\n      swap1\n      dup2\n      mstore\n      0x20\n      add\n      0x00\n      keccak256\n        /* \"contracts/DecentraWill.sol\":4805:4860  tokenAllocations[msg.sender][token][recipient] = amount */\n      dup2\n      swap1\n      sstore\n      pop\n        /* \"contracts/DecentraWill.sol\":4956:4991  _addTokenForUser(msg.sender, token) */\n      tag_90\n        /* \"contracts/DecentraWill.sol\":4973:4983  msg.sender */\n      caller\n        /* \"contracts/DecentraWill.sol\":4985:4990  token */\n      dup5\n        /* \"contracts/DecentraWill.sol\":4956:4972  _addTokenForUser */\n      tag_91\n        /* \"contracts/DecentraWill.sol\":4956:4991  _addTokenForUser(msg.sender, token) */\n      jump\t// in\n    tag_90:\n        /* \"contracts/DecentraWill.sol\":5087:5138  _addRecipientForToken(msg.sender, token, recipient) */\n      tag_92\n        /* \"contracts/DecentraWill.sol\":5109:5119  msg.sender */\n      caller\n        /* \"contracts/DecentraWill.sol\":5121:5126  token */\n      dup5\n        /* \"contracts/DecentraWill.sol\":5128:5137  recipient */\n      dup5\n        /* \"contracts/DecentraWill.sol\":5087:5108  _addRecipientForToken */\n      tag_93\n        /* \"contracts/DecentraWill.sol\":5087:5138  _addRecipientForToken(msg.sender, token, recipient) */\n      jump\t// in\n    tag_92:\n        /* \"contracts/DecentraWill.sol\":5226:5274  _addCreatorForBeneficiary(msg.sender, recipient) */\n      tag_94\n        /* \"contracts/DecentraWill.sol\":5252:5262  msg.sender */\n      caller\n        /* \"contracts/DecentraWill.sol\":5264:5273  recipient */\n      dup4\n        /* \"contracts/DecentraWill.sol\":5226:5251  _addCreatorForBeneficiary */\n      tag_95\n        /* \"contracts/DecentraWill.sol\":5226:5274  _addCreatorForBeneficiary(msg.sender, recipient) */\n      jump\t// in\n    tag_94:\n        /* \"contracts/DecentraWill.sol\":5327:5336  recipient */\n      dup2\n        /* \"contracts/DecentraWill.sol\":5294:5345  AllocationSet(msg.sender, token, recipient, amount) */\n      0xffffffffffffffffffffffffffffffffffffffff\n      and\n        /* \"contracts/DecentraWill.sol\":5320:5325  token */\n      dup4\n        /* \"contracts/DecentraWill.sol\":5294:5345  AllocationSet(msg.sender, token, recipient, amount) */\n      0xffffffffffffffffffffffffffffffffffffffff\n      and\n        /* \"contracts/DecentraWill.sol\":5308:5318  msg.sender */\n      caller\n        /* \"contracts/DecentraWill.sol\":5294:5345  AllocationSet(msg.sender, token, recipient, amount) */\n      0xffffffffffffffffffffffffffffffffffffffff\n      and\n      0x7ae337d22e62927a7215ad9c9a3a275863a9d305944d515360e7a2449dd85cce\n        /* \"contracts/DecentraWill.sol\":5338:5344  amount */\n      dup5\n        /* \"contracts/DecentraWill.sol\":5294:5345  AllocationSet(msg.sender, token, recipient, amount) */\n      mload(0x40)\n      tag_96\n      swap2\n      swap1\n      tag_37\n      jump\t// in\n    tag_96:\n      mload(0x40)\n      dup1\n      swap2\n      sub\n      swap1\n      log4\n        /* \"contracts/DecentraWill.sol\":4442:5394  if (amount == 0) {... */\n    tag_89:\n        /* \"contracts/DecentraWill.sol\":4317:5401  function setAllocation(... */\n      pop\n      pop\n      pop\n      jump\t// out\n        /* \"contracts/DecentraWill.sol\":10445:10659  function setCreatorDeadline(uint256 newDeadline) public {... */\n    tag_51:\n        /* \"contracts/DecentraWill.sol\":10531:10546  block.timestamp */\n      timestamp\n        /* \"contracts/DecentraWill.sol\":10516:10527  newDeadline */\n      dup2\n        /* \"contracts/DecentraWill.sol\":10516:10546  newDeadline <= block.timestamp */\n      gt\n        /* \"contracts/DecentraWill.sol\":10512:10599  if (newDeadline <= block.timestamp) {... */\n      tag_98\n      jumpi\n        /* \"contracts/DecentraWill.sol\":10570:10587  InvalidDeadline() */\n      mload(0x40)\n      0x769d11e400000000000000000000000000000000000000000000000000000000\n      dup2\n      mstore\n      0x04\n      add\n      mload(0x40)\n      dup1\n      swap2\n      sub\n      swap1\n      revert\n        /* \"contracts/DecentraWill.sol\":10512:10599  if (newDeadline <= block.timestamp) {... */\n    tag_98:\n        /* \"contracts/DecentraWill.sol\":10640:10651  newDeadline */\n      dup1\n        /* \"contracts/DecentraWill.sol\":10609:10625  creatorDeadlines */\n      0x02\n        /* \"contracts/DecentraWill.sol\":10609:10637  creatorDeadlines[msg.sender] */\n      0x00\n        /* \"contracts/DecentraWill.sol\":10626:10636  msg.sender */\n      caller\n        /* \"contracts/DecentraWill.sol\":10609:10637  creatorDeadlines[msg.sender] */\n      0xffffffffffffffffffffffffffffffffffffffff\n      and\n      0xffffffffffffffffffffffffffffffffffffffff\n      and\n      dup2\n      mstore\n      0x20\n      add\n      swap1\n      dup2\n      mstore\n      0x20\n      add\n      0x00\n      keccak256\n        /* \"contracts/DecentraWill.sol\":10609:10651  creatorDeadlines[msg.sender] = newDeadline */\n      dup2\n      swap1\n      sstore\n      pop\n        /* \"contracts/DecentraWill.sol\":10445:10659  function setCreatorDeadline(uint256 newDeadline) public {... */\n      pop\n      jump\t// out\n        /* \"contracts/DecentraWill.sol\":148:168  address public owner */\n    tag_53:\n      0x00\n      dup1\n      sload\n      swap1\n      0x0100\n      exp\n      swap1\n      div\n      0xffffffffffffffffffffffffffffffffffffffff\n      and\n      dup2\n      jump\t// out\n        /* \"contracts/DecentraWill.sol\":5990:8928  function removeRecipientForToken(... */\n    tag_57:\n        /* \"contracts/DecentraWill.sol\":6128:6170  isRecipientOfToken(user, token, recipient) */\n      tag_100\n        /* \"contracts/DecentraWill.sol\":6147:6151  user */\n      dup4\n        /* \"contracts/DecentraWill.sol\":6153:6158  token */\n      dup4\n        /* \"contracts/DecentraWill.sol\":6160:6169  recipient */\n      dup4\n        /* \"contracts/DecentraWill.sol\":6128:6146  isRecipientOfToken */\n      tag_64\n        /* \"contracts/DecentraWill.sol\":6128:6170  isRecipientOfToken(user, token, recipient) */\n      jump\t// in\n    tag_100:\n        /* \"contracts/DecentraWill.sol\":6123:6225  if (!isRecipientOfToken(user, token, recipient)) {... */\n      tag_101\n      jumpi\n        /* \"contracts/DecentraWill.sol\":6194:6213  RecipientNotFound() */\n      mload(0x40)\n      0x66a21ffb00000000000000000000000000000000000000000000000000000000\n      dup2\n      mstore\n      0x04\n      add\n      mload(0x40)\n      dup1\n      swap2\n      sub\n      swap1\n      revert\n        /* \"contracts/DecentraWill.sol\":6123:6225  if (!isRecipientOfToken(user, token, recipient)) {... */\n    tag_101:\n        /* \"contracts/DecentraWill.sol\":6304:6317  uint256 index */\n      0x00\n        /* \"contracts/DecentraWill.sol\":6328:6518  for (index = 0; index < tokenRecipients[user][token].length; index++) {... */\n    tag_102:\n        /* \"contracts/DecentraWill.sol\":6352:6367  tokenRecipients */\n      0x04\n        /* \"contracts/DecentraWill.sol\":6352:6373  tokenRecipients[user] */\n      0x00\n        /* \"contracts/DecentraWill.sol\":6368:6372  user */\n      dup6\n        /* \"contracts/DecentraWill.sol\":6352:6373  tokenRecipients[user] */\n      0xffffffffffffffffffffffffffffffffffffffff\n      and\n      0xffffffffffffffffffffffffffffffffffffffff\n      and\n      dup2\n      mstore\n      0x20\n      add\n      swap1\n      dup2\n      mstore\n      0x20\n      add\n      0x00\n      keccak256\n        /* \"contracts/DecentraWill.sol\":6352:6380  tokenRecipients[user][token] */\n      0x00\n        /* \"contracts/DecentraWill.sol\":6374:6379  token */\n      dup5\n        /* \"contracts/DecentraWill.sol\":6352:6380  tokenRecipients[user][token] */\n      0xffffffffffffffffffffffffffffffffffffffff\n      and\n      0xffffffffffffffffffffffffffffffffffffffff\n      and\n      dup2\n      mstore\n      0x20\n      add\n      swap1\n      dup2\n      mstore\n      0x20\n      add\n      0x00\n      keccak256\n        /* \"contracts/DecentraWill.sol\":6352:6387  tokenRecipients[user][token].length */\n      dup1\n      sload\n      swap1\n      pop\n        /* \"contracts/DecentraWill.sol\":6344:6349  index */\n      dup2\n        /* \"contracts/DecentraWill.sol\":6344:6387  index < tokenRecipients[user][token].length */\n      lt\n        /* \"contracts/DecentraWill.sol\":6328:6518  for (index = 0; index < tokenRecipients[user][token].length; index++) {... */\n      iszero\n      tag_103\n      jumpi\n        /* \"contracts/DecentraWill.sol\":6456:6465  recipient */\n      dup2\n        /* \"contracts/DecentraWill.sol\":6417:6465  tokenRecipients[user][token][index] == recipient */\n      0xffffffffffffffffffffffffffffffffffffffff\n      and\n        /* \"contracts/DecentraWill.sol\":6417:6432  tokenRecipients */\n      0x04\n        /* \"contracts/DecentraWill.sol\":6417:6438  tokenRecipients[user] */\n      0x00\n        /* \"contracts/DecentraWill.sol\":6433:6437  user */\n      dup7\n        /* \"contracts/DecentraWill.sol\":6417:6438  tokenRecipients[user] */\n      0xffffffffffffffffffffffffffffffffffffffff\n      and\n      0xffffffffffffffffffffffffffffffffffffffff\n      and\n      dup2\n      mstore\n      0x20\n      add\n      swap1\n      dup2\n      mstore\n      0x20\n      add\n      0x00\n      keccak256\n        /* \"contracts/DecentraWill.sol\":6417:6445  tokenRecipients[user][token] */\n      0x00\n        /* \"contracts/DecentraWill.sol\":6439:6444  token */\n      dup6\n        /* \"contracts/DecentraWill.sol\":6417:6445  tokenRecipients[user][token] */\n      0xffffffffffffffffffffffffffffffffffffffff\n      and\n      0xffffffffffffffffffffffffffffffffffffffff\n      and\n      dup2\n      mstore\n      0x20\n      add\n      swap1\n      dup2\n      mstore\n      0x20\n      add\n      0x00\n      keccak256\n        /* \"contracts/DecentraWill.sol\":6446:6451  index */\n      dup3\n        /* \"contracts/DecentraWill.sol\":6417:6452  tokenRecipients[user][token][index] */\n      dup2\n      sload\n      dup2\n      lt\n      tag_105\n      jumpi\n      tag_106\n      tag_81\n      jump\t// in\n    tag_106:\n    tag_105:\n      swap1\n      0x00\n      mstore\n      keccak256(0x00, 0x20)\n      add\n      0x00\n      swap1\n      sload\n      swap1\n      0x0100\n      exp\n      swap1\n      div\n      0xffffffffffffffffffffffffffffffffffffffff\n      and\n        /* \"contracts/DecentraWill.sol\":6417:6465  tokenRecipients[user][token][index] == recipient */\n      0xffffffffffffffffffffffffffffffffffffffff\n      and\n      sub\n        /* \"contracts/DecentraWill.sol\":6413:6507  if (tokenRecipients[user][token][index] == recipient) {... */\n      iszero\n        /* \"contracts/DecentraWill.sol\":6486:6491  break */\n      tag_103\n        /* \"contracts/DecentraWill.sol\":6413:6507  if (tokenRecipients[user][token][index] == recipient) {... */\n      jumpi\n        /* \"contracts/DecentraWill.sol\":6389:6396  index++ */\n      dup1\n      dup1\n      0x01\n      add\n      swap2\n      pop\n      pop\n        /* \"contracts/DecentraWill.sol\":6328:6518  for (index = 0; index < tokenRecipients[user][token].length; index++) {... */\n      jump(tag_102)\n    tag_103:\n        /* \"contracts/DecentraWill.sol\":6547:6556  uint256 i */\n      0x00\n        /* \"contracts/DecentraWill.sol\":6559:6564  index */\n      dup2\n        /* \"contracts/DecentraWill.sol\":6547:6564  uint256 i = index */\n      swap1\n      pop\n        /* \"contracts/DecentraWill.sol\":6528:6780  for (... */\n    tag_109:\n        /* \"contracts/DecentraWill.sol\":6621:6622  1 */\n      0x01\n        /* \"contracts/DecentraWill.sol\":6583:6598  tokenRecipients */\n      0x04\n        /* \"contracts/DecentraWill.sol\":6583:6604  tokenRecipients[user] */\n      0x00\n        /* \"contracts/DecentraWill.sol\":6599:6603  user */\n      dup8\n        /* \"contracts/DecentraWill.sol\":6583:6604  tokenRecipients[user] */\n      0xffffffffffffffffffffffffffffffffffffffff\n      and\n      0xffffffffffffffffffffffffffffffffffffffff\n      and\n      dup2\n      mstore\n      0x20\n      add\n      swap1\n      dup2\n      mstore\n      0x20\n      add\n      0x00\n      keccak256\n        /* \"contracts/DecentraWill.sol\":6583:6611  tokenRecipients[user][token] */\n      0x00\n        /* \"contracts/DecentraWill.sol\":6605:6610  token */\n      dup7\n        /* \"contracts/DecentraWill.sol\":6583:6611  tokenRecipients[user][token] */\n      0xffffffffffffffffffffffffffffffffffffffff\n      and\n      0xffffffffffffffffffffffffffffffffffffffff\n      and\n      dup2\n      mstore\n      0x20\n      add\n      swap1\n      dup2\n      mstore\n      0x20\n      add\n      0x00\n      keccak256\n        /* \"contracts/DecentraWill.sol\":6583:6618  tokenRecipients[user][token].length */\n      dup1\n      sload\n      swap1\n      pop\n        /* \"contracts/DecentraWill.sol\":6583:6622  tokenRecipients[user][token].length - 1 */\n      tag_112\n      swap2\n      swap1\n      tag_113\n      jump\t// in\n    tag_112:\n        /* \"contracts/DecentraWill.sol\":6579:6580  i */\n      dup2\n        /* \"contracts/DecentraWill.sol\":6579:6622  i < tokenRecipients[user][token].length - 1 */\n      lt\n        /* \"contracts/DecentraWill.sol\":6528:6780  for (... */\n      iszero\n      tag_110\n      jumpi\n        /* \"contracts/DecentraWill.sol\":6701:6716  tokenRecipients */\n      0x04\n        /* \"contracts/DecentraWill.sol\":6701:6722  tokenRecipients[user] */\n      0x00\n        /* \"contracts/DecentraWill.sol\":6717:6721  user */\n      dup7\n        /* \"contracts/DecentraWill.sol\":6701:6722  tokenRecipients[user] */\n      0xffffffffffffffffffffffffffffffffffffffff\n      and\n      0xffffffffffffffffffffffffffffffffffffffff\n      and\n      dup2\n      mstore\n      0x20\n      add\n      swap1\n      dup2\n      mstore\n      0x20\n      add\n      0x00\n      keccak256\n        /* \"contracts/DecentraWill.sol\":6701:6729  tokenRecipients[user][token] */\n      0x00\n        /* \"contracts/DecentraWill.sol\":6723:6728  token */\n      dup6\n        /* \"contracts/DecentraWill.sol\":6701:6729  tokenRecipients[user][token] */\n      0xffffffffffffffffffffffffffffffffffffffff\n      and\n      0xffffffffffffffffffffffffffffffffffffffff\n      and\n      dup2\n      mstore\n      0x20\n      add\n      swap1\n      dup2\n      mstore\n      0x20\n      add\n      0x00\n      keccak256\n        /* \"contracts/DecentraWill.sol\":6752:6753  1 */\n      0x01\n        /* \"contracts/DecentraWill.sol\":6748:6749  i */\n      dup3\n        /* \"contracts/DecentraWill.sol\":6748:6753  i + 1 */\n      tag_114\n      swap2\n      swap1\n      tag_115\n      jump\t// in\n    tag_114:\n        /* \"contracts/DecentraWill.sol\":6701:6768  tokenRecipients[user][token][... */\n      dup2\n      sload\n      dup2\n      lt\n      tag_116\n      jumpi\n      tag_117\n      tag_81\n      jump\t// in\n    tag_117:\n    tag_116:\n      swap1\n      0x00\n      mstore\n      keccak256(0x00, 0x20)\n      add\n      0x00\n      swap1\n      sload\n      swap1\n      0x0100\n      exp\n      swap1\n      div\n      0xffffffffffffffffffffffffffffffffffffffff\n      and\n        /* \"contracts/DecentraWill.sol\":6667:6682  tokenRecipients */\n      0x04\n        /* \"contracts/DecentraWill.sol\":6667:6688  tokenRecipients[user] */\n      0x00\n        /* \"contracts/DecentraWill.sol\":6683:6687  user */\n      dup8\n        /* \"contracts/DecentraWill.sol\":6667:6688  tokenRecipients[user] */\n      0xffffffffffffffffffffffffffffffffffffffff\n      and\n      0xffffffffffffffffffffffffffffffffffffffff\n      and\n      dup2\n      mstore\n      0x20\n      add\n      swap1\n      dup2\n      mstore\n      0x20\n      add\n      0x00\n      keccak256\n        /* \"contracts/DecentraWill.sol\":6667:6695  tokenRecipients[user][token] */\n      0x00\n        /* \"contracts/DecentraWill.sol\":6689:6694  token */\n      dup7\n        /* \"contracts/DecentraWill.sol\":6667:6695  tokenRecipients[user][token] */\n      0xffffffffffffffffffffffffffffffffffffffff\n      and\n      0xffffffffffffffffffffffffffffffffffffffff\n      and\n      dup2\n      mstore\n      0x20\n      add\n      swap1\n      dup2\n      mstore\n      0x20\n      add\n      0x00\n      keccak256\n        /* \"contracts/DecentraWill.sol\":6696:6697  i */\n      dup3\n        /* \"contracts/DecentraWill.sol\":6667:6698  tokenRecipients[user][token][i] */\n      dup2\n      sload\n      dup2\n      lt\n      tag_119\n      jumpi\n      tag_120\n      tag_81\n      jump\t// in\n    tag_120:\n    tag_119:\n      swap1\n      0x00\n      mstore\n      keccak256(0x00, 0x20)\n      add\n      0x00\n        /* \"contracts/DecentraWill.sol\":6667:6768  tokenRecipients[user][token][i] = tokenRecipients[user][token][... */\n      0x0100\n      exp\n      dup2\n      sload\n      dup2\n      0xffffffffffffffffffffffffffffffffffffffff\n      mul\n      not\n      and\n      swap1\n      dup4\n      0xffffffffffffffffffffffffffffffffffffffff\n      and\n      mul\n      or\n      swap1\n      sstore\n      pop\n        /* \"contracts/DecentraWill.sol\":6637:6640  i++ */\n      dup1\n      dup1\n      0x01\n      add\n      swap2\n      pop\n      pop\n        /* \"contracts/DecentraWill.sol\":6528:6780  for (... */\n      jump(tag_109)\n    tag_110:\n      pop\n        /* \"contracts/DecentraWill.sol\":6790:6805  tokenRecipients */\n      0x04\n        /* \"contracts/DecentraWill.sol\":6790:6811  tokenRecipients[user] */\n      0x00\n        /* \"contracts/DecentraWill.sol\":6806:6810  user */\n      dup6\n        /* \"contracts/DecentraWill.sol\":6790:6811  tokenRecipients[user] */\n      0xffffffffffffffffffffffffffffffffffffffff\n      and\n      0xffffffffffffffffffffffffffffffffffffffff\n      and\n      dup2\n      mstore\n      0x20\n      add\n      swap1\n      dup2\n      mstore\n      0x20\n      add\n      0x00\n      keccak256\n        /* \"contracts/DecentraWill.sol\":6790:6818  tokenRecipients[user][token] */\n      0x00\n        /* \"contracts/DecentraWill.sol\":6812:6817  token */\n      dup5\n        /* \"contracts/DecentraWill.sol\":6790:6818  tokenRecipients[user][token] */\n      0xffffffffffffffffffffffffffffffffffffffff\n      and\n      0xffffffffffffffffffffffffffffffffffffffff\n      and\n      dup2\n      mstore\n      0x20\n      add\n      swap1\n      dup2\n      mstore\n      0x20\n      add\n      0x00\n      keccak256\n        /* \"contracts/DecentraWill.sol\":6790:6824  tokenRecipients[user][token].pop() */\n      dup1\n      sload\n      dup1\n      tag_122\n      jumpi\n      tag_123\n      tag_124\n      jump\t// in\n    tag_123:\n    tag_122:\n      0x01\n      swap1\n      sub\n      dup2\n      dup2\n      swap1\n      0x00\n      mstore\n      keccak256(0x00, 0x20)\n      add\n      exp(0x0100, 0x00)\n      dup2\n      sload\n      swap1\n      0xffffffffffffffffffffffffffffffffffffffff\n      mul\n      not\n      and\n      swap1\n      sstore\n      swap1\n      sstore\n        /* \"contracts/DecentraWill.sol\":6902:6918  tokenAllocations */\n      0x01\n        /* \"contracts/DecentraWill.sol\":6902:6924  tokenAllocations[user] */\n      0x00\n        /* \"contracts/DecentraWill.sol\":6919:6923  user */\n      dup6\n        /* \"contracts/DecentraWill.sol\":6902:6924  tokenAllocations[user] */\n      0xffffffffffffffffffffffffffffffffffffffff\n      and\n      0xffffffffffffffffffffffffffffffffffffffff\n      and\n      dup2\n      mstore\n      0x20\n      add\n      swap1\n      dup2\n      mstore\n      0x20\n      add\n      0x00\n      keccak256\n        /* \"contracts/DecentraWill.sol\":6902:6931  tokenAllocations[user][token] */\n      0x00\n        /* \"contracts/DecentraWill.sol\":6925:6930  token */\n      dup5\n        /* \"contracts/DecentraWill.sol\":6902:6931  tokenAllocations[user][token] */\n      0xffffffffffffffffffffffffffffffffffffffff\n      and\n      0xffffffffffffffffffffffffffffffffffffffff\n      and\n      dup2\n      mstore\n      0x20\n      add\n      swap1\n      dup2\n      mstore\n      0x20\n      add\n      0x00\n      keccak256\n        /* \"contracts/DecentraWill.sol\":6902:6942  tokenAllocations[user][token][recipient] */\n      0x00\n        /* \"contracts/DecentraWill.sol\":6932:6941  recipient */\n      dup4\n        /* \"contracts/DecentraWill.sol\":6902:6942  tokenAllocations[user][token][recipient] */\n      0xffffffffffffffffffffffffffffffffffffffff\n      and\n      0xffffffffffffffffffffffffffffffffffffffff\n      and\n      dup2\n      mstore\n      0x20\n      add\n      swap1\n      dup2\n      mstore\n      0x20\n      add\n      0x00\n      keccak256\n        /* \"contracts/DecentraWill.sol\":6895:6942  delete tokenAllocations[user][token][recipient] */\n      0x00\n      swap1\n      sstore\n        /* \"contracts/DecentraWill.sol\":7063:7064  0 */\n      0x00\n        /* \"contracts/DecentraWill.sol\":7024:7039  tokenRecipients */\n      0x04\n        /* \"contracts/DecentraWill.sol\":7024:7045  tokenRecipients[user] */\n      0x00\n        /* \"contracts/DecentraWill.sol\":7040:7044  user */\n      dup7\n        /* \"contracts/DecentraWill.sol\":7024:7045  tokenRecipients[user] */\n      0xffffffffffffffffffffffffffffffffffffffff\n      and\n      0xffffffffffffffffffffffffffffffffffffffff\n      and\n      dup2\n      mstore\n      0x20\n      add\n      swap1\n      dup2\n      mstore\n      0x20\n      add\n      0x00\n      keccak256\n        /* \"contracts/DecentraWill.sol\":7024:7052  tokenRecipients[user][token] */\n      0x00\n        /* \"contracts/DecentraWill.sol\":7046:7051  token */\n      dup6\n        /* \"contracts/DecentraWill.sol\":7024:7052  tokenRecipients[user][token] */\n      0xffffffffffffffffffffffffffffffffffffffff\n      and\n      0xffffffffffffffffffffffffffffffffffffffff\n      and\n      dup2\n      mstore\n      0x20\n      add\n      swap1\n      dup2\n      mstore\n      0x20\n      add\n      0x00\n      keccak256\n        /* \"contracts/DecentraWill.sol\":7024:7059  tokenRecipients[user][token].length */\n      dup1\n      sload\n      swap1\n      pop\n        /* \"contracts/DecentraWill.sol\":7024:7064  tokenRecipients[user][token].length == 0 */\n      sub\n        /* \"contracts/DecentraWill.sol\":7020:7796  if (tokenRecipients[user][token].length == 0) {... */\n      tag_126\n      jumpi\n        /* \"contracts/DecentraWill.sol\":7187:7188  0 */\n      0x00\n        /* \"contracts/DecentraWill.sol\":7179:7188  index = 0 */\n      swap1\n      pop\n        /* \"contracts/DecentraWill.sol\":7174:7785  for (index = 0; index < userAllocatedTokens[user].length; index++) {... */\n    tag_127:\n        /* \"contracts/DecentraWill.sol\":7198:7217  userAllocatedTokens */\n      0x03\n        /* \"contracts/DecentraWill.sol\":7198:7223  userAllocatedTokens[user] */\n      0x00\n        /* \"contracts/DecentraWill.sol\":7218:7222  user */\n      dup6\n        /* \"contracts/DecentraWill.sol\":7198:7223  userAllocatedTokens[user] */\n      0xffffffffffffffffffffffffffffffffffffffff\n      and\n      0xffffffffffffffffffffffffffffffffffffffff\n      and\n      dup2\n      mstore\n      0x20\n      add\n      swap1\n      dup2\n      mstore\n      0x20\n      add\n      0x00\n      keccak256\n        /* \"contracts/DecentraWill.sol\":7198:7230  userAllocatedTokens[user].length */\n      dup1\n      sload\n      swap1\n      pop\n        /* \"contracts/DecentraWill.sol\":7190:7195  index */\n      dup2\n        /* \"contracts/DecentraWill.sol\":7190:7230  index < userAllocatedTokens[user].length */\n      lt\n        /* \"contracts/DecentraWill.sol\":7174:7785  for (index = 0; index < userAllocatedTokens[user].length; index++) {... */\n      iszero\n      tag_128\n      jumpi\n        /* \"contracts/DecentraWill.sol\":7300:7305  token */\n      dup3\n        /* \"contracts/DecentraWill.sol\":7264:7305  userAllocatedTokens[user][index] == token */\n      0xffffffffffffffffffffffffffffffffffffffff\n      and\n        /* \"contracts/DecentraWill.sol\":7264:7283  userAllocatedTokens */\n      0x03\n        /* \"contracts/DecentraWill.sol\":7264:7289  userAllocatedTokens[user] */\n      0x00\n        /* \"contracts/DecentraWill.sol\":7284:7288  user */\n      dup7\n        /* \"contracts/DecentraWill.sol\":7264:7289  userAllocatedTokens[user] */\n      0xffffffffffffffffffffffffffffffffffffffff\n      and\n      0xffffffffffffffffffffffffffffffffffffffff\n      and\n      dup2\n      mstore\n      0x20\n      add\n      swap1\n      dup2\n      mstore\n      0x20\n      add\n      0x00\n      keccak256\n        /* \"contracts/DecentraWill.sol\":7290:7295  index */\n      dup3\n        /* \"contracts/DecentraWill.sol\":7264:7296  userAllocatedTokens[user][index] */\n      dup2\n      sload\n      dup2\n      lt\n      tag_130\n      jumpi\n      tag_131\n      tag_81\n      jump\t// in\n    tag_131:\n    tag_130:\n      swap1\n      0x00\n      mstore\n      keccak256(0x00, 0x20)\n      add\n      0x00\n      swap1\n      sload\n      swap1\n      0x0100\n      exp\n      swap1\n      div\n      0xffffffffffffffffffffffffffffffffffffffff\n      and\n        /* \"contracts/DecentraWill.sol\":7264:7305  userAllocatedTokens[user][index] == token */\n      0xffffffffffffffffffffffffffffffffffffffff\n      and\n      sub\n        /* \"contracts/DecentraWill.sol\":7260:7770  if (userAllocatedTokens[user][index] == token) {... */\n      tag_133\n      jumpi\n        /* \"contracts/DecentraWill.sol\":7361:7370  uint256 i */\n      0x00\n        /* \"contracts/DecentraWill.sol\":7373:7378  index */\n      dup2\n        /* \"contracts/DecentraWill.sol\":7361:7378  uint256 i = index */\n      swap1\n      pop\n        /* \"contracts/DecentraWill.sol\":7330:7669  for (... */\n    tag_134:\n        /* \"contracts/DecentraWill.sol\":7444:7445  1 */\n      0x01\n        /* \"contracts/DecentraWill.sol\":7409:7428  userAllocatedTokens */\n      0x03\n        /* \"contracts/DecentraWill.sol\":7409:7434  userAllocatedTokens[user] */\n      0x00\n        /* \"contracts/DecentraWill.sol\":7429:7433  user */\n      dup8\n        /* \"contracts/DecentraWill.sol\":7409:7434  userAllocatedTokens[user] */\n      0xffffffffffffffffffffffffffffffffffffffff\n      and\n      0xffffffffffffffffffffffffffffffffffffffff\n      and\n      dup2\n      mstore\n      0x20\n      add\n      swap1\n      dup2\n      mstore\n      0x20\n      add\n      0x00\n      keccak256\n        /* \"contracts/DecentraWill.sol\":7409:7441  userAllocatedTokens[user].length */\n      dup1\n      sload\n      swap1\n      pop\n        /* \"contracts/DecentraWill.sol\":7409:7445  userAllocatedTokens[user].length - 1 */\n      tag_137\n      swap2\n      swap1\n      tag_113\n      jump\t// in\n    tag_137:\n        /* \"contracts/DecentraWill.sol\":7405:7406  i */\n      dup2\n        /* \"contracts/DecentraWill.sol\":7405:7445  i < userAllocatedTokens[user].length - 1 */\n      lt\n        /* \"contracts/DecentraWill.sol\":7330:7669  for (... */\n      iszero\n      tag_135\n      jumpi\n        /* \"contracts/DecentraWill.sol\":7557:7576  userAllocatedTokens */\n      0x03\n        /* \"contracts/DecentraWill.sol\":7557:7638  userAllocatedTokens[... */\n      0x00\n        /* \"contracts/DecentraWill.sol\":7607:7611  user */\n      dup7\n        /* \"contracts/DecentraWill.sol\":7557:7638  userAllocatedTokens[... */\n      0xffffffffffffffffffffffffffffffffffffffff\n      and\n      0xffffffffffffffffffffffffffffffffffffffff\n      and\n      dup2\n      mstore\n      0x20\n      add\n      swap1\n      dup2\n      mstore\n      0x20\n      add\n      0x00\n      keccak256\n        /* \"contracts/DecentraWill.sol\":7643:7644  1 */\n      0x01\n        /* \"contracts/DecentraWill.sol\":7639:7640  i */\n      dup3\n        /* \"contracts/DecentraWill.sol\":7639:7644  i + 1 */\n      tag_138\n      swap2\n      swap1\n      tag_115\n      jump\t// in\n    tag_138:\n        /* \"contracts/DecentraWill.sol\":7557:7645  userAllocatedTokens[... */\n      dup2\n      sload\n      dup2\n      lt\n      tag_139\n      jumpi\n      tag_140\n      tag_81\n      jump\t// in\n    tag_140:\n    tag_139:\n      swap1\n      0x00\n      mstore\n      keccak256(0x00, 0x20)\n      add\n      0x00\n      swap1\n      sload\n      swap1\n      0x0100\n      exp\n      swap1\n      div\n      0xffffffffffffffffffffffffffffffffffffffff\n      and\n        /* \"contracts/DecentraWill.sol\":7526:7545  userAllocatedTokens */\n      0x03\n        /* \"contracts/DecentraWill.sol\":7526:7551  userAllocatedTokens[user] */\n      0x00\n        /* \"contracts/DecentraWill.sol\":7546:7550  user */\n      dup8\n        /* \"contracts/DecentraWill.sol\":7526:7551  userAllocatedTokens[user] */\n      0xffffffffffffffffffffffffffffffffffffffff\n      and\n      0xffffffffffffffffffffffffffffffffffffffff\n      and\n      dup2\n      mstore\n      0x20\n      add\n      swap1\n      dup2\n      mstore\n      0x20\n      add\n      0x00\n      keccak256\n        /* \"contracts/DecentraWill.sol\":7552:7553  i */\n      dup3\n        /* \"contracts/DecentraWill.sol\":7526:7554  userAllocatedTokens[user][i] */\n      dup2\n      sload\n      dup2\n      lt\n      tag_142\n      jumpi\n      tag_143\n      tag_81\n      jump\t// in\n    tag_143:\n    tag_142:\n      swap1\n      0x00\n      mstore\n      keccak256(0x00, 0x20)\n      add\n      0x00\n        /* \"contracts/DecentraWill.sol\":7526:7645  userAllocatedTokens[user][i] = userAllocatedTokens[... */\n      0x0100\n      exp\n      dup2\n      sload\n      dup2\n      0xffffffffffffffffffffffffffffffffffffffff\n      mul\n      not\n      and\n      swap1\n      dup4\n      0xffffffffffffffffffffffffffffffffffffffff\n      and\n      mul\n      or\n      swap1\n      sstore\n      pop\n        /* \"contracts/DecentraWill.sol\":7472:7475  i++ */\n      dup1\n      dup1\n      0x01\n      add\n      swap2\n      pop\n      pop\n        /* \"contracts/DecentraWill.sol\":7330:7669  for (... */\n      jump(tag_134)\n    tag_135:\n      pop\n        /* \"contracts/DecentraWill.sol\":7691:7710  userAllocatedTokens */\n      0x03\n        /* \"contracts/DecentraWill.sol\":7691:7716  userAllocatedTokens[user] */\n      0x00\n        /* \"contracts/DecentraWill.sol\":7711:7715  user */\n      dup6\n        /* \"contracts/DecentraWill.sol\":7691:7716  userAllocatedTokens[user] */\n      0xffffffffffffffffffffffffffffffffffffffff\n      and\n      0xffffffffffffffffffffffffffffffffffffffff\n      and\n      dup2\n      mstore\n      0x20\n      add\n      swap1\n      dup2\n      mstore\n      0x20\n      add\n      0x00\n      keccak256\n        /* \"contracts/DecentraWill.sol\":7691:7722  userAllocatedTokens[user].pop() */\n      dup1\n      sload\n      dup1\n      tag_145\n      jumpi\n      tag_146\n      tag_124\n      jump\t// in\n    tag_146:\n    tag_145:\n      0x01\n      swap1\n      sub\n      dup2\n      dup2\n      swap1\n      0x00\n      mstore\n      keccak256(0x00, 0x20)\n      add\n      exp(0x0100, 0x00)\n      dup2\n      sload\n      swap1\n      0xffffffffffffffffffffffffffffffffffffffff\n      mul\n      not\n      and\n      swap1\n      sstore\n      swap1\n      sstore\n        /* \"contracts/DecentraWill.sol\":7745:7750  break */\n      jump(tag_128)\n        /* \"contracts/DecentraWill.sol\":7260:7770  if (userAllocatedTokens[user][index] == token) {... */\n    tag_133:\n        /* \"contracts/DecentraWill.sol\":7232:7239  index++ */\n      dup1\n      dup1\n      0x01\n      add\n      swap2\n      pop\n      pop\n        /* \"contracts/DecentraWill.sol\":7174:7785  for (index = 0; index < userAllocatedTokens[user].length; index++) {... */\n      jump(tag_127)\n    tag_128:\n        /* \"contracts/DecentraWill.sol\":7020:7796  if (tokenRecipients[user][token].length == 0) {... */\n    tag_126:\n        /* \"contracts/DecentraWill.sol\":7884:7908  bool hasOtherAllocations */\n      0x00\n        /* \"contracts/DecentraWill.sol\":7927:7959  address[] memory allocatedTokens */\n      dup1\n        /* \"contracts/DecentraWill.sol\":7962:7981  userAllocatedTokens */\n      0x03\n        /* \"contracts/DecentraWill.sol\":7962:7987  userAllocatedTokens[user] */\n      0x00\n        /* \"contracts/DecentraWill.sol\":7982:7986  user */\n      dup8\n        /* \"contracts/DecentraWill.sol\":7962:7987  userAllocatedTokens[user] */\n      0xffffffffffffffffffffffffffffffffffffffff\n      and\n      0xffffffffffffffffffffffffffffffffffffffff\n      and\n      dup2\n      mstore\n      0x20\n      add\n      swap1\n      dup2\n      mstore\n      0x20\n      add\n      0x00\n      keccak256\n        /* \"contracts/DecentraWill.sol\":7927:7987  address[] memory allocatedTokens = userAllocatedTokens[user] */\n      dup1\n      sload\n      dup1\n      0x20\n      mul\n      0x20\n      add\n      mload(0x40)\n      swap1\n      dup2\n      add\n      0x40\n      mstore\n      dup1\n      swap3\n      swap2\n      swap1\n      dup2\n      dup2\n      mstore\n      0x20\n      add\n      dup3\n      dup1\n      sload\n      dup1\n      iszero\n      tag_148\n      jumpi\n      0x20\n      mul\n      dup3\n      add\n      swap2\n      swap1\n      0x00\n      mstore\n      keccak256(0x00, 0x20)\n      swap1\n    tag_149:\n      dup2\n      0x00\n      swap1\n      sload\n      swap1\n      0x0100\n      exp\n      swap1\n      div\n      0xffffffffffffffffffffffffffffffffffffffff\n      and\n      0xffffffffffffffffffffffffffffffffffffffff\n      and\n      dup2\n      mstore\n      0x20\n      add\n      swap1\n      0x01\n      add\n      swap1\n      dup1\n      dup4\n      gt\n      tag_149\n      jumpi\n    tag_148:\n      pop\n      pop\n      pop\n      pop\n      pop\n      swap1\n      pop\n        /* \"contracts/DecentraWill.sol\":8003:8009  uint i */\n      0x00\n        /* \"contracts/DecentraWill.sol\":7998:8222  for (uint i = 0; i < allocatedTokens.length; i++) {... */\n    tag_150:\n        /* \"contracts/DecentraWill.sol\":8019:8034  allocatedTokens */\n      dup2\n        /* \"contracts/DecentraWill.sol\":8019:8041  allocatedTokens.length */\n      mload\n        /* \"contracts/DecentraWill.sol\":8015:8016  i */\n      dup2\n        /* \"contracts/DecentraWill.sol\":8015:8041  i < allocatedTokens.length */\n      lt\n        /* \"contracts/DecentraWill.sol\":7998:8222  for (uint i = 0; i < allocatedTokens.length; i++) {... */\n      iszero\n      tag_151\n      jumpi\n        /* \"contracts/DecentraWill.sol\":8123:8124  0 */\n      0x00\n        /* \"contracts/DecentraWill.sol\":8067:8083  tokenAllocations */\n      0x01\n        /* \"contracts/DecentraWill.sol\":8067:8089  tokenAllocations[user] */\n      0x00\n        /* \"contracts/DecentraWill.sol\":8084:8088  user */\n      dup10\n        /* \"contracts/DecentraWill.sol\":8067:8089  tokenAllocations[user] */\n      0xffffffffffffffffffffffffffffffffffffffff\n      and\n      0xffffffffffffffffffffffffffffffffffffffff\n      and\n      dup2\n      mstore\n      0x20\n      add\n      swap1\n      dup2\n      mstore\n      0x20\n      add\n      0x00\n      keccak256\n        /* \"contracts/DecentraWill.sol\":8067:8109  tokenAllocations[user][allocatedTokens[i]] */\n      0x00\n        /* \"contracts/DecentraWill.sol\":8090:8105  allocatedTokens */\n      dup5\n        /* \"contracts/DecentraWill.sol\":8106:8107  i */\n      dup5\n        /* \"contracts/DecentraWill.sol\":8090:8108  allocatedTokens[i] */\n      dup2\n      mload\n      dup2\n      lt\n      tag_153\n      jumpi\n      tag_154\n      tag_81\n      jump\t// in\n    tag_154:\n    tag_153:\n      0x20\n      mul\n      0x20\n      add\n      add\n      mload\n        /* \"contracts/DecentraWill.sol\":8067:8109  tokenAllocations[user][allocatedTokens[i]] */\n      0xffffffffffffffffffffffffffffffffffffffff\n      and\n      0xffffffffffffffffffffffffffffffffffffffff\n      and\n      dup2\n      mstore\n      0x20\n      add\n      swap1\n      dup2\n      mstore\n      0x20\n      add\n      0x00\n      keccak256\n        /* \"contracts/DecentraWill.sol\":8067:8120  tokenAllocations[user][allocatedTokens[i]][recipient] */\n      0x00\n        /* \"contracts/DecentraWill.sol\":8110:8119  recipient */\n      dup8\n        /* \"contracts/DecentraWill.sol\":8067:8120  tokenAllocations[user][allocatedTokens[i]][recipient] */\n      0xffffffffffffffffffffffffffffffffffffffff\n      and\n      0xffffffffffffffffffffffffffffffffffffffff\n      and\n      dup2\n      mstore\n      0x20\n      add\n      swap1\n      dup2\n      mstore\n      0x20\n      add\n      0x00\n      keccak256\n      sload\n        /* \"contracts/DecentraWill.sol\":8067:8124  tokenAllocations[user][allocatedTokens[i]][recipient] > 0 */\n      gt\n        /* \"contracts/DecentraWill.sol\":8063:8211  if (tokenAllocations[user][allocatedTokens[i]][recipient] > 0) {... */\n      iszero\n      tag_155\n      jumpi\n        /* \"contracts/DecentraWill.sol\":8167:8171  true */\n      0x01\n        /* \"contracts/DecentraWill.sol\":8145:8171  hasOtherAllocations = true */\n      swap3\n      pop\n        /* \"contracts/DecentraWill.sol\":8190:8195  break */\n      jump(tag_151)\n        /* \"contracts/DecentraWill.sol\":8063:8211  if (tokenAllocations[user][allocatedTokens[i]][recipient] > 0) {... */\n    tag_155:\n        /* \"contracts/DecentraWill.sol\":8043:8046  i++ */\n      dup1\n      dup1\n      0x01\n      add\n      swap2\n      pop\n      pop\n        /* \"contracts/DecentraWill.sol\":7998:8222  for (uint i = 0; i < allocatedTokens.length; i++) {... */\n      jump(tag_150)\n    tag_151:\n      pop\n        /* \"contracts/DecentraWill.sol\":8333:8352  hasOtherAllocations */\n      dup2\n        /* \"contracts/DecentraWill.sol\":8328:8821  if (!hasOtherAllocations) {... */\n      tag_156\n      jumpi\n        /* \"contracts/DecentraWill.sol\":8369:8399  address[] storage creatorsList */\n      0x00\n        /* \"contracts/DecentraWill.sol\":8402:8424  creatorsForBeneficiary */\n      0x05\n        /* \"contracts/DecentraWill.sol\":8402:8435  creatorsForBeneficiary[recipient] */\n      0x00\n        /* \"contracts/DecentraWill.sol\":8425:8434  recipient */\n      dup7\n        /* \"contracts/DecentraWill.sol\":8402:8435  creatorsForBeneficiary[recipient] */\n      0xffffffffffffffffffffffffffffffffffffffff\n      and\n      0xffffffffffffffffffffffffffffffffffffffff\n      and\n      dup2\n      mstore\n      0x20\n      add\n      swap1\n      dup2\n      mstore\n      0x20\n      add\n      0x00\n      keccak256\n        /* \"contracts/DecentraWill.sol\":8369:8435  address[] storage creatorsList = creatorsForBeneficiary[recipient] */\n      swap1\n      pop\n        /* \"contracts/DecentraWill.sol\":8455:8461  uint i */\n      0x00\n        /* \"contracts/DecentraWill.sol\":8450:8810  for (uint i = 0; i < creatorsList.length; i++) {... */\n    tag_157:\n        /* \"contracts/DecentraWill.sol\":8471:8483  creatorsList */\n      dup2\n        /* \"contracts/DecentraWill.sol\":8471:8490  creatorsList.length */\n      dup1\n      sload\n      swap1\n      pop\n        /* \"contracts/DecentraWill.sol\":8467:8468  i */\n      dup2\n        /* \"contracts/DecentraWill.sol\":8467:8490  i < creatorsList.length */\n      lt\n        /* \"contracts/DecentraWill.sol\":8450:8810  for (uint i = 0; i < creatorsList.length; i++) {... */\n      iszero\n      tag_158\n      jumpi\n        /* \"contracts/DecentraWill.sol\":8539:8543  user */\n      dup8\n        /* \"contracts/DecentraWill.sol\":8520:8543  creatorsList[i] == user */\n      0xffffffffffffffffffffffffffffffffffffffff\n      and\n        /* \"contracts/DecentraWill.sol\":8520:8532  creatorsList */\n      dup3\n        /* \"contracts/DecentraWill.sol\":8533:8534  i */\n      dup3\n        /* \"contracts/DecentraWill.sol\":8520:8535  creatorsList[i] */\n      dup2\n      sload\n      dup2\n      lt\n      tag_160\n      jumpi\n      tag_161\n      tag_81\n      jump\t// in\n    tag_161:\n    tag_160:\n      swap1\n      0x00\n      mstore\n      keccak256(0x00, 0x20)\n      add\n      0x00\n      swap1\n      sload\n      swap1\n      0x0100\n      exp\n      swap1\n      div\n      0xffffffffffffffffffffffffffffffffffffffff\n      and\n        /* \"contracts/DecentraWill.sol\":8520:8543  creatorsList[i] == user */\n      0xffffffffffffffffffffffffffffffffffffffff\n      and\n      sub\n        /* \"contracts/DecentraWill.sol\":8516:8795  if (creatorsList[i] == user) {... */\n      tag_163\n      jumpi\n        /* \"contracts/DecentraWill.sol\":8573:8579  uint j */\n      0x00\n        /* \"contracts/DecentraWill.sol\":8582:8583  i */\n      dup2\n        /* \"contracts/DecentraWill.sol\":8573:8583  uint j = i */\n      swap1\n      pop\n        /* \"contracts/DecentraWill.sol\":8568:8707  for (uint j = i; j < creatorsList.length - 1; j++) {... */\n    tag_164:\n        /* \"contracts/DecentraWill.sol\":8611:8612  1 */\n      0x01\n        /* \"contracts/DecentraWill.sol\":8589:8601  creatorsList */\n      dup4\n        /* \"contracts/DecentraWill.sol\":8589:8608  creatorsList.length */\n      dup1\n      sload\n      swap1\n      pop\n        /* \"contracts/DecentraWill.sol\":8589:8612  creatorsList.length - 1 */\n      tag_167\n      swap2\n      swap1\n      tag_113\n      jump\t// in\n    tag_167:\n        /* \"contracts/DecentraWill.sol\":8585:8586  j */\n      dup2\n        /* \"contracts/DecentraWill.sol\":8585:8612  j < creatorsList.length - 1 */\n      lt\n        /* \"contracts/DecentraWill.sol\":8568:8707  for (uint j = i; j < creatorsList.length - 1; j++) {... */\n      iszero\n      tag_165\n      jumpi\n        /* \"contracts/DecentraWill.sol\":8664:8676  creatorsList */\n      dup3\n        /* \"contracts/DecentraWill.sol\":8681:8682  1 */\n      0x01\n        /* \"contracts/DecentraWill.sol\":8677:8678  j */\n      dup3\n        /* \"contracts/DecentraWill.sol\":8677:8682  j + 1 */\n      tag_168\n      swap2\n      swap1\n      tag_115\n      jump\t// in\n    tag_168:\n        /* \"contracts/DecentraWill.sol\":8664:8683  creatorsList[j + 1] */\n      dup2\n      sload\n      dup2\n      lt\n      tag_169\n      jumpi\n      tag_170\n      tag_81\n      jump\t// in\n    tag_170:\n    tag_169:\n      swap1\n      0x00\n      mstore\n      keccak256(0x00, 0x20)\n      add\n      0x00\n      swap1\n      sload\n      swap1\n      0x0100\n      exp\n      swap1\n      div\n      0xffffffffffffffffffffffffffffffffffffffff\n      and\n        /* \"contracts/DecentraWill.sol\":8646:8658  creatorsList */\n      dup4\n        /* \"contracts/DecentraWill.sol\":8659:8660  j */\n      dup3\n        /* \"contracts/DecentraWill.sol\":8646:8661  creatorsList[j] */\n      dup2\n      sload\n      dup2\n      lt\n      tag_172\n      jumpi\n      tag_173\n      tag_81\n      jump\t// in\n    tag_173:\n    tag_172:\n      swap1\n      0x00\n      mstore\n      keccak256(0x00, 0x20)\n      add\n      0x00\n        /* \"contracts/DecentraWill.sol\":8646:8683  creatorsList[j] = creatorsList[j + 1] */\n      0x0100\n      exp\n      dup2\n      sload\n      dup2\n      0xffffffffffffffffffffffffffffffffffffffff\n      mul\n      not\n      and\n      swap1\n      dup4\n      0xffffffffffffffffffffffffffffffffffffffff\n      and\n      mul\n      or\n      swap1\n      sstore\n      pop\n        /* \"contracts/DecentraWill.sol\":8614:8617  j++ */\n      dup1\n      dup1\n      0x01\n      add\n      swap2\n      pop\n      pop\n        /* \"contracts/DecentraWill.sol\":8568:8707  for (uint j = i; j < creatorsList.length - 1; j++) {... */\n      jump(tag_164)\n    tag_165:\n      pop\n        /* \"contracts/DecentraWill.sol\":8729:8741  creatorsList */\n      dup2\n        /* \"contracts/DecentraWill.sol\":8729:8747  creatorsList.pop() */\n      dup1\n      sload\n      dup1\n      tag_175\n      jumpi\n      tag_176\n      tag_124\n      jump\t// in\n    tag_176:\n    tag_175:\n      0x01\n      swap1\n      sub\n      dup2\n      dup2\n      swap1\n      0x00\n      mstore\n      keccak256(0x00, 0x20)\n      add\n      exp(0x0100, 0x00)\n      dup2\n      sload\n      swap1\n      0xffffffffffffffffffffffffffffffffffffffff\n      mul\n      not\n      and\n      swap1\n      sstore\n      swap1\n      sstore\n        /* \"contracts/DecentraWill.sol\":8770:8775  break */\n      jump(tag_158)\n        /* \"contracts/DecentraWill.sol\":8516:8795  if (creatorsList[i] == user) {... */\n    tag_163:\n        /* \"contracts/DecentraWill.sol\":8492:8495  i++ */\n      dup1\n      dup1\n      0x01\n      add\n      swap2\n      pop\n      pop\n        /* \"contracts/DecentraWill.sol\":8450:8810  for (uint i = 0; i < creatorsList.length; i++) {... */\n      jump(tag_157)\n    tag_158:\n      pop\n        /* \"contracts/DecentraWill.sol\":8354:8821  {... */\n      pop\n        /* \"contracts/DecentraWill.sol\":8328:8821  if (!hasOtherAllocations) {... */\n    tag_156:\n        /* \"contracts/DecentraWill.sol\":8868:8877  recipient */\n      dup4\n        /* \"contracts/DecentraWill.sol\":8838:8878  RecipientRemoved(user, token, recipient) */\n      0xffffffffffffffffffffffffffffffffffffffff\n      and\n        /* \"contracts/DecentraWill.sol\":8861:8866  token */\n      dup6\n        /* \"contracts/DecentraWill.sol\":8838:8878  RecipientRemoved(user, token, recipient) */\n      0xffffffffffffffffffffffffffffffffffffffff\n      and\n        /* \"contracts/DecentraWill.sol\":8855:8859  user */\n      dup8\n        /* \"contracts/DecentraWill.sol\":8838:8878  RecipientRemoved(user, token, recipient) */\n      0xffffffffffffffffffffffffffffffffffffffff\n      and\n      0x8feee98c784e5546d0536039c928d5196ff80e1e67ab22fce85625ab401ce37e\n      mload(0x40)\n      mload(0x40)\n      dup1\n      swap2\n      sub\n      swap1\n      log4\n        /* \"contracts/DecentraWill.sol\":6112:8928  {... */\n      pop\n      pop\n      pop\n        /* \"contracts/DecentraWill.sol\":5990:8928  function removeRecipientForToken(... */\n      pop\n      pop\n      pop\n      jump\t// out\n        /* \"contracts/DecentraWill.sol\":1609:1660  mapping(address => uint256) public creatorDeadlines */\n    tag_60:\n      mstore(0x20, 0x02)\n      dup1\n      0x00\n      mstore\n      keccak256(0x00, 0x40)\n      0x00\n      swap2\n      pop\n      swap1\n      pop\n      sload\n      dup2\n      jump\t// out\n        /* \"contracts/DecentraWill.sol\":3268:3631  function isRecipientOfToken(... */\n    tag_64:\n        /* \"contracts/DecentraWill.sol\":3399:3403  bool */\n      0x00\n        /* \"contracts/DecentraWill.sol\":3421:3427  uint i */\n      dup1\n        /* \"contracts/DecentraWill.sol\":3430:3431  0 */\n      0x00\n        /* \"contracts/DecentraWill.sol\":3421:3431  uint i = 0 */\n      swap1\n      pop\n        /* \"contracts/DecentraWill.sol\":3416:3601  for (uint i = 0; i < tokenRecipients[user][token].length; i++) {... */\n    tag_179:\n        /* \"contracts/DecentraWill.sol\":3437:3452  tokenRecipients */\n      0x04\n        /* \"contracts/DecentraWill.sol\":3437:3458  tokenRecipients[user] */\n      0x00\n        /* \"contracts/DecentraWill.sol\":3453:3457  user */\n      dup7\n        /* \"contracts/DecentraWill.sol\":3437:3458  tokenRecipients[user] */\n      0xffffffffffffffffffffffffffffffffffffffff\n      and\n      0xffffffffffffffffffffffffffffffffffffffff\n      and\n      dup2\n      mstore\n      0x20\n      add\n      swap1\n      dup2\n      mstore\n      0x20\n      add\n      0x00\n      keccak256\n        /* \"contracts/DecentraWill.sol\":3437:3465  tokenRecipients[user][token] */\n      0x00\n        /* \"contracts/DecentraWill.sol\":3459:3464  token */\n      dup6\n        /* \"contracts/DecentraWill.sol\":3437:3465  tokenRecipients[user][token] */\n      0xffffffffffffffffffffffffffffffffffffffff\n      and\n      0xffffffffffffffffffffffffffffffffffffffff\n      and\n      dup2\n      mstore\n      0x20\n      add\n      swap1\n      dup2\n      mstore\n      0x20\n      add\n      0x00\n      keccak256\n        /* \"contracts/DecentraWill.sol\":3437:3472  tokenRecipients[user][token].length */\n      dup1\n      sload\n      swap1\n      pop\n        /* \"contracts/DecentraWill.sol\":3433:3434  i */\n      dup2\n        /* \"contracts/DecentraWill.sol\":3433:3472  i < tokenRecipients[user][token].length */\n      lt\n        /* \"contracts/DecentraWill.sol\":3416:3601  for (uint i = 0; i < tokenRecipients[user][token].length; i++) {... */\n      iszero\n      tag_180\n      jumpi\n        /* \"contracts/DecentraWill.sol\":3533:3542  recipient */\n      dup3\n        /* \"contracts/DecentraWill.sol\":3498:3542  tokenRecipients[user][token][i] == recipient */\n      0xffffffffffffffffffffffffffffffffffffffff\n      and\n        /* \"contracts/DecentraWill.sol\":3498:3513  tokenRecipients */\n      0x04\n        /* \"contracts/DecentraWill.sol\":3498:3519  tokenRecipients[user] */\n      0x00\n        /* \"contracts/DecentraWill.sol\":3514:3518  user */\n      dup8\n        /* \"contracts/DecentraWill.sol\":3498:3519  tokenRecipients[user] */\n      0xffffffffffffffffffffffffffffffffffffffff\n      and\n      0xffffffffffffffffffffffffffffffffffffffff\n      and\n      dup2\n      mstore\n      0x20\n      add\n      swap1\n      dup2\n      mstore\n      0x20\n      add\n      0x00\n      keccak256\n        /* \"contracts/DecentraWill.sol\":3498:3526  tokenRecipients[user][token] */\n      0x00\n        /* \"contracts/DecentraWill.sol\":3520:3525  token */\n      dup7\n        /* \"contracts/DecentraWill.sol\":3498:3526  tokenRecipients[user][token] */\n      0xffffffffffffffffffffffffffffffffffffffff\n      and\n      0xffffffffffffffffffffffffffffffffffffffff\n      and\n      dup2\n      mstore\n      0x20\n      add\n      swap1\n      dup2\n      mstore\n      0x20\n      add\n      0x00\n      keccak256\n        /* \"contracts/DecentraWill.sol\":3527:3528  i */\n      dup3\n        /* \"contracts/DecentraWill.sol\":3498:3529  tokenRecipients[user][token][i] */\n      dup2\n      sload\n      dup2\n      lt\n      tag_182\n      jumpi\n      tag_183\n      tag_81\n      jump\t// in\n    tag_183:\n    tag_182:\n      swap1\n      0x00\n      mstore\n      keccak256(0x00, 0x20)\n      add\n      0x00\n      swap1\n      sload\n      swap1\n      0x0100\n      exp\n      swap1\n      div\n      0xffffffffffffffffffffffffffffffffffffffff\n      and\n        /* \"contracts/DecentraWill.sol\":3498:3542  tokenRecipients[user][token][i] == recipient */\n      0xffffffffffffffffffffffffffffffffffffffff\n      and\n      sub\n        /* \"contracts/DecentraWill.sol\":3494:3590  if (tokenRecipients[user][token][i] == recipient) {... */\n      tag_185\n      jumpi\n        /* \"contracts/DecentraWill.sol\":3570:3574  true */\n      0x01\n        /* \"contracts/DecentraWill.sol\":3563:3574  return true */\n      swap2\n      pop\n      pop\n      jump(tag_178)\n        /* \"contracts/DecentraWill.sol\":3494:3590  if (tokenRecipients[user][token][i] == recipient) {... */\n    tag_185:\n        /* \"contracts/DecentraWill.sol\":3474:3477  i++ */\n      dup1\n      dup1\n      0x01\n      add\n      swap2\n      pop\n      pop\n        /* \"contracts/DecentraWill.sol\":3416:3601  for (uint i = 0; i < tokenRecipients[user][token].length; i++) {... */\n      jump(tag_179)\n    tag_180:\n      pop\n        /* \"contracts/DecentraWill.sol\":3618:3623  false */\n      0x00\n        /* \"contracts/DecentraWill.sol\":3611:3623  return false */\n      swap1\n      pop\n        /* \"contracts/DecentraWill.sol\":3268:3631  function isRecipientOfToken(... */\n    tag_178:\n      swap4\n      swap3\n      pop\n      pop\n      pop\n      jump\t// out\n        /* \"contracts/DecentraWill.sol\":8936:10437  function withdrawTokenForBeneficiary(... */\n    tag_68:\n        /* \"contracts/DecentraWill.sol\":9087:9133  isRecipientOfToken(creator, token, msg.sender) */\n      tag_187\n        /* \"contracts/DecentraWill.sol\":9106:9113  creator */\n      dup4\n        /* \"contracts/DecentraWill.sol\":9115:9120  token */\n      dup4\n        /* \"contracts/DecentraWill.sol\":9122:9132  msg.sender */\n      caller\n        /* \"contracts/DecentraWill.sol\":9087:9105  isRecipientOfToken */\n      tag_64\n        /* \"contracts/DecentraWill.sol\":9087:9133  isRecipientOfToken(creator, token, msg.sender) */\n      jump\t// in\n    tag_187:\n        /* \"contracts/DecentraWill.sol\":9082:9188  if (!isRecipientOfToken(creator, token, msg.sender)) {... */\n      tag_188\n      jumpi\n        /* \"contracts/DecentraWill.sol\":9157:9176  RecipientNotFound() */\n      mload(0x40)\n      0x66a21ffb00000000000000000000000000000000000000000000000000000000\n      dup2\n      mstore\n      0x04\n      add\n      mload(0x40)\n      dup1\n      swap2\n      sub\n      swap1\n      revert\n        /* \"contracts/DecentraWill.sol\":9082:9188  if (!isRecipientOfToken(creator, token, msg.sender)) {... */\n    tag_188:\n        /* \"contracts/DecentraWill.sol\":9200:9218  uint256 allocation */\n      0x00\n        /* \"contracts/DecentraWill.sol\":9221:9237  tokenAllocations */\n      0x01\n        /* \"contracts/DecentraWill.sol\":9221:9246  tokenAllocations[creator] */\n      0x00\n        /* \"contracts/DecentraWill.sol\":9238:9245  creator */\n      dup6\n        /* \"contracts/DecentraWill.sol\":9221:9246  tokenAllocations[creator] */\n      0xffffffffffffffffffffffffffffffffffffffff\n      and\n      0xffffffffffffffffffffffffffffffffffffffff\n      and\n      dup2\n      mstore\n      0x20\n      add\n      swap1\n      dup2\n      mstore\n      0x20\n      add\n      0x00\n      keccak256\n        /* \"contracts/DecentraWill.sol\":9221:9253  tokenAllocations[creator][token] */\n      0x00\n        /* \"contracts/DecentraWill.sol\":9247:9252  token */\n      dup5\n        /* \"contracts/DecentraWill.sol\":9221:9253  tokenAllocations[creator][token] */\n      0xffffffffffffffffffffffffffffffffffffffff\n      and\n      0xffffffffffffffffffffffffffffffffffffffff\n      and\n      dup2\n      mstore\n      0x20\n      add\n      swap1\n      dup2\n      mstore\n      0x20\n      add\n      0x00\n      keccak256\n        /* \"contracts/DecentraWill.sol\":9221:9265  tokenAllocations[creator][token][msg.sender] */\n      0x00\n        /* \"contracts/DecentraWill.sol\":9254:9264  msg.sender */\n      caller\n        /* \"contracts/DecentraWill.sol\":9221:9265  tokenAllocations[creator][token][msg.sender] */\n      0xffffffffffffffffffffffffffffffffffffffff\n      and\n      0xffffffffffffffffffffffffffffffffffffffff\n      and\n      dup2\n      mstore\n      0x20\n      add\n      swap1\n      dup2\n      mstore\n      0x20\n      add\n      0x00\n      keccak256\n      sload\n        /* \"contracts/DecentraWill.sol\":9200:9265  uint256 allocation = tokenAllocations[creator][token][msg.sender] */\n      swap1\n      pop\n        /* \"contracts/DecentraWill.sol\":9294:9295  0 */\n      0x00\n        /* \"contracts/DecentraWill.sol\":9280:9290  allocation */\n      dup2\n        /* \"contracts/DecentraWill.sol\":9280:9295  allocation == 0 */\n      sub\n        /* \"contracts/DecentraWill.sol\":9276:9354  if (allocation == 0) {... */\n      tag_189\n      jumpi\n        /* \"contracts/DecentraWill.sol\":9319:9342  NoAllocationAvailable() */\n      mload(0x40)\n      0xdc49aee100000000000000000000000000000000000000000000000000000000\n      dup2\n      mstore\n      0x04\n      add\n      mload(0x40)\n      dup1\n      swap2\n      sub\n      swap1\n      revert\n        /* \"contracts/DecentraWill.sol\":9276:9354  if (allocation == 0) {... */\n    tag_189:\n        /* \"contracts/DecentraWill.sol\":9418:9434  uint256 deadline */\n      0x00\n        /* \"contracts/DecentraWill.sol\":9437:9453  creatorDeadlines */\n      0x02\n        /* \"contracts/DecentraWill.sol\":9437:9462  creatorDeadlines[creator] */\n      0x00\n        /* \"contracts/DecentraWill.sol\":9454:9461  creator */\n      dup7\n        /* \"contracts/DecentraWill.sol\":9437:9462  creatorDeadlines[creator] */\n      0xffffffffffffffffffffffffffffffffffffffff\n      and\n      0xffffffffffffffffffffffffffffffffffffffff\n      and\n      dup2\n      mstore\n      0x20\n      add\n      swap1\n      dup2\n      mstore\n      0x20\n      add\n      0x00\n      keccak256\n      sload\n        /* \"contracts/DecentraWill.sol\":9418:9462  uint256 deadline = creatorDeadlines[creator] */\n      swap1\n      pop\n        /* \"contracts/DecentraWill.sol\":9489:9490  0 */\n      0x00\n        /* \"contracts/DecentraWill.sol\":9477:9485  deadline */\n      dup2\n        /* \"contracts/DecentraWill.sol\":9477:9490  deadline == 0 */\n      eq\n        /* \"contracts/DecentraWill.sol\":9477:9520  deadline == 0 || block.timestamp < deadline */\n      dup1\n      tag_190\n      jumpi\n      pop\n        /* \"contracts/DecentraWill.sol\":9512:9520  deadline */\n      dup1\n        /* \"contracts/DecentraWill.sol\":9494:9509  block.timestamp */\n      timestamp\n        /* \"contracts/DecentraWill.sol\":9494:9520  block.timestamp < deadline */\n      lt\n        /* \"contracts/DecentraWill.sol\":9477:9520  deadline == 0 || block.timestamp < deadline */\n    tag_190:\n        /* \"contracts/DecentraWill.sol\":9473:9572  if (deadline == 0 || block.timestamp < deadline) {... */\n      iszero\n      tag_191\n      jumpi\n        /* \"contracts/DecentraWill.sol\":9544:9560  DeadlineNotMet() */\n      mload(0x40)\n      0x61f4ddca00000000000000000000000000000000000000000000000000000000\n      dup2\n      mstore\n      0x04\n      add\n      mload(0x40)\n      dup1\n      swap2\n      sub\n      swap1\n      revert\n        /* \"contracts/DecentraWill.sol\":9473:9572  if (deadline == 0 || block.timestamp < deadline) {... */\n    tag_191:\n        /* \"contracts/DecentraWill.sol\":9584:9608  uint256 withdrawalAmount */\n      0x00\n        /* \"contracts/DecentraWill.sol\":9630:9640  allocation */\n      dup3\n        /* \"contracts/DecentraWill.sol\":9612:9627  requestedAmount */\n      dup5\n        /* \"contracts/DecentraWill.sol\":9612:9640  requestedAmount > allocation */\n      gt\n        /* \"contracts/DecentraWill.sol\":9611:9698  (requestedAmount > allocation)... */\n      tag_192\n      jumpi\n        /* \"contracts/DecentraWill.sol\":9683:9698  requestedAmount */\n      dup4\n        /* \"contracts/DecentraWill.sol\":9611:9698  (requestedAmount > allocation)... */\n      jump(tag_193)\n    tag_192:\n        /* \"contracts/DecentraWill.sol\":9657:9667  allocation */\n      dup3\n        /* \"contracts/DecentraWill.sol\":9611:9698  (requestedAmount > allocation)... */\n    tag_193:\n        /* \"contracts/DecentraWill.sol\":9584:9698  uint256 withdrawalAmount = (requestedAmount > allocation)... */\n      swap1\n      pop\n        /* \"contracts/DecentraWill.sol\":9846:9862  withdrawalAmount */\n      dup1\n        /* \"contracts/DecentraWill.sol\":9798:9814  tokenAllocations */\n      0x01\n        /* \"contracts/DecentraWill.sol\":9798:9823  tokenAllocations[creator] */\n      0x00\n        /* \"contracts/DecentraWill.sol\":9815:9822  creator */\n      dup9\n        /* \"contracts/DecentraWill.sol\":9798:9823  tokenAllocations[creator] */\n      0xffffffffffffffffffffffffffffffffffffffff\n      and\n      0xffffffffffffffffffffffffffffffffffffffff\n      and\n      dup2\n      mstore\n      0x20\n      add\n      swap1\n      dup2\n      mstore\n      0x20\n      add\n      0x00\n      keccak256\n        /* \"contracts/DecentraWill.sol\":9798:9830  tokenAllocations[creator][token] */\n      0x00\n        /* \"contracts/DecentraWill.sol\":9824:9829  token */\n      dup8\n        /* \"contracts/DecentraWill.sol\":9798:9830  tokenAllocations[creator][token] */\n      0xffffffffffffffffffffffffffffffffffffffff\n      and\n      0xffffffffffffffffffffffffffffffffffffffff\n      and\n      dup2\n      mstore\n      0x20\n      add\n      swap1\n      dup2\n      mstore\n      0x20\n      add\n      0x00\n      keccak256\n        /* \"contracts/DecentraWill.sol\":9798:9842  tokenAllocations[creator][token][msg.sender] */\n      0x00\n        /* \"contracts/DecentraWill.sol\":9831:9841  msg.sender */\n      caller\n        /* \"contracts/DecentraWill.sol\":9798:9842  tokenAllocations[creator][token][msg.sender] */\n      0xffffffffffffffffffffffffffffffffffffffff\n      and\n      0xffffffffffffffffffffffffffffffffffffffff\n      and\n      dup2\n      mstore\n      0x20\n      add\n      swap1\n      dup2\n      mstore\n      0x20\n      add\n      0x00\n      keccak256\n      0x00\n        /* \"contracts/DecentraWill.sol\":9798:9862  tokenAllocations[creator][token][msg.sender] -= withdrawalAmount */\n      dup3\n      dup3\n      sload\n      tag_194\n      swap2\n      swap1\n      tag_113\n      jump\t// in\n    tag_194:\n      swap3\n      pop\n      pop\n      dup2\n      swap1\n      sstore\n      pop\n        /* \"contracts/DecentraWill.sol\":9958:9970  bool success */\n      0x00\n        /* \"contracts/DecentraWill.sol\":9980:9985  token */\n      dup6\n        /* \"contracts/DecentraWill.sol\":9973:9999  IERC20(token).transferFrom */\n      0xffffffffffffffffffffffffffffffffffffffff\n      and\n      0x23b872dd\n        /* \"contracts/DecentraWill.sol\":10014:10021  creator */\n      dup9\n        /* \"contracts/DecentraWill.sol\":10036:10046  msg.sender */\n      caller\n        /* \"contracts/DecentraWill.sol\":10061:10077  withdrawalAmount */\n      dup6\n        /* \"contracts/DecentraWill.sol\":9973:10088  IERC20(token).transferFrom(... */\n      mload(0x40)\n      dup5\n      0xffffffff\n      and\n      0xe0\n      shl\n      dup2\n      mstore\n      0x04\n      add\n      tag_195\n      swap4\n      swap3\n      swap2\n      swap1\n      tag_196\n      jump\t// in\n    tag_195:\n      0x20\n      mload(0x40)\n      dup1\n      dup4\n      sub\n      dup2\n      0x00\n      dup8\n      gas\n      call\n      iszero\n      dup1\n      iszero\n      tag_198\n      jumpi\n      returndatasize\n      0x00\n      dup1\n      returndatacopy\n      revert(0x00, returndatasize)\n    tag_198:\n      pop\n      pop\n      pop\n      pop\n      mload(0x40)\n      returndatasize\n      not(0x1f)\n      0x1f\n      dup3\n      add\n      and\n      dup3\n      add\n      dup1\n      0x40\n      mstore\n      pop\n      dup2\n      add\n      swap1\n      tag_199\n      swap2\n      swap1\n      tag_200\n      jump\t// in\n    tag_199:\n        /* \"contracts/DecentraWill.sol\":9958:10088  bool success = IERC20(token).transferFrom(... */\n      swap1\n      pop\n        /* \"contracts/DecentraWill.sol\":10104:10111  success */\n      dup1\n        /* \"contracts/DecentraWill.sol\":10099:10163  if (!success) {... */\n      tag_201\n      jumpi\n        /* \"contracts/DecentraWill.sol\":10135:10151  TransferFailed() */\n      mload(0x40)\n      0x90b8ec1800000000000000000000000000000000000000000000000000000000\n      dup2\n      mstore\n      0x04\n      add\n      mload(0x40)\n      dup1\n      swap2\n      sub\n      swap1\n      revert\n        /* \"contracts/DecentraWill.sol\":10099:10163  if (!success) {... */\n    tag_201:\n        /* \"contracts/DecentraWill.sol\":10207:10217  msg.sender */\n      caller\n        /* \"contracts/DecentraWill.sol\":10180:10236  Withdrawal(creator, token, msg.sender, withdrawalAmount) */\n      0xffffffffffffffffffffffffffffffffffffffff\n      and\n        /* \"contracts/DecentraWill.sol\":10200:10205  token */\n      dup7\n        /* \"contracts/DecentraWill.sol\":10180:10236  Withdrawal(creator, token, msg.sender, withdrawalAmount) */\n      0xffffffffffffffffffffffffffffffffffffffff\n      and\n        /* \"contracts/DecentraWill.sol\":10191:10198  creator */\n      dup9\n        /* \"contracts/DecentraWill.sol\":10180:10236  Withdrawal(creator, token, msg.sender, withdrawalAmount) */\n      0xffffffffffffffffffffffffffffffffffffffff\n      and\n      0x342e7ff505a8a0364cd0dc2ff195c315e43bce86b204846ecd36913e117b109e\n        /* \"contracts/DecentraWill.sol\":10219:10235  withdrawalAmount */\n      dup6\n        /* \"contracts/DecentraWill.sol\":10180:10236  Withdrawal(creator, token, msg.sender, withdrawalAmount) */\n      mload(0x40)\n      tag_202\n      swap2\n      swap1\n      tag_37\n      jump\t// in\n    tag_202:\n      mload(0x40)\n      dup1\n      swap2\n      sub\n      swap1\n      log4\n        /* \"contracts/DecentraWill.sol\":10349:10350  0 */\n      0x00\n        /* \"contracts/DecentraWill.sol\":10301:10317  tokenAllocations */\n      0x01\n        /* \"contracts/DecentraWill.sol\":10301:10326  tokenAllocations[creator] */\n      0x00\n        /* \"contracts/DecentraWill.sol\":10318:10325  creator */\n      dup10\n        /* \"contracts/DecentraWill.sol\":10301:10326  tokenAllocations[creator] */\n      0xffffffffffffffffffffffffffffffffffffffff\n      and\n      0xffffffffffffffffffffffffffffffffffffffff\n      and\n      dup2\n      mstore\n      0x20\n      add\n      swap1\n      dup2\n      mstore\n      0x20\n      add\n      0x00\n      keccak256\n        /* \"contracts/DecentraWill.sol\":10301:10333  tokenAllocations[creator][token] */\n      0x00\n        /* \"contracts/DecentraWill.sol\":10327:10332  token */\n      dup9\n        /* \"contracts/DecentraWill.sol\":10301:10333  tokenAllocations[creator][token] */\n      0xffffffffffffffffffffffffffffffffffffffff\n      and\n      0xffffffffffffffffffffffffffffffffffffffff\n      and\n      dup2\n      mstore\n      0x20\n      add\n      swap1\n      dup2\n      mstore\n      0x20\n      add\n      0x00\n      keccak256\n        /* \"contracts/DecentraWill.sol\":10301:10345  tokenAllocations[creator][token][msg.sender] */\n      0x00\n        /* \"contracts/DecentraWill.sol\":10334:10344  msg.sender */\n      caller\n        /* \"contracts/DecentraWill.sol\":10301:10345  tokenAllocations[creator][token][msg.sender] */\n      0xffffffffffffffffffffffffffffffffffffffff\n      and\n      0xffffffffffffffffffffffffffffffffffffffff\n      and\n      dup2\n      mstore\n      0x20\n      add\n      swap1\n      dup2\n      mstore\n      0x20\n      add\n      0x00\n      keccak256\n      sload\n        /* \"contracts/DecentraWill.sol\":10301:10350  tokenAllocations[creator][token][msg.sender] == 0 */\n      sub\n        /* \"contracts/DecentraWill.sol\":10297:10430  if (tokenAllocations[creator][token][msg.sender] == 0) {... */\n      tag_203\n      jumpi\n        /* \"contracts/DecentraWill.sol\":10367:10418  removeRecipientForToken(creator, token, msg.sender) */\n      tag_204\n        /* \"contracts/DecentraWill.sol\":10391:10398  creator */\n      dup8\n        /* \"contracts/DecentraWill.sol\":10400:10405  token */\n      dup8\n        /* \"contracts/DecentraWill.sol\":10407:10417  msg.sender */\n      caller\n        /* \"contracts/DecentraWill.sol\":10367:10390  removeRecipientForToken */\n      tag_57\n        /* \"contracts/DecentraWill.sol\":10367:10418  removeRecipientForToken(creator, token, msg.sender) */\n      jump\t// in\n    tag_204:\n        /* \"contracts/DecentraWill.sol\":10297:10430  if (tokenAllocations[creator][token][msg.sender] == 0) {... */\n    tag_203:\n        /* \"contracts/DecentraWill.sol\":9071:10437  {... */\n      pop\n      pop\n      pop\n      pop\n        /* \"contracts/DecentraWill.sol\":8936:10437  function withdrawTokenForBeneficiary(... */\n      pop\n      pop\n      pop\n      jump\t// out\n        /* \"contracts/DecentraWill.sol\":2248:2435  function _addTokenForUser(address user, address token) private {... */\n    tag_91:\n        /* \"contracts/DecentraWill.sol\":2327:2362  isTokenAllocatedByUser(user, token) */\n      tag_206\n        /* \"contracts/DecentraWill.sol\":2350:2354  user */\n      dup3\n        /* \"contracts/DecentraWill.sol\":2356:2361  token */\n      dup3\n        /* \"contracts/DecentraWill.sol\":2327:2349  isTokenAllocatedByUser */\n      tag_29\n        /* \"contracts/DecentraWill.sol\":2327:2362  isTokenAllocatedByUser(user, token) */\n      jump\t// in\n    tag_206:\n        /* \"contracts/DecentraWill.sol\":2322:2428  if (!isTokenAllocatedByUser(user, token)) {... */\n      tag_207\n      jumpi\n        /* \"contracts/DecentraWill.sol\":2379:2398  userAllocatedTokens */\n      0x03\n        /* \"contracts/DecentraWill.sol\":2379:2404  userAllocatedTokens[user] */\n      0x00\n        /* \"contracts/DecentraWill.sol\":2399:2403  user */\n      dup4\n        /* \"contracts/DecentraWill.sol\":2379:2404  userAllocatedTokens[user] */\n      0xffffffffffffffffffffffffffffffffffffffff\n      and\n      0xffffffffffffffffffffffffffffffffffffffff\n      and\n      dup2\n      mstore\n      0x20\n      add\n      swap1\n      dup2\n      mstore\n      0x20\n      add\n      0x00\n      keccak256\n        /* \"contracts/DecentraWill.sol\":2410:2415  token */\n      dup2\n        /* \"contracts/DecentraWill.sol\":2379:2416  userAllocatedTokens[user].push(token) */\n      swap1\n      dup1\n      0x01\n      dup2\n      sload\n      add\n      dup1\n      dup3\n      sstore\n      dup1\n      swap2\n      pop\n      pop\n      0x01\n      swap1\n      sub\n      swap1\n      0x00\n      mstore\n      keccak256(0x00, 0x20)\n      add\n      0x00\n      swap1\n      swap2\n      swap1\n      swap2\n      swap1\n      swap2\n      0x0100\n      exp\n      dup2\n      sload\n      dup2\n      0xffffffffffffffffffffffffffffffffffffffff\n      mul\n      not\n      and\n      swap1\n      dup4\n      0xffffffffffffffffffffffffffffffffffffffff\n      and\n      mul\n      or\n      swap1\n      sstore\n      pop\n        /* \"contracts/DecentraWill.sol\":2322:2428  if (!isTokenAllocatedByUser(user, token)) {... */\n    tag_207:\n        /* \"contracts/DecentraWill.sol\":2248:2435  function _addTokenForUser(address user, address token) private {... */\n      pop\n      pop\n      jump\t// out\n        /* \"contracts/DecentraWill.sol\":2525:2784  function _addRecipientForToken(... */\n    tag_93:\n        /* \"contracts/DecentraWill.sol\":2662:2704  isRecipientOfToken(user, token, recipient) */\n      tag_210\n        /* \"contracts/DecentraWill.sol\":2681:2685  user */\n      dup4\n        /* \"contracts/DecentraWill.sol\":2687:2692  token */\n      dup4\n        /* \"contracts/DecentraWill.sol\":2694:2703  recipient */\n      dup4\n        /* \"contracts/DecentraWill.sol\":2662:2680  isRecipientOfToken */\n      tag_64\n        /* \"contracts/DecentraWill.sol\":2662:2704  isRecipientOfToken(user, token, recipient) */\n      jump\t// in\n    tag_210:\n        /* \"contracts/DecentraWill.sol\":2657:2777  if (!isRecipientOfToken(user, token, recipient)) {... */\n      tag_211\n      jumpi\n        /* \"contracts/DecentraWill.sol\":2721:2736  tokenRecipients */\n      0x04\n        /* \"contracts/DecentraWill.sol\":2721:2742  tokenRecipients[user] */\n      0x00\n        /* \"contracts/DecentraWill.sol\":2737:2741  user */\n      dup5\n        /* \"contracts/DecentraWill.sol\":2721:2742  tokenRecipients[user] */\n      0xffffffffffffffffffffffffffffffffffffffff\n      and\n      0xffffffffffffffffffffffffffffffffffffffff\n      and\n      dup2\n      mstore\n      0x20\n      add\n      swap1\n      dup2\n      mstore\n      0x20\n      add\n      0x00\n      keccak256\n        /* \"contracts/DecentraWill.sol\":2721:2749  tokenRecipients[user][token] */\n      0x00\n        /* \"contracts/DecentraWill.sol\":2743:2748  token */\n      dup4\n        /* \"contracts/DecentraWill.sol\":2721:2749  tokenRecipients[user][token] */\n      0xffffffffffffffffffffffffffffffffffffffff\n      and\n      0xffffffffffffffffffffffffffffffffffffffff\n      and\n      dup2\n      mstore\n      0x20\n      add\n      swap1\n      dup2\n      mstore\n      0x20\n      add\n      0x00\n      keccak256\n        /* \"contracts/DecentraWill.sol\":2755:2764  recipient */\n      dup2\n        /* \"contracts/DecentraWill.sol\":2721:2765  tokenRecipients[user][token].push(recipient) */\n      swap1\n      dup1\n      0x01\n      dup2\n      sload\n      add\n      dup1\n      dup3\n      sstore\n      dup1\n      swap2\n      pop\n      pop\n      0x01\n      swap1\n      sub\n      swap1\n      0x00\n      mstore\n      keccak256(0x00, 0x20)\n      add\n      0x00\n      swap1\n      swap2\n      swap1\n      swap2\n      swap1\n      swap2\n      0x0100\n      exp\n      dup2\n      sload\n      dup2\n      0xffffffffffffffffffffffffffffffffffffffff\n      mul\n      not\n      and\n      swap1\n      dup4\n      0xffffffffffffffffffffffffffffffffffffffff\n      and\n      mul\n      or\n      swap1\n      sstore\n      pop\n        /* \"contracts/DecentraWill.sol\":2657:2777  if (!isRecipientOfToken(user, token, recipient)) {... */\n    tag_211:\n        /* \"contracts/DecentraWill.sol\":2525:2784  function _addRecipientForToken(... */\n      pop\n      pop\n      pop\n      jump\t// out\n        /* \"contracts/DecentraWill.sol\":3719:4216  function _addCreatorForBeneficiary(... */\n    tag_95:\n        /* \"contracts/DecentraWill.sol\":3836:3854  bool creatorExists */\n      0x00\n        /* \"contracts/DecentraWill.sol\":3878:3884  uint i */\n      dup1\n        /* \"contracts/DecentraWill.sol\":3873:4103  for (uint i = 0; i < creatorsForBeneficiary[beneficiary].length; i++) {... */\n    tag_214:\n        /* \"contracts/DecentraWill.sol\":3894:3916  creatorsForBeneficiary */\n      0x05\n        /* \"contracts/DecentraWill.sol\":3894:3929  creatorsForBeneficiary[beneficiary] */\n      0x00\n        /* \"contracts/DecentraWill.sol\":3917:3928  beneficiary */\n      dup5\n        /* \"contracts/DecentraWill.sol\":3894:3929  creatorsForBeneficiary[beneficiary] */\n      0xffffffffffffffffffffffffffffffffffffffff\n      and\n      0xffffffffffffffffffffffffffffffffffffffff\n      and\n      dup2\n      mstore\n      0x20\n      add\n      swap1\n      dup2\n      mstore\n      0x20\n      add\n      0x00\n      keccak256\n        /* \"contracts/DecentraWill.sol\":3894:3936  creatorsForBeneficiary[beneficiary].length */\n      dup1\n      sload\n      swap1\n      pop\n        /* \"contracts/DecentraWill.sol\":3890:3891  i */\n      dup2\n        /* \"contracts/DecentraWill.sol\":3890:3936  i < creatorsForBeneficiary[beneficiary].length */\n      lt\n        /* \"contracts/DecentraWill.sol\":3873:4103  for (uint i = 0; i < creatorsForBeneficiary[beneficiary].length; i++) {... */\n      iszero\n      tag_215\n      jumpi\n        /* \"contracts/DecentraWill.sol\":4004:4011  creator */\n      dup4\n        /* \"contracts/DecentraWill.sol\":3962:4011  creatorsForBeneficiary[beneficiary][i] == creator */\n      0xffffffffffffffffffffffffffffffffffffffff\n      and\n        /* \"contracts/DecentraWill.sol\":3962:3984  creatorsForBeneficiary */\n      0x05\n        /* \"contracts/DecentraWill.sol\":3962:3997  creatorsForBeneficiary[beneficiary] */\n      0x00\n        /* \"contracts/DecentraWill.sol\":3985:3996  beneficiary */\n      dup6\n        /* \"contracts/DecentraWill.sol\":3962:3997  creatorsForBeneficiary[beneficiary] */\n      0xffffffffffffffffffffffffffffffffffffffff\n      and\n      0xffffffffffffffffffffffffffffffffffffffff\n      and\n      dup2\n      mstore\n      0x20\n      add\n      swap1\n      dup2\n      mstore\n      0x20\n      add\n      0x00\n      keccak256\n        /* \"contracts/DecentraWill.sol\":3998:3999  i */\n      dup3\n        /* \"contracts/DecentraWill.sol\":3962:4000  creatorsForBeneficiary[beneficiary][i] */\n      dup2\n      sload\n      dup2\n      lt\n      tag_217\n      jumpi\n      tag_218\n      tag_81\n      jump\t// in\n    tag_218:\n    tag_217:\n      swap1\n      0x00\n      mstore\n      keccak256(0x00, 0x20)\n      add\n      0x00\n      swap1\n      sload\n      swap1\n      0x0100\n      exp\n      swap1\n      div\n      0xffffffffffffffffffffffffffffffffffffffff\n      and\n        /* \"contracts/DecentraWill.sol\":3962:4011  creatorsForBeneficiary[beneficiary][i] == creator */\n      0xffffffffffffffffffffffffffffffffffffffff\n      and\n      sub\n        /* \"contracts/DecentraWill.sol\":3958:4092  if (creatorsForBeneficiary[beneficiary][i] == creator) {... */\n      tag_220\n      jumpi\n        /* \"contracts/DecentraWill.sol\":4048:4052  true */\n      0x01\n        /* \"contracts/DecentraWill.sol\":4032:4052  creatorExists = true */\n      swap2\n      pop\n        /* \"contracts/DecentraWill.sol\":4071:4076  break */\n      jump(tag_215)\n        /* \"contracts/DecentraWill.sol\":3958:4092  if (creatorsForBeneficiary[beneficiary][i] == creator) {... */\n    tag_220:\n        /* \"contracts/DecentraWill.sol\":3938:3941  i++ */\n      dup1\n      dup1\n      0x01\n      add\n      swap2\n      pop\n      pop\n        /* \"contracts/DecentraWill.sol\":3873:4103  for (uint i = 0; i < creatorsForBeneficiary[beneficiary].length; i++) {... */\n      jump(tag_214)\n    tag_215:\n      pop\n        /* \"contracts/DecentraWill.sol\":4118:4131  creatorExists */\n      dup1\n        /* \"contracts/DecentraWill.sol\":4113:4209  if (!creatorExists) {... */\n      tag_221\n      jumpi\n        /* \"contracts/DecentraWill.sol\":4148:4170  creatorsForBeneficiary */\n      0x05\n        /* \"contracts/DecentraWill.sol\":4148:4183  creatorsForBeneficiary[beneficiary] */\n      0x00\n        /* \"contracts/DecentraWill.sol\":4171:4182  beneficiary */\n      dup4\n        /* \"contracts/DecentraWill.sol\":4148:4183  creatorsForBeneficiary[beneficiary] */\n      0xffffffffffffffffffffffffffffffffffffffff\n      and\n      0xffffffffffffffffffffffffffffffffffffffff\n      and\n      dup2\n      mstore\n      0x20\n      add\n      swap1\n      dup2\n      mstore\n      0x20\n      add\n      0x00\n      keccak256\n        /* \"contracts/DecentraWill.sol\":4189:4196  creator */\n      dup4\n        /* \"contracts/DecentraWill.sol\":4148:4197  creatorsForBeneficiary[beneficiary].push(creator) */\n      swap1\n      dup1\n      0x01\n      dup2\n      sload\n      add\n      dup1\n      dup3\n      sstore\n      dup1\n      swap2\n      pop\n      pop\n      0x01\n      swap1\n      sub\n      swap1\n      0x00\n      mstore\n      keccak256(0x00, 0x20)\n      add\n      0x00\n      swap1\n      swap2\n      swap1\n      swap2\n      swap1\n      swap2\n      0x0100\n      exp\n      dup2\n      sload\n      dup2\n      0xffffffffffffffffffffffffffffffffffffffff\n      mul\n      not\n      and\n      swap1\n      dup4\n      0xffffffffffffffffffffffffffffffffffffffff\n      and\n      mul\n      or\n      swap1\n      sstore\n      pop\n        /* \"contracts/DecentraWill.sol\":4113:4209  if (!creatorExists) {... */\n    tag_221:\n        /* \"contracts/DecentraWill.sol\":3825:4216  {... */\n      pop\n        /* \"contracts/DecentraWill.sol\":3719:4216  function _addCreatorForBeneficiary(... */\n      pop\n      pop\n      jump\t// out\n        /* \"#utility.yul\":88:205   */\n    tag_224:\n        /* \"#utility.yul\":197:198   */\n      0x00\n        /* \"#utility.yul\":194:195   */\n      dup1\n        /* \"#utility.yul\":187:199   */\n      revert\n        /* \"#utility.yul\":334:460   */\n    tag_226:\n        /* \"#utility.yul\":371:378   */\n      0x00\n        /* \"#utility.yul\":411:453   */\n      0xffffffffffffffffffffffffffffffffffffffff\n        /* \"#utility.yul\":404:409   */\n      dup3\n        /* \"#utility.yul\":400:454   */\n      and\n        /* \"#utility.yul\":389:454   */\n      swap1\n      pop\n        /* \"#utility.yul\":334:460   */\n      swap2\n      swap1\n      pop\n      jump\t// out\n        /* \"#utility.yul\":466:562   */\n    tag_227:\n        /* \"#utility.yul\":503:510   */\n      0x00\n        /* \"#utility.yul\":532:556   */\n      tag_253\n        /* \"#utility.yul\":550:555   */\n      dup3\n        /* \"#utility.yul\":532:556   */\n      tag_226\n      jump\t// in\n    tag_253:\n        /* \"#utility.yul\":521:556   */\n      swap1\n      pop\n        /* \"#utility.yul\":466:562   */\n      swap2\n      swap1\n      pop\n      jump\t// out\n        /* \"#utility.yul\":568:690   */\n    tag_228:\n        /* \"#utility.yul\":641:665   */\n      tag_255\n        /* \"#utility.yul\":659:664   */\n      dup2\n        /* \"#utility.yul\":641:665   */\n      tag_227\n      jump\t// in\n    tag_255:\n        /* \"#utility.yul\":634:639   */\n      dup2\n        /* \"#utility.yul\":631:666   */\n      eq\n        /* \"#utility.yul\":621:684   */\n      tag_256\n      jumpi\n        /* \"#utility.yul\":680:681   */\n      0x00\n        /* \"#utility.yul\":677:678   */\n      dup1\n        /* \"#utility.yul\":670:682   */\n      revert\n        /* \"#utility.yul\":621:684   */\n    tag_256:\n        /* \"#utility.yul\":568:690   */\n      pop\n      jump\t// out\n        /* \"#utility.yul\":696:835   */\n    tag_229:\n        /* \"#utility.yul\":742:747   */\n      0x00\n        /* \"#utility.yul\":780:786   */\n      dup2\n        /* \"#utility.yul\":767:787   */\n      calldataload\n        /* \"#utility.yul\":758:787   */\n      swap1\n      pop\n        /* \"#utility.yul\":796:829   */\n      tag_258\n        /* \"#utility.yul\":823:828   */\n      dup2\n        /* \"#utility.yul\":796:829   */\n      tag_228\n      jump\t// in\n    tag_258:\n        /* \"#utility.yul\":696:835   */\n      swap3\n      swap2\n      pop\n      pop\n      jump\t// out\n        /* \"#utility.yul\":841:1315   */\n    tag_18:\n        /* \"#utility.yul\":909:915   */\n      0x00\n        /* \"#utility.yul\":917:923   */\n      dup1\n        /* \"#utility.yul\":966:968   */\n      0x40\n        /* \"#utility.yul\":954:963   */\n      dup4\n        /* \"#utility.yul\":945:952   */\n      dup6\n        /* \"#utility.yul\":941:964   */\n      sub\n        /* \"#utility.yul\":937:969   */\n      slt\n        /* \"#utility.yul\":934:1053   */\n      iszero\n      tag_260\n      jumpi\n        /* \"#utility.yul\":972:1051   */\n      tag_261\n      tag_224\n      jump\t// in\n    tag_261:\n        /* \"#utility.yul\":934:1053   */\n    tag_260:\n        /* \"#utility.yul\":1092:1093   */\n      0x00\n        /* \"#utility.yul\":1117:1170   */\n      tag_262\n        /* \"#utility.yul\":1162:1169   */\n      dup6\n        /* \"#utility.yul\":1153:1159   */\n      dup3\n        /* \"#utility.yul\":1142:1151   */\n      dup7\n        /* \"#utility.yul\":1138:1160   */\n      add\n        /* \"#utility.yul\":1117:1170   */\n      tag_229\n      jump\t// in\n    tag_262:\n        /* \"#utility.yul\":1107:1170   */\n      swap3\n      pop\n        /* \"#utility.yul\":1063:1180   */\n      pop\n        /* \"#utility.yul\":1219:1221   */\n      0x20\n        /* \"#utility.yul\":1245:1298   */\n      tag_263\n        /* \"#utility.yul\":1290:1297   */\n      dup6\n        /* \"#utility.yul\":1281:1287   */\n      dup3\n        /* \"#utility.yul\":1270:1279   */\n      dup7\n        /* \"#utility.yul\":1266:1288   */\n      add\n        /* \"#utility.yul\":1245:1298   */\n      tag_229\n      jump\t// in\n    tag_263:\n        /* \"#utility.yul\":1235:1298   */\n      swap2\n      pop\n        /* \"#utility.yul\":1190:1308   */\n      pop\n        /* \"#utility.yul\":841:1315   */\n      swap3\n      pop\n      swap3\n      swap1\n      pop\n      jump\t// out\n        /* \"#utility.yul\":1321:1435   */\n    tag_230:\n        /* \"#utility.yul\":1388:1394   */\n      0x00\n        /* \"#utility.yul\":1422:1427   */\n      dup2\n        /* \"#utility.yul\":1416:1428   */\n      mload\n        /* \"#utility.yul\":1406:1428   */\n      swap1\n      pop\n        /* \"#utility.yul\":1321:1435   */\n      swap2\n      swap1\n      pop\n      jump\t// out\n        /* \"#utility.yul\":1441:1625   */\n    tag_231:\n        /* \"#utility.yul\":1540:1551   */\n      0x00\n        /* \"#utility.yul\":1574:1580   */\n      dup3\n        /* \"#utility.yul\":1569:1572   */\n      dup3\n        /* \"#utility.yul\":1562:1581   */\n      mstore\n        /* \"#utility.yul\":1614:1618   */\n      0x20\n        /* \"#utility.yul\":1609:1612   */\n      dup3\n        /* \"#utility.yul\":1605:1619   */\n      add\n        /* \"#utility.yul\":1590:1619   */\n      swap1\n      pop\n        /* \"#utility.yul\":1441:1625   */\n      swap3\n      swap2\n      pop\n      pop\n      jump\t// out\n        /* \"#utility.yul\":1631:1763   */\n    tag_232:\n        /* \"#utility.yul\":1698:1702   */\n      0x00\n        /* \"#utility.yul\":1721:1724   */\n      dup2\n        /* \"#utility.yul\":1713:1724   */\n      swap1\n      pop\n        /* \"#utility.yul\":1751:1755   */\n      0x20\n        /* \"#utility.yul\":1746:1749   */\n      dup3\n        /* \"#utility.yul\":1742:1756   */\n      add\n        /* \"#utility.yul\":1734:1756   */\n      swap1\n      pop\n        /* \"#utility.yul\":1631:1763   */\n      swap2\n      swap1\n      pop\n      jump\t// out\n        /* \"#utility.yul\":1769:1877   */\n    tag_233:\n        /* \"#utility.yul\":1846:1870   */\n      tag_268\n        /* \"#utility.yul\":1864:1869   */\n      dup2\n        /* \"#utility.yul\":1846:1870   */\n      tag_227\n      jump\t// in\n    tag_268:\n        /* \"#utility.yul\":1841:1844   */\n      dup3\n        /* \"#utility.yul\":1834:1871   */\n      mstore\n        /* \"#utility.yul\":1769:1877   */\n      pop\n      pop\n      jump\t// out\n        /* \"#utility.yul\":1883:2062   */\n    tag_234:\n        /* \"#utility.yul\":1952:1962   */\n      0x00\n        /* \"#utility.yul\":1973:2019   */\n      tag_270\n        /* \"#utility.yul\":2015:2018   */\n      dup4\n        /* \"#utility.yul\":2007:2013   */\n      dup4\n        /* \"#utility.yul\":1973:2019   */\n      tag_233\n      jump\t// in\n    tag_270:\n        /* \"#utility.yul\":2051:2055   */\n      0x20\n        /* \"#utility.yul\":2046:2049   */\n      dup4\n        /* \"#utility.yul\":2042:2056   */\n      add\n        /* \"#utility.yul\":2028:2056   */\n      swap1\n      pop\n        /* \"#utility.yul\":1883:2062   */\n      swap3\n      swap2\n      pop\n      pop\n      jump\t// out\n        /* \"#utility.yul\":2068:2181   */\n    tag_235:\n        /* \"#utility.yul\":2138:2142   */\n      0x00\n        /* \"#utility.yul\":2170:2174   */\n      0x20\n        /* \"#utility.yul\":2165:2168   */\n      dup3\n        /* \"#utility.yul\":2161:2175   */\n      add\n        /* \"#utility.yul\":2153:2175   */\n      swap1\n      pop\n        /* \"#utility.yul\":2068:2181   */\n      swap2\n      swap1\n      pop\n      jump\t// out\n        /* \"#utility.yul\":2217:2949   */\n    tag_236:\n        /* \"#utility.yul\":2336:2339   */\n      0x00\n        /* \"#utility.yul\":2365:2419   */\n      tag_273\n        /* \"#utility.yul\":2413:2418   */\n      dup3\n        /* \"#utility.yul\":2365:2419   */\n      tag_230\n      jump\t// in\n    tag_273:\n        /* \"#utility.yul\":2435:2521   */\n      tag_274\n        /* \"#utility.yul\":2514:2520   */\n      dup2\n        /* \"#utility.yul\":2509:2512   */\n      dup6\n        /* \"#utility.yul\":2435:2521   */\n      tag_231\n      jump\t// in\n    tag_274:\n        /* \"#utility.yul\":2428:2521   */\n      swap4\n      pop\n        /* \"#utility.yul\":2545:2601   */\n      tag_275\n        /* \"#utility.yul\":2595:2600   */\n      dup4\n        /* \"#utility.yul\":2545:2601   */\n      tag_232\n      jump\t// in\n    tag_275:\n        /* \"#utility.yul\":2624:2631   */\n      dup1\n        /* \"#utility.yul\":2655:2656   */\n      0x00\n        /* \"#utility.yul\":2640:2924   */\n    tag_276:\n        /* \"#utility.yul\":2665:2671   */\n      dup4\n        /* \"#utility.yul\":2662:2663   */\n      dup2\n        /* \"#utility.yul\":2659:2672   */\n      lt\n        /* \"#utility.yul\":2640:2924   */\n      iszero\n      tag_278\n      jumpi\n        /* \"#utility.yul\":2741:2747   */\n      dup2\n        /* \"#utility.yul\":2735:2748   */\n      mload\n        /* \"#utility.yul\":2768:2831   */\n      tag_279\n        /* \"#utility.yul\":2827:2830   */\n      dup9\n        /* \"#utility.yul\":2812:2825   */\n      dup3\n        /* \"#utility.yul\":2768:2831   */\n      tag_234\n      jump\t// in\n    tag_279:\n        /* \"#utility.yul\":2761:2831   */\n      swap8\n      pop\n        /* \"#utility.yul\":2854:2914   */\n      tag_280\n        /* \"#utility.yul\":2907:2913   */\n      dup4\n        /* \"#utility.yul\":2854:2914   */\n      tag_235\n      jump\t// in\n    tag_280:\n        /* \"#utility.yul\":2844:2914   */\n      swap3\n      pop\n        /* \"#utility.yul\":2700:2924   */\n      pop\n        /* \"#utility.yul\":2687:2688   */\n      0x01\n        /* \"#utility.yul\":2684:2685   */\n      dup2\n        /* \"#utility.yul\":2680:2689   */\n      add\n        /* \"#utility.yul\":2675:2689   */\n      swap1\n      pop\n        /* \"#utility.yul\":2640:2924   */\n      jump(tag_276)\n    tag_278:\n        /* \"#utility.yul\":2644:2658   */\n      pop\n        /* \"#utility.yul\":2940:2943   */\n      dup6\n        /* \"#utility.yul\":2933:2943   */\n      swap4\n      pop\n        /* \"#utility.yul\":2341:2949   */\n      pop\n      pop\n      pop\n        /* \"#utility.yul\":2217:2949   */\n      swap3\n      swap2\n      pop\n      pop\n      jump\t// out\n        /* \"#utility.yul\":2955:3328   */\n    tag_21:\n        /* \"#utility.yul\":3098:3102   */\n      0x00\n        /* \"#utility.yul\":3136:3138   */\n      0x20\n        /* \"#utility.yul\":3125:3134   */\n      dup3\n        /* \"#utility.yul\":3121:3139   */\n      add\n        /* \"#utility.yul\":3113:3139   */\n      swap1\n      pop\n        /* \"#utility.yul\":3185:3194   */\n      dup2\n        /* \"#utility.yul\":3179:3183   */\n      dup2\n        /* \"#utility.yul\":3175:3195   */\n      sub\n        /* \"#utility.yul\":3171:3172   */\n      0x00\n        /* \"#utility.yul\":3160:3169   */\n      dup4\n        /* \"#utility.yul\":3156:3173   */\n      add\n        /* \"#utility.yul\":3149:3196   */\n      mstore\n        /* \"#utility.yul\":3213:3321   */\n      tag_282\n        /* \"#utility.yul\":3316:3320   */\n      dup2\n        /* \"#utility.yul\":3307:3313   */\n      dup5\n        /* \"#utility.yul\":3213:3321   */\n      tag_236\n      jump\t// in\n    tag_282:\n        /* \"#utility.yul\":3205:3321   */\n      swap1\n      pop\n        /* \"#utility.yul\":2955:3328   */\n      swap3\n      swap2\n      pop\n      pop\n      jump\t// out\n        /* \"#utility.yul\":3334:3663   */\n    tag_24:\n        /* \"#utility.yul\":3393:3399   */\n      0x00\n        /* \"#utility.yul\":3442:3444   */\n      0x20\n        /* \"#utility.yul\":3430:3439   */\n      dup3\n        /* \"#utility.yul\":3421:3428   */\n      dup5\n        /* \"#utility.yul\":3417:3440   */\n      sub\n        /* \"#utility.yul\":3413:3445   */\n      slt\n        /* \"#utility.yul\":3410:3529   */\n      iszero\n      tag_284\n      jumpi\n        /* \"#utility.yul\":3448:3527   */\n      tag_285\n      tag_224\n      jump\t// in\n    tag_285:\n        /* \"#utility.yul\":3410:3529   */\n    tag_284:\n        /* \"#utility.yul\":3568:3569   */\n      0x00\n        /* \"#utility.yul\":3593:3646   */\n      tag_286\n        /* \"#utility.yul\":3638:3645   */\n      dup5\n        /* \"#utility.yul\":3629:3635   */\n      dup3\n        /* \"#utility.yul\":3618:3627   */\n      dup6\n        /* \"#utility.yul\":3614:3636   */\n      add\n        /* \"#utility.yul\":3593:3646   */\n      tag_229\n      jump\t// in\n    tag_286:\n        /* \"#utility.yul\":3583:3646   */\n      swap2\n      pop\n        /* \"#utility.yul\":3539:3656   */\n      pop\n        /* \"#utility.yul\":3334:3663   */\n      swap3\n      swap2\n      pop\n      pop\n      jump\t// out\n        /* \"#utility.yul\":3669:3759   */\n    tag_237:\n        /* \"#utility.yul\":3703:3710   */\n      0x00\n        /* \"#utility.yul\":3746:3751   */\n      dup2\n        /* \"#utility.yul\":3739:3752   */\n      iszero\n        /* \"#utility.yul\":3732:3753   */\n      iszero\n        /* \"#utility.yul\":3721:3753   */\n      swap1\n      pop\n        /* \"#utility.yul\":3669:3759   */\n      swap2\n      swap1\n      pop\n      jump\t// out\n        /* \"#utility.yul\":3765:3874   */\n    tag_238:\n        /* \"#utility.yul\":3846:3867   */\n      tag_289\n        /* \"#utility.yul\":3861:3866   */\n      dup2\n        /* \"#utility.yul\":3846:3867   */\n      tag_237\n      jump\t// in\n    tag_289:\n        /* \"#utility.yul\":3841:3844   */\n      dup3\n        /* \"#utility.yul\":3834:3868   */\n      mstore\n        /* \"#utility.yul\":3765:3874   */\n      pop\n      pop\n      jump\t// out\n        /* \"#utility.yul\":3880:4090   */\n    tag_31:\n        /* \"#utility.yul\":3967:3971   */\n      0x00\n        /* \"#utility.yul\":4005:4007   */\n      0x20\n        /* \"#utility.yul\":3994:4003   */\n      dup3\n        /* \"#utility.yul\":3990:4008   */\n      add\n        /* \"#utility.yul\":3982:4008   */\n      swap1\n      pop\n        /* \"#utility.yul\":4018:4083   */\n      tag_291\n        /* \"#utility.yul\":4080:4081   */\n      0x00\n        /* \"#utility.yul\":4069:4078   */\n      dup4\n        /* \"#utility.yul\":4065:4082   */\n      add\n        /* \"#utility.yul\":4056:4062   */\n      dup5\n        /* \"#utility.yul\":4018:4083   */\n      tag_238\n      jump\t// in\n    tag_291:\n        /* \"#utility.yul\":3880:4090   */\n      swap3\n      swap2\n      pop\n      pop\n      jump\t// out\n        /* \"#utility.yul\":4096:4715   */\n    tag_34:\n        /* \"#utility.yul\":4173:4179   */\n      0x00\n        /* \"#utility.yul\":4181:4187   */\n      dup1\n        /* \"#utility.yul\":4189:4195   */\n      0x00\n        /* \"#utility.yul\":4238:4240   */\n      0x60\n        /* \"#utility.yul\":4226:4235   */\n      dup5\n        /* \"#utility.yul\":4217:4224   */\n      dup7\n        /* \"#utility.yul\":4213:4236   */\n      sub\n        /* \"#utility.yul\":4209:4241   */\n      slt\n        /* \"#utility.yul\":4206:4325   */\n      iszero\n      tag_293\n      jumpi\n        /* \"#utility.yul\":4244:4323   */\n      tag_294\n      tag_224\n      jump\t// in\n    tag_294:\n        /* \"#utility.yul\":4206:4325   */\n    tag_293:\n        /* \"#utility.yul\":4364:4365   */\n      0x00\n        /* \"#utility.yul\":4389:4442   */\n      tag_295\n        /* \"#utility.yul\":4434:4441   */\n      dup7\n        /* \"#utility.yul\":4425:4431   */\n      dup3\n        /* \"#utility.yul\":4414:4423   */\n      dup8\n        /* \"#utility.yul\":4410:4432   */\n      add\n        /* \"#utility.yul\":4389:4442   */\n      tag_229\n      jump\t// in\n    tag_295:\n        /* \"#utility.yul\":4379:4442   */\n      swap4\n      pop\n        /* \"#utility.yul\":4335:4452   */\n      pop\n        /* \"#utility.yul\":4491:4493   */\n      0x20\n        /* \"#utility.yul\":4517:4570   */\n      tag_296\n        /* \"#utility.yul\":4562:4569   */\n      dup7\n        /* \"#utility.yul\":4553:4559   */\n      dup3\n        /* \"#utility.yul\":4542:4551   */\n      dup8\n        /* \"#utility.yul\":4538:4560   */\n      add\n        /* \"#utility.yul\":4517:4570   */\n      tag_229\n      jump\t// in\n    tag_296:\n        /* \"#utility.yul\":4507:4570   */\n      swap3\n      pop\n        /* \"#utility.yul\":4462:4580   */\n      pop\n        /* \"#utility.yul\":4619:4621   */\n      0x40\n        /* \"#utility.yul\":4645:4698   */\n      tag_297\n        /* \"#utility.yul\":4690:4697   */\n      dup7\n        /* \"#utility.yul\":4681:4687   */\n      dup3\n        /* \"#utility.yul\":4670:4679   */\n      dup8\n        /* \"#utility.yul\":4666:4688   */\n      add\n        /* \"#utility.yul\":4645:4698   */\n      tag_229\n      jump\t// in\n    tag_297:\n        /* \"#utility.yul\":4635:4698   */\n      swap2\n      pop\n        /* \"#utility.yul\":4590:4708   */\n      pop\n        /* \"#utility.yul\":4096:4715   */\n      swap3\n      pop\n      swap3\n      pop\n      swap3\n      jump\t// out\n        /* \"#utility.yul\":4721:4798   */\n    tag_239:\n        /* \"#utility.yul\":4758:4765   */\n      0x00\n        /* \"#utility.yul\":4787:4792   */\n      dup2\n        /* \"#utility.yul\":4776:4792   */\n      swap1\n      pop\n        /* \"#utility.yul\":4721:4798   */\n      swap2\n      swap1\n      pop\n      jump\t// out\n        /* \"#utility.yul\":4804:4922   */\n    tag_240:\n        /* \"#utility.yul\":4891:4915   */\n      tag_300\n        /* \"#utility.yul\":4909:4914   */\n      dup2\n        /* \"#utility.yul\":4891:4915   */\n      tag_239\n      jump\t// in\n    tag_300:\n        /* \"#utility.yul\":4886:4889   */\n      dup3\n        /* \"#utility.yul\":4879:4916   */\n      mstore\n        /* \"#utility.yul\":4804:4922   */\n      pop\n      pop\n      jump\t// out\n        /* \"#utility.yul\":4928:5150   */\n    tag_37:\n        /* \"#utility.yul\":5021:5025   */\n      0x00\n        /* \"#utility.yul\":5059:5061   */\n      0x20\n        /* \"#utility.yul\":5048:5057   */\n      dup3\n        /* \"#utility.yul\":5044:5062   */\n      add\n        /* \"#utility.yul\":5036:5062   */\n      swap1\n      pop\n        /* \"#utility.yul\":5072:5143   */\n      tag_302\n        /* \"#utility.yul\":5140:5141   */\n      0x00\n        /* \"#utility.yul\":5129:5138   */\n      dup4\n        /* \"#utility.yul\":5125:5142   */\n      add\n        /* \"#utility.yul\":5116:5122   */\n      dup5\n        /* \"#utility.yul\":5072:5143   */\n      tag_240\n      jump\t// in\n    tag_302:\n        /* \"#utility.yul\":4928:5150   */\n      swap3\n      swap2\n      pop\n      pop\n      jump\t// out\n        /* \"#utility.yul\":5156:5278   */\n    tag_241:\n        /* \"#utility.yul\":5229:5253   */\n      tag_304\n        /* \"#utility.yul\":5247:5252   */\n      dup2\n        /* \"#utility.yul\":5229:5253   */\n      tag_239\n      jump\t// in\n    tag_304:\n        /* \"#utility.yul\":5222:5227   */\n      dup2\n        /* \"#utility.yul\":5219:5254   */\n      eq\n        /* \"#utility.yul\":5209:5272   */\n      tag_305\n      jumpi\n        /* \"#utility.yul\":5268:5269   */\n      0x00\n        /* \"#utility.yul\":5265:5266   */\n      dup1\n        /* \"#utility.yul\":5258:5270   */\n      revert\n        /* \"#utility.yul\":5209:5272   */\n    tag_305:\n        /* \"#utility.yul\":5156:5278   */\n      pop\n      jump\t// out\n        /* \"#utility.yul\":5284:5423   */\n    tag_242:\n        /* \"#utility.yul\":5330:5335   */\n      0x00\n        /* \"#utility.yul\":5368:5374   */\n      dup2\n        /* \"#utility.yul\":5355:5375   */\n      calldataload\n        /* \"#utility.yul\":5346:5375   */\n      swap1\n      pop\n        /* \"#utility.yul\":5384:5417   */\n      tag_307\n        /* \"#utility.yul\":5411:5416   */\n      dup2\n        /* \"#utility.yul\":5384:5417   */\n      tag_241\n      jump\t// in\n    tag_307:\n        /* \"#utility.yul\":5284:5423   */\n      swap3\n      swap2\n      pop\n      pop\n      jump\t// out\n        /* \"#utility.yul\":5429:5903   */\n    tag_40:\n        /* \"#utility.yul\":5497:5503   */\n      0x00\n        /* \"#utility.yul\":5505:5511   */\n      dup1\n        /* \"#utility.yul\":5554:5556   */\n      0x40\n        /* \"#utility.yul\":5542:5551   */\n      dup4\n        /* \"#utility.yul\":5533:5540   */\n      dup6\n        /* \"#utility.yul\":5529:5552   */\n      sub\n        /* \"#utility.yul\":5525:5557   */\n      slt\n        /* \"#utility.yul\":5522:5641   */\n      iszero\n      tag_309\n      jumpi\n        /* \"#utility.yul\":5560:5639   */\n      tag_310\n      tag_224\n      jump\t// in\n    tag_310:\n        /* \"#utility.yul\":5522:5641   */\n    tag_309:\n        /* \"#utility.yul\":5680:5681   */\n      0x00\n        /* \"#utility.yul\":5705:5758   */\n      tag_311\n        /* \"#utility.yul\":5750:5757   */\n      dup6\n        /* \"#utility.yul\":5741:5747   */\n      dup3\n        /* \"#utility.yul\":5730:5739   */\n      dup7\n        /* \"#utility.yul\":5726:5748   */\n      add\n        /* \"#utility.yul\":5705:5758   */\n      tag_229\n      jump\t// in\n    tag_311:\n        /* \"#utility.yul\":5695:5758   */\n      swap3\n      pop\n        /* \"#utility.yul\":5651:5768   */\n      pop\n        /* \"#utility.yul\":5807:5809   */\n      0x20\n        /* \"#utility.yul\":5833:5886   */\n      tag_312\n        /* \"#utility.yul\":5878:5885   */\n      dup6\n        /* \"#utility.yul\":5869:5875   */\n      dup3\n        /* \"#utility.yul\":5858:5867   */\n      dup7\n        /* \"#utility.yul\":5854:5876   */\n      add\n        /* \"#utility.yul\":5833:5886   */\n      tag_242\n      jump\t// in\n    tag_312:\n        /* \"#utility.yul\":5823:5886   */\n      swap2\n      pop\n        /* \"#utility.yul\":5778:5896   */\n      pop\n        /* \"#utility.yul\":5429:5903   */\n      swap3\n      pop\n      swap3\n      swap1\n      pop\n      jump\t// out\n        /* \"#utility.yul\":5909:6027   */\n    tag_243:\n        /* \"#utility.yul\":5996:6020   */\n      tag_314\n        /* \"#utility.yul\":6014:6019   */\n      dup2\n        /* \"#utility.yul\":5996:6020   */\n      tag_227\n      jump\t// in\n    tag_314:\n        /* \"#utility.yul\":5991:5994   */\n      dup3\n        /* \"#utility.yul\":5984:6021   */\n      mstore\n        /* \"#utility.yul\":5909:6027   */\n      pop\n      pop\n      jump\t// out\n        /* \"#utility.yul\":6033:6255   */\n    tag_43:\n        /* \"#utility.yul\":6126:6130   */\n      0x00\n        /* \"#utility.yul\":6164:6166   */\n      0x20\n        /* \"#utility.yul\":6153:6162   */\n      dup3\n        /* \"#utility.yul\":6149:6167   */\n      add\n        /* \"#utility.yul\":6141:6167   */\n      swap1\n      pop\n        /* \"#utility.yul\":6177:6248   */\n      tag_316\n        /* \"#utility.yul\":6245:6246   */\n      0x00\n        /* \"#utility.yul\":6234:6243   */\n      dup4\n        /* \"#utility.yul\":6230:6247   */\n      add\n        /* \"#utility.yul\":6221:6227   */\n      dup5\n        /* \"#utility.yul\":6177:6248   */\n      tag_243\n      jump\t// in\n    tag_316:\n        /* \"#utility.yul\":6033:6255   */\n      swap3\n      swap2\n      pop\n      pop\n      jump\t// out\n        /* \"#utility.yul\":6261:6880   */\n    tag_46:\n        /* \"#utility.yul\":6338:6344   */\n      0x00\n        /* \"#utility.yul\":6346:6352   */\n      dup1\n        /* \"#utility.yul\":6354:6360   */\n      0x00\n        /* \"#utility.yul\":6403:6405   */\n      0x60\n        /* \"#utility.yul\":6391:6400   */\n      dup5\n        /* \"#utility.yul\":6382:6389   */\n      dup7\n        /* \"#utility.yul\":6378:6401   */\n      sub\n        /* \"#utility.yul\":6374:6406   */\n      slt\n        /* \"#utility.yul\":6371:6490   */\n      iszero\n      tag_318\n      jumpi\n        /* \"#utility.yul\":6409:6488   */\n      tag_319\n      tag_224\n      jump\t// in\n    tag_319:\n        /* \"#utility.yul\":6371:6490   */\n    tag_318:\n        /* \"#utility.yul\":6529:6530   */\n      0x00\n        /* \"#utility.yul\":6554:6607   */\n      tag_320\n        /* \"#utility.yul\":6599:6606   */\n      dup7\n        /* \"#utility.yul\":6590:6596   */\n      dup3\n        /* \"#utility.yul\":6579:6588   */\n      dup8\n        /* \"#utility.yul\":6575:6597   */\n      add\n        /* \"#utility.yul\":6554:6607   */\n      tag_229\n      jump\t// in\n    tag_320:\n        /* \"#utility.yul\":6544:6607   */\n      swap4\n      pop\n        /* \"#utility.yul\":6500:6617   */\n      pop\n        /* \"#utility.yul\":6656:6658   */\n      0x20\n        /* \"#utility.yul\":6682:6735   */\n      tag_321\n        /* \"#utility.yul\":6727:6734   */\n      dup7\n        /* \"#utility.yul\":6718:6724   */\n      dup3\n        /* \"#utility.yul\":6707:6716   */\n      dup8\n        /* \"#utility.yul\":6703:6725   */\n      add\n        /* \"#utility.yul\":6682:6735   */\n      tag_229\n      jump\t// in\n    tag_321:\n        /* \"#utility.yul\":6672:6735   */\n      swap3\n      pop\n        /* \"#utility.yul\":6627:6745   */\n      pop\n        /* \"#utility.yul\":6784:6786   */\n      0x40\n        /* \"#utility.yul\":6810:6863   */\n      tag_322\n        /* \"#utility.yul\":6855:6862   */\n      dup7\n        /* \"#utility.yul\":6846:6852   */\n      dup3\n        /* \"#utility.yul\":6835:6844   */\n      dup8\n        /* \"#utility.yul\":6831:6853   */\n      add\n        /* \"#utility.yul\":6810:6863   */\n      tag_242\n      jump\t// in\n    tag_322:\n        /* \"#utility.yul\":6800:6863   */\n      swap2\n      pop\n        /* \"#utility.yul\":6755:6873   */\n      pop\n        /* \"#utility.yul\":6261:6880   */\n      swap3\n      pop\n      swap3\n      pop\n      swap3\n      jump\t// out\n        /* \"#utility.yul\":6886:7215   */\n    tag_50:\n        /* \"#utility.yul\":6945:6951   */\n      0x00\n        /* \"#utility.yul\":6994:6996   */\n      0x20\n        /* \"#utility.yul\":6982:6991   */\n      dup3\n        /* \"#utility.yul\":6973:6980   */\n      dup5\n        /* \"#utility.yul\":6969:6992   */\n      sub\n        /* \"#utility.yul\":6965:6997   */\n      slt\n        /* \"#utility.yul\":6962:7081   */\n      iszero\n      tag_324\n      jumpi\n        /* \"#utility.yul\":7000:7079   */\n      tag_325\n      tag_224\n      jump\t// in\n    tag_325:\n        /* \"#utility.yul\":6962:7081   */\n    tag_324:\n        /* \"#utility.yul\":7120:7121   */\n      0x00\n        /* \"#utility.yul\":7145:7198   */\n      tag_326\n        /* \"#utility.yul\":7190:7197   */\n      dup5\n        /* \"#utility.yul\":7181:7187   */\n      dup3\n        /* \"#utility.yul\":7170:7179   */\n      dup6\n        /* \"#utility.yul\":7166:7188   */\n      add\n        /* \"#utility.yul\":7145:7198   */\n      tag_242\n      jump\t// in\n    tag_326:\n        /* \"#utility.yul\":7135:7198   */\n      swap2\n      pop\n        /* \"#utility.yul\":7091:7208   */\n      pop\n        /* \"#utility.yul\":6886:7215   */\n      swap3\n      swap2\n      pop\n      pop\n      jump\t// out\n        /* \"#utility.yul\":7221:7401   */\n    tag_81:\n        /* \"#utility.yul\":7269:7346   */\n      0x4e487b7100000000000000000000000000000000000000000000000000000000\n        /* \"#utility.yul\":7266:7267   */\n      0x00\n        /* \"#utility.yul\":7259:7347   */\n      mstore\n        /* \"#utility.yul\":7366:7370   */\n      0x32\n        /* \"#utility.yul\":7363:7364   */\n      0x04\n        /* \"#utility.yul\":7356:7371   */\n      mstore\n        /* \"#utility.yul\":7390:7394   */\n      0x24\n        /* \"#utility.yul\":7387:7388   */\n      0x00\n        /* \"#utility.yul\":7380:7395   */\n      revert\n        /* \"#utility.yul\":7407:7587   */\n    tag_244:\n        /* \"#utility.yul\":7455:7532   */\n      0x4e487b7100000000000000000000000000000000000000000000000000000000\n        /* \"#utility.yul\":7452:7453   */\n      0x00\n        /* \"#utility.yul\":7445:7533   */\n      mstore\n        /* \"#utility.yul\":7552:7556   */\n      0x11\n        /* \"#utility.yul\":7549:7550   */\n      0x04\n        /* \"#utility.yul\":7542:7557   */\n      mstore\n        /* \"#utility.yul\":7576:7580   */\n      0x24\n        /* \"#utility.yul\":7573:7574   */\n      0x00\n        /* \"#utility.yul\":7566:7581   */\n      revert\n        /* \"#utility.yul\":7593:7787   */\n    tag_113:\n        /* \"#utility.yul\":7633:7637   */\n      0x00\n        /* \"#utility.yul\":7653:7673   */\n      tag_330\n        /* \"#utility.yul\":7671:7672   */\n      dup3\n        /* \"#utility.yul\":7653:7673   */\n      tag_239\n      jump\t// in\n    tag_330:\n        /* \"#utility.yul\":7648:7673   */\n      swap2\n      pop\n        /* \"#utility.yul\":7687:7707   */\n      tag_331\n        /* \"#utility.yul\":7705:7706   */\n      dup4\n        /* \"#utility.yul\":7687:7707   */\n      tag_239\n      jump\t// in\n    tag_331:\n        /* \"#utility.yul\":7682:7707   */\n      swap3\n      pop\n        /* \"#utility.yul\":7731:7732   */\n      dup3\n        /* \"#utility.yul\":7728:7729   */\n      dup3\n        /* \"#utility.yul\":7724:7733   */\n      sub\n        /* \"#utility.yul\":7716:7733   */\n      swap1\n      pop\n        /* \"#utility.yul\":7755:7756   */\n      dup2\n        /* \"#utility.yul\":7749:7753   */\n      dup2\n        /* \"#utility.yul\":7746:7757   */\n      gt\n        /* \"#utility.yul\":7743:7780   */\n      iszero\n      tag_332\n      jumpi\n        /* \"#utility.yul\":7760:7778   */\n      tag_333\n      tag_244\n      jump\t// in\n    tag_333:\n        /* \"#utility.yul\":7743:7780   */\n    tag_332:\n        /* \"#utility.yul\":7593:7787   */\n      swap3\n      swap2\n      pop\n      pop\n      jump\t// out\n        /* \"#utility.yul\":7793:7984   */\n    tag_115:\n        /* \"#utility.yul\":7833:7836   */\n      0x00\n        /* \"#utility.yul\":7852:7872   */\n      tag_335\n        /* \"#utility.yul\":7870:7871   */\n      dup3\n        /* \"#utility.yul\":7852:7872   */\n      tag_239\n      jump\t// in\n    tag_335:\n        /* \"#utility.yul\":7847:7872   */\n      swap2\n      pop\n        /* \"#utility.yul\":7886:7906   */\n      tag_336\n        /* \"#utility.yul\":7904:7905   */\n      dup4\n        /* \"#utility.yul\":7886:7906   */\n      tag_239\n      jump\t// in\n    tag_336:\n        /* \"#utility.yul\":7881:7906   */\n      swap3\n      pop\n        /* \"#utility.yul\":7929:7930   */\n      dup3\n        /* \"#utility.yul\":7926:7927   */\n      dup3\n        /* \"#utility.yul\":7922:7931   */\n      add\n        /* \"#utility.yul\":7915:7931   */\n      swap1\n      pop\n        /* \"#utility.yul\":7950:7953   */\n      dup1\n        /* \"#utility.yul\":7947:7948   */\n      dup3\n        /* \"#utility.yul\":7944:7954   */\n      gt\n        /* \"#utility.yul\":7941:7977   */\n      iszero\n      tag_337\n      jumpi\n        /* \"#utility.yul\":7957:7975   */\n      tag_338\n      tag_244\n      jump\t// in\n    tag_338:\n        /* \"#utility.yul\":7941:7977   */\n    tag_337:\n        /* \"#utility.yul\":7793:7984   */\n      swap3\n      swap2\n      pop\n      pop\n      jump\t// out\n        /* \"#utility.yul\":7990:8170   */\n    tag_124:\n        /* \"#utility.yul\":8038:8115   */\n      0x4e487b7100000000000000000000000000000000000000000000000000000000\n        /* \"#utility.yul\":8035:8036   */\n      0x00\n        /* \"#utility.yul\":8028:8116   */\n      mstore\n        /* \"#utility.yul\":8135:8139   */\n      0x31\n        /* \"#utility.yul\":8132:8133   */\n      0x04\n        /* \"#utility.yul\":8125:8140   */\n      mstore\n        /* \"#utility.yul\":8159:8163   */\n      0x24\n        /* \"#utility.yul\":8156:8157   */\n      0x00\n        /* \"#utility.yul\":8149:8164   */\n      revert\n        /* \"#utility.yul\":8176:8618   */\n    tag_196:\n        /* \"#utility.yul\":8325:8329   */\n      0x00\n        /* \"#utility.yul\":8363:8365   */\n      0x60\n        /* \"#utility.yul\":8352:8361   */\n      dup3\n        /* \"#utility.yul\":8348:8366   */\n      add\n        /* \"#utility.yul\":8340:8366   */\n      swap1\n      pop\n        /* \"#utility.yul\":8376:8447   */\n      tag_341\n        /* \"#utility.yul\":8444:8445   */\n      0x00\n        /* \"#utility.yul\":8433:8442   */\n      dup4\n        /* \"#utility.yul\":8429:8446   */\n      add\n        /* \"#utility.yul\":8420:8426   */\n      dup7\n        /* \"#utility.yul\":8376:8447   */\n      tag_243\n      jump\t// in\n    tag_341:\n        /* \"#utility.yul\":8457:8529   */\n      tag_342\n        /* \"#utility.yul\":8525:8527   */\n      0x20\n        /* \"#utility.yul\":8514:8523   */\n      dup4\n        /* \"#utility.yul\":8510:8528   */\n      add\n        /* \"#utility.yul\":8501:8507   */\n      dup6\n        /* \"#utility.yul\":8457:8529   */\n      tag_243\n      jump\t// in\n    tag_342:\n        /* \"#utility.yul\":8539:8611   */\n      tag_343\n        /* \"#utility.yul\":8607:8609   */\n      0x40\n        /* \"#utility.yul\":8596:8605   */\n      dup4\n        /* \"#utility.yul\":8592:8610   */\n      add\n        /* \"#utility.yul\":8583:8589   */\n      dup5\n        /* \"#utility.yul\":8539:8611   */\n      tag_240\n      jump\t// in\n    tag_343:\n        /* \"#utility.yul\":8176:8618   */\n      swap5\n      swap4\n      pop\n      pop\n      pop\n      pop\n      jump\t// out\n        /* \"#utility.yul\":8624:8740   */\n    tag_245:\n        /* \"#utility.yul\":8694:8715   */\n      tag_345\n        /* \"#utility.yul\":8709:8714   */\n      dup2\n        /* \"#utility.yul\":8694:8715   */\n      tag_237\n      jump\t// in\n    tag_345:\n        /* \"#utility.yul\":8687:8692   */\n      dup2\n        /* \"#utility.yul\":8684:8716   */\n      eq\n        /* \"#utility.yul\":8674:8734   */\n      tag_346\n      jumpi\n        /* \"#utility.yul\":8730:8731   */\n      0x00\n        /* \"#utility.yul\":8727:8728   */\n      dup1\n        /* \"#utility.yul\":8720:8732   */\n      revert\n        /* \"#utility.yul\":8674:8734   */\n    tag_346:\n        /* \"#utility.yul\":8624:8740   */\n      pop\n      jump\t// out\n        /* \"#utility.yul\":8746:8883   */\n    tag_246:\n        /* \"#utility.yul\":8800:8805   */\n      0x00\n        /* \"#utility.yul\":8831:8837   */\n      dup2\n        /* \"#utility.yul\":8825:8838   */\n      mload\n        /* \"#utility.yul\":8816:8838   */\n      swap1\n      pop\n        /* \"#utility.yul\":8847:8877   */\n      tag_348\n        /* \"#utility.yul\":8871:8876   */\n      dup2\n        /* \"#utility.yul\":8847:8877   */\n      tag_245\n      jump\t// in\n    tag_348:\n        /* \"#utility.yul\":8746:8883   */\n      swap3\n      swap2\n      pop\n      pop\n      jump\t// out\n        /* \"#utility.yul\":8889:9234   */\n    tag_200:\n        /* \"#utility.yul\":8956:8962   */\n      0x00\n        /* \"#utility.yul\":9005:9007   */\n      0x20\n        /* \"#utility.yul\":8993:9002   */\n      dup3\n        /* \"#utility.yul\":8984:8991   */\n      dup5\n        /* \"#utility.yul\":8980:9003   */\n      sub\n        /* \"#utility.yul\":8976:9008   */\n      slt\n        /* \"#utility.yul\":8973:9092   */\n      iszero\n      tag_350\n      jumpi\n        /* \"#utility.yul\":9011:9090   */\n      tag_351\n      tag_224\n      jump\t// in\n    tag_351:\n        /* \"#utility.yul\":8973:9092   */\n    tag_350:\n        /* \"#utility.yul\":9131:9132   */\n      0x00\n        /* \"#utility.yul\":9156:9217   */\n      tag_352\n        /* \"#utility.yul\":9209:9216   */\n      dup5\n        /* \"#utility.yul\":9200:9206   */\n      dup3\n        /* \"#utility.yul\":9189:9198   */\n      dup6\n        /* \"#utility.yul\":9185:9207   */\n      add\n        /* \"#utility.yul\":9156:9217   */\n      tag_246\n      jump\t// in\n    tag_352:\n        /* \"#utility.yul\":9146:9217   */\n      swap2\n      pop\n        /* \"#utility.yul\":9102:9227   */\n      pop\n        /* \"#utility.yul\":8889:9234   */\n      swap3\n      swap2\n      pop\n      pop\n      jump\t// out\n\n    auxdata: 0xa26469706673582212203fdab01cbc5e2877b1d616a33ff658eb1e3c15fcb1292482c4a77ea8f79996c164736f6c63430008190033\n}\n",
				"bytecode": {
					"linkReferences": {},
					"object": "6080604052348015600e575f80fd5b50335f806101000a81548173ffffffffffffffffffffffffffffffffffffffff021916908373ffffffffffffffffffffffffffffffffffffffff16021790555061237c8061005b5f395ff3fe608060405234801561000f575f80fd5b50600436106100b2575f3560e01c80636a066be81161006f5780636a066be8146101c25780638da5cb5b146101de578063a2bdd08c146101fc578063b5eec1c814610218578063bd042d2e14610248578063c3698da414610278576100b2565b80630ac0be3f146100b65780630db36379146100e65780630e6cc31f1461011657806317a436ed146101465780633112fcc6146101765780635f15b1d9146101a6575b5f80fd5b6100d060048036038101906100cb9190611ed0565b610294565b6040516100dd9190611fc5565b60405180910390f35b61010060048036038101906100fb9190611fe5565b610398565b60405161010d9190611fc5565b60405180910390f35b610130600480360381019061012b9190611ed0565b610460565b60405161013d919061202a565b60405180910390f35b610160600480360381019061015b9190612043565b610579565b60405161016d91906120ab565b60405180910390f35b610190600480360381019061018b91906120ee565b6105a4565b60405161019d919061213b565b60405180910390f35b6101c060048036038101906101bb9190612154565b6105ec565b005b6101dc60048036038101906101d791906121a4565b61075c565b005b6101e66107da565b6040516101f3919061213b565b60405180910390f35b61021660048036038101906102119190612043565b6107fd565b005b610232600480360381019061022d9190611fe5565b6114f0565b60405161023f91906120ab565b60405180910390f35b610262600480360381019061025d9190612043565b611505565b60405161026f919061202a565b60405180910390f35b610292600480360381019061028d9190612154565b611695565b005b606060045f8473ffffffffffffffffffffffffffffffffffffffff1673ffffffffffffffffffffffffffffffffffffffff1681526020019081526020015f205f8373ffffffffffffffffffffffffffffffffffffffff1673ffffffffffffffffffffffffffffffffffffffff1681526020019081526020015f2080548060200260200160405190810160405280929190818152602001828054801561038b57602002820191905f5260205f20905b815f9054906101000a900473ffffffffffffffffffffffffffffffffffffffff1673ffffffffffffffffffffffffffffffffffffffff1681526020019060010190808311610342575b5050505050905092915050565b606060035f8373ffffffffffffffffffffffffffffffffffffffff1673ffffffffffffffffffffffffffffffffffffffff1681526020019081526020015f2080548060200260200160405190810160405280929190818152602001828054801561045457602002820191905f5260205f20905b815f9054906101000a900473ffffffffffffffffffffffffffffffffffffffff1673ffffffffffffffffffffffffffffffffffffffff168152602001906001019080831161040b575b50505050509050919050565b5f805f90505b60035f8573ffffffffffffffffffffffffffffffffffffffff1673ffffffffffffffffffffffffffffffffffffffff1681526020019081526020015f208054905081101561056e578273ffffffffffffffffffffffffffffffffffffffff1660035f8673ffffffffffffffffffffffffffffffffffffffff1673ffffffffffffffffffffffffffffffffffffffff1681526020019081526020015f208281548110610514576105136121cf565b5b905f5260205f20015f9054906101000a900473ffffffffffffffffffffffffffffffffffffffff1673ffffffffffffffffffffffffffffffffffffffff1603610561576001915050610573565b8080600101915050610466565b505f90505b92915050565b6001602052825f5260405f20602052815f5260405f20602052805f5260405f205f9250925050505481565b6005602052815f5260405f2081815481106105bd575f80fd5b905f5260205f20015f915091509054906101000a900473ffffffffffffffffffffffffffffffffffffffff1681565b5f8103610603576105fe3384846107fd565b610757565b8060015f3373ffffffffffffffffffffffffffffffffffffffff1673ffffffffffffffffffffffffffffffffffffffff1681526020019081526020015f205f8573ffffffffffffffffffffffffffffffffffffffff1673ffffffffffffffffffffffffffffffffffffffff1681526020019081526020015f205f8473ffffffffffffffffffffffffffffffffffffffff1673ffffffffffffffffffffffffffffffffffffffff1681526020019081526020015f20819055506106c53384611b28565b6106d0338484611bd6565b6106da3383611cc1565b8173ffffffffffffffffffffffffffffffffffffffff168373ffffffffffffffffffffffffffffffffffffffff163373ffffffffffffffffffffffffffffffffffffffff167f7ae337d22e62927a7215ad9c9a3a275863a9d305944d515360e7a2449dd85cce8460405161074e91906120ab565b60405180910390a45b505050565b428111610795576040517f769d11e400000000000000000000000000000000000000000000000000000000815260040160405180910390fd5b8060025f3373ffffffffffffffffffffffffffffffffffffffff1673ffffffffffffffffffffffffffffffffffffffff1681526020019081526020015f208190555050565b5f8054906101000a900473ffffffffffffffffffffffffffffffffffffffff1681565b610808838383611505565b61083e576040517f66a21ffb00000000000000000000000000000000000000000000000000000000815260040160405180910390fd5b5f5b60045f8573ffffffffffffffffffffffffffffffffffffffff1673ffffffffffffffffffffffffffffffffffffffff1681526020019081526020015f205f8473ffffffffffffffffffffffffffffffffffffffff1673ffffffffffffffffffffffffffffffffffffffff1681526020019081526020015f20805490508110156109b5578173ffffffffffffffffffffffffffffffffffffffff1660045f8673ffffffffffffffffffffffffffffffffffffffff1673ffffffffffffffffffffffffffffffffffffffff1681526020019081526020015f205f8573ffffffffffffffffffffffffffffffffffffffff1673ffffffffffffffffffffffffffffffffffffffff1681526020019081526020015f208281548110610964576109636121cf565b5b905f5260205f20015f9054906101000a900473ffffffffffffffffffffffffffffffffffffffff1673ffffffffffffffffffffffffffffffffffffffff1603156109b5578080600101915050610840565b5f8190505b600160045f8773ffffffffffffffffffffffffffffffffffffffff1673ffffffffffffffffffffffffffffffffffffffff1681526020019081526020015f205f8673ffffffffffffffffffffffffffffffffffffffff1673ffffffffffffffffffffffffffffffffffffffff1681526020019081526020015f2080549050610a429190612229565b811015610be35760045f8673ffffffffffffffffffffffffffffffffffffffff1673ffffffffffffffffffffffffffffffffffffffff1681526020019081526020015f205f8573ffffffffffffffffffffffffffffffffffffffff1673ffffffffffffffffffffffffffffffffffffffff1681526020019081526020015f20600182610ace919061225c565b81548110610adf57610ade6121cf565b5b905f5260205f20015f9054906101000a900473ffffffffffffffffffffffffffffffffffffffff1660045f8773ffffffffffffffffffffffffffffffffffffffff1673ffffffffffffffffffffffffffffffffffffffff1681526020019081526020015f205f8673ffffffffffffffffffffffffffffffffffffffff1673ffffffffffffffffffffffffffffffffffffffff1681526020019081526020015f208281548110610b9157610b906121cf565b5b905f5260205f20015f6101000a81548173ffffffffffffffffffffffffffffffffffffffff021916908373ffffffffffffffffffffffffffffffffffffffff16021790555080806001019150506109ba565b5060045f8573ffffffffffffffffffffffffffffffffffffffff1673ffffffffffffffffffffffffffffffffffffffff1681526020019081526020015f205f8473ffffffffffffffffffffffffffffffffffffffff1673ffffffffffffffffffffffffffffffffffffffff1681526020019081526020015f20805480610c6c57610c6b61228f565b5b600190038181905f5260205f20015f6101000a81549073ffffffffffffffffffffffffffffffffffffffff0219169055905560015f8573ffffffffffffffffffffffffffffffffffffffff1673ffffffffffffffffffffffffffffffffffffffff1681526020019081526020015f205f8473ffffffffffffffffffffffffffffffffffffffff1673ffffffffffffffffffffffffffffffffffffffff1681526020019081526020015f205f8373ffffffffffffffffffffffffffffffffffffffff1673ffffffffffffffffffffffffffffffffffffffff1681526020019081526020015f205f90555f60045f8673ffffffffffffffffffffffffffffffffffffffff1673ffffffffffffffffffffffffffffffffffffffff1681526020019081526020015f205f8573ffffffffffffffffffffffffffffffffffffffff1673ffffffffffffffffffffffffffffffffffffffff1681526020019081526020015f2080549050036110db575f90505b60035f8573ffffffffffffffffffffffffffffffffffffffff1673ffffffffffffffffffffffffffffffffffffffff1681526020019081526020015f20805490508110156110da578273ffffffffffffffffffffffffffffffffffffffff1660035f8673ffffffffffffffffffffffffffffffffffffffff1673ffffffffffffffffffffffffffffffffffffffff1681526020019081526020015f208281548110610e8857610e876121cf565b5b905f5260205f20015f9054906101000a900473ffffffffffffffffffffffffffffffffffffffff1673ffffffffffffffffffffffffffffffffffffffff16036110cd575f8190505b600160035f8773ffffffffffffffffffffffffffffffffffffffff1673ffffffffffffffffffffffffffffffffffffffff1681526020019081526020015f2080549050610f1d9190612229565b8110156110485760035f8673ffffffffffffffffffffffffffffffffffffffff1673ffffffffffffffffffffffffffffffffffffffff1681526020019081526020015f20600182610f6e919061225c565b81548110610f7f57610f7e6121cf565b5b905f5260205f20015f9054906101000a900473ffffffffffffffffffffffffffffffffffffffff1660035f8773ffffffffffffffffffffffffffffffffffffffff1673ffffffffffffffffffffffffffffffffffffffff1681526020019081526020015f208281548110610ff657610ff56121cf565b5b905f5260205f20015f6101000a81548173ffffffffffffffffffffffffffffffffffffffff021916908373ffffffffffffffffffffffffffffffffffffffff1602179055508080600101915050610ed0565b5060035f8573ffffffffffffffffffffffffffffffffffffffff1673ffffffffffffffffffffffffffffffffffffffff1681526020019081526020015f208054806110965761109561228f565b5b600190038181905f5260205f20015f6101000a81549073ffffffffffffffffffffffffffffffffffffffff021916905590556110da565b8080600101915050610dda565b5b5f8060035f8773ffffffffffffffffffffffffffffffffffffffff1673ffffffffffffffffffffffffffffffffffffffff1681526020019081526020015f2080548060200260200160405190810160405280929190818152602001828054801561119757602002820191905f5260205f20905b815f9054906101000a900473ffffffffffffffffffffffffffffffffffffffff1673ffffffffffffffffffffffffffffffffffffffff168152602001906001019080831161114e575b505050505090505f5b8151811015611294575f60015f8973ffffffffffffffffffffffffffffffffffffffff1673ffffffffffffffffffffffffffffffffffffffff1681526020019081526020015f205f8484815181106111fb576111fa6121cf565b5b602002602001015173ffffffffffffffffffffffffffffffffffffffff1673ffffffffffffffffffffffffffffffffffffffff1681526020019081526020015f205f8773ffffffffffffffffffffffffffffffffffffffff1673ffffffffffffffffffffffffffffffffffffffff1681526020019081526020015f205411156112875760019250611294565b80806001019150506111a0565b5081611477575f60055f8673ffffffffffffffffffffffffffffffffffffffff1673ffffffffffffffffffffffffffffffffffffffff1681526020019081526020015f2090505f5b8180549050811015611474578773ffffffffffffffffffffffffffffffffffffffff16828281548110611312576113116121cf565b5b905f5260205f20015f9054906101000a900473ffffffffffffffffffffffffffffffffffffffff1673ffffffffffffffffffffffffffffffffffffffff1603611467575f8190505b6001838054905061136b9190612229565b81101561141e5782600182611380919061225c565b81548110611391576113906121cf565b5b905f5260205f20015f9054906101000a900473ffffffffffffffffffffffffffffffffffffffff168382815481106113cc576113cb6121cf565b5b905f5260205f20015f6101000a81548173ffffffffffffffffffffffffffffffffffffffff021916908373ffffffffffffffffffffffffffffffffffffffff160217905550808060010191505061135a565b50818054806114305761142f61228f565b5b600190038181905f5260205f20015f6101000a81549073ffffffffffffffffffffffffffffffffffffffff02191690559055611474565b80806001019150506112dc565b50505b8373ffffffffffffffffffffffffffffffffffffffff168573ffffffffffffffffffffffffffffffffffffffff168773ffffffffffffffffffffffffffffffffffffffff167f8feee98c784e5546d0536039c928d5196ff80e1e67ab22fce85625ab401ce37e60405160405180910390a4505050505050565b6002602052805f5260405f205f915090505481565b5f805f90505b60045f8673ffffffffffffffffffffffffffffffffffffffff1673ffffffffffffffffffffffffffffffffffffffff1681526020019081526020015f205f8573ffffffffffffffffffffffffffffffffffffffff1673ffffffffffffffffffffffffffffffffffffffff1681526020019081526020015f2080549050811015611689578273ffffffffffffffffffffffffffffffffffffffff1660045f8773ffffffffffffffffffffffffffffffffffffffff1673ffffffffffffffffffffffffffffffffffffffff1681526020019081526020015f205f8673ffffffffffffffffffffffffffffffffffffffff1673ffffffffffffffffffffffffffffffffffffffff1681526020019081526020015f20828154811061162f5761162e6121cf565b5b905f5260205f20015f9054906101000a900473ffffffffffffffffffffffffffffffffffffffff1673ffffffffffffffffffffffffffffffffffffffff160361167c57600191505061168e565b808060010191505061150b565b505f90505b9392505050565b6116a0838333611505565b6116d6576040517f66a21ffb00000000000000000000000000000000000000000000000000000000815260040160405180910390fd5b5f60015f8573ffffffffffffffffffffffffffffffffffffffff1673ffffffffffffffffffffffffffffffffffffffff1681526020019081526020015f205f8473ffffffffffffffffffffffffffffffffffffffff1673ffffffffffffffffffffffffffffffffffffffff1681526020019081526020015f205f3373ffffffffffffffffffffffffffffffffffffffff1673ffffffffffffffffffffffffffffffffffffffff1681526020019081526020015f205490505f81036117c6576040517fdc49aee100000000000000000000000000000000000000000000000000000000815260040160405180910390fd5b5f60025f8673ffffffffffffffffffffffffffffffffffffffff1673ffffffffffffffffffffffffffffffffffffffff1681526020019081526020015f205490505f81148061181457508042105b1561184b576040517f61f4ddca00000000000000000000000000000000000000000000000000000000815260040160405180910390fd5b5f828411611859578361185b565b825b90508060015f8873ffffffffffffffffffffffffffffffffffffffff1673ffffffffffffffffffffffffffffffffffffffff1681526020019081526020015f205f8773ffffffffffffffffffffffffffffffffffffffff1673ffffffffffffffffffffffffffffffffffffffff1681526020019081526020015f205f3373ffffffffffffffffffffffffffffffffffffffff1673ffffffffffffffffffffffffffffffffffffffff1681526020019081526020015f205f82825461191f9190612229565b925050819055505f8573ffffffffffffffffffffffffffffffffffffffff166323b872dd8833856040518463ffffffff1660e01b8152600401611964939291906122bc565b6020604051808303815f875af1158015611980573d5f803e3d5ffd5b505050506040513d601f19601f820116820180604052508101906119a4919061231b565b9050806119dd576040517f90b8ec1800000000000000000000000000000000000000000000000000000000815260040160405180910390fd5b3373ffffffffffffffffffffffffffffffffffffffff168673ffffffffffffffffffffffffffffffffffffffff168873ffffffffffffffffffffffffffffffffffffffff167f342e7ff505a8a0364cd0dc2ff195c315e43bce86b204846ecd36913e117b109e85604051611a5191906120ab565b60405180910390a45f60015f8973ffffffffffffffffffffffffffffffffffffffff1673ffffffffffffffffffffffffffffffffffffffff1681526020019081526020015f205f8873ffffffffffffffffffffffffffffffffffffffff1673ffffffffffffffffffffffffffffffffffffffff1681526020019081526020015f205f3373ffffffffffffffffffffffffffffffffffffffff1673ffffffffffffffffffffffffffffffffffffffff1681526020019081526020015f205403611b1f57611b1e8787336107fd565b5b50505050505050565b611b328282610460565b611bd25760035f8373ffffffffffffffffffffffffffffffffffffffff1673ffffffffffffffffffffffffffffffffffffffff1681526020019081526020015f2081908060018154018082558091505060019003905f5260205f20015f9091909190916101000a81548173ffffffffffffffffffffffffffffffffffffffff021916908373ffffffffffffffffffffffffffffffffffffffff1602179055505b5050565b611be1838383611505565b611cbc5760045f8473ffffffffffffffffffffffffffffffffffffffff1673ffffffffffffffffffffffffffffffffffffffff1681526020019081526020015f205f8373ffffffffffffffffffffffffffffffffffffffff1673ffffffffffffffffffffffffffffffffffffffff1681526020019081526020015f2081908060018154018082558091505060019003905f5260205f20015f9091909190916101000a81548173ffffffffffffffffffffffffffffffffffffffff021916908373ffffffffffffffffffffffffffffffffffffffff1602179055505b505050565b5f805b60055f8473ffffffffffffffffffffffffffffffffffffffff1673ffffffffffffffffffffffffffffffffffffffff1681526020019081526020015f2080549050811015611dcb578373ffffffffffffffffffffffffffffffffffffffff1660055f8573ffffffffffffffffffffffffffffffffffffffff1673ffffffffffffffffffffffffffffffffffffffff1681526020019081526020015f208281548110611d7257611d716121cf565b5b905f5260205f20015f9054906101000a900473ffffffffffffffffffffffffffffffffffffffff1673ffffffffffffffffffffffffffffffffffffffff1603611dbe5760019150611dcb565b8080600101915050611cc4565b5080611e6d5760055f8373ffffffffffffffffffffffffffffffffffffffff1673ffffffffffffffffffffffffffffffffffffffff1681526020019081526020015f2083908060018154018082558091505060019003905f5260205f20015f9091909190916101000a81548173ffffffffffffffffffffffffffffffffffffffff021916908373ffffffffffffffffffffffffffffffffffffffff1602179055505b505050565b5f80fd5b5f73ffffffffffffffffffffffffffffffffffffffff82169050919050565b5f611e9f82611e76565b9050919050565b611eaf81611e95565b8114611eb9575f80fd5b50565b5f81359050611eca81611ea6565b92915050565b5f8060408385031215611ee657611ee5611e72565b5b5f611ef385828601611ebc565b9250506020611f0485828601611ebc565b9150509250929050565b5f81519050919050565b5f82825260208201905092915050565b5f819050602082019050919050565b611f4081611e95565b82525050565b5f611f518383611f37565b60208301905092915050565b5f602082019050919050565b5f611f7382611f0e565b611f7d8185611f18565b9350611f8883611f28565b805f5b83811015611fb8578151611f9f8882611f46565b9750611faa83611f5d565b925050600181019050611f8b565b5085935050505092915050565b5f6020820190508181035f830152611fdd8184611f69565b905092915050565b5f60208284031215611ffa57611ff9611e72565b5b5f61200784828501611ebc565b91505092915050565b5f8115159050919050565b61202481612010565b82525050565b5f60208201905061203d5f83018461201b565b92915050565b5f805f6060848603121561205a57612059611e72565b5b5f61206786828701611ebc565b935050602061207886828701611ebc565b925050604061208986828701611ebc565b9150509250925092565b5f819050919050565b6120a581612093565b82525050565b5f6020820190506120be5f83018461209c565b92915050565b6120cd81612093565b81146120d7575f80fd5b50565b5f813590506120e8816120c4565b92915050565b5f806040838503121561210457612103611e72565b5b5f61211185828601611ebc565b9250506020612122858286016120da565b9150509250929050565b61213581611e95565b82525050565b5f60208201905061214e5f83018461212c565b92915050565b5f805f6060848603121561216b5761216a611e72565b5b5f61217886828701611ebc565b935050602061218986828701611ebc565b925050604061219a868287016120da565b9150509250925092565b5f602082840312156121b9576121b8611e72565b5b5f6121c6848285016120da565b91505092915050565b7f4e487b71000000000000000000000000000000000000000000000000000000005f52603260045260245ffd5b7f4e487b71000000000000000000000000000000000000000000000000000000005f52601160045260245ffd5b5f61223382612093565b915061223e83612093565b9250828203905081811115612256576122556121fc565b5b92915050565b5f61226682612093565b915061227183612093565b9250828201905080821115612289576122886121fc565b5b92915050565b7f4e487b71000000000000000000000000000000000000000000000000000000005f52603160045260245ffd5b5f6060820190506122cf5f83018661212c565b6122dc602083018561212c565b6122e9604083018461209c565b949350505050565b6122fa81612010565b8114612304575f80fd5b50565b5f81519050612315816122f1565b92915050565b5f602082840312156123305761232f611e72565b5b5f61233d84828501612307565b9150509291505056fea26469706673582212203fdab01cbc5e2877b1d616a33ff658eb1e3c15fcb1292482c4a77ea8f79996c164736f6c63430008190033",
					"opcodes": "PUSH1 0x80 PUSH1 0x40 MSTORE CALLVALUE DUP1 ISZERO PUSH1 0xE JUMPI PUSH0 DUP1 REVERT JUMPDEST POP CALLER PUSH0 DUP1 PUSH2 0x100 EXP DUP2 SLOAD DUP2 PUSH20 0xFFFFFFFFFFFFFFFFFFFFFFFFFFFFFFFFFFFFFFFF MUL NOT AND SWAP1 DUP4 PUSH20 0xFFFFFFFFFFFFFFFFFFFFFFFFFFFFFFFFFFFFFFFF AND MUL OR SWAP1 SSTORE POP PUSH2 0x237C DUP1 PUSH2 0x5B PUSH0 CODECOPY PUSH0 RETURN INVALID PUSH1 0x80 PUSH1 0x40 MSTORE CALLVALUE DUP1 ISZERO PUSH2 0xF JUMPI PUSH0 DUP1 REVERT JUMPDEST POP PUSH1 0x4 CALLDATASIZE LT PUSH2 0xB2 JUMPI PUSH0 CALLDATALOAD PUSH1 0xE0 SHR DUP1 PUSH4 0x6A066BE8 GT PUSH2 0x6F JUMPI DUP1 PUSH4 0x6A066BE8 EQ PUSH2 0x1C2 JUMPI DUP1 PUSH4 0x8DA5CB5B EQ PUSH2 0x1DE JUMPI DUP1 PUSH4 0xA2BDD08C EQ PUSH2 0x1FC JUMPI DUP1 PUSH4 0xB5EEC1C8 EQ PUSH2 0x218 JUMPI DUP1 PUSH4 0xBD042D2E EQ PUSH2 0x248 JUMPI DUP1 PUSH4 0xC3698DA4 EQ PUSH2 0x278 JUMPI PUSH2 0xB2 JUMP JUMPDEST DUP1 PUSH4 0xAC0BE3F EQ PUSH2 0xB6 JUMPI DUP1 PUSH4 0xDB36379 EQ PUSH2 0xE6 JUMPI DUP1 PUSH4 0xE6CC31F EQ PUSH2 0x116 JUMPI DUP1 PUSH4 0x17A436ED EQ PUSH2 0x146 JUMPI DUP1 PUSH4 0x3112FCC6 EQ PUSH2 0x176 JUMPI DUP1 PUSH4 0x5F15B1D9 EQ PUSH2 0x1A6 JUMPI JUMPDEST PUSH0 DUP1 REVERT JUMPDEST PUSH2 0xD0 PUSH1 0x4 DUP1 CALLDATASIZE SUB DUP2 ADD SWAP1 PUSH2 0xCB SWAP2 SWAP1 PUSH2 0x1ED0 JUMP JUMPDEST PUSH2 0x294 JUMP JUMPDEST PUSH1 0x40 MLOAD PUSH2 0xDD SWAP2 SWAP1 PUSH2 0x1FC5 JUMP JUMPDEST PUSH1 0x40 MLOAD DUP1 SWAP2 SUB SWAP1 RETURN JUMPDEST PUSH2 0x100 PUSH1 0x4 DUP1 CALLDATASIZE SUB DUP2 ADD SWAP1 PUSH2 0xFB SWAP2 SWAP1 PUSH2 0x1FE5 JUMP JUMPDEST PUSH2 0x398 JUMP JUMPDEST PUSH1 0x40 MLOAD PUSH2 0x10D SWAP2 SWAP1 PUSH2 0x1FC5 JUMP JUMPDEST PUSH1 0x40 MLOAD DUP1 SWAP2 SUB SWAP1 RETURN JUMPDEST PUSH2 0x130 PUSH1 0x4 DUP1 CALLDATASIZE SUB DUP2 ADD SWAP1 PUSH2 0x12B SWAP2 SWAP1 PUSH2 0x1ED0 JUMP JUMPDEST PUSH2 0x460 JUMP JUMPDEST PUSH1 0x40 MLOAD PUSH2 0x13D SWAP2 SWAP1 PUSH2 0x202A JUMP JUMPDEST PUSH1 0x40 MLOAD DUP1 SWAP2 SUB SWAP1 RETURN JUMPDEST PUSH2 0x160 PUSH1 0x4 DUP1 CALLDATASIZE SUB DUP2 ADD SWAP1 PUSH2 0x15B SWAP2 SWAP1 PUSH2 0x2043 JUMP JUMPDEST PUSH2 0x579 JUMP JUMPDEST PUSH1 0x40 MLOAD PUSH2 0x16D SWAP2 SWAP1 PUSH2 0x20AB JUMP JUMPDEST PUSH1 0x40 MLOAD DUP1 SWAP2 SUB SWAP1 RETURN JUMPDEST PUSH2 0x190 PUSH1 0x4 DUP1 CALLDATASIZE SUB DUP2 ADD SWAP1 PUSH2 0x18B SWAP2 SWAP1 PUSH2 0x20EE JUMP JUMPDEST PUSH2 0x5A4 JUMP JUMPDEST PUSH1 0x40 MLOAD PUSH2 0x19D SWAP2 SWAP1 PUSH2 0x213B JUMP JUMPDEST PUSH1 0x40 MLOAD DUP1 SWAP2 SUB SWAP1 RETURN JUMPDEST PUSH2 0x1C0 PUSH1 0x4 DUP1 CALLDATASIZE SUB DUP2 ADD SWAP1 PUSH2 0x1BB SWAP2 SWAP1 PUSH2 0x2154 JUMP JUMPDEST PUSH2 0x5EC JUMP JUMPDEST STOP JUMPDEST PUSH2 0x1DC PUSH1 0x4 DUP1 CALLDATASIZE SUB DUP2 ADD SWAP1 PUSH2 0x1D7 SWAP2 SWAP1 PUSH2 0x21A4 JUMP JUMPDEST PUSH2 0x75C JUMP JUMPDEST STOP JUMPDEST PUSH2 0x1E6 PUSH2 0x7DA JUMP JUMPDEST PUSH1 0x40 MLOAD PUSH2 0x1F3 SWAP2 SWAP1 PUSH2 0x213B JUMP JUMPDEST PUSH1 0x40 MLOAD DUP1 SWAP2 SUB SWAP1 RETURN JUMPDEST PUSH2 0x216 PUSH1 0x4 DUP1 CALLDATASIZE SUB DUP2 ADD SWAP1 PUSH2 0x211 SWAP2 SWAP1 PUSH2 0x2043 JUMP JUMPDEST PUSH2 0x7FD JUMP JUMPDEST STOP JUMPDEST PUSH2 0x232 PUSH1 0x4 DUP1 CALLDATASIZE SUB DUP2 ADD SWAP1 PUSH2 0x22D SWAP2 SWAP1 PUSH2 0x1FE5 JUMP JUMPDEST PUSH2 0x14F0 JUMP JUMPDEST PUSH1 0x40 MLOAD PUSH2 0x23F SWAP2 SWAP1 PUSH2 0x20AB JUMP JUMPDEST PUSH1 0x40 MLOAD DUP1 SWAP2 SUB SWAP1 RETURN JUMPDEST PUSH2 0x262 PUSH1 0x4 DUP1 CALLDATASIZE SUB DUP2 ADD SWAP1 PUSH2 0x25D SWAP2 SWAP1 PUSH2 0x2043 JUMP JUMPDEST PUSH2 0x1505 JUMP JUMPDEST PUSH1 0x40 MLOAD PUSH2 0x26F SWAP2 SWAP1 PUSH2 0x202A JUMP JUMPDEST PUSH1 0x40 MLOAD DUP1 SWAP2 SUB SWAP1 RETURN JUMPDEST PUSH2 0x292 PUSH1 0x4 DUP1 CALLDATASIZE SUB DUP2 ADD SWAP1 PUSH2 0x28D SWAP2 SWAP1 PUSH2 0x2154 JUMP JUMPDEST PUSH2 0x1695 JUMP JUMPDEST STOP JUMPDEST PUSH1 0x60 PUSH1 0x4 PUSH0 DUP5 PUSH20 0xFFFFFFFFFFFFFFFFFFFFFFFFFFFFFFFFFFFFFFFF AND PUSH20 0xFFFFFFFFFFFFFFFFFFFFFFFFFFFFFFFFFFFFFFFF AND DUP2 MSTORE PUSH1 0x20 ADD SWAP1 DUP2 MSTORE PUSH1 0x20 ADD PUSH0 KECCAK256 PUSH0 DUP4 PUSH20 0xFFFFFFFFFFFFFFFFFFFFFFFFFFFFFFFFFFFFFFFF AND PUSH20 0xFFFFFFFFFFFFFFFFFFFFFFFFFFFFFFFFFFFFFFFF AND DUP2 MSTORE PUSH1 0x20 ADD SWAP1 DUP2 MSTORE PUSH1 0x20 ADD PUSH0 KECCAK256 DUP1 SLOAD DUP1 PUSH1 0x20 MUL PUSH1 0x20 ADD PUSH1 0x40 MLOAD SWAP1 DUP2 ADD PUSH1 0x40 MSTORE DUP1 SWAP3 SWAP2 SWAP1 DUP2 DUP2 MSTORE PUSH1 0x20 ADD DUP3 DUP1 SLOAD DUP1 ISZERO PUSH2 0x38B JUMPI PUSH1 0x20 MUL DUP3 ADD SWAP2 SWAP1 PUSH0 MSTORE PUSH1 0x20 PUSH0 KECCAK256 SWAP1 JUMPDEST DUP2 PUSH0 SWAP1 SLOAD SWAP1 PUSH2 0x100 EXP SWAP1 DIV PUSH20 0xFFFFFFFFFFFFFFFFFFFFFFFFFFFFFFFFFFFFFFFF AND PUSH20 0xFFFFFFFFFFFFFFFFFFFFFFFFFFFFFFFFFFFFFFFF AND DUP2 MSTORE PUSH1 0x20 ADD SWAP1 PUSH1 0x1 ADD SWAP1 DUP1 DUP4 GT PUSH2 0x342 JUMPI JUMPDEST POP POP POP POP POP SWAP1 POP SWAP3 SWAP2 POP POP JUMP JUMPDEST PUSH1 0x60 PUSH1 0x3 PUSH0 DUP4 PUSH20 0xFFFFFFFFFFFFFFFFFFFFFFFFFFFFFFFFFFFFFFFF AND PUSH20 0xFFFFFFFFFFFFFFFFFFFFFFFFFFFFFFFFFFFFFFFF AND DUP2 MSTORE PUSH1 0x20 ADD SWAP1 DUP2 MSTORE PUSH1 0x20 ADD PUSH0 KECCAK256 DUP1 SLOAD DUP1 PUSH1 0x20 MUL PUSH1 0x20 ADD PUSH1 0x40 MLOAD SWAP1 DUP2 ADD PUSH1 0x40 MSTORE DUP1 SWAP3 SWAP2 SWAP1 DUP2 DUP2 MSTORE PUSH1 0x20 ADD DUP3 DUP1 SLOAD DUP1 ISZERO PUSH2 0x454 JUMPI PUSH1 0x20 MUL DUP3 ADD SWAP2 SWAP1 PUSH0 MSTORE PUSH1 0x20 PUSH0 KECCAK256 SWAP1 JUMPDEST DUP2 PUSH0 SWAP1 SLOAD SWAP1 PUSH2 0x100 EXP SWAP1 DIV PUSH20 0xFFFFFFFFFFFFFFFFFFFFFFFFFFFFFFFFFFFFFFFF AND PUSH20 0xFFFFFFFFFFFFFFFFFFFFFFFFFFFFFFFFFFFFFFFF AND DUP2 MSTORE PUSH1 0x20 ADD SWAP1 PUSH1 0x1 ADD SWAP1 DUP1 DUP4 GT PUSH2 0x40B JUMPI JUMPDEST POP POP POP POP POP SWAP1 POP SWAP2 SWAP1 POP JUMP JUMPDEST PUSH0 DUP1 PUSH0 SWAP1 POP JUMPDEST PUSH1 0x3 PUSH0 DUP6 PUSH20 0xFFFFFFFFFFFFFFFFFFFFFFFFFFFFFFFFFFFFFFFF AND PUSH20 0xFFFFFFFFFFFFFFFFFFFFFFFFFFFFFFFFFFFFFFFF AND DUP2 MSTORE PUSH1 0x20 ADD SWAP1 DUP2 MSTORE PUSH1 0x20 ADD PUSH0 KECCAK256 DUP1 SLOAD SWAP1 POP DUP2 LT ISZERO PUSH2 0x56E JUMPI DUP3 PUSH20 0xFFFFFFFFFFFFFFFFFFFFFFFFFFFFFFFFFFFFFFFF AND PUSH1 0x3 PUSH0 DUP7 PUSH20 0xFFFFFFFFFFFFFFFFFFFFFFFFFFFFFFFFFFFFFFFF AND PUSH20 0xFFFFFFFFFFFFFFFFFFFFFFFFFFFFFFFFFFFFFFFF AND DUP2 MSTORE PUSH1 0x20 ADD SWAP1 DUP2 MSTORE PUSH1 0x20 ADD PUSH0 KECCAK256 DUP3 DUP2 SLOAD DUP2 LT PUSH2 0x514 JUMPI PUSH2 0x513 PUSH2 0x21CF JUMP JUMPDEST JUMPDEST SWAP1 PUSH0 MSTORE PUSH1 0x20 PUSH0 KECCAK256 ADD PUSH0 SWAP1 SLOAD SWAP1 PUSH2 0x100 EXP SWAP1 DIV PUSH20 0xFFFFFFFFFFFFFFFFFFFFFFFFFFFFFFFFFFFFFFFF AND PUSH20 0xFFFFFFFFFFFFFFFFFFFFFFFFFFFFFFFFFFFFFFFF AND SUB PUSH2 0x561 JUMPI PUSH1 0x1 SWAP2 POP POP PUSH2 0x573 JUMP JUMPDEST DUP1 DUP1 PUSH1 0x1 ADD SWAP2 POP POP PUSH2 0x466 JUMP JUMPDEST POP PUSH0 SWAP1 POP JUMPDEST SWAP3 SWAP2 POP POP JUMP JUMPDEST PUSH1 0x1 PUSH1 0x20 MSTORE DUP3 PUSH0 MSTORE PUSH1 0x40 PUSH0 KECCAK256 PUSH1 0x20 MSTORE DUP2 PUSH0 MSTORE PUSH1 0x40 PUSH0 KECCAK256 PUSH1 0x20 MSTORE DUP1 PUSH0 MSTORE PUSH1 0x40 PUSH0 KECCAK256 PUSH0 SWAP3 POP SWAP3 POP POP POP SLOAD DUP2 JUMP JUMPDEST PUSH1 0x5 PUSH1 0x20 MSTORE DUP2 PUSH0 MSTORE PUSH1 0x40 PUSH0 KECCAK256 DUP2 DUP2 SLOAD DUP2 LT PUSH2 0x5BD JUMPI PUSH0 DUP1 REVERT JUMPDEST SWAP1 PUSH0 MSTORE PUSH1 0x20 PUSH0 KECCAK256 ADD PUSH0 SWAP2 POP SWAP2 POP SWAP1 SLOAD SWAP1 PUSH2 0x100 EXP SWAP1 DIV PUSH20 0xFFFFFFFFFFFFFFFFFFFFFFFFFFFFFFFFFFFFFFFF AND DUP2 JUMP JUMPDEST PUSH0 DUP2 SUB PUSH2 0x603 JUMPI PUSH2 0x5FE CALLER DUP5 DUP5 PUSH2 0x7FD JUMP JUMPDEST PUSH2 0x757 JUMP JUMPDEST DUP1 PUSH1 0x1 PUSH0 CALLER PUSH20 0xFFFFFFFFFFFFFFFFFFFFFFFFFFFFFFFFFFFFFFFF AND PUSH20 0xFFFFFFFFFFFFFFFFFFFFFFFFFFFFFFFFFFFFFFFF AND DUP2 MSTORE PUSH1 0x20 ADD SWAP1 DUP2 MSTORE PUSH1 0x20 ADD PUSH0 KECCAK256 PUSH0 DUP6 PUSH20 0xFFFFFFFFFFFFFFFFFFFFFFFFFFFFFFFFFFFFFFFF AND PUSH20 0xFFFFFFFFFFFFFFFFFFFFFFFFFFFFFFFFFFFFFFFF AND DUP2 MSTORE PUSH1 0x20 ADD SWAP1 DUP2 MSTORE PUSH1 0x20 ADD PUSH0 KECCAK256 PUSH0 DUP5 PUSH20 0xFFFFFFFFFFFFFFFFFFFFFFFFFFFFFFFFFFFFFFFF AND PUSH20 0xFFFFFFFFFFFFFFFFFFFFFFFFFFFFFFFFFFFFFFFF AND DUP2 MSTORE PUSH1 0x20 ADD SWAP1 DUP2 MSTORE PUSH1 0x20 ADD PUSH0 KECCAK256 DUP2 SWAP1 SSTORE POP PUSH2 0x6C5 CALLER DUP5 PUSH2 0x1B28 JUMP JUMPDEST PUSH2 0x6D0 CALLER DUP5 DUP5 PUSH2 0x1BD6 JUMP JUMPDEST PUSH2 0x6DA CALLER DUP4 PUSH2 0x1CC1 JUMP JUMPDEST DUP2 PUSH20 0xFFFFFFFFFFFFFFFFFFFFFFFFFFFFFFFFFFFFFFFF AND DUP4 PUSH20 0xFFFFFFFFFFFFFFFFFFFFFFFFFFFFFFFFFFFFFFFF AND CALLER PUSH20 0xFFFFFFFFFFFFFFFFFFFFFFFFFFFFFFFFFFFFFFFF AND PUSH32 0x7AE337D22E62927A7215AD9C9A3A275863A9D305944D515360E7A2449DD85CCE DUP5 PUSH1 0x40 MLOAD PUSH2 0x74E SWAP2 SWAP1 PUSH2 0x20AB JUMP JUMPDEST PUSH1 0x40 MLOAD DUP1 SWAP2 SUB SWAP1 LOG4 JUMPDEST POP POP POP JUMP JUMPDEST TIMESTAMP DUP2 GT PUSH2 0x795 JUMPI PUSH1 0x40 MLOAD PUSH32 0x769D11E400000000000000000000000000000000000000000000000000000000 DUP2 MSTORE PUSH1 0x4 ADD PUSH1 0x40 MLOAD DUP1 SWAP2 SUB SWAP1 REVERT JUMPDEST DUP1 PUSH1 0x2 PUSH0 CALLER PUSH20 0xFFFFFFFFFFFFFFFFFFFFFFFFFFFFFFFFFFFFFFFF AND PUSH20 0xFFFFFFFFFFFFFFFFFFFFFFFFFFFFFFFFFFFFFFFF AND DUP2 MSTORE PUSH1 0x20 ADD SWAP1 DUP2 MSTORE PUSH1 0x20 ADD PUSH0 KECCAK256 DUP2 SWAP1 SSTORE POP POP JUMP JUMPDEST PUSH0 DUP1 SLOAD SWAP1 PUSH2 0x100 EXP SWAP1 DIV PUSH20 0xFFFFFFFFFFFFFFFFFFFFFFFFFFFFFFFFFFFFFFFF AND DUP2 JUMP JUMPDEST PUSH2 0x808 DUP4 DUP4 DUP4 PUSH2 0x1505 JUMP JUMPDEST PUSH2 0x83E JUMPI PUSH1 0x40 MLOAD PUSH32 0x66A21FFB00000000000000000000000000000000000000000000000000000000 DUP2 MSTORE PUSH1 0x4 ADD PUSH1 0x40 MLOAD DUP1 SWAP2 SUB SWAP1 REVERT JUMPDEST PUSH0 JUMPDEST PUSH1 0x4 PUSH0 DUP6 PUSH20 0xFFFFFFFFFFFFFFFFFFFFFFFFFFFFFFFFFFFFFFFF AND PUSH20 0xFFFFFFFFFFFFFFFFFFFFFFFFFFFFFFFFFFFFFFFF AND DUP2 MSTORE PUSH1 0x20 ADD SWAP1 DUP2 MSTORE PUSH1 0x20 ADD PUSH0 KECCAK256 PUSH0 DUP5 PUSH20 0xFFFFFFFFFFFFFFFFFFFFFFFFFFFFFFFFFFFFFFFF AND PUSH20 0xFFFFFFFFFFFFFFFFFFFFFFFFFFFFFFFFFFFFFFFF AND DUP2 MSTORE PUSH1 0x20 ADD SWAP1 DUP2 MSTORE PUSH1 0x20 ADD PUSH0 KECCAK256 DUP1 SLOAD SWAP1 POP DUP2 LT ISZERO PUSH2 0x9B5 JUMPI DUP2 PUSH20 0xFFFFFFFFFFFFFFFFFFFFFFFFFFFFFFFFFFFFFFFF AND PUSH1 0x4 PUSH0 DUP7 PUSH20 0xFFFFFFFFFFFFFFFFFFFFFFFFFFFFFFFFFFFFFFFF AND PUSH20 0xFFFFFFFFFFFFFFFFFFFFFFFFFFFFFFFFFFFFFFFF AND DUP2 MSTORE PUSH1 0x20 ADD SWAP1 DUP2 MSTORE PUSH1 0x20 ADD PUSH0 KECCAK256 PUSH0 DUP6 PUSH20 0xFFFFFFFFFFFFFFFFFFFFFFFFFFFFFFFFFFFFFFFF AND PUSH20 0xFFFFFFFFFFFFFFFFFFFFFFFFFFFFFFFFFFFFFFFF AND DUP2 MSTORE PUSH1 0x20 ADD SWAP1 DUP2 MSTORE PUSH1 0x20 ADD PUSH0 KECCAK256 DUP3 DUP2 SLOAD DUP2 LT PUSH2 0x964 JUMPI PUSH2 0x963 PUSH2 0x21CF JUMP JUMPDEST JUMPDEST SWAP1 PUSH0 MSTORE PUSH1 0x20 PUSH0 KECCAK256 ADD PUSH0 SWAP1 SLOAD SWAP1 PUSH2 0x100 EXP SWAP1 DIV PUSH20 0xFFFFFFFFFFFFFFFFFFFFFFFFFFFFFFFFFFFFFFFF AND PUSH20 0xFFFFFFFFFFFFFFFFFFFFFFFFFFFFFFFFFFFFFFFF AND SUB ISZERO PUSH2 0x9B5 JUMPI DUP1 DUP1 PUSH1 0x1 ADD SWAP2 POP POP PUSH2 0x840 JUMP JUMPDEST PUSH0 DUP2 SWAP1 POP JUMPDEST PUSH1 0x1 PUSH1 0x4 PUSH0 DUP8 PUSH20 0xFFFFFFFFFFFFFFFFFFFFFFFFFFFFFFFFFFFFFFFF AND PUSH20 0xFFFFFFFFFFFFFFFFFFFFFFFFFFFFFFFFFFFFFFFF AND DUP2 MSTORE PUSH1 0x20 ADD SWAP1 DUP2 MSTORE PUSH1 0x20 ADD PUSH0 KECCAK256 PUSH0 DUP7 PUSH20 0xFFFFFFFFFFFFFFFFFFFFFFFFFFFFFFFFFFFFFFFF AND PUSH20 0xFFFFFFFFFFFFFFFFFFFFFFFFFFFFFFFFFFFFFFFF AND DUP2 MSTORE PUSH1 0x20 ADD SWAP1 DUP2 MSTORE PUSH1 0x20 ADD PUSH0 KECCAK256 DUP1 SLOAD SWAP1 POP PUSH2 0xA42 SWAP2 SWAP1 PUSH2 0x2229 JUMP JUMPDEST DUP2 LT ISZERO PUSH2 0xBE3 JUMPI PUSH1 0x4 PUSH0 DUP7 PUSH20 0xFFFFFFFFFFFFFFFFFFFFFFFFFFFFFFFFFFFFFFFF AND PUSH20 0xFFFFFFFFFFFFFFFFFFFFFFFFFFFFFFFFFFFFFFFF AND DUP2 MSTORE PUSH1 0x20 ADD SWAP1 DUP2 MSTORE PUSH1 0x20 ADD PUSH0 KECCAK256 PUSH0 DUP6 PUSH20 0xFFFFFFFFFFFFFFFFFFFFFFFFFFFFFFFFFFFFFFFF AND PUSH20 0xFFFFFFFFFFFFFFFFFFFFFFFFFFFFFFFFFFFFFFFF AND DUP2 MSTORE PUSH1 0x20 ADD SWAP1 DUP2 MSTORE PUSH1 0x20 ADD PUSH0 KECCAK256 PUSH1 0x1 DUP3 PUSH2 0xACE SWAP2 SWAP1 PUSH2 0x225C JUMP JUMPDEST DUP2 SLOAD DUP2 LT PUSH2 0xADF JUMPI PUSH2 0xADE PUSH2 0x21CF JUMP JUMPDEST JUMPDEST SWAP1 PUSH0 MSTORE PUSH1 0x20 PUSH0 KECCAK256 ADD PUSH0 SWAP1 SLOAD SWAP1 PUSH2 0x100 EXP SWAP1 DIV PUSH20 0xFFFFFFFFFFFFFFFFFFFFFFFFFFFFFFFFFFFFFFFF AND PUSH1 0x4 PUSH0 DUP8 PUSH20 0xFFFFFFFFFFFFFFFFFFFFFFFFFFFFFFFFFFFFFFFF AND PUSH20 0xFFFFFFFFFFFFFFFFFFFFFFFFFFFFFFFFFFFFFFFF AND DUP2 MSTORE PUSH1 0x20 ADD SWAP1 DUP2 MSTORE PUSH1 0x20 ADD PUSH0 KECCAK256 PUSH0 DUP7 PUSH20 0xFFFFFFFFFFFFFFFFFFFFFFFFFFFFFFFFFFFFFFFF AND PUSH20 0xFFFFFFFFFFFFFFFFFFFFFFFFFFFFFFFFFFFFFFFF AND DUP2 MSTORE PUSH1 0x20 ADD SWAP1 DUP2 MSTORE PUSH1 0x20 ADD PUSH0 KECCAK256 DUP3 DUP2 SLOAD DUP2 LT PUSH2 0xB91 JUMPI PUSH2 0xB90 PUSH2 0x21CF JUMP JUMPDEST JUMPDEST SWAP1 PUSH0 MSTORE PUSH1 0x20 PUSH0 KECCAK256 ADD PUSH0 PUSH2 0x100 EXP DUP2 SLOAD DUP2 PUSH20 0xFFFFFFFFFFFFFFFFFFFFFFFFFFFFFFFFFFFFFFFF MUL NOT AND SWAP1 DUP4 PUSH20 0xFFFFFFFFFFFFFFFFFFFFFFFFFFFFFFFFFFFFFFFF AND MUL OR SWAP1 SSTORE POP DUP1 DUP1 PUSH1 0x1 ADD SWAP2 POP POP PUSH2 0x9BA JUMP JUMPDEST POP PUSH1 0x4 PUSH0 DUP6 PUSH20 0xFFFFFFFFFFFFFFFFFFFFFFFFFFFFFFFFFFFFFFFF AND PUSH20 0xFFFFFFFFFFFFFFFFFFFFFFFFFFFFFFFFFFFFFFFF AND DUP2 MSTORE PUSH1 0x20 ADD SWAP1 DUP2 MSTORE PUSH1 0x20 ADD PUSH0 KECCAK256 PUSH0 DUP5 PUSH20 0xFFFFFFFFFFFFFFFFFFFFFFFFFFFFFFFFFFFFFFFF AND PUSH20 0xFFFFFFFFFFFFFFFFFFFFFFFFFFFFFFFFFFFFFFFF AND DUP2 MSTORE PUSH1 0x20 ADD SWAP1 DUP2 MSTORE PUSH1 0x20 ADD PUSH0 KECCAK256 DUP1 SLOAD DUP1 PUSH2 0xC6C JUMPI PUSH2 0xC6B PUSH2 0x228F JUMP JUMPDEST JUMPDEST PUSH1 0x1 SWAP1 SUB DUP2 DUP2 SWAP1 PUSH0 MSTORE PUSH1 0x20 PUSH0 KECCAK256 ADD PUSH0 PUSH2 0x100 EXP DUP2 SLOAD SWAP1 PUSH20 0xFFFFFFFFFFFFFFFFFFFFFFFFFFFFFFFFFFFFFFFF MUL NOT AND SWAP1 SSTORE SWAP1 SSTORE PUSH1 0x1 PUSH0 DUP6 PUSH20 0xFFFFFFFFFFFFFFFFFFFFFFFFFFFFFFFFFFFFFFFF AND PUSH20 0xFFFFFFFFFFFFFFFFFFFFFFFFFFFFFFFFFFFFFFFF AND DUP2 MSTORE PUSH1 0x20 ADD SWAP1 DUP2 MSTORE PUSH1 0x20 ADD PUSH0 KECCAK256 PUSH0 DUP5 PUSH20 0xFFFFFFFFFFFFFFFFFFFFFFFFFFFFFFFFFFFFFFFF AND PUSH20 0xFFFFFFFFFFFFFFFFFFFFFFFFFFFFFFFFFFFFFFFF AND DUP2 MSTORE PUSH1 0x20 ADD SWAP1 DUP2 MSTORE PUSH1 0x20 ADD PUSH0 KECCAK256 PUSH0 DUP4 PUSH20 0xFFFFFFFFFFFFFFFFFFFFFFFFFFFFFFFFFFFFFFFF AND PUSH20 0xFFFFFFFFFFFFFFFFFFFFFFFFFFFFFFFFFFFFFFFF AND DUP2 MSTORE PUSH1 0x20 ADD SWAP1 DUP2 MSTORE PUSH1 0x20 ADD PUSH0 KECCAK256 PUSH0 SWAP1 SSTORE PUSH0 PUSH1 0x4 PUSH0 DUP7 PUSH20 0xFFFFFFFFFFFFFFFFFFFFFFFFFFFFFFFFFFFFFFFF AND PUSH20 0xFFFFFFFFFFFFFFFFFFFFFFFFFFFFFFFFFFFFFFFF AND DUP2 MSTORE PUSH1 0x20 ADD SWAP1 DUP2 MSTORE PUSH1 0x20 ADD PUSH0 KECCAK256 PUSH0 DUP6 PUSH20 0xFFFFFFFFFFFFFFFFFFFFFFFFFFFFFFFFFFFFFFFF AND PUSH20 0xFFFFFFFFFFFFFFFFFFFFFFFFFFFFFFFFFFFFFFFF AND DUP2 MSTORE PUSH1 0x20 ADD SWAP1 DUP2 MSTORE PUSH1 0x20 ADD PUSH0 KECCAK256 DUP1 SLOAD SWAP1 POP SUB PUSH2 0x10DB JUMPI PUSH0 SWAP1 POP JUMPDEST PUSH1 0x3 PUSH0 DUP6 PUSH20 0xFFFFFFFFFFFFFFFFFFFFFFFFFFFFFFFFFFFFFFFF AND PUSH20 0xFFFFFFFFFFFFFFFFFFFFFFFFFFFFFFFFFFFFFFFF AND DUP2 MSTORE PUSH1 0x20 ADD SWAP1 DUP2 MSTORE PUSH1 0x20 ADD PUSH0 KECCAK256 DUP1 SLOAD SWAP1 POP DUP2 LT ISZERO PUSH2 0x10DA JUMPI DUP3 PUSH20 0xFFFFFFFFFFFFFFFFFFFFFFFFFFFFFFFFFFFFFFFF AND PUSH1 0x3 PUSH0 DUP7 PUSH20 0xFFFFFFFFFFFFFFFFFFFFFFFFFFFFFFFFFFFFFFFF AND PUSH20 0xFFFFFFFFFFFFFFFFFFFFFFFFFFFFFFFFFFFFFFFF AND DUP2 MSTORE PUSH1 0x20 ADD SWAP1 DUP2 MSTORE PUSH1 0x20 ADD PUSH0 KECCAK256 DUP3 DUP2 SLOAD DUP2 LT PUSH2 0xE88 JUMPI PUSH2 0xE87 PUSH2 0x21CF JUMP JUMPDEST JUMPDEST SWAP1 PUSH0 MSTORE PUSH1 0x20 PUSH0 KECCAK256 ADD PUSH0 SWAP1 SLOAD SWAP1 PUSH2 0x100 EXP SWAP1 DIV PUSH20 0xFFFFFFFFFFFFFFFFFFFFFFFFFFFFFFFFFFFFFFFF AND PUSH20 0xFFFFFFFFFFFFFFFFFFFFFFFFFFFFFFFFFFFFFFFF AND SUB PUSH2 0x10CD JUMPI PUSH0 DUP2 SWAP1 POP JUMPDEST PUSH1 0x1 PUSH1 0x3 PUSH0 DUP8 PUSH20 0xFFFFFFFFFFFFFFFFFFFFFFFFFFFFFFFFFFFFFFFF AND PUSH20 0xFFFFFFFFFFFFFFFFFFFFFFFFFFFFFFFFFFFFFFFF AND DUP2 MSTORE PUSH1 0x20 ADD SWAP1 DUP2 MSTORE PUSH1 0x20 ADD PUSH0 KECCAK256 DUP1 SLOAD SWAP1 POP PUSH2 0xF1D SWAP2 SWAP1 PUSH2 0x2229 JUMP JUMPDEST DUP2 LT ISZERO PUSH2 0x1048 JUMPI PUSH1 0x3 PUSH0 DUP7 PUSH20 0xFFFFFFFFFFFFFFFFFFFFFFFFFFFFFFFFFFFFFFFF AND PUSH20 0xFFFFFFFFFFFFFFFFFFFFFFFFFFFFFFFFFFFFFFFF AND DUP2 MSTORE PUSH1 0x20 ADD SWAP1 DUP2 MSTORE PUSH1 0x20 ADD PUSH0 KECCAK256 PUSH1 0x1 DUP3 PUSH2 0xF6E SWAP2 SWAP1 PUSH2 0x225C JUMP JUMPDEST DUP2 SLOAD DUP2 LT PUSH2 0xF7F JUMPI PUSH2 0xF7E PUSH2 0x21CF JUMP JUMPDEST JUMPDEST SWAP1 PUSH0 MSTORE PUSH1 0x20 PUSH0 KECCAK256 ADD PUSH0 SWAP1 SLOAD SWAP1 PUSH2 0x100 EXP SWAP1 DIV PUSH20 0xFFFFFFFFFFFFFFFFFFFFFFFFFFFFFFFFFFFFFFFF AND PUSH1 0x3 PUSH0 DUP8 PUSH20 0xFFFFFFFFFFFFFFFFFFFFFFFFFFFFFFFFFFFFFFFF AND PUSH20 0xFFFFFFFFFFFFFFFFFFFFFFFFFFFFFFFFFFFFFFFF AND DUP2 MSTORE PUSH1 0x20 ADD SWAP1 DUP2 MSTORE PUSH1 0x20 ADD PUSH0 KECCAK256 DUP3 DUP2 SLOAD DUP2 LT PUSH2 0xFF6 JUMPI PUSH2 0xFF5 PUSH2 0x21CF JUMP JUMPDEST JUMPDEST SWAP1 PUSH0 MSTORE PUSH1 0x20 PUSH0 KECCAK256 ADD PUSH0 PUSH2 0x100 EXP DUP2 SLOAD DUP2 PUSH20 0xFFFFFFFFFFFFFFFFFFFFFFFFFFFFFFFFFFFFFFFF MUL NOT AND SWAP1 DUP4 PUSH20 0xFFFFFFFFFFFFFFFFFFFFFFFFFFFFFFFFFFFFFFFF AND MUL OR SWAP1 SSTORE POP DUP1 DUP1 PUSH1 0x1 ADD SWAP2 POP POP PUSH2 0xED0 JUMP JUMPDEST POP PUSH1 0x3 PUSH0 DUP6 PUSH20 0xFFFFFFFFFFFFFFFFFFFFFFFFFFFFFFFFFFFFFFFF AND PUSH20 0xFFFFFFFFFFFFFFFFFFFFFFFFFFFFFFFFFFFFFFFF AND DUP2 MSTORE PUSH1 0x20 ADD SWAP1 DUP2 MSTORE PUSH1 0x20 ADD PUSH0 KECCAK256 DUP1 SLOAD DUP1 PUSH2 0x1096 JUMPI PUSH2 0x1095 PUSH2 0x228F JUMP JUMPDEST JUMPDEST PUSH1 0x1 SWAP1 SUB DUP2 DUP2 SWAP1 PUSH0 MSTORE PUSH1 0x20 PUSH0 KECCAK256 ADD PUSH0 PUSH2 0x100 EXP DUP2 SLOAD SWAP1 PUSH20 0xFFFFFFFFFFFFFFFFFFFFFFFFFFFFFFFFFFFFFFFF MUL NOT AND SWAP1 SSTORE SWAP1 SSTORE PUSH2 0x10DA JUMP JUMPDEST DUP1 DUP1 PUSH1 0x1 ADD SWAP2 POP POP PUSH2 0xDDA JUMP JUMPDEST JUMPDEST PUSH0 DUP1 PUSH1 0x3 PUSH0 DUP8 PUSH20 0xFFFFFFFFFFFFFFFFFFFFFFFFFFFFFFFFFFFFFFFF AND PUSH20 0xFFFFFFFFFFFFFFFFFFFFFFFFFFFFFFFFFFFFFFFF AND DUP2 MSTORE PUSH1 0x20 ADD SWAP1 DUP2 MSTORE PUSH1 0x20 ADD PUSH0 KECCAK256 DUP1 SLOAD DUP1 PUSH1 0x20 MUL PUSH1 0x20 ADD PUSH1 0x40 MLOAD SWAP1 DUP2 ADD PUSH1 0x40 MSTORE DUP1 SWAP3 SWAP2 SWAP1 DUP2 DUP2 MSTORE PUSH1 0x20 ADD DUP3 DUP1 SLOAD DUP1 ISZERO PUSH2 0x1197 JUMPI PUSH1 0x20 MUL DUP3 ADD SWAP2 SWAP1 PUSH0 MSTORE PUSH1 0x20 PUSH0 KECCAK256 SWAP1 JUMPDEST DUP2 PUSH0 SWAP1 SLOAD SWAP1 PUSH2 0x100 EXP SWAP1 DIV PUSH20 0xFFFFFFFFFFFFFFFFFFFFFFFFFFFFFFFFFFFFFFFF AND PUSH20 0xFFFFFFFFFFFFFFFFFFFFFFFFFFFFFFFFFFFFFFFF AND DUP2 MSTORE PUSH1 0x20 ADD SWAP1 PUSH1 0x1 ADD SWAP1 DUP1 DUP4 GT PUSH2 0x114E JUMPI JUMPDEST POP POP POP POP POP SWAP1 POP PUSH0 JUMPDEST DUP2 MLOAD DUP2 LT ISZERO PUSH2 0x1294 JUMPI PUSH0 PUSH1 0x1 PUSH0 DUP10 PUSH20 0xFFFFFFFFFFFFFFFFFFFFFFFFFFFFFFFFFFFFFFFF AND PUSH20 0xFFFFFFFFFFFFFFFFFFFFFFFFFFFFFFFFFFFFFFFF AND DUP2 MSTORE PUSH1 0x20 ADD SWAP1 DUP2 MSTORE PUSH1 0x20 ADD PUSH0 KECCAK256 PUSH0 DUP5 DUP5 DUP2 MLOAD DUP2 LT PUSH2 0x11FB JUMPI PUSH2 0x11FA PUSH2 0x21CF JUMP JUMPDEST JUMPDEST PUSH1 0x20 MUL PUSH1 0x20 ADD ADD MLOAD PUSH20 0xFFFFFFFFFFFFFFFFFFFFFFFFFFFFFFFFFFFFFFFF AND PUSH20 0xFFFFFFFFFFFFFFFFFFFFFFFFFFFFFFFFFFFFFFFF AND DUP2 MSTORE PUSH1 0x20 ADD SWAP1 DUP2 MSTORE PUSH1 0x20 ADD PUSH0 KECCAK256 PUSH0 DUP8 PUSH20 0xFFFFFFFFFFFFFFFFFFFFFFFFFFFFFFFFFFFFFFFF AND PUSH20 0xFFFFFFFFFFFFFFFFFFFFFFFFFFFFFFFFFFFFFFFF AND DUP2 MSTORE PUSH1 0x20 ADD SWAP1 DUP2 MSTORE PUSH1 0x20 ADD PUSH0 KECCAK256 SLOAD GT ISZERO PUSH2 0x1287 JUMPI PUSH1 0x1 SWAP3 POP PUSH2 0x1294 JUMP JUMPDEST DUP1 DUP1 PUSH1 0x1 ADD SWAP2 POP POP PUSH2 0x11A0 JUMP JUMPDEST POP DUP2 PUSH2 0x1477 JUMPI PUSH0 PUSH1 0x5 PUSH0 DUP7 PUSH20 0xFFFFFFFFFFFFFFFFFFFFFFFFFFFFFFFFFFFFFFFF AND PUSH20 0xFFFFFFFFFFFFFFFFFFFFFFFFFFFFFFFFFFFFFFFF AND DUP2 MSTORE PUSH1 0x20 ADD SWAP1 DUP2 MSTORE PUSH1 0x20 ADD PUSH0 KECCAK256 SWAP1 POP PUSH0 JUMPDEST DUP2 DUP1 SLOAD SWAP1 POP DUP2 LT ISZERO PUSH2 0x1474 JUMPI DUP8 PUSH20 0xFFFFFFFFFFFFFFFFFFFFFFFFFFFFFFFFFFFFFFFF AND DUP3 DUP3 DUP2 SLOAD DUP2 LT PUSH2 0x1312 JUMPI PUSH2 0x1311 PUSH2 0x21CF JUMP JUMPDEST JUMPDEST SWAP1 PUSH0 MSTORE PUSH1 0x20 PUSH0 KECCAK256 ADD PUSH0 SWAP1 SLOAD SWAP1 PUSH2 0x100 EXP SWAP1 DIV PUSH20 0xFFFFFFFFFFFFFFFFFFFFFFFFFFFFFFFFFFFFFFFF AND PUSH20 0xFFFFFFFFFFFFFFFFFFFFFFFFFFFFFFFFFFFFFFFF AND SUB PUSH2 0x1467 JUMPI PUSH0 DUP2 SWAP1 POP JUMPDEST PUSH1 0x1 DUP4 DUP1 SLOAD SWAP1 POP PUSH2 0x136B SWAP2 SWAP1 PUSH2 0x2229 JUMP JUMPDEST DUP2 LT ISZERO PUSH2 0x141E JUMPI DUP3 PUSH1 0x1 DUP3 PUSH2 0x1380 SWAP2 SWAP1 PUSH2 0x225C JUMP JUMPDEST DUP2 SLOAD DUP2 LT PUSH2 0x1391 JUMPI PUSH2 0x1390 PUSH2 0x21CF JUMP JUMPDEST JUMPDEST SWAP1 PUSH0 MSTORE PUSH1 0x20 PUSH0 KECCAK256 ADD PUSH0 SWAP1 SLOAD SWAP1 PUSH2 0x100 EXP SWAP1 DIV PUSH20 0xFFFFFFFFFFFFFFFFFFFFFFFFFFFFFFFFFFFFFFFF AND DUP4 DUP3 DUP2 SLOAD DUP2 LT PUSH2 0x13CC JUMPI PUSH2 0x13CB PUSH2 0x21CF JUMP JUMPDEST JUMPDEST SWAP1 PUSH0 MSTORE PUSH1 0x20 PUSH0 KECCAK256 ADD PUSH0 PUSH2 0x100 EXP DUP2 SLOAD DUP2 PUSH20 0xFFFFFFFFFFFFFFFFFFFFFFFFFFFFFFFFFFFFFFFF MUL NOT AND SWAP1 DUP4 PUSH20 0xFFFFFFFFFFFFFFFFFFFFFFFFFFFFFFFFFFFFFFFF AND MUL OR SWAP1 SSTORE POP DUP1 DUP1 PUSH1 0x1 ADD SWAP2 POP POP PUSH2 0x135A JUMP JUMPDEST POP DUP2 DUP1 SLOAD DUP1 PUSH2 0x1430 JUMPI PUSH2 0x142F PUSH2 0x228F JUMP JUMPDEST JUMPDEST PUSH1 0x1 SWAP1 SUB DUP2 DUP2 SWAP1 PUSH0 MSTORE PUSH1 0x20 PUSH0 KECCAK256 ADD PUSH0 PUSH2 0x100 EXP DUP2 SLOAD SWAP1 PUSH20 0xFFFFFFFFFFFFFFFFFFFFFFFFFFFFFFFFFFFFFFFF MUL NOT AND SWAP1 SSTORE SWAP1 SSTORE PUSH2 0x1474 JUMP JUMPDEST DUP1 DUP1 PUSH1 0x1 ADD SWAP2 POP POP PUSH2 0x12DC JUMP JUMPDEST POP POP JUMPDEST DUP4 PUSH20 0xFFFFFFFFFFFFFFFFFFFFFFFFFFFFFFFFFFFFFFFF AND DUP6 PUSH20 0xFFFFFFFFFFFFFFFFFFFFFFFFFFFFFFFFFFFFFFFF AND DUP8 PUSH20 0xFFFFFFFFFFFFFFFFFFFFFFFFFFFFFFFFFFFFFFFF AND PUSH32 0x8FEEE98C784E5546D0536039C928D5196FF80E1E67AB22FCE85625AB401CE37E PUSH1 0x40 MLOAD PUSH1 0x40 MLOAD DUP1 SWAP2 SUB SWAP1 LOG4 POP POP POP POP POP POP JUMP JUMPDEST PUSH1 0x2 PUSH1 0x20 MSTORE DUP1 PUSH0 MSTORE PUSH1 0x40 PUSH0 KECCAK256 PUSH0 SWAP2 POP SWAP1 POP SLOAD DUP2 JUMP JUMPDEST PUSH0 DUP1 PUSH0 SWAP1 POP JUMPDEST PUSH1 0x4 PUSH0 DUP7 PUSH20 0xFFFFFFFFFFFFFFFFFFFFFFFFFFFFFFFFFFFFFFFF AND PUSH20 0xFFFFFFFFFFFFFFFFFFFFFFFFFFFFFFFFFFFFFFFF AND DUP2 MSTORE PUSH1 0x20 ADD SWAP1 DUP2 MSTORE PUSH1 0x20 ADD PUSH0 KECCAK256 PUSH0 DUP6 PUSH20 0xFFFFFFFFFFFFFFFFFFFFFFFFFFFFFFFFFFFFFFFF AND PUSH20 0xFFFFFFFFFFFFFFFFFFFFFFFFFFFFFFFFFFFFFFFF AND DUP2 MSTORE PUSH1 0x20 ADD SWAP1 DUP2 MSTORE PUSH1 0x20 ADD PUSH0 KECCAK256 DUP1 SLOAD SWAP1 POP DUP2 LT ISZERO PUSH2 0x1689 JUMPI DUP3 PUSH20 0xFFFFFFFFFFFFFFFFFFFFFFFFFFFFFFFFFFFFFFFF AND PUSH1 0x4 PUSH0 DUP8 PUSH20 0xFFFFFFFFFFFFFFFFFFFFFFFFFFFFFFFFFFFFFFFF AND PUSH20 0xFFFFFFFFFFFFFFFFFFFFFFFFFFFFFFFFFFFFFFFF AND DUP2 MSTORE PUSH1 0x20 ADD SWAP1 DUP2 MSTORE PUSH1 0x20 ADD PUSH0 KECCAK256 PUSH0 DUP7 PUSH20 0xFFFFFFFFFFFFFFFFFFFFFFFFFFFFFFFFFFFFFFFF AND PUSH20 0xFFFFFFFFFFFFFFFFFFFFFFFFFFFFFFFFFFFFFFFF AND DUP2 MSTORE PUSH1 0x20 ADD SWAP1 DUP2 MSTORE PUSH1 0x20 ADD PUSH0 KECCAK256 DUP3 DUP2 SLOAD DUP2 LT PUSH2 0x162F JUMPI PUSH2 0x162E PUSH2 0x21CF JUMP JUMPDEST JUMPDEST SWAP1 PUSH0 MSTORE PUSH1 0x20 PUSH0 KECCAK256 ADD PUSH0 SWAP1 SLOAD SWAP1 PUSH2 0x100 EXP SWAP1 DIV PUSH20 0xFFFFFFFFFFFFFFFFFFFFFFFFFFFFFFFFFFFFFFFF AND PUSH20 0xFFFFFFFFFFFFFFFFFFFFFFFFFFFFFFFFFFFFFFFF AND SUB PUSH2 0x167C JUMPI PUSH1 0x1 SWAP2 POP POP PUSH2 0x168E JUMP JUMPDEST DUP1 DUP1 PUSH1 0x1 ADD SWAP2 POP POP PUSH2 0x150B JUMP JUMPDEST POP PUSH0 SWAP1 POP JUMPDEST SWAP4 SWAP3 POP POP POP JUMP JUMPDEST PUSH2 0x16A0 DUP4 DUP4 CALLER PUSH2 0x1505 JUMP JUMPDEST PUSH2 0x16D6 JUMPI PUSH1 0x40 MLOAD PUSH32 0x66A21FFB00000000000000000000000000000000000000000000000000000000 DUP2 MSTORE PUSH1 0x4 ADD PUSH1 0x40 MLOAD DUP1 SWAP2 SUB SWAP1 REVERT JUMPDEST PUSH0 PUSH1 0x1 PUSH0 DUP6 PUSH20 0xFFFFFFFFFFFFFFFFFFFFFFFFFFFFFFFFFFFFFFFF AND PUSH20 0xFFFFFFFFFFFFFFFFFFFFFFFFFFFFFFFFFFFFFFFF AND DUP2 MSTORE PUSH1 0x20 ADD SWAP1 DUP2 MSTORE PUSH1 0x20 ADD PUSH0 KECCAK256 PUSH0 DUP5 PUSH20 0xFFFFFFFFFFFFFFFFFFFFFFFFFFFFFFFFFFFFFFFF AND PUSH20 0xFFFFFFFFFFFFFFFFFFFFFFFFFFFFFFFFFFFFFFFF AND DUP2 MSTORE PUSH1 0x20 ADD SWAP1 DUP2 MSTORE PUSH1 0x20 ADD PUSH0 KECCAK256 PUSH0 CALLER PUSH20 0xFFFFFFFFFFFFFFFFFFFFFFFFFFFFFFFFFFFFFFFF AND PUSH20 0xFFFFFFFFFFFFFFFFFFFFFFFFFFFFFFFFFFFFFFFF AND DUP2 MSTORE PUSH1 0x20 ADD SWAP1 DUP2 MSTORE PUSH1 0x20 ADD PUSH0 KECCAK256 SLOAD SWAP1 POP PUSH0 DUP2 SUB PUSH2 0x17C6 JUMPI PUSH1 0x40 MLOAD PUSH32 0xDC49AEE100000000000000000000000000000000000000000000000000000000 DUP2 MSTORE PUSH1 0x4 ADD PUSH1 0x40 MLOAD DUP1 SWAP2 SUB SWAP1 REVERT JUMPDEST PUSH0 PUSH1 0x2 PUSH0 DUP7 PUSH20 0xFFFFFFFFFFFFFFFFFFFFFFFFFFFFFFFFFFFFFFFF AND PUSH20 0xFFFFFFFFFFFFFFFFFFFFFFFFFFFFFFFFFFFFFFFF AND DUP2 MSTORE PUSH1 0x20 ADD SWAP1 DUP2 MSTORE PUSH1 0x20 ADD PUSH0 KECCAK256 SLOAD SWAP1 POP PUSH0 DUP2 EQ DUP1 PUSH2 0x1814 JUMPI POP DUP1 TIMESTAMP LT JUMPDEST ISZERO PUSH2 0x184B JUMPI PUSH1 0x40 MLOAD PUSH32 0x61F4DDCA00000000000000000000000000000000000000000000000000000000 DUP2 MSTORE PUSH1 0x4 ADD PUSH1 0x40 MLOAD DUP1 SWAP2 SUB SWAP1 REVERT JUMPDEST PUSH0 DUP3 DUP5 GT PUSH2 0x1859 JUMPI DUP4 PUSH2 0x185B JUMP JUMPDEST DUP3 JUMPDEST SWAP1 POP DUP1 PUSH1 0x1 PUSH0 DUP9 PUSH20 0xFFFFFFFFFFFFFFFFFFFFFFFFFFFFFFFFFFFFFFFF AND PUSH20 0xFFFFFFFFFFFFFFFFFFFFFFFFFFFFFFFFFFFFFFFF AND DUP2 MSTORE PUSH1 0x20 ADD SWAP1 DUP2 MSTORE PUSH1 0x20 ADD PUSH0 KECCAK256 PUSH0 DUP8 PUSH20 0xFFFFFFFFFFFFFFFFFFFFFFFFFFFFFFFFFFFFFFFF AND PUSH20 0xFFFFFFFFFFFFFFFFFFFFFFFFFFFFFFFFFFFFFFFF AND DUP2 MSTORE PUSH1 0x20 ADD SWAP1 DUP2 MSTORE PUSH1 0x20 ADD PUSH0 KECCAK256 PUSH0 CALLER PUSH20 0xFFFFFFFFFFFFFFFFFFFFFFFFFFFFFFFFFFFFFFFF AND PUSH20 0xFFFFFFFFFFFFFFFFFFFFFFFFFFFFFFFFFFFFFFFF AND DUP2 MSTORE PUSH1 0x20 ADD SWAP1 DUP2 MSTORE PUSH1 0x20 ADD PUSH0 KECCAK256 PUSH0 DUP3 DUP3 SLOAD PUSH2 0x191F SWAP2 SWAP1 PUSH2 0x2229 JUMP JUMPDEST SWAP3 POP POP DUP2 SWAP1 SSTORE POP PUSH0 DUP6 PUSH20 0xFFFFFFFFFFFFFFFFFFFFFFFFFFFFFFFFFFFFFFFF AND PUSH4 0x23B872DD DUP9 CALLER DUP6 PUSH1 0x40 MLOAD DUP5 PUSH4 0xFFFFFFFF AND PUSH1 0xE0 SHL DUP2 MSTORE PUSH1 0x4 ADD PUSH2 0x1964 SWAP4 SWAP3 SWAP2 SWAP1 PUSH2 0x22BC JUMP JUMPDEST PUSH1 0x20 PUSH1 0x40 MLOAD DUP1 DUP4 SUB DUP2 PUSH0 DUP8 GAS CALL ISZERO DUP1 ISZERO PUSH2 0x1980 JUMPI RETURNDATASIZE PUSH0 DUP1 RETURNDATACOPY RETURNDATASIZE PUSH0 REVERT JUMPDEST POP POP POP POP PUSH1 0x40 MLOAD RETURNDATASIZE PUSH1 0x1F NOT PUSH1 0x1F DUP3 ADD AND DUP3 ADD DUP1 PUSH1 0x40 MSTORE POP DUP2 ADD SWAP1 PUSH2 0x19A4 SWAP2 SWAP1 PUSH2 0x231B JUMP JUMPDEST SWAP1 POP DUP1 PUSH2 0x19DD JUMPI PUSH1 0x40 MLOAD PUSH32 0x90B8EC1800000000000000000000000000000000000000000000000000000000 DUP2 MSTORE PUSH1 0x4 ADD PUSH1 0x40 MLOAD DUP1 SWAP2 SUB SWAP1 REVERT JUMPDEST CALLER PUSH20 0xFFFFFFFFFFFFFFFFFFFFFFFFFFFFFFFFFFFFFFFF AND DUP7 PUSH20 0xFFFFFFFFFFFFFFFFFFFFFFFFFFFFFFFFFFFFFFFF AND DUP9 PUSH20 0xFFFFFFFFFFFFFFFFFFFFFFFFFFFFFFFFFFFFFFFF AND PUSH32 0x342E7FF505A8A0364CD0DC2FF195C315E43BCE86B204846ECD36913E117B109E DUP6 PUSH1 0x40 MLOAD PUSH2 0x1A51 SWAP2 SWAP1 PUSH2 0x20AB JUMP JUMPDEST PUSH1 0x40 MLOAD DUP1 SWAP2 SUB SWAP1 LOG4 PUSH0 PUSH1 0x1 PUSH0 DUP10 PUSH20 0xFFFFFFFFFFFFFFFFFFFFFFFFFFFFFFFFFFFFFFFF AND PUSH20 0xFFFFFFFFFFFFFFFFFFFFFFFFFFFFFFFFFFFFFFFF AND DUP2 MSTORE PUSH1 0x20 ADD SWAP1 DUP2 MSTORE PUSH1 0x20 ADD PUSH0 KECCAK256 PUSH0 DUP9 PUSH20 0xFFFFFFFFFFFFFFFFFFFFFFFFFFFFFFFFFFFFFFFF AND PUSH20 0xFFFFFFFFFFFFFFFFFFFFFFFFFFFFFFFFFFFFFFFF AND DUP2 MSTORE PUSH1 0x20 ADD SWAP1 DUP2 MSTORE PUSH1 0x20 ADD PUSH0 KECCAK256 PUSH0 CALLER PUSH20 0xFFFFFFFFFFFFFFFFFFFFFFFFFFFFFFFFFFFFFFFF AND PUSH20 0xFFFFFFFFFFFFFFFFFFFFFFFFFFFFFFFFFFFFFFFF AND DUP2 MSTORE PUSH1 0x20 ADD SWAP1 DUP2 MSTORE PUSH1 0x20 ADD PUSH0 KECCAK256 SLOAD SUB PUSH2 0x1B1F JUMPI PUSH2 0x1B1E DUP8 DUP8 CALLER PUSH2 0x7FD JUMP JUMPDEST JUMPDEST POP POP POP POP POP POP POP JUMP JUMPDEST PUSH2 0x1B32 DUP3 DUP3 PUSH2 0x460 JUMP JUMPDEST PUSH2 0x1BD2 JUMPI PUSH1 0x3 PUSH0 DUP4 PUSH20 0xFFFFFFFFFFFFFFFFFFFFFFFFFFFFFFFFFFFFFFFF AND PUSH20 0xFFFFFFFFFFFFFFFFFFFFFFFFFFFFFFFFFFFFFFFF AND DUP2 MSTORE PUSH1 0x20 ADD SWAP1 DUP2 MSTORE PUSH1 0x20 ADD PUSH0 KECCAK256 DUP2 SWAP1 DUP1 PUSH1 0x1 DUP2 SLOAD ADD DUP1 DUP3 SSTORE DUP1 SWAP2 POP POP PUSH1 0x1 SWAP1 SUB SWAP1 PUSH0 MSTORE PUSH1 0x20 PUSH0 KECCAK256 ADD PUSH0 SWAP1 SWAP2 SWAP1 SWAP2 SWAP1 SWAP2 PUSH2 0x100 EXP DUP2 SLOAD DUP2 PUSH20 0xFFFFFFFFFFFFFFFFFFFFFFFFFFFFFFFFFFFFFFFF MUL NOT AND SWAP1 DUP4 PUSH20 0xFFFFFFFFFFFFFFFFFFFFFFFFFFFFFFFFFFFFFFFF AND MUL OR SWAP1 SSTORE POP JUMPDEST POP POP JUMP JUMPDEST PUSH2 0x1BE1 DUP4 DUP4 DUP4 PUSH2 0x1505 JUMP JUMPDEST PUSH2 0x1CBC JUMPI PUSH1 0x4 PUSH0 DUP5 PUSH20 0xFFFFFFFFFFFFFFFFFFFFFFFFFFFFFFFFFFFFFFFF AND PUSH20 0xFFFFFFFFFFFFFFFFFFFFFFFFFFFFFFFFFFFFFFFF AND DUP2 MSTORE PUSH1 0x20 ADD SWAP1 DUP2 MSTORE PUSH1 0x20 ADD PUSH0 KECCAK256 PUSH0 DUP4 PUSH20 0xFFFFFFFFFFFFFFFFFFFFFFFFFFFFFFFFFFFFFFFF AND PUSH20 0xFFFFFFFFFFFFFFFFFFFFFFFFFFFFFFFFFFFFFFFF AND DUP2 MSTORE PUSH1 0x20 ADD SWAP1 DUP2 MSTORE PUSH1 0x20 ADD PUSH0 KECCAK256 DUP2 SWAP1 DUP1 PUSH1 0x1 DUP2 SLOAD ADD DUP1 DUP3 SSTORE DUP1 SWAP2 POP POP PUSH1 0x1 SWAP1 SUB SWAP1 PUSH0 MSTORE PUSH1 0x20 PUSH0 KECCAK256 ADD PUSH0 SWAP1 SWAP2 SWAP1 SWAP2 SWAP1 SWAP2 PUSH2 0x100 EXP DUP2 SLOAD DUP2 PUSH20 0xFFFFFFFFFFFFFFFFFFFFFFFFFFFFFFFFFFFFFFFF MUL NOT AND SWAP1 DUP4 PUSH20 0xFFFFFFFFFFFFFFFFFFFFFFFFFFFFFFFFFFFFFFFF AND MUL OR SWAP1 SSTORE POP JUMPDEST POP POP POP JUMP JUMPDEST PUSH0 DUP1 JUMPDEST PUSH1 0x5 PUSH0 DUP5 PUSH20 0xFFFFFFFFFFFFFFFFFFFFFFFFFFFFFFFFFFFFFFFF AND PUSH20 0xFFFFFFFFFFFFFFFFFFFFFFFFFFFFFFFFFFFFFFFF AND DUP2 MSTORE PUSH1 0x20 ADD SWAP1 DUP2 MSTORE PUSH1 0x20 ADD PUSH0 KECCAK256 DUP1 SLOAD SWAP1 POP DUP2 LT ISZERO PUSH2 0x1DCB JUMPI DUP4 PUSH20 0xFFFFFFFFFFFFFFFFFFFFFFFFFFFFFFFFFFFFFFFF AND PUSH1 0x5 PUSH0 DUP6 PUSH20 0xFFFFFFFFFFFFFFFFFFFFFFFFFFFFFFFFFFFFFFFF AND PUSH20 0xFFFFFFFFFFFFFFFFFFFFFFFFFFFFFFFFFFFFFFFF AND DUP2 MSTORE PUSH1 0x20 ADD SWAP1 DUP2 MSTORE PUSH1 0x20 ADD PUSH0 KECCAK256 DUP3 DUP2 SLOAD DUP2 LT PUSH2 0x1D72 JUMPI PUSH2 0x1D71 PUSH2 0x21CF JUMP JUMPDEST JUMPDEST SWAP1 PUSH0 MSTORE PUSH1 0x20 PUSH0 KECCAK256 ADD PUSH0 SWAP1 SLOAD SWAP1 PUSH2 0x100 EXP SWAP1 DIV PUSH20 0xFFFFFFFFFFFFFFFFFFFFFFFFFFFFFFFFFFFFFFFF AND PUSH20 0xFFFFFFFFFFFFFFFFFFFFFFFFFFFFFFFFFFFFFFFF AND SUB PUSH2 0x1DBE JUMPI PUSH1 0x1 SWAP2 POP PUSH2 0x1DCB JUMP JUMPDEST DUP1 DUP1 PUSH1 0x1 ADD SWAP2 POP POP PUSH2 0x1CC4 JUMP JUMPDEST POP DUP1 PUSH2 0x1E6D JUMPI PUSH1 0x5 PUSH0 DUP4 PUSH20 0xFFFFFFFFFFFFFFFFFFFFFFFFFFFFFFFFFFFFFFFF AND PUSH20 0xFFFFFFFFFFFFFFFFFFFFFFFFFFFFFFFFFFFFFFFF AND DUP2 MSTORE PUSH1 0x20 ADD SWAP1 DUP2 MSTORE PUSH1 0x20 ADD PUSH0 KECCAK256 DUP4 SWAP1 DUP1 PUSH1 0x1 DUP2 SLOAD ADD DUP1 DUP3 SSTORE DUP1 SWAP2 POP POP PUSH1 0x1 SWAP1 SUB SWAP1 PUSH0 MSTORE PUSH1 0x20 PUSH0 KECCAK256 ADD PUSH0 SWAP1 SWAP2 SWAP1 SWAP2 SWAP1 SWAP2 PUSH2 0x100 EXP DUP2 SLOAD DUP2 PUSH20 0xFFFFFFFFFFFFFFFFFFFFFFFFFFFFFFFFFFFFFFFF MUL NOT AND SWAP1 DUP4 PUSH20 0xFFFFFFFFFFFFFFFFFFFFFFFFFFFFFFFFFFFFFFFF AND MUL OR SWAP1 SSTORE POP JUMPDEST POP POP POP JUMP JUMPDEST PUSH0 DUP1 REVERT JUMPDEST PUSH0 PUSH20 0xFFFFFFFFFFFFFFFFFFFFFFFFFFFFFFFFFFFFFFFF DUP3 AND SWAP1 POP SWAP2 SWAP1 POP JUMP JUMPDEST PUSH0 PUSH2 0x1E9F DUP3 PUSH2 0x1E76 JUMP JUMPDEST SWAP1 POP SWAP2 SWAP1 POP JUMP JUMPDEST PUSH2 0x1EAF DUP2 PUSH2 0x1E95 JUMP JUMPDEST DUP2 EQ PUSH2 0x1EB9 JUMPI PUSH0 DUP1 REVERT JUMPDEST POP JUMP JUMPDEST PUSH0 DUP2 CALLDATALOAD SWAP1 POP PUSH2 0x1ECA DUP2 PUSH2 0x1EA6 JUMP JUMPDEST SWAP3 SWAP2 POP POP JUMP JUMPDEST PUSH0 DUP1 PUSH1 0x40 DUP4 DUP6 SUB SLT ISZERO PUSH2 0x1EE6 JUMPI PUSH2 0x1EE5 PUSH2 0x1E72 JUMP JUMPDEST JUMPDEST PUSH0 PUSH2 0x1EF3 DUP6 DUP3 DUP7 ADD PUSH2 0x1EBC JUMP JUMPDEST SWAP3 POP POP PUSH1 0x20 PUSH2 0x1F04 DUP6 DUP3 DUP7 ADD PUSH2 0x1EBC JUMP JUMPDEST SWAP2 POP POP SWAP3 POP SWAP3 SWAP1 POP JUMP JUMPDEST PUSH0 DUP2 MLOAD SWAP1 POP SWAP2 SWAP1 POP JUMP JUMPDEST PUSH0 DUP3 DUP3 MSTORE PUSH1 0x20 DUP3 ADD SWAP1 POP SWAP3 SWAP2 POP POP JUMP JUMPDEST PUSH0 DUP2 SWAP1 POP PUSH1 0x20 DUP3 ADD SWAP1 POP SWAP2 SWAP1 POP JUMP JUMPDEST PUSH2 0x1F40 DUP2 PUSH2 0x1E95 JUMP JUMPDEST DUP3 MSTORE POP POP JUMP JUMPDEST PUSH0 PUSH2 0x1F51 DUP4 DUP4 PUSH2 0x1F37 JUMP JUMPDEST PUSH1 0x20 DUP4 ADD SWAP1 POP SWAP3 SWAP2 POP POP JUMP JUMPDEST PUSH0 PUSH1 0x20 DUP3 ADD SWAP1 POP SWAP2 SWAP1 POP JUMP JUMPDEST PUSH0 PUSH2 0x1F73 DUP3 PUSH2 0x1F0E JUMP JUMPDEST PUSH2 0x1F7D DUP2 DUP6 PUSH2 0x1F18 JUMP JUMPDEST SWAP4 POP PUSH2 0x1F88 DUP4 PUSH2 0x1F28 JUMP JUMPDEST DUP1 PUSH0 JUMPDEST DUP4 DUP2 LT ISZERO PUSH2 0x1FB8 JUMPI DUP2 MLOAD PUSH2 0x1F9F DUP9 DUP3 PUSH2 0x1F46 JUMP JUMPDEST SWAP8 POP PUSH2 0x1FAA DUP4 PUSH2 0x1F5D JUMP JUMPDEST SWAP3 POP POP PUSH1 0x1 DUP2 ADD SWAP1 POP PUSH2 0x1F8B JUMP JUMPDEST POP DUP6 SWAP4 POP POP POP POP SWAP3 SWAP2 POP POP JUMP JUMPDEST PUSH0 PUSH1 0x20 DUP3 ADD SWAP1 POP DUP2 DUP2 SUB PUSH0 DUP4 ADD MSTORE PUSH2 0x1FDD DUP2 DUP5 PUSH2 0x1F69 JUMP JUMPDEST SWAP1 POP SWAP3 SWAP2 POP POP JUMP JUMPDEST PUSH0 PUSH1 0x20 DUP3 DUP5 SUB SLT ISZERO PUSH2 0x1FFA JUMPI PUSH2 0x1FF9 PUSH2 0x1E72 JUMP JUMPDEST JUMPDEST PUSH0 PUSH2 0x2007 DUP5 DUP3 DUP6 ADD PUSH2 0x1EBC JUMP JUMPDEST SWAP2 POP POP SWAP3 SWAP2 POP POP JUMP JUMPDEST PUSH0 DUP2 ISZERO ISZERO SWAP1 POP SWAP2 SWAP1 POP JUMP JUMPDEST PUSH2 0x2024 DUP2 PUSH2 0x2010 JUMP JUMPDEST DUP3 MSTORE POP POP JUMP JUMPDEST PUSH0 PUSH1 0x20 DUP3 ADD SWAP1 POP PUSH2 0x203D PUSH0 DUP4 ADD DUP5 PUSH2 0x201B JUMP JUMPDEST SWAP3 SWAP2 POP POP JUMP JUMPDEST PUSH0 DUP1 PUSH0 PUSH1 0x60 DUP5 DUP7 SUB SLT ISZERO PUSH2 0x205A JUMPI PUSH2 0x2059 PUSH2 0x1E72 JUMP JUMPDEST JUMPDEST PUSH0 PUSH2 0x2067 DUP7 DUP3 DUP8 ADD PUSH2 0x1EBC JUMP JUMPDEST SWAP4 POP POP PUSH1 0x20 PUSH2 0x2078 DUP7 DUP3 DUP8 ADD PUSH2 0x1EBC JUMP JUMPDEST SWAP3 POP POP PUSH1 0x40 PUSH2 0x2089 DUP7 DUP3 DUP8 ADD PUSH2 0x1EBC JUMP JUMPDEST SWAP2 POP POP SWAP3 POP SWAP3 POP SWAP3 JUMP JUMPDEST PUSH0 DUP2 SWAP1 POP SWAP2 SWAP1 POP JUMP JUMPDEST PUSH2 0x20A5 DUP2 PUSH2 0x2093 JUMP JUMPDEST DUP3 MSTORE POP POP JUMP JUMPDEST PUSH0 PUSH1 0x20 DUP3 ADD SWAP1 POP PUSH2 0x20BE PUSH0 DUP4 ADD DUP5 PUSH2 0x209C JUMP JUMPDEST SWAP3 SWAP2 POP POP JUMP JUMPDEST PUSH2 0x20CD DUP2 PUSH2 0x2093 JUMP JUMPDEST DUP2 EQ PUSH2 0x20D7 JUMPI PUSH0 DUP1 REVERT JUMPDEST POP JUMP JUMPDEST PUSH0 DUP2 CALLDATALOAD SWAP1 POP PUSH2 0x20E8 DUP2 PUSH2 0x20C4 JUMP JUMPDEST SWAP3 SWAP2 POP POP JUMP JUMPDEST PUSH0 DUP1 PUSH1 0x40 DUP4 DUP6 SUB SLT ISZERO PUSH2 0x2104 JUMPI PUSH2 0x2103 PUSH2 0x1E72 JUMP JUMPDEST JUMPDEST PUSH0 PUSH2 0x2111 DUP6 DUP3 DUP7 ADD PUSH2 0x1EBC JUMP JUMPDEST SWAP3 POP POP PUSH1 0x20 PUSH2 0x2122 DUP6 DUP3 DUP7 ADD PUSH2 0x20DA JUMP JUMPDEST SWAP2 POP POP SWAP3 POP SWAP3 SWAP1 POP JUMP JUMPDEST PUSH2 0x2135 DUP2 PUSH2 0x1E95 JUMP JUMPDEST DUP3 MSTORE POP POP JUMP JUMPDEST PUSH0 PUSH1 0x20 DUP3 ADD SWAP1 POP PUSH2 0x214E PUSH0 DUP4 ADD DUP5 PUSH2 0x212C JUMP JUMPDEST SWAP3 SWAP2 POP POP JUMP JUMPDEST PUSH0 DUP1 PUSH0 PUSH1 0x60 DUP5 DUP7 SUB SLT ISZERO PUSH2 0x216B JUMPI PUSH2 0x216A PUSH2 0x1E72 JUMP JUMPDEST JUMPDEST PUSH0 PUSH2 0x2178 DUP7 DUP3 DUP8 ADD PUSH2 0x1EBC JUMP JUMPDEST SWAP4 POP POP PUSH1 0x20 PUSH2 0x2189 DUP7 DUP3 DUP8 ADD PUSH2 0x1EBC JUMP JUMPDEST SWAP3 POP POP PUSH1 0x40 PUSH2 0x219A DUP7 DUP3 DUP8 ADD PUSH2 0x20DA JUMP JUMPDEST SWAP2 POP POP SWAP3 POP SWAP3 POP SWAP3 JUMP JUMPDEST PUSH0 PUSH1 0x20 DUP3 DUP5 SUB SLT ISZERO PUSH2 0x21B9 JUMPI PUSH2 0x21B8 PUSH2 0x1E72 JUMP JUMPDEST JUMPDEST PUSH0 PUSH2 0x21C6 DUP5 DUP3 DUP6 ADD PUSH2 0x20DA JUMP JUMPDEST SWAP2 POP POP SWAP3 SWAP2 POP POP JUMP JUMPDEST PUSH32 0x4E487B7100000000000000000000000000000000000000000000000000000000 PUSH0 MSTORE PUSH1 0x32 PUSH1 0x4 MSTORE PUSH1 0x24 PUSH0 REVERT JUMPDEST PUSH32 0x4E487B7100000000000000000000000000000000000000000000000000000000 PUSH0 MSTORE PUSH1 0x11 PUSH1 0x4 MSTORE PUSH1 0x24 PUSH0 REVERT JUMPDEST PUSH0 PUSH2 0x2233 DUP3 PUSH2 0x2093 JUMP JUMPDEST SWAP2 POP PUSH2 0x223E DUP4 PUSH2 0x2093 JUMP JUMPDEST SWAP3 POP DUP3 DUP3 SUB SWAP1 POP DUP2 DUP2 GT ISZERO PUSH2 0x2256 JUMPI PUSH2 0x2255 PUSH2 0x21FC JUMP JUMPDEST JUMPDEST SWAP3 SWAP2 POP POP JUMP JUMPDEST PUSH0 PUSH2 0x2266 DUP3 PUSH2 0x2093 JUMP JUMPDEST SWAP2 POP PUSH2 0x2271 DUP4 PUSH2 0x2093 JUMP JUMPDEST SWAP3 POP DUP3 DUP3 ADD SWAP1 POP DUP1 DUP3 GT ISZERO PUSH2 0x2289 JUMPI PUSH2 0x2288 PUSH2 0x21FC JUMP JUMPDEST JUMPDEST SWAP3 SWAP2 POP POP JUMP JUMPDEST PUSH32 0x4E487B7100000000000000000000000000000000000000000000000000000000 PUSH0 MSTORE PUSH1 0x31 PUSH1 0x4 MSTORE PUSH1 0x24 PUSH0 REVERT JUMPDEST PUSH0 PUSH1 0x60 DUP3 ADD SWAP1 POP PUSH2 0x22CF PUSH0 DUP4 ADD DUP7 PUSH2 0x212C JUMP JUMPDEST PUSH2 0x22DC PUSH1 0x20 DUP4 ADD DUP6 PUSH2 0x212C JUMP JUMPDEST PUSH2 0x22E9 PUSH1 0x40 DUP4 ADD DUP5 PUSH2 0x209C JUMP JUMPDEST SWAP5 SWAP4 POP POP POP POP JUMP JUMPDEST PUSH2 0x22FA DUP2 PUSH2 0x2010 JUMP JUMPDEST DUP2 EQ PUSH2 0x2304 JUMPI PUSH0 DUP1 REVERT JUMPDEST POP JUMP JUMPDEST PUSH0 DUP2 MLOAD SWAP1 POP PUSH2 0x2315 DUP2 PUSH2 0x22F1 JUMP JUMPDEST SWAP3 SWAP2 POP POP JUMP JUMPDEST PUSH0 PUSH1 0x20 DUP3 DUP5 SUB SLT ISZERO PUSH2 0x2330 JUMPI PUSH2 0x232F PUSH2 0x1E72 JUMP JUMPDEST JUMPDEST PUSH0 PUSH2 0x233D DUP5 DUP3 DUP6 ADD PUSH2 0x2307 JUMP JUMPDEST SWAP2 POP POP SWAP3 SWAP2 POP POP JUMP INVALID LOG2 PUSH5 0x6970667358 0x22 SLT KECCAK256 EXTCODEHASH 0xDA 0xB0 SHR 0xBC MCOPY 0x28 PUSH24 0xB1D616A33FF658EB1E3C15FCB1292482C4A77EA8F79996C1 PUSH5 0x736F6C6343 STOP ADDMOD NOT STOP CALLER "
				},
				"gasEstimates": {
					"creation": {
						"codeDepositCost": "1816800",
						"executionCost": "26175",
						"totalCost": "1842975"
					},
					"external": {
						"creatorDeadlines(address)": "2868",
						"creatorsForBeneficiary(address,uint256)": "infinite",
						"getAllocatedTokensByUser(address)": "infinite",
						"getRecipientsByToken(address,address)": "infinite",
						"isRecipientOfToken(address,address,address)": "infinite",
						"isTokenAllocatedByUser(address,address)": "infinite",
						"owner()": "2527",
						"removeRecipientForToken(address,address,address)": "infinite",
						"setAllocation(address,address,uint256)": "infinite",
						"setCreatorDeadline(uint256)": "22624",
						"tokenAllocations(address,address,address)": "infinite",
						"withdrawTokenForBeneficiary(address,address,uint256)": "infinite"
					},
					"internal": {
						"_addCreatorForBeneficiary(address,address)": "infinite",
						"_addRecipientForToken(address,address,address)": "infinite",
						"_addTokenForUser(address,address)": "infinite"
					}
				},
				"methodIdentifiers": {
					"creatorDeadlines(address)": "b5eec1c8",
					"creatorsForBeneficiary(address,uint256)": "3112fcc6",
					"getAllocatedTokensByUser(address)": "0db36379",
					"getRecipientsByToken(address,address)": "0ac0be3f",
					"isRecipientOfToken(address,address,address)": "bd042d2e",
					"isTokenAllocatedByUser(address,address)": "0e6cc31f",
					"owner()": "8da5cb5b",
					"removeRecipientForToken(address,address,address)": "a2bdd08c",
					"setAllocation(address,address,uint256)": "5f15b1d9",
					"setCreatorDeadline(uint256)": "6a066be8",
					"tokenAllocations(address,address,address)": "17a436ed",
					"withdrawTokenForBeneficiary(address,address,uint256)": "c3698da4"
				}
			},
			"storageLayout": {
				"storage": [
					{
						"astId": 82,
						"contract": "contracts/DecentraWill.sol:DecentraWill",
						"label": "owner",
						"offset": 0,
						"slot": "0",
						"type": "t_address"
					},
					{
						"astId": 152,
						"contract": "contracts/DecentraWill.sol:DecentraWill",
						"label": "tokenAllocations",
						"offset": 0,
						"slot": "1",
						"type": "t_mapping(t_address,t_mapping(t_address,t_mapping(t_address,t_uint256)))"
					},
					{
						"astId": 156,
						"contract": "contracts/DecentraWill.sol:DecentraWill",
						"label": "creatorDeadlines",
						"offset": 0,
						"slot": "2",
						"type": "t_mapping(t_address,t_uint256)"
					},
					{
						"astId": 161,
						"contract": "contracts/DecentraWill.sol:DecentraWill",
						"label": "userAllocatedTokens",
						"offset": 0,
						"slot": "3",
						"type": "t_mapping(t_address,t_array(t_address)dyn_storage)"
					},
					{
						"astId": 168,
						"contract": "contracts/DecentraWill.sol:DecentraWill",
						"label": "tokenRecipients",
						"offset": 0,
						"slot": "4",
						"type": "t_mapping(t_address,t_mapping(t_address,t_array(t_address)dyn_storage))"
					},
					{
						"astId": 173,
						"contract": "contracts/DecentraWill.sol:DecentraWill",
						"label": "creatorsForBeneficiary",
						"offset": 0,
						"slot": "5",
						"type": "t_mapping(t_address,t_array(t_address)dyn_storage)"
					}
				],
				"types": {
					"t_address": {
						"encoding": "inplace",
						"label": "address",
						"numberOfBytes": "20"
					},
					"t_array(t_address)dyn_storage": {
						"base": "t_address",
						"encoding": "dynamic_array",
						"label": "address[]",
						"numberOfBytes": "32"
					},
					"t_mapping(t_address,t_array(t_address)dyn_storage)": {
						"encoding": "mapping",
						"key": "t_address",
						"label": "mapping(address => address[])",
						"numberOfBytes": "32",
						"value": "t_array(t_address)dyn_storage"
					},
					"t_mapping(t_address,t_mapping(t_address,t_array(t_address)dyn_storage))": {
						"encoding": "mapping",
						"key": "t_address",
						"label": "mapping(address => mapping(address => address[]))",
						"numberOfBytes": "32",
						"value": "t_mapping(t_address,t_array(t_address)dyn_storage)"
					},
					"t_mapping(t_address,t_mapping(t_address,t_mapping(t_address,t_uint256)))": {
						"encoding": "mapping",
						"key": "t_address",
						"label": "mapping(address => mapping(address => mapping(address => uint256)))",
						"numberOfBytes": "32",
						"value": "t_mapping(t_address,t_mapping(t_address,t_uint256))"
					},
					"t_mapping(t_address,t_mapping(t_address,t_uint256))": {
						"encoding": "mapping",
						"key": "t_address",
						"label": "mapping(address => mapping(address => uint256))",
						"numberOfBytes": "32",
						"value": "t_mapping(t_address,t_uint256)"
					},
					"t_mapping(t_address,t_uint256)": {
						"encoding": "mapping",
						"key": "t_address",
						"label": "mapping(address => uint256)",
						"numberOfBytes": "32",
						"value": "t_uint256"
					},
					"t_uint256": {
						"encoding": "inplace",
						"label": "uint256",
						"numberOfBytes": "32"
					}
				}
			},
			"userdoc": {
				"kind": "user",
				"methods": {},
				"version": 1
			}
		}
	}
}