{
	"data": {
		"bytecode": {
			"linkReferences": {},
			"object": "6080604052348015600e575f80fd5b505f80546001600160a01b03191633179055610b338061002d5f395ff3fe608060405234801561000f575f80fd5b506004361061009b575f3560e01c80638da5cb5b116100635780638da5cb5b14610151578063a2bdd08c1461017b578063bd042d2e1461018e578063c3698da4146101a1578063e94640c3146101b4575f80fd5b80630ac0be3f1461009f5780630db36379146100c85780630e6cc31f146100db57806317a436ed146100fe5780635f15b1d91461013c575b5f80fd5b6100b26100ad36600461096d565b6101c7565b6040516100bf919061099e565b60405180910390f35b6100b26100d63660046109ea565b610248565b6100ee6100e936600461096d565b6102bb565b60405190151581526020016100bf565b61012e61010c366004610a03565b600160209081525f938452604080852082529284528284209052825290205481565b6040519081526020016100bf565b61014f61014a366004610a43565b61033f565b005b5f54610163906001600160a01b031681565b6040516001600160a01b0390911681526020016100bf565b61014f610189366004610a03565b61038a565b6100ee61019c366004610a03565b610625565b61014f6101af366004610a43565b6106c6565b61014f6101c2366004610a43565b610839565b6001600160a01b038083165f90815260036020908152604080832093851683529281529082902080548351818402810184019094528084526060939283018282801561023a57602002820191905f5260205f20905b81546001600160a01b0316815260019091019060200180831161021c575b505050505090505b92915050565b6001600160a01b0381165f908152600260209081526040918290208054835181840281018401909452808452606093928301828280156102af57602002820191905f5260205f20905b81546001600160a01b03168152600190910190602001808311610291575b50505050509050919050565b5f805b6001600160a01b0384165f90815260026020526040902054811015610336576001600160a01b038481165f9081526002602052604090208054918516918390811061030b5761030b610a7c565b5f918252602090912001546001600160a01b03160361032e576001915050610242565b6001016102be565b505f9392505050565b335f8181526001602090815260408083206001600160a01b0388811685529083528184209087168452909152902082905561037a90846108a7565b6103853384846108f7565b505050565b5f546001600160a01b031633146103d45760405162461bcd60e51b81526020600482015260096024820152682737ba1037bbb732b960b91b60448201526064015b60405180910390fd5b6103df838383610625565b6104215760405162461bcd60e51b8152602060048201526013602482015272149958da5c1a595b9d081b9bdd08199bdd5b99606a1b60448201526064016103cb565b5f5b6001600160a01b038085165f908152600360209081526040808320938716835292905220548110156104ab576001600160a01b038481165f908152600360209081526040808320878516845290915290208054918416918390811061048a5761048a610a7c565b5f918252602090912001546001600160a01b0316146104ab57600101610423565b805b6001600160a01b038086165f908152600360209081526040808320938816835292905220546104de90600190610aa4565b81101561059b576001600160a01b038086165f908152600360209081526040808320938816835292905220610514826001610ab7565b8154811061052457610524610a7c565b5f9182526020808320909101546001600160a01b03888116845260038352604080852089831686529093529190922080549190921691908390811061056b5761056b610a7c565b5f91825260209091200180546001600160a01b0319166001600160a01b03929092169190911790556001016104ad565b506001600160a01b038085165f9081526003602090815260408083209387168352929052208054806105cf576105cf610aca565b5f828152602080822083015f1990810180546001600160a01b03191690559092019092556001600160a01b0395861682526001815260408083209587168352948152848220939095168152919093529081205550565b5f805b6001600160a01b038086165f908152600360209081526040808320938816835292905220548110156106ba576001600160a01b038581165f908152600360209081526040808320888516845290915290208054918516918390811061068f5761068f610a7c565b5f918252602090912001546001600160a01b0316036106b25760019150506106bf565b600101610628565b505f90505b9392505050565b6001600160a01b038084165f9081526001602090815260408083209386168352928152828220338352905220548111156107425760405162461bcd60e51b815260206004820152601760248201527f496e73756666696369656e7420616c6c6f636174696f6e00000000000000000060448201526064016103cb565b6001600160a01b038084165f908152600160209081526040808320938616835292815282822033835290529081208054839290610780908490610aa4565b90915550506040516323b872dd60e01b81526001600160a01b038481166004830152336024830152604482018390528316906323b872dd906064016020604051808303815f875af11580156107d7573d5f803e3d5ffd5b505050506040513d601f19601f820116820180604052508101906107fb9190610ade565b6103855760405162461bcd60e51b815260206004820152600f60248201526e151c985b9cd9995c8819985a5b1959608a1b60448201526064016103cb565b805f0361087457335f9081526001602090815260408083206001600160a01b0387811685529083528184209086168452909152812055505050565b335f9081526001602090815260408083206001600160a01b03968716845282528083209490951682529290925291902055565b6108b182826102bb565b6108f3576001600160a01b038281165f9081526002602090815260408220805460018101825590835291200180546001600160a01b0319169183169190911790555b5050565b610902838383610625565b610385576001600160a01b039283165f9081526003602090815260408083209486168352938152928120805460018101825590825292902090910180546001600160a01b03191691909216179055565b80356001600160a01b0381168114610968575f80fd5b919050565b5f806040838503121561097e575f80fd5b61098783610952565b915061099560208401610952565b90509250929050565b602080825282518282018190525f9190848201906040850190845b818110156109de5783516001600160a01b0316835292840192918401916001016109b9565b50909695505050505050565b5f602082840312156109fa575f80fd5b6106bf82610952565b5f805f60608486031215610a15575f80fd5b610a1e84610952565b9250610a2c60208501610952565b9150610a3a60408501610952565b90509250925092565b5f805f60608486031215610a55575f80fd5b610a5e84610952565b9250610a6c60208501610952565b9150604084013590509250925092565b634e487b7160e01b5f52603260045260245ffd5b634e487b7160e01b5f52601160045260245ffd5b8181038181111561024257610242610a90565b8082018082111561024257610242610a90565b634e487b7160e01b5f52603160045260245ffd5b5f60208284031215610aee575f80fd5b815180151581146106bf575f80fdfea264697066735822122090e8c62228c4032278f8b6e86329f247d204621844959f73416175b398e443a364736f6c63430008190033",
			"opcodes": "PUSH1 0x80 PUSH1 0x40 MSTORE CALLVALUE DUP1 ISZERO PUSH1 0xE JUMPI PUSH0 DUP1 REVERT JUMPDEST POP PUSH0 DUP1 SLOAD PUSH1 0x1 PUSH1 0x1 PUSH1 0xA0 SHL SUB NOT AND CALLER OR SWAP1 SSTORE PUSH2 0xB33 DUP1 PUSH2 0x2D PUSH0 CODECOPY PUSH0 RETURN INVALID PUSH1 0x80 PUSH1 0x40 MSTORE CALLVALUE DUP1 ISZERO PUSH2 0xF JUMPI PUSH0 DUP1 REVERT JUMPDEST POP PUSH1 0x4 CALLDATASIZE LT PUSH2 0x9B JUMPI PUSH0 CALLDATALOAD PUSH1 0xE0 SHR DUP1 PUSH4 0x8DA5CB5B GT PUSH2 0x63 JUMPI DUP1 PUSH4 0x8DA5CB5B EQ PUSH2 0x151 JUMPI DUP1 PUSH4 0xA2BDD08C EQ PUSH2 0x17B JUMPI DUP1 PUSH4 0xBD042D2E EQ PUSH2 0x18E JUMPI DUP1 PUSH4 0xC3698DA4 EQ PUSH2 0x1A1 JUMPI DUP1 PUSH4 0xE94640C3 EQ PUSH2 0x1B4 JUMPI PUSH0 DUP1 REVERT JUMPDEST DUP1 PUSH4 0xAC0BE3F EQ PUSH2 0x9F JUMPI DUP1 PUSH4 0xDB36379 EQ PUSH2 0xC8 JUMPI DUP1 PUSH4 0xE6CC31F EQ PUSH2 0xDB JUMPI DUP1 PUSH4 0x17A436ED EQ PUSH2 0xFE JUMPI DUP1 PUSH4 0x5F15B1D9 EQ PUSH2 0x13C JUMPI JUMPDEST PUSH0 DUP1 REVERT JUMPDEST PUSH2 0xB2 PUSH2 0xAD CALLDATASIZE PUSH1 0x4 PUSH2 0x96D JUMP JUMPDEST PUSH2 0x1C7 JUMP JUMPDEST PUSH1 0x40 MLOAD PUSH2 0xBF SWAP2 SWAP1 PUSH2 0x99E JUMP JUMPDEST PUSH1 0x40 MLOAD DUP1 SWAP2 SUB SWAP1 RETURN JUMPDEST PUSH2 0xB2 PUSH2 0xD6 CALLDATASIZE PUSH1 0x4 PUSH2 0x9EA JUMP JUMPDEST PUSH2 0x248 JUMP JUMPDEST PUSH2 0xEE PUSH2 0xE9 CALLDATASIZE PUSH1 0x4 PUSH2 0x96D JUMP JUMPDEST PUSH2 0x2BB JUMP JUMPDEST PUSH1 0x40 MLOAD SWAP1 ISZERO ISZERO DUP2 MSTORE PUSH1 0x20 ADD PUSH2 0xBF JUMP JUMPDEST PUSH2 0x12E PUSH2 0x10C CALLDATASIZE PUSH1 0x4 PUSH2 0xA03 JUMP JUMPDEST PUSH1 0x1 PUSH1 0x20 SWAP1 DUP2 MSTORE PUSH0 SWAP4 DUP5 MSTORE PUSH1 0x40 DUP1 DUP6 KECCAK256 DUP3 MSTORE SWAP3 DUP5 MSTORE DUP3 DUP5 KECCAK256 SWAP1 MSTORE DUP3 MSTORE SWAP1 KECCAK256 SLOAD DUP2 JUMP JUMPDEST PUSH1 0x40 MLOAD SWAP1 DUP2 MSTORE PUSH1 0x20 ADD PUSH2 0xBF JUMP JUMPDEST PUSH2 0x14F PUSH2 0x14A CALLDATASIZE PUSH1 0x4 PUSH2 0xA43 JUMP JUMPDEST PUSH2 0x33F JUMP JUMPDEST STOP JUMPDEST PUSH0 SLOAD PUSH2 0x163 SWAP1 PUSH1 0x1 PUSH1 0x1 PUSH1 0xA0 SHL SUB AND DUP2 JUMP JUMPDEST PUSH1 0x40 MLOAD PUSH1 0x1 PUSH1 0x1 PUSH1 0xA0 SHL SUB SWAP1 SWAP2 AND DUP2 MSTORE PUSH1 0x20 ADD PUSH2 0xBF JUMP JUMPDEST PUSH2 0x14F PUSH2 0x189 CALLDATASIZE PUSH1 0x4 PUSH2 0xA03 JUMP JUMPDEST PUSH2 0x38A JUMP JUMPDEST PUSH2 0xEE PUSH2 0x19C CALLDATASIZE PUSH1 0x4 PUSH2 0xA03 JUMP JUMPDEST PUSH2 0x625 JUMP JUMPDEST PUSH2 0x14F PUSH2 0x1AF CALLDATASIZE PUSH1 0x4 PUSH2 0xA43 JUMP JUMPDEST PUSH2 0x6C6 JUMP JUMPDEST PUSH2 0x14F PUSH2 0x1C2 CALLDATASIZE PUSH1 0x4 PUSH2 0xA43 JUMP JUMPDEST PUSH2 0x839 JUMP JUMPDEST PUSH1 0x1 PUSH1 0x1 PUSH1 0xA0 SHL SUB DUP1 DUP4 AND PUSH0 SWAP1 DUP2 MSTORE PUSH1 0x3 PUSH1 0x20 SWAP1 DUP2 MSTORE PUSH1 0x40 DUP1 DUP4 KECCAK256 SWAP4 DUP6 AND DUP4 MSTORE SWAP3 DUP2 MSTORE SWAP1 DUP3 SWAP1 KECCAK256 DUP1 SLOAD DUP4 MLOAD DUP2 DUP5 MUL DUP2 ADD DUP5 ADD SWAP1 SWAP5 MSTORE DUP1 DUP5 MSTORE PUSH1 0x60 SWAP4 SWAP3 DUP4 ADD DUP3 DUP3 DUP1 ISZERO PUSH2 0x23A JUMPI PUSH1 0x20 MUL DUP3 ADD SWAP2 SWAP1 PUSH0 MSTORE PUSH1 0x20 PUSH0 KECCAK256 SWAP1 JUMPDEST DUP2 SLOAD PUSH1 0x1 PUSH1 0x1 PUSH1 0xA0 SHL SUB AND DUP2 MSTORE PUSH1 0x1 SWAP1 SWAP2 ADD SWAP1 PUSH1 0x20 ADD DUP1 DUP4 GT PUSH2 0x21C JUMPI JUMPDEST POP POP POP POP POP SWAP1 POP JUMPDEST SWAP3 SWAP2 POP POP JUMP JUMPDEST PUSH1 0x1 PUSH1 0x1 PUSH1 0xA0 SHL SUB DUP2 AND PUSH0 SWAP1 DUP2 MSTORE PUSH1 0x2 PUSH1 0x20 SWAP1 DUP2 MSTORE PUSH1 0x40 SWAP2 DUP3 SWAP1 KECCAK256 DUP1 SLOAD DUP4 MLOAD DUP2 DUP5 MUL DUP2 ADD DUP5 ADD SWAP1 SWAP5 MSTORE DUP1 DUP5 MSTORE PUSH1 0x60 SWAP4 SWAP3 DUP4 ADD DUP3 DUP3 DUP1 ISZERO PUSH2 0x2AF JUMPI PUSH1 0x20 MUL DUP3 ADD SWAP2 SWAP1 PUSH0 MSTORE PUSH1 0x20 PUSH0 KECCAK256 SWAP1 JUMPDEST DUP2 SLOAD PUSH1 0x1 PUSH1 0x1 PUSH1 0xA0 SHL SUB AND DUP2 MSTORE PUSH1 0x1 SWAP1 SWAP2 ADD SWAP1 PUSH1 0x20 ADD DUP1 DUP4 GT PUSH2 0x291 JUMPI JUMPDEST POP POP POP POP POP SWAP1 POP SWAP2 SWAP1 POP JUMP JUMPDEST PUSH0 DUP1 JUMPDEST PUSH1 0x1 PUSH1 0x1 PUSH1 0xA0 SHL SUB DUP5 AND PUSH0 SWAP1 DUP2 MSTORE PUSH1 0x2 PUSH1 0x20 MSTORE PUSH1 0x40 SWAP1 KECCAK256 SLOAD DUP2 LT ISZERO PUSH2 0x336 JUMPI PUSH1 0x1 PUSH1 0x1 PUSH1 0xA0 SHL SUB DUP5 DUP2 AND PUSH0 SWAP1 DUP2 MSTORE PUSH1 0x2 PUSH1 0x20 MSTORE PUSH1 0x40 SWAP1 KECCAK256 DUP1 SLOAD SWAP2 DUP6 AND SWAP2 DUP4 SWAP1 DUP2 LT PUSH2 0x30B JUMPI PUSH2 0x30B PUSH2 0xA7C JUMP JUMPDEST PUSH0 SWAP2 DUP3 MSTORE PUSH1 0x20 SWAP1 SWAP2 KECCAK256 ADD SLOAD PUSH1 0x1 PUSH1 0x1 PUSH1 0xA0 SHL SUB AND SUB PUSH2 0x32E JUMPI PUSH1 0x1 SWAP2 POP POP PUSH2 0x242 JUMP JUMPDEST PUSH1 0x1 ADD PUSH2 0x2BE JUMP JUMPDEST POP PUSH0 SWAP4 SWAP3 POP POP POP JUMP JUMPDEST CALLER PUSH0 DUP2 DUP2 MSTORE PUSH1 0x1 PUSH1 0x20 SWAP1 DUP2 MSTORE PUSH1 0x40 DUP1 DUP4 KECCAK256 PUSH1 0x1 PUSH1 0x1 PUSH1 0xA0 SHL SUB DUP9 DUP2 AND DUP6 MSTORE SWAP1 DUP4 MSTORE DUP2 DUP5 KECCAK256 SWAP1 DUP8 AND DUP5 MSTORE SWAP1 SWAP2 MSTORE SWAP1 KECCAK256 DUP3 SWAP1 SSTORE PUSH2 0x37A SWAP1 DUP5 PUSH2 0x8A7 JUMP JUMPDEST PUSH2 0x385 CALLER DUP5 DUP5 PUSH2 0x8F7 JUMP JUMPDEST POP POP POP JUMP JUMPDEST PUSH0 SLOAD PUSH1 0x1 PUSH1 0x1 PUSH1 0xA0 SHL SUB AND CALLER EQ PUSH2 0x3D4 JUMPI PUSH1 0x40 MLOAD PUSH3 0x461BCD PUSH1 0xE5 SHL DUP2 MSTORE PUSH1 0x20 PUSH1 0x4 DUP3 ADD MSTORE PUSH1 0x9 PUSH1 0x24 DUP3 ADD MSTORE PUSH9 0x2737BA1037BBB732B9 PUSH1 0xB9 SHL PUSH1 0x44 DUP3 ADD MSTORE PUSH1 0x64 ADD JUMPDEST PUSH1 0x40 MLOAD DUP1 SWAP2 SUB SWAP1 REVERT JUMPDEST PUSH2 0x3DF DUP4 DUP4 DUP4 PUSH2 0x625 JUMP JUMPDEST PUSH2 0x421 JUMPI PUSH1 0x40 MLOAD PUSH3 0x461BCD PUSH1 0xE5 SHL DUP2 MSTORE PUSH1 0x20 PUSH1 0x4 DUP3 ADD MSTORE PUSH1 0x13 PUSH1 0x24 DUP3 ADD MSTORE PUSH19 0x149958DA5C1A595B9D081B9BDD08199BDD5B99 PUSH1 0x6A SHL PUSH1 0x44 DUP3 ADD MSTORE PUSH1 0x64 ADD PUSH2 0x3CB JUMP JUMPDEST PUSH0 JUMPDEST PUSH1 0x1 PUSH1 0x1 PUSH1 0xA0 SHL SUB DUP1 DUP6 AND PUSH0 SWAP1 DUP2 MSTORE PUSH1 0x3 PUSH1 0x20 SWAP1 DUP2 MSTORE PUSH1 0x40 DUP1 DUP4 KECCAK256 SWAP4 DUP8 AND DUP4 MSTORE SWAP3 SWAP1 MSTORE KECCAK256 SLOAD DUP2 LT ISZERO PUSH2 0x4AB JUMPI PUSH1 0x1 PUSH1 0x1 PUSH1 0xA0 SHL SUB DUP5 DUP2 AND PUSH0 SWAP1 DUP2 MSTORE PUSH1 0x3 PUSH1 0x20 SWAP1 DUP2 MSTORE PUSH1 0x40 DUP1 DUP4 KECCAK256 DUP8 DUP6 AND DUP5 MSTORE SWAP1 SWAP2 MSTORE SWAP1 KECCAK256 DUP1 SLOAD SWAP2 DUP5 AND SWAP2 DUP4 SWAP1 DUP2 LT PUSH2 0x48A JUMPI PUSH2 0x48A PUSH2 0xA7C JUMP JUMPDEST PUSH0 SWAP2 DUP3 MSTORE PUSH1 0x20 SWAP1 SWAP2 KECCAK256 ADD SLOAD PUSH1 0x1 PUSH1 0x1 PUSH1 0xA0 SHL SUB AND EQ PUSH2 0x4AB JUMPI PUSH1 0x1 ADD PUSH2 0x423 JUMP JUMPDEST DUP1 JUMPDEST PUSH1 0x1 PUSH1 0x1 PUSH1 0xA0 SHL SUB DUP1 DUP7 AND PUSH0 SWAP1 DUP2 MSTORE PUSH1 0x3 PUSH1 0x20 SWAP1 DUP2 MSTORE PUSH1 0x40 DUP1 DUP4 KECCAK256 SWAP4 DUP9 AND DUP4 MSTORE SWAP3 SWAP1 MSTORE KECCAK256 SLOAD PUSH2 0x4DE SWAP1 PUSH1 0x1 SWAP1 PUSH2 0xAA4 JUMP JUMPDEST DUP2 LT ISZERO PUSH2 0x59B JUMPI PUSH1 0x1 PUSH1 0x1 PUSH1 0xA0 SHL SUB DUP1 DUP7 AND PUSH0 SWAP1 DUP2 MSTORE PUSH1 0x3 PUSH1 0x20 SWAP1 DUP2 MSTORE PUSH1 0x40 DUP1 DUP4 KECCAK256 SWAP4 DUP9 AND DUP4 MSTORE SWAP3 SWAP1 MSTORE KECCAK256 PUSH2 0x514 DUP3 PUSH1 0x1 PUSH2 0xAB7 JUMP JUMPDEST DUP2 SLOAD DUP2 LT PUSH2 0x524 JUMPI PUSH2 0x524 PUSH2 0xA7C JUMP JUMPDEST PUSH0 SWAP2 DUP3 MSTORE PUSH1 0x20 DUP1 DUP4 KECCAK256 SWAP1 SWAP2 ADD SLOAD PUSH1 0x1 PUSH1 0x1 PUSH1 0xA0 SHL SUB DUP9 DUP2 AND DUP5 MSTORE PUSH1 0x3 DUP4 MSTORE PUSH1 0x40 DUP1 DUP6 KECCAK256 DUP10 DUP4 AND DUP7 MSTORE SWAP1 SWAP4 MSTORE SWAP2 SWAP1 SWAP3 KECCAK256 DUP1 SLOAD SWAP2 SWAP1 SWAP3 AND SWAP2 SWAP1 DUP4 SWAP1 DUP2 LT PUSH2 0x56B JUMPI PUSH2 0x56B PUSH2 0xA7C JUMP JUMPDEST PUSH0 SWAP2 DUP3 MSTORE PUSH1 0x20 SWAP1 SWAP2 KECCAK256 ADD DUP1 SLOAD PUSH1 0x1 PUSH1 0x1 PUSH1 0xA0 SHL SUB NOT AND PUSH1 0x1 PUSH1 0x1 PUSH1 0xA0 SHL SUB SWAP3 SWAP1 SWAP3 AND SWAP2 SWAP1 SWAP2 OR SWAP1 SSTORE PUSH1 0x1 ADD PUSH2 0x4AD JUMP JUMPDEST POP PUSH1 0x1 PUSH1 0x1 PUSH1 0xA0 SHL SUB DUP1 DUP6 AND PUSH0 SWAP1 DUP2 MSTORE PUSH1 0x3 PUSH1 0x20 SWAP1 DUP2 MSTORE PUSH1 0x40 DUP1 DUP4 KECCAK256 SWAP4 DUP8 AND DUP4 MSTORE SWAP3 SWAP1 MSTORE KECCAK256 DUP1 SLOAD DUP1 PUSH2 0x5CF JUMPI PUSH2 0x5CF PUSH2 0xACA JUMP JUMPDEST PUSH0 DUP3 DUP2 MSTORE PUSH1 0x20 DUP1 DUP3 KECCAK256 DUP4 ADD PUSH0 NOT SWAP1 DUP2 ADD DUP1 SLOAD PUSH1 0x1 PUSH1 0x1 PUSH1 0xA0 SHL SUB NOT AND SWAP1 SSTORE SWAP1 SWAP3 ADD SWAP1 SWAP3 SSTORE PUSH1 0x1 PUSH1 0x1 PUSH1 0xA0 SHL SUB SWAP6 DUP7 AND DUP3 MSTORE PUSH1 0x1 DUP2 MSTORE PUSH1 0x40 DUP1 DUP4 KECCAK256 SWAP6 DUP8 AND DUP4 MSTORE SWAP5 DUP2 MSTORE DUP5 DUP3 KECCAK256 SWAP4 SWAP1 SWAP6 AND DUP2 MSTORE SWAP2 SWAP1 SWAP4 MSTORE SWAP1 DUP2 KECCAK256 SSTORE POP JUMP JUMPDEST PUSH0 DUP1 JUMPDEST PUSH1 0x1 PUSH1 0x1 PUSH1 0xA0 SHL SUB DUP1 DUP7 AND PUSH0 SWAP1 DUP2 MSTORE PUSH1 0x3 PUSH1 0x20 SWAP1 DUP2 MSTORE PUSH1 0x40 DUP1 DUP4 KECCAK256 SWAP4 DUP9 AND DUP4 MSTORE SWAP3 SWAP1 MSTORE KECCAK256 SLOAD DUP2 LT ISZERO PUSH2 0x6BA JUMPI PUSH1 0x1 PUSH1 0x1 PUSH1 0xA0 SHL SUB DUP6 DUP2 AND PUSH0 SWAP1 DUP2 MSTORE PUSH1 0x3 PUSH1 0x20 SWAP1 DUP2 MSTORE PUSH1 0x40 DUP1 DUP4 KECCAK256 DUP9 DUP6 AND DUP5 MSTORE SWAP1 SWAP2 MSTORE SWAP1 KECCAK256 DUP1 SLOAD SWAP2 DUP6 AND SWAP2 DUP4 SWAP1 DUP2 LT PUSH2 0x68F JUMPI PUSH2 0x68F PUSH2 0xA7C JUMP JUMPDEST PUSH0 SWAP2 DUP3 MSTORE PUSH1 0x20 SWAP1 SWAP2 KECCAK256 ADD SLOAD PUSH1 0x1 PUSH1 0x1 PUSH1 0xA0 SHL SUB AND SUB PUSH2 0x6B2 JUMPI PUSH1 0x1 SWAP2 POP POP PUSH2 0x6BF JUMP JUMPDEST PUSH1 0x1 ADD PUSH2 0x628 JUMP JUMPDEST POP PUSH0 SWAP1 POP JUMPDEST SWAP4 SWAP3 POP POP POP JUMP JUMPDEST PUSH1 0x1 PUSH1 0x1 PUSH1 0xA0 SHL SUB DUP1 DUP5 AND PUSH0 SWAP1 DUP2 MSTORE PUSH1 0x1 PUSH1 0x20 SWAP1 DUP2 MSTORE PUSH1 0x40 DUP1 DUP4 KECCAK256 SWAP4 DUP7 AND DUP4 MSTORE SWAP3 DUP2 MSTORE DUP3 DUP3 KECCAK256 CALLER DUP4 MSTORE SWAP1 MSTORE KECCAK256 SLOAD DUP2 GT ISZERO PUSH2 0x742 JUMPI PUSH1 0x40 MLOAD PUSH3 0x461BCD PUSH1 0xE5 SHL DUP2 MSTORE PUSH1 0x20 PUSH1 0x4 DUP3 ADD MSTORE PUSH1 0x17 PUSH1 0x24 DUP3 ADD MSTORE PUSH32 0x496E73756666696369656E7420616C6C6F636174696F6E000000000000000000 PUSH1 0x44 DUP3 ADD MSTORE PUSH1 0x64 ADD PUSH2 0x3CB JUMP JUMPDEST PUSH1 0x1 PUSH1 0x1 PUSH1 0xA0 SHL SUB DUP1 DUP5 AND PUSH0 SWAP1 DUP2 MSTORE PUSH1 0x1 PUSH1 0x20 SWAP1 DUP2 MSTORE PUSH1 0x40 DUP1 DUP4 KECCAK256 SWAP4 DUP7 AND DUP4 MSTORE SWAP3 DUP2 MSTORE DUP3 DUP3 KECCAK256 CALLER DUP4 MSTORE SWAP1 MSTORE SWAP1 DUP2 KECCAK256 DUP1 SLOAD DUP4 SWAP3 SWAP1 PUSH2 0x780 SWAP1 DUP5 SWAP1 PUSH2 0xAA4 JUMP JUMPDEST SWAP1 SWAP2 SSTORE POP POP PUSH1 0x40 MLOAD PUSH4 0x23B872DD PUSH1 0xE0 SHL DUP2 MSTORE PUSH1 0x1 PUSH1 0x1 PUSH1 0xA0 SHL SUB DUP5 DUP2 AND PUSH1 0x4 DUP4 ADD MSTORE CALLER PUSH1 0x24 DUP4 ADD MSTORE PUSH1 0x44 DUP3 ADD DUP4 SWAP1 MSTORE DUP4 AND SWAP1 PUSH4 0x23B872DD SWAP1 PUSH1 0x64 ADD PUSH1 0x20 PUSH1 0x40 MLOAD DUP1 DUP4 SUB DUP2 PUSH0 DUP8 GAS CALL ISZERO DUP1 ISZERO PUSH2 0x7D7 JUMPI RETURNDATASIZE PUSH0 DUP1 RETURNDATACOPY RETURNDATASIZE PUSH0 REVERT JUMPDEST POP POP POP POP PUSH1 0x40 MLOAD RETURNDATASIZE PUSH1 0x1F NOT PUSH1 0x1F DUP3 ADD AND DUP3 ADD DUP1 PUSH1 0x40 MSTORE POP DUP2 ADD SWAP1 PUSH2 0x7FB SWAP2 SWAP1 PUSH2 0xADE JUMP JUMPDEST PUSH2 0x385 JUMPI PUSH1 0x40 MLOAD PUSH3 0x461BCD PUSH1 0xE5 SHL DUP2 MSTORE PUSH1 0x20 PUSH1 0x4 DUP3 ADD MSTORE PUSH1 0xF PUSH1 0x24 DUP3 ADD MSTORE PUSH15 0x151C985B9CD9995C8819985A5B1959 PUSH1 0x8A SHL PUSH1 0x44 DUP3 ADD MSTORE PUSH1 0x64 ADD PUSH2 0x3CB JUMP JUMPDEST DUP1 PUSH0 SUB PUSH2 0x874 JUMPI CALLER PUSH0 SWAP1 DUP2 MSTORE PUSH1 0x1 PUSH1 0x20 SWAP1 DUP2 MSTORE PUSH1 0x40 DUP1 DUP4 KECCAK256 PUSH1 0x1 PUSH1 0x1 PUSH1 0xA0 SHL SUB DUP8 DUP2 AND DUP6 MSTORE SWAP1 DUP4 MSTORE DUP2 DUP5 KECCAK256 SWAP1 DUP7 AND DUP5 MSTORE SWAP1 SWAP2 MSTORE DUP2 KECCAK256 SSTORE POP POP POP JUMP JUMPDEST CALLER PUSH0 SWAP1 DUP2 MSTORE PUSH1 0x1 PUSH1 0x20 SWAP1 DUP2 MSTORE PUSH1 0x40 DUP1 DUP4 KECCAK256 PUSH1 0x1 PUSH1 0x1 PUSH1 0xA0 SHL SUB SWAP7 DUP8 AND DUP5 MSTORE DUP3 MSTORE DUP1 DUP4 KECCAK256 SWAP5 SWAP1 SWAP6 AND DUP3 MSTORE SWAP3 SWAP1 SWAP3 MSTORE SWAP2 SWAP1 KECCAK256 SSTORE JUMP JUMPDEST PUSH2 0x8B1 DUP3 DUP3 PUSH2 0x2BB JUMP JUMPDEST PUSH2 0x8F3 JUMPI PUSH1 0x1 PUSH1 0x1 PUSH1 0xA0 SHL SUB DUP3 DUP2 AND PUSH0 SWAP1 DUP2 MSTORE PUSH1 0x2 PUSH1 0x20 SWAP1 DUP2 MSTORE PUSH1 0x40 DUP3 KECCAK256 DUP1 SLOAD PUSH1 0x1 DUP2 ADD DUP3 SSTORE SWAP1 DUP4 MSTORE SWAP2 KECCAK256 ADD DUP1 SLOAD PUSH1 0x1 PUSH1 0x1 PUSH1 0xA0 SHL SUB NOT AND SWAP2 DUP4 AND SWAP2 SWAP1 SWAP2 OR SWAP1 SSTORE JUMPDEST POP POP JUMP JUMPDEST PUSH2 0x902 DUP4 DUP4 DUP4 PUSH2 0x625 JUMP JUMPDEST PUSH2 0x385 JUMPI PUSH1 0x1 PUSH1 0x1 PUSH1 0xA0 SHL SUB SWAP3 DUP4 AND PUSH0 SWAP1 DUP2 MSTORE PUSH1 0x3 PUSH1 0x20 SWAP1 DUP2 MSTORE PUSH1 0x40 DUP1 DUP4 KECCAK256 SWAP5 DUP7 AND DUP4 MSTORE SWAP4 DUP2 MSTORE SWAP3 DUP2 KECCAK256 DUP1 SLOAD PUSH1 0x1 DUP2 ADD DUP3 SSTORE SWAP1 DUP3 MSTORE SWAP3 SWAP1 KECCAK256 SWAP1 SWAP2 ADD DUP1 SLOAD PUSH1 0x1 PUSH1 0x1 PUSH1 0xA0 SHL SUB NOT AND SWAP2 SWAP1 SWAP3 AND OR SWAP1 SSTORE JUMP JUMPDEST DUP1 CALLDATALOAD PUSH1 0x1 PUSH1 0x1 PUSH1 0xA0 SHL SUB DUP2 AND DUP2 EQ PUSH2 0x968 JUMPI PUSH0 DUP1 REVERT JUMPDEST SWAP2 SWAP1 POP JUMP JUMPDEST PUSH0 DUP1 PUSH1 0x40 DUP4 DUP6 SUB SLT ISZERO PUSH2 0x97E JUMPI PUSH0 DUP1 REVERT JUMPDEST PUSH2 0x987 DUP4 PUSH2 0x952 JUMP JUMPDEST SWAP2 POP PUSH2 0x995 PUSH1 0x20 DUP5 ADD PUSH2 0x952 JUMP JUMPDEST SWAP1 POP SWAP3 POP SWAP3 SWAP1 POP JUMP JUMPDEST PUSH1 0x20 DUP1 DUP3 MSTORE DUP3 MLOAD DUP3 DUP3 ADD DUP2 SWAP1 MSTORE PUSH0 SWAP2 SWAP1 DUP5 DUP3 ADD SWAP1 PUSH1 0x40 DUP6 ADD SWAP1 DUP5 JUMPDEST DUP2 DUP2 LT ISZERO PUSH2 0x9DE JUMPI DUP4 MLOAD PUSH1 0x1 PUSH1 0x1 PUSH1 0xA0 SHL SUB AND DUP4 MSTORE SWAP3 DUP5 ADD SWAP3 SWAP2 DUP5 ADD SWAP2 PUSH1 0x1 ADD PUSH2 0x9B9 JUMP JUMPDEST POP SWAP1 SWAP7 SWAP6 POP POP POP POP POP POP JUMP JUMPDEST PUSH0 PUSH1 0x20 DUP3 DUP5 SUB SLT ISZERO PUSH2 0x9FA JUMPI PUSH0 DUP1 REVERT JUMPDEST PUSH2 0x6BF DUP3 PUSH2 0x952 JUMP JUMPDEST PUSH0 DUP1 PUSH0 PUSH1 0x60 DUP5 DUP7 SUB SLT ISZERO PUSH2 0xA15 JUMPI PUSH0 DUP1 REVERT JUMPDEST PUSH2 0xA1E DUP5 PUSH2 0x952 JUMP JUMPDEST SWAP3 POP PUSH2 0xA2C PUSH1 0x20 DUP6 ADD PUSH2 0x952 JUMP JUMPDEST SWAP2 POP PUSH2 0xA3A PUSH1 0x40 DUP6 ADD PUSH2 0x952 JUMP JUMPDEST SWAP1 POP SWAP3 POP SWAP3 POP SWAP3 JUMP JUMPDEST PUSH0 DUP1 PUSH0 PUSH1 0x60 DUP5 DUP7 SUB SLT ISZERO PUSH2 0xA55 JUMPI PUSH0 DUP1 REVERT JUMPDEST PUSH2 0xA5E DUP5 PUSH2 0x952 JUMP JUMPDEST SWAP3 POP PUSH2 0xA6C PUSH1 0x20 DUP6 ADD PUSH2 0x952 JUMP JUMPDEST SWAP2 POP PUSH1 0x40 DUP5 ADD CALLDATALOAD SWAP1 POP SWAP3 POP SWAP3 POP SWAP3 JUMP JUMPDEST PUSH4 0x4E487B71 PUSH1 0xE0 SHL PUSH0 MSTORE PUSH1 0x32 PUSH1 0x4 MSTORE PUSH1 0x24 PUSH0 REVERT JUMPDEST PUSH4 0x4E487B71 PUSH1 0xE0 SHL PUSH0 MSTORE PUSH1 0x11 PUSH1 0x4 MSTORE PUSH1 0x24 PUSH0 REVERT JUMPDEST DUP2 DUP2 SUB DUP2 DUP2 GT ISZERO PUSH2 0x242 JUMPI PUSH2 0x242 PUSH2 0xA90 JUMP JUMPDEST DUP1 DUP3 ADD DUP1 DUP3 GT ISZERO PUSH2 0x242 JUMPI PUSH2 0x242 PUSH2 0xA90 JUMP JUMPDEST PUSH4 0x4E487B71 PUSH1 0xE0 SHL PUSH0 MSTORE PUSH1 0x31 PUSH1 0x4 MSTORE PUSH1 0x24 PUSH0 REVERT JUMPDEST PUSH0 PUSH1 0x20 DUP3 DUP5 SUB SLT ISZERO PUSH2 0xAEE JUMPI PUSH0 DUP1 REVERT JUMPDEST DUP2 MLOAD DUP1 ISZERO ISZERO DUP2 EQ PUSH2 0x6BF JUMPI PUSH0 DUP1 REVERT INVALID LOG2 PUSH5 0x6970667358 0x22 SLT KECCAK256 SWAP1 0xE8 0xC6 0x22 0x28 0xC4 SUB 0x22 PUSH25 0xF8B6E86329F247D204621844959F73416175B398E443A36473 PUSH16 0x6C634300081900330000000000000000 "
		},
		"gasEstimates": {
			"creation": {
				"codeDepositCost": "573400",
				"executionCost": "24838",
				"totalCost": "598238"
			},
			"external": {
				"adjustAllocation(address,address,uint256)": "infinite",
				"getAllocatedTokensByUser(address)": "infinite",
				"getRecipientsByToken(address,address)": "infinite",
				"isRecipientOfToken(address,address,address)": "infinite",
				"isTokenAllocatedByUser(address,address)": "infinite",
				"owner()": "2335",
				"removeRecipientForToken(address,address,address)": "infinite",
				"setAllocation(address,address,uint256)": "infinite",
				"tokenAllocations(address,address,address)": "infinite",
				"withdrawTokenForBeneficiary(address,address,uint256)": "infinite"
			},
			"internal": {
				"_addRecipientForToken(address,address,address)": "infinite",
				"_addTokenForUser(address,address)": "infinite"
			}
		},
		"methodIdentifiers": {
			"adjustAllocation(address,address,uint256)": "e94640c3",
			"getAllocatedTokensByUser(address)": "0db36379",
			"getRecipientsByToken(address,address)": "0ac0be3f",
			"isRecipientOfToken(address,address,address)": "bd042d2e",
			"isTokenAllocatedByUser(address,address)": "0e6cc31f",
			"owner()": "8da5cb5b",
			"removeRecipientForToken(address,address,address)": "a2bdd08c",
			"setAllocation(address,address,uint256)": "5f15b1d9",
			"tokenAllocations(address,address,address)": "17a436ed",
			"withdrawTokenForBeneficiary(address,address,uint256)": "c3698da4"
		}
	},
	"abi": [
		{
			"inputs": [],
			"stateMutability": "nonpayable",
			"type": "constructor"
		},
		{
			"inputs": [
				{
					"internalType": "address",
					"name": "token",
					"type": "address"
				},
				{
					"internalType": "address",
					"name": "recipient",
					"type": "address"
				},
				{
					"internalType": "uint256",
					"name": "amount",
					"type": "uint256"
				}
			],
			"name": "adjustAllocation",
			"outputs": [],
			"stateMutability": "nonpayable",
			"type": "function"
		},
		{
			"inputs": [
				{
					"internalType": "address",
					"name": "user",
					"type": "address"
				}
			],
			"name": "getAllocatedTokensByUser",
			"outputs": [
				{
					"internalType": "address[]",
					"name": "",
					"type": "address[]"
				}
			],
			"stateMutability": "view",
			"type": "function"
		},
		{
			"inputs": [
				{
					"internalType": "address",
					"name": "user",
					"type": "address"
				},
				{
					"internalType": "address",
					"name": "token",
					"type": "address"
				}
			],
			"name": "getRecipientsByToken",
			"outputs": [
				{
					"internalType": "address[]",
					"name": "",
					"type": "address[]"
				}
			],
			"stateMutability": "view",
			"type": "function"
		},
		{
			"inputs": [
				{
					"internalType": "address",
					"name": "user",
					"type": "address"
				},
				{
					"internalType": "address",
					"name": "token",
					"type": "address"
				},
				{
					"internalType": "address",
					"name": "recipient",
					"type": "address"
				}
			],
			"name": "isRecipientOfToken",
			"outputs": [
				{
					"internalType": "bool",
					"name": "",
					"type": "bool"
				}
			],
			"stateMutability": "view",
			"type": "function"
		},
		{
			"inputs": [
				{
					"internalType": "address",
					"name": "user",
					"type": "address"
				},
				{
					"internalType": "address",
					"name": "token",
					"type": "address"
				}
			],
			"name": "isTokenAllocatedByUser",
			"outputs": [
				{
					"internalType": "bool",
					"name": "",
					"type": "bool"
				}
			],
			"stateMutability": "view",
			"type": "function"
		},
		{
			"inputs": [],
			"name": "owner",
			"outputs": [
				{
					"internalType": "address",
					"name": "",
					"type": "address"
				}
			],
			"stateMutability": "view",
			"type": "function"
		},
		{
			"inputs": [
				{
					"internalType": "address",
					"name": "user",
					"type": "address"
				},
				{
					"internalType": "address",
					"name": "token",
					"type": "address"
				},
				{
					"internalType": "address",
					"name": "recipient",
					"type": "address"
				}
			],
			"name": "removeRecipientForToken",
			"outputs": [],
			"stateMutability": "nonpayable",
			"type": "function"
		},
		{
			"inputs": [
				{
					"internalType": "address",
					"name": "token",
					"type": "address"
				},
				{
					"internalType": "address",
					"name": "recipient",
					"type": "address"
				},
				{
					"internalType": "uint256",
					"name": "amount",
					"type": "uint256"
				}
			],
			"name": "setAllocation",
			"outputs": [],
			"stateMutability": "nonpayable",
			"type": "function"
		},
		{
			"inputs": [
				{
					"internalType": "address",
					"name": "",
					"type": "address"
				},
				{
					"internalType": "address",
					"name": "",
					"type": "address"
				},
				{
					"internalType": "address",
					"name": "",
					"type": "address"
				}
			],
			"name": "tokenAllocations",
			"outputs": [
				{
					"internalType": "uint256",
					"name": "",
					"type": "uint256"
				}
			],
			"stateMutability": "view",
			"type": "function"
		},
		{
			"inputs": [
				{
					"internalType": "address",
					"name": "creator",
					"type": "address"
				},
				{
					"internalType": "address",
					"name": "token",
					"type": "address"
				},
				{
					"internalType": "uint256",
					"name": "amount",
					"type": "uint256"
				}
			],
			"name": "withdrawTokenForBeneficiary",
			"outputs": [],
			"stateMutability": "nonpayable",
			"type": "function"
		}
	]
}