{
	"data": {
		"bytecode": {
			"linkReferences": {},
			"object": "608060405234801561000f575f80fd5b505f80546001600160a01b031916331790556109838061002e5f395ff3fe608060405234801561000f575f80fd5b5060043610610090575f3560e01c80635f15b1d9116100635780635f15b1d9146101315780638da5cb5b14610146578063a2bdd08c14610170578063bd042d2e14610183578063e94640c314610196575f80fd5b80630ac0be3f146100945780630db36379146100bd5780630e6cc31f146100d057806317a436ed146100f3575b5f80fd5b6100a76100a23660046107dc565b6101a9565b6040516100b4919061080d565b60405180910390f35b6100a76100cb366004610859565b61022a565b6100e36100de3660046107dc565b61029d565b60405190151581526020016100b4565b610123610101366004610872565b600160209081525f938452604080852082529284528284209052825290205481565b6040519081526020016100b4565b61014461013f3660046108b2565b610321565b005b5f54610158906001600160a01b031681565b6040516001600160a01b0390911681526020016100b4565b61014461017e366004610872565b61036c565b6100e3610191366004610872565b610607565b6101446101a43660046108b2565b6106a8565b6001600160a01b038083165f90815260036020908152604080832093851683529281529082902080548351818402810184019094528084526060939283018282801561021c57602002820191905f5260205f20905b81546001600160a01b031681526001909101906020018083116101fe575b505050505090505b92915050565b6001600160a01b0381165f9081526002602090815260409182902080548351818402810184019094528084526060939283018282801561029157602002820191905f5260205f20905b81546001600160a01b03168152600190910190602001808311610273575b50505050509050919050565b5f805b6001600160a01b0384165f90815260026020526040902054811015610318576001600160a01b038481165f908152600260205260409020805491851691839081106102ed576102ed6108eb565b5f918252602090912001546001600160a01b031603610310576001915050610224565b6001016102a0565b505f9392505050565b335f8181526001602090815260408083206001600160a01b0388811685529083528184209087168452909152902082905561035c9084610716565b610367338484610766565b505050565b5f546001600160a01b031633146103b65760405162461bcd60e51b81526020600482015260096024820152682737ba1037bbb732b960b91b60448201526064015b60405180910390fd5b6103c1838383610607565b6104035760405162461bcd60e51b8152602060048201526013602482015272149958da5c1a595b9d081b9bdd08199bdd5b99606a1b60448201526064016103ad565b5f5b6001600160a01b038085165f9081526003602090815260408083209387168352929052205481101561048d576001600160a01b038481165f908152600360209081526040808320878516845290915290208054918416918390811061046c5761046c6108eb565b5f918252602090912001546001600160a01b03161461048d57600101610405565b805b6001600160a01b038086165f908152600360209081526040808320938816835292905220546104c090600190610913565b81101561057d576001600160a01b038086165f9081526003602090815260408083209388168352929052206104f6826001610926565b81548110610506576105066108eb565b5f9182526020808320909101546001600160a01b03888116845260038352604080852089831686529093529190922080549190921691908390811061054d5761054d6108eb565b5f91825260209091200180546001600160a01b0319166001600160a01b039290921691909117905560010161048f565b506001600160a01b038085165f9081526003602090815260408083209387168352929052208054806105b1576105b1610939565b5f828152602080822083015f1990810180546001600160a01b03191690559092019092556001600160a01b0395861682526001815260408083209587168352948152848220939095168152919093529081205550565b5f805b6001600160a01b038086165f9081526003602090815260408083209388168352929052205481101561069c576001600160a01b038581165f9081526003602090815260408083208885168452909152902080549185169183908110610671576106716108eb565b5f918252602090912001546001600160a01b0316036106945760019150506106a1565b60010161060a565b505f90505b9392505050565b805f036106e357335f9081526001602090815260408083206001600160a01b0387811685529083528184209086168452909152812055505050565b335f9081526001602090815260408083206001600160a01b03968716845282528083209490951682529290925291902055565b610720828261029d565b610762576001600160a01b038281165f9081526002602090815260408220805460018101825590835291200180546001600160a01b0319169183169190911790555b5050565b610771838383610607565b610367576001600160a01b039283165f9081526003602090815260408083209486168352938152928120805460018101825590825292902090910180546001600160a01b03191691909216179055565b80356001600160a01b03811681146107d7575f80fd5b919050565b5f80604083850312156107ed575f80fd5b6107f6836107c1565b9150610804602084016107c1565b90509250929050565b602080825282518282018190525f9190848201906040850190845b8181101561084d5783516001600160a01b031683529284019291840191600101610828565b50909695505050505050565b5f60208284031215610869575f80fd5b6106a1826107c1565b5f805f60608486031215610884575f80fd5b61088d846107c1565b925061089b602085016107c1565b91506108a9604085016107c1565b90509250925092565b5f805f606084860312156108c4575f80fd5b6108cd846107c1565b92506108db602085016107c1565b9150604084013590509250925092565b634e487b7160e01b5f52603260045260245ffd5b634e487b7160e01b5f52601160045260245ffd5b81810381811115610224576102246108ff565b80820180821115610224576102246108ff565b634e487b7160e01b5f52603160045260245ffdfea264697066735822122007b0ca7549749b7b2ce49f2f9606704c66fd7307f5d40ad2591f7b650547b21064736f6c63430008180033",
			"opcodes": "PUSH1 0x80 PUSH1 0x40 MSTORE CALLVALUE DUP1 ISZERO PUSH2 0xF JUMPI PUSH0 DUP1 REVERT JUMPDEST POP PUSH0 DUP1 SLOAD PUSH1 0x1 PUSH1 0x1 PUSH1 0xA0 SHL SUB NOT AND CALLER OR SWAP1 SSTORE PUSH2 0x983 DUP1 PUSH2 0x2E PUSH0 CODECOPY PUSH0 RETURN INVALID PUSH1 0x80 PUSH1 0x40 MSTORE CALLVALUE DUP1 ISZERO PUSH2 0xF JUMPI PUSH0 DUP1 REVERT JUMPDEST POP PUSH1 0x4 CALLDATASIZE LT PUSH2 0x90 JUMPI PUSH0 CALLDATALOAD PUSH1 0xE0 SHR DUP1 PUSH4 0x5F15B1D9 GT PUSH2 0x63 JUMPI DUP1 PUSH4 0x5F15B1D9 EQ PUSH2 0x131 JUMPI DUP1 PUSH4 0x8DA5CB5B EQ PUSH2 0x146 JUMPI DUP1 PUSH4 0xA2BDD08C EQ PUSH2 0x170 JUMPI DUP1 PUSH4 0xBD042D2E EQ PUSH2 0x183 JUMPI DUP1 PUSH4 0xE94640C3 EQ PUSH2 0x196 JUMPI PUSH0 DUP1 REVERT JUMPDEST DUP1 PUSH4 0xAC0BE3F EQ PUSH2 0x94 JUMPI DUP1 PUSH4 0xDB36379 EQ PUSH2 0xBD JUMPI DUP1 PUSH4 0xE6CC31F EQ PUSH2 0xD0 JUMPI DUP1 PUSH4 0x17A436ED EQ PUSH2 0xF3 JUMPI JUMPDEST PUSH0 DUP1 REVERT JUMPDEST PUSH2 0xA7 PUSH2 0xA2 CALLDATASIZE PUSH1 0x4 PUSH2 0x7DC JUMP JUMPDEST PUSH2 0x1A9 JUMP JUMPDEST PUSH1 0x40 MLOAD PUSH2 0xB4 SWAP2 SWAP1 PUSH2 0x80D JUMP JUMPDEST PUSH1 0x40 MLOAD DUP1 SWAP2 SUB SWAP1 RETURN JUMPDEST PUSH2 0xA7 PUSH2 0xCB CALLDATASIZE PUSH1 0x4 PUSH2 0x859 JUMP JUMPDEST PUSH2 0x22A JUMP JUMPDEST PUSH2 0xE3 PUSH2 0xDE CALLDATASIZE PUSH1 0x4 PUSH2 0x7DC JUMP JUMPDEST PUSH2 0x29D JUMP JUMPDEST PUSH1 0x40 MLOAD SWAP1 ISZERO ISZERO DUP2 MSTORE PUSH1 0x20 ADD PUSH2 0xB4 JUMP JUMPDEST PUSH2 0x123 PUSH2 0x101 CALLDATASIZE PUSH1 0x4 PUSH2 0x872 JUMP JUMPDEST PUSH1 0x1 PUSH1 0x20 SWAP1 DUP2 MSTORE PUSH0 SWAP4 DUP5 MSTORE PUSH1 0x40 DUP1 DUP6 KECCAK256 DUP3 MSTORE SWAP3 DUP5 MSTORE DUP3 DUP5 KECCAK256 SWAP1 MSTORE DUP3 MSTORE SWAP1 KECCAK256 SLOAD DUP2 JUMP JUMPDEST PUSH1 0x40 MLOAD SWAP1 DUP2 MSTORE PUSH1 0x20 ADD PUSH2 0xB4 JUMP JUMPDEST PUSH2 0x144 PUSH2 0x13F CALLDATASIZE PUSH1 0x4 PUSH2 0x8B2 JUMP JUMPDEST PUSH2 0x321 JUMP JUMPDEST STOP JUMPDEST PUSH0 SLOAD PUSH2 0x158 SWAP1 PUSH1 0x1 PUSH1 0x1 PUSH1 0xA0 SHL SUB AND DUP2 JUMP JUMPDEST PUSH1 0x40 MLOAD PUSH1 0x1 PUSH1 0x1 PUSH1 0xA0 SHL SUB SWAP1 SWAP2 AND DUP2 MSTORE PUSH1 0x20 ADD PUSH2 0xB4 JUMP JUMPDEST PUSH2 0x144 PUSH2 0x17E CALLDATASIZE PUSH1 0x4 PUSH2 0x872 JUMP JUMPDEST PUSH2 0x36C JUMP JUMPDEST PUSH2 0xE3 PUSH2 0x191 CALLDATASIZE PUSH1 0x4 PUSH2 0x872 JUMP JUMPDEST PUSH2 0x607 JUMP JUMPDEST PUSH2 0x144 PUSH2 0x1A4 CALLDATASIZE PUSH1 0x4 PUSH2 0x8B2 JUMP JUMPDEST PUSH2 0x6A8 JUMP JUMPDEST PUSH1 0x1 PUSH1 0x1 PUSH1 0xA0 SHL SUB DUP1 DUP4 AND PUSH0 SWAP1 DUP2 MSTORE PUSH1 0x3 PUSH1 0x20 SWAP1 DUP2 MSTORE PUSH1 0x40 DUP1 DUP4 KECCAK256 SWAP4 DUP6 AND DUP4 MSTORE SWAP3 DUP2 MSTORE SWAP1 DUP3 SWAP1 KECCAK256 DUP1 SLOAD DUP4 MLOAD DUP2 DUP5 MUL DUP2 ADD DUP5 ADD SWAP1 SWAP5 MSTORE DUP1 DUP5 MSTORE PUSH1 0x60 SWAP4 SWAP3 DUP4 ADD DUP3 DUP3 DUP1 ISZERO PUSH2 0x21C JUMPI PUSH1 0x20 MUL DUP3 ADD SWAP2 SWAP1 PUSH0 MSTORE PUSH1 0x20 PUSH0 KECCAK256 SWAP1 JUMPDEST DUP2 SLOAD PUSH1 0x1 PUSH1 0x1 PUSH1 0xA0 SHL SUB AND DUP2 MSTORE PUSH1 0x1 SWAP1 SWAP2 ADD SWAP1 PUSH1 0x20 ADD DUP1 DUP4 GT PUSH2 0x1FE JUMPI JUMPDEST POP POP POP POP POP SWAP1 POP JUMPDEST SWAP3 SWAP2 POP POP JUMP JUMPDEST PUSH1 0x1 PUSH1 0x1 PUSH1 0xA0 SHL SUB DUP2 AND PUSH0 SWAP1 DUP2 MSTORE PUSH1 0x2 PUSH1 0x20 SWAP1 DUP2 MSTORE PUSH1 0x40 SWAP2 DUP3 SWAP1 KECCAK256 DUP1 SLOAD DUP4 MLOAD DUP2 DUP5 MUL DUP2 ADD DUP5 ADD SWAP1 SWAP5 MSTORE DUP1 DUP5 MSTORE PUSH1 0x60 SWAP4 SWAP3 DUP4 ADD DUP3 DUP3 DUP1 ISZERO PUSH2 0x291 JUMPI PUSH1 0x20 MUL DUP3 ADD SWAP2 SWAP1 PUSH0 MSTORE PUSH1 0x20 PUSH0 KECCAK256 SWAP1 JUMPDEST DUP2 SLOAD PUSH1 0x1 PUSH1 0x1 PUSH1 0xA0 SHL SUB AND DUP2 MSTORE PUSH1 0x1 SWAP1 SWAP2 ADD SWAP1 PUSH1 0x20 ADD DUP1 DUP4 GT PUSH2 0x273 JUMPI JUMPDEST POP POP POP POP POP SWAP1 POP SWAP2 SWAP1 POP JUMP JUMPDEST PUSH0 DUP1 JUMPDEST PUSH1 0x1 PUSH1 0x1 PUSH1 0xA0 SHL SUB DUP5 AND PUSH0 SWAP1 DUP2 MSTORE PUSH1 0x2 PUSH1 0x20 MSTORE PUSH1 0x40 SWAP1 KECCAK256 SLOAD DUP2 LT ISZERO PUSH2 0x318 JUMPI PUSH1 0x1 PUSH1 0x1 PUSH1 0xA0 SHL SUB DUP5 DUP2 AND PUSH0 SWAP1 DUP2 MSTORE PUSH1 0x2 PUSH1 0x20 MSTORE PUSH1 0x40 SWAP1 KECCAK256 DUP1 SLOAD SWAP2 DUP6 AND SWAP2 DUP4 SWAP1 DUP2 LT PUSH2 0x2ED JUMPI PUSH2 0x2ED PUSH2 0x8EB JUMP JUMPDEST PUSH0 SWAP2 DUP3 MSTORE PUSH1 0x20 SWAP1 SWAP2 KECCAK256 ADD SLOAD PUSH1 0x1 PUSH1 0x1 PUSH1 0xA0 SHL SUB AND SUB PUSH2 0x310 JUMPI PUSH1 0x1 SWAP2 POP POP PUSH2 0x224 JUMP JUMPDEST PUSH1 0x1 ADD PUSH2 0x2A0 JUMP JUMPDEST POP PUSH0 SWAP4 SWAP3 POP POP POP JUMP JUMPDEST CALLER PUSH0 DUP2 DUP2 MSTORE PUSH1 0x1 PUSH1 0x20 SWAP1 DUP2 MSTORE PUSH1 0x40 DUP1 DUP4 KECCAK256 PUSH1 0x1 PUSH1 0x1 PUSH1 0xA0 SHL SUB DUP9 DUP2 AND DUP6 MSTORE SWAP1 DUP4 MSTORE DUP2 DUP5 KECCAK256 SWAP1 DUP8 AND DUP5 MSTORE SWAP1 SWAP2 MSTORE SWAP1 KECCAK256 DUP3 SWAP1 SSTORE PUSH2 0x35C SWAP1 DUP5 PUSH2 0x716 JUMP JUMPDEST PUSH2 0x367 CALLER DUP5 DUP5 PUSH2 0x766 JUMP JUMPDEST POP POP POP JUMP JUMPDEST PUSH0 SLOAD PUSH1 0x1 PUSH1 0x1 PUSH1 0xA0 SHL SUB AND CALLER EQ PUSH2 0x3B6 JUMPI PUSH1 0x40 MLOAD PUSH3 0x461BCD PUSH1 0xE5 SHL DUP2 MSTORE PUSH1 0x20 PUSH1 0x4 DUP3 ADD MSTORE PUSH1 0x9 PUSH1 0x24 DUP3 ADD MSTORE PUSH9 0x2737BA1037BBB732B9 PUSH1 0xB9 SHL PUSH1 0x44 DUP3 ADD MSTORE PUSH1 0x64 ADD JUMPDEST PUSH1 0x40 MLOAD DUP1 SWAP2 SUB SWAP1 REVERT JUMPDEST PUSH2 0x3C1 DUP4 DUP4 DUP4 PUSH2 0x607 JUMP JUMPDEST PUSH2 0x403 JUMPI PUSH1 0x40 MLOAD PUSH3 0x461BCD PUSH1 0xE5 SHL DUP2 MSTORE PUSH1 0x20 PUSH1 0x4 DUP3 ADD MSTORE PUSH1 0x13 PUSH1 0x24 DUP3 ADD MSTORE PUSH19 0x149958DA5C1A595B9D081B9BDD08199BDD5B99 PUSH1 0x6A SHL PUSH1 0x44 DUP3 ADD MSTORE PUSH1 0x64 ADD PUSH2 0x3AD JUMP JUMPDEST PUSH0 JUMPDEST PUSH1 0x1 PUSH1 0x1 PUSH1 0xA0 SHL SUB DUP1 DUP6 AND PUSH0 SWAP1 DUP2 MSTORE PUSH1 0x3 PUSH1 0x20 SWAP1 DUP2 MSTORE PUSH1 0x40 DUP1 DUP4 KECCAK256 SWAP4 DUP8 AND DUP4 MSTORE SWAP3 SWAP1 MSTORE KECCAK256 SLOAD DUP2 LT ISZERO PUSH2 0x48D JUMPI PUSH1 0x1 PUSH1 0x1 PUSH1 0xA0 SHL SUB DUP5 DUP2 AND PUSH0 SWAP1 DUP2 MSTORE PUSH1 0x3 PUSH1 0x20 SWAP1 DUP2 MSTORE PUSH1 0x40 DUP1 DUP4 KECCAK256 DUP8 DUP6 AND DUP5 MSTORE SWAP1 SWAP2 MSTORE SWAP1 KECCAK256 DUP1 SLOAD SWAP2 DUP5 AND SWAP2 DUP4 SWAP1 DUP2 LT PUSH2 0x46C JUMPI PUSH2 0x46C PUSH2 0x8EB JUMP JUMPDEST PUSH0 SWAP2 DUP3 MSTORE PUSH1 0x20 SWAP1 SWAP2 KECCAK256 ADD SLOAD PUSH1 0x1 PUSH1 0x1 PUSH1 0xA0 SHL SUB AND EQ PUSH2 0x48D JUMPI PUSH1 0x1 ADD PUSH2 0x405 JUMP JUMPDEST DUP1 JUMPDEST PUSH1 0x1 PUSH1 0x1 PUSH1 0xA0 SHL SUB DUP1 DUP7 AND PUSH0 SWAP1 DUP2 MSTORE PUSH1 0x3 PUSH1 0x20 SWAP1 DUP2 MSTORE PUSH1 0x40 DUP1 DUP4 KECCAK256 SWAP4 DUP9 AND DUP4 MSTORE SWAP3 SWAP1 MSTORE KECCAK256 SLOAD PUSH2 0x4C0 SWAP1 PUSH1 0x1 SWAP1 PUSH2 0x913 JUMP JUMPDEST DUP2 LT ISZERO PUSH2 0x57D JUMPI PUSH1 0x1 PUSH1 0x1 PUSH1 0xA0 SHL SUB DUP1 DUP7 AND PUSH0 SWAP1 DUP2 MSTORE PUSH1 0x3 PUSH1 0x20 SWAP1 DUP2 MSTORE PUSH1 0x40 DUP1 DUP4 KECCAK256 SWAP4 DUP9 AND DUP4 MSTORE SWAP3 SWAP1 MSTORE KECCAK256 PUSH2 0x4F6 DUP3 PUSH1 0x1 PUSH2 0x926 JUMP JUMPDEST DUP2 SLOAD DUP2 LT PUSH2 0x506 JUMPI PUSH2 0x506 PUSH2 0x8EB JUMP JUMPDEST PUSH0 SWAP2 DUP3 MSTORE PUSH1 0x20 DUP1 DUP4 KECCAK256 SWAP1 SWAP2 ADD SLOAD PUSH1 0x1 PUSH1 0x1 PUSH1 0xA0 SHL SUB DUP9 DUP2 AND DUP5 MSTORE PUSH1 0x3 DUP4 MSTORE PUSH1 0x40 DUP1 DUP6 KECCAK256 DUP10 DUP4 AND DUP7 MSTORE SWAP1 SWAP4 MSTORE SWAP2 SWAP1 SWAP3 KECCAK256 DUP1 SLOAD SWAP2 SWAP1 SWAP3 AND SWAP2 SWAP1 DUP4 SWAP1 DUP2 LT PUSH2 0x54D JUMPI PUSH2 0x54D PUSH2 0x8EB JUMP JUMPDEST PUSH0 SWAP2 DUP3 MSTORE PUSH1 0x20 SWAP1 SWAP2 KECCAK256 ADD DUP1 SLOAD PUSH1 0x1 PUSH1 0x1 PUSH1 0xA0 SHL SUB NOT AND PUSH1 0x1 PUSH1 0x1 PUSH1 0xA0 SHL SUB SWAP3 SWAP1 SWAP3 AND SWAP2 SWAP1 SWAP2 OR SWAP1 SSTORE PUSH1 0x1 ADD PUSH2 0x48F JUMP JUMPDEST POP PUSH1 0x1 PUSH1 0x1 PUSH1 0xA0 SHL SUB DUP1 DUP6 AND PUSH0 SWAP1 DUP2 MSTORE PUSH1 0x3 PUSH1 0x20 SWAP1 DUP2 MSTORE PUSH1 0x40 DUP1 DUP4 KECCAK256 SWAP4 DUP8 AND DUP4 MSTORE SWAP3 SWAP1 MSTORE KECCAK256 DUP1 SLOAD DUP1 PUSH2 0x5B1 JUMPI PUSH2 0x5B1 PUSH2 0x939 JUMP JUMPDEST PUSH0 DUP3 DUP2 MSTORE PUSH1 0x20 DUP1 DUP3 KECCAK256 DUP4 ADD PUSH0 NOT SWAP1 DUP2 ADD DUP1 SLOAD PUSH1 0x1 PUSH1 0x1 PUSH1 0xA0 SHL SUB NOT AND SWAP1 SSTORE SWAP1 SWAP3 ADD SWAP1 SWAP3 SSTORE PUSH1 0x1 PUSH1 0x1 PUSH1 0xA0 SHL SUB SWAP6 DUP7 AND DUP3 MSTORE PUSH1 0x1 DUP2 MSTORE PUSH1 0x40 DUP1 DUP4 KECCAK256 SWAP6 DUP8 AND DUP4 MSTORE SWAP5 DUP2 MSTORE DUP5 DUP3 KECCAK256 SWAP4 SWAP1 SWAP6 AND DUP2 MSTORE SWAP2 SWAP1 SWAP4 MSTORE SWAP1 DUP2 KECCAK256 SSTORE POP JUMP JUMPDEST PUSH0 DUP1 JUMPDEST PUSH1 0x1 PUSH1 0x1 PUSH1 0xA0 SHL SUB DUP1 DUP7 AND PUSH0 SWAP1 DUP2 MSTORE PUSH1 0x3 PUSH1 0x20 SWAP1 DUP2 MSTORE PUSH1 0x40 DUP1 DUP4 KECCAK256 SWAP4 DUP9 AND DUP4 MSTORE SWAP3 SWAP1 MSTORE KECCAK256 SLOAD DUP2 LT ISZERO PUSH2 0x69C JUMPI PUSH1 0x1 PUSH1 0x1 PUSH1 0xA0 SHL SUB DUP6 DUP2 AND PUSH0 SWAP1 DUP2 MSTORE PUSH1 0x3 PUSH1 0x20 SWAP1 DUP2 MSTORE PUSH1 0x40 DUP1 DUP4 KECCAK256 DUP9 DUP6 AND DUP5 MSTORE SWAP1 SWAP2 MSTORE SWAP1 KECCAK256 DUP1 SLOAD SWAP2 DUP6 AND SWAP2 DUP4 SWAP1 DUP2 LT PUSH2 0x671 JUMPI PUSH2 0x671 PUSH2 0x8EB JUMP JUMPDEST PUSH0 SWAP2 DUP3 MSTORE PUSH1 0x20 SWAP1 SWAP2 KECCAK256 ADD SLOAD PUSH1 0x1 PUSH1 0x1 PUSH1 0xA0 SHL SUB AND SUB PUSH2 0x694 JUMPI PUSH1 0x1 SWAP2 POP POP PUSH2 0x6A1 JUMP JUMPDEST PUSH1 0x1 ADD PUSH2 0x60A JUMP JUMPDEST POP PUSH0 SWAP1 POP JUMPDEST SWAP4 SWAP3 POP POP POP JUMP JUMPDEST DUP1 PUSH0 SUB PUSH2 0x6E3 JUMPI CALLER PUSH0 SWAP1 DUP2 MSTORE PUSH1 0x1 PUSH1 0x20 SWAP1 DUP2 MSTORE PUSH1 0x40 DUP1 DUP4 KECCAK256 PUSH1 0x1 PUSH1 0x1 PUSH1 0xA0 SHL SUB DUP8 DUP2 AND DUP6 MSTORE SWAP1 DUP4 MSTORE DUP2 DUP5 KECCAK256 SWAP1 DUP7 AND DUP5 MSTORE SWAP1 SWAP2 MSTORE DUP2 KECCAK256 SSTORE POP POP POP JUMP JUMPDEST CALLER PUSH0 SWAP1 DUP2 MSTORE PUSH1 0x1 PUSH1 0x20 SWAP1 DUP2 MSTORE PUSH1 0x40 DUP1 DUP4 KECCAK256 PUSH1 0x1 PUSH1 0x1 PUSH1 0xA0 SHL SUB SWAP7 DUP8 AND DUP5 MSTORE DUP3 MSTORE DUP1 DUP4 KECCAK256 SWAP5 SWAP1 SWAP6 AND DUP3 MSTORE SWAP3 SWAP1 SWAP3 MSTORE SWAP2 SWAP1 KECCAK256 SSTORE JUMP JUMPDEST PUSH2 0x720 DUP3 DUP3 PUSH2 0x29D JUMP JUMPDEST PUSH2 0x762 JUMPI PUSH1 0x1 PUSH1 0x1 PUSH1 0xA0 SHL SUB DUP3 DUP2 AND PUSH0 SWAP1 DUP2 MSTORE PUSH1 0x2 PUSH1 0x20 SWAP1 DUP2 MSTORE PUSH1 0x40 DUP3 KECCAK256 DUP1 SLOAD PUSH1 0x1 DUP2 ADD DUP3 SSTORE SWAP1 DUP4 MSTORE SWAP2 KECCAK256 ADD DUP1 SLOAD PUSH1 0x1 PUSH1 0x1 PUSH1 0xA0 SHL SUB NOT AND SWAP2 DUP4 AND SWAP2 SWAP1 SWAP2 OR SWAP1 SSTORE JUMPDEST POP POP JUMP JUMPDEST PUSH2 0x771 DUP4 DUP4 DUP4 PUSH2 0x607 JUMP JUMPDEST PUSH2 0x367 JUMPI PUSH1 0x1 PUSH1 0x1 PUSH1 0xA0 SHL SUB SWAP3 DUP4 AND PUSH0 SWAP1 DUP2 MSTORE PUSH1 0x3 PUSH1 0x20 SWAP1 DUP2 MSTORE PUSH1 0x40 DUP1 DUP4 KECCAK256 SWAP5 DUP7 AND DUP4 MSTORE SWAP4 DUP2 MSTORE SWAP3 DUP2 KECCAK256 DUP1 SLOAD PUSH1 0x1 DUP2 ADD DUP3 SSTORE SWAP1 DUP3 MSTORE SWAP3 SWAP1 KECCAK256 SWAP1 SWAP2 ADD DUP1 SLOAD PUSH1 0x1 PUSH1 0x1 PUSH1 0xA0 SHL SUB NOT AND SWAP2 SWAP1 SWAP3 AND OR SWAP1 SSTORE JUMP JUMPDEST DUP1 CALLDATALOAD PUSH1 0x1 PUSH1 0x1 PUSH1 0xA0 SHL SUB DUP2 AND DUP2 EQ PUSH2 0x7D7 JUMPI PUSH0 DUP1 REVERT JUMPDEST SWAP2 SWAP1 POP JUMP JUMPDEST PUSH0 DUP1 PUSH1 0x40 DUP4 DUP6 SUB SLT ISZERO PUSH2 0x7ED JUMPI PUSH0 DUP1 REVERT JUMPDEST PUSH2 0x7F6 DUP4 PUSH2 0x7C1 JUMP JUMPDEST SWAP2 POP PUSH2 0x804 PUSH1 0x20 DUP5 ADD PUSH2 0x7C1 JUMP JUMPDEST SWAP1 POP SWAP3 POP SWAP3 SWAP1 POP JUMP JUMPDEST PUSH1 0x20 DUP1 DUP3 MSTORE DUP3 MLOAD DUP3 DUP3 ADD DUP2 SWAP1 MSTORE PUSH0 SWAP2 SWAP1 DUP5 DUP3 ADD SWAP1 PUSH1 0x40 DUP6 ADD SWAP1 DUP5 JUMPDEST DUP2 DUP2 LT ISZERO PUSH2 0x84D JUMPI DUP4 MLOAD PUSH1 0x1 PUSH1 0x1 PUSH1 0xA0 SHL SUB AND DUP4 MSTORE SWAP3 DUP5 ADD SWAP3 SWAP2 DUP5 ADD SWAP2 PUSH1 0x1 ADD PUSH2 0x828 JUMP JUMPDEST POP SWAP1 SWAP7 SWAP6 POP POP POP POP POP POP JUMP JUMPDEST PUSH0 PUSH1 0x20 DUP3 DUP5 SUB SLT ISZERO PUSH2 0x869 JUMPI PUSH0 DUP1 REVERT JUMPDEST PUSH2 0x6A1 DUP3 PUSH2 0x7C1 JUMP JUMPDEST PUSH0 DUP1 PUSH0 PUSH1 0x60 DUP5 DUP7 SUB SLT ISZERO PUSH2 0x884 JUMPI PUSH0 DUP1 REVERT JUMPDEST PUSH2 0x88D DUP5 PUSH2 0x7C1 JUMP JUMPDEST SWAP3 POP PUSH2 0x89B PUSH1 0x20 DUP6 ADD PUSH2 0x7C1 JUMP JUMPDEST SWAP2 POP PUSH2 0x8A9 PUSH1 0x40 DUP6 ADD PUSH2 0x7C1 JUMP JUMPDEST SWAP1 POP SWAP3 POP SWAP3 POP SWAP3 JUMP JUMPDEST PUSH0 DUP1 PUSH0 PUSH1 0x60 DUP5 DUP7 SUB SLT ISZERO PUSH2 0x8C4 JUMPI PUSH0 DUP1 REVERT JUMPDEST PUSH2 0x8CD DUP5 PUSH2 0x7C1 JUMP JUMPDEST SWAP3 POP PUSH2 0x8DB PUSH1 0x20 DUP6 ADD PUSH2 0x7C1 JUMP JUMPDEST SWAP2 POP PUSH1 0x40 DUP5 ADD CALLDATALOAD SWAP1 POP SWAP3 POP SWAP3 POP SWAP3 JUMP JUMPDEST PUSH4 0x4E487B71 PUSH1 0xE0 SHL PUSH0 MSTORE PUSH1 0x32 PUSH1 0x4 MSTORE PUSH1 0x24 PUSH0 REVERT JUMPDEST PUSH4 0x4E487B71 PUSH1 0xE0 SHL PUSH0 MSTORE PUSH1 0x11 PUSH1 0x4 MSTORE PUSH1 0x24 PUSH0 REVERT JUMPDEST DUP2 DUP2 SUB DUP2 DUP2 GT ISZERO PUSH2 0x224 JUMPI PUSH2 0x224 PUSH2 0x8FF JUMP JUMPDEST DUP1 DUP3 ADD DUP1 DUP3 GT ISZERO PUSH2 0x224 JUMPI PUSH2 0x224 PUSH2 0x8FF JUMP JUMPDEST PUSH4 0x4E487B71 PUSH1 0xE0 SHL PUSH0 MSTORE PUSH1 0x31 PUSH1 0x4 MSTORE PUSH1 0x24 PUSH0 REVERT INVALID LOG2 PUSH5 0x6970667358 0x22 SLT KECCAK256 SMOD 0xB0 0xCA PUSH22 0x49749B7B2CE49F2F9606704C66FD7307F5D40AD2591F PUSH28 0x650547B21064736F6C63430008180033000000000000000000000000 "
		},
		"gasEstimates": {
			"creation": {
				"codeDepositCost": "487000",
				"executionCost": "24756",
				"totalCost": "511756"
			},
			"external": {
				"adjustAllocation(address,address,uint256)": "infinite",
				"getAllocatedTokensByUser(address)": "infinite",
				"getRecipientsByToken(address,address)": "infinite",
				"isRecipientOfToken(address,address,address)": "infinite",
				"isTokenAllocatedByUser(address,address)": "infinite",
				"owner()": "2357",
				"removeRecipientForToken(address,address,address)": "infinite",
				"setAllocation(address,address,uint256)": "infinite",
				"tokenAllocations(address,address,address)": "infinite"
			},
			"internal": {
				"_addRecipientForToken(address,address,address)": "infinite",
				"_addTokenForUser(address,address)": "infinite"
			}
		},
		"methodIdentifiers": {
			"adjustAllocation(address,address,uint256)": "e94640c3",
			"getAllocatedTokensByUser(address)": "0db36379",
			"getRecipientsByToken(address,address)": "0ac0be3f",
			"isRecipientOfToken(address,address,address)": "bd042d2e",
			"isTokenAllocatedByUser(address,address)": "0e6cc31f",
			"owner()": "8da5cb5b",
			"removeRecipientForToken(address,address,address)": "a2bdd08c",
			"setAllocation(address,address,uint256)": "5f15b1d9",
			"tokenAllocations(address,address,address)": "17a436ed"
		}
	},
	"abi": [
		{
			"inputs": [],
			"stateMutability": "nonpayable",
			"type": "constructor"
		},
		{
			"inputs": [
				{
					"internalType": "address",
					"name": "token",
					"type": "address"
				},
				{
					"internalType": "address",
					"name": "recipient",
					"type": "address"
				},
				{
					"internalType": "uint256",
					"name": "amount",
					"type": "uint256"
				}
			],
			"name": "adjustAllocation",
			"outputs": [],
			"stateMutability": "nonpayable",
			"type": "function"
		},
		{
			"inputs": [
				{
					"internalType": "address",
					"name": "user",
					"type": "address"
				}
			],
			"name": "getAllocatedTokensByUser",
			"outputs": [
				{
					"internalType": "address[]",
					"name": "",
					"type": "address[]"
				}
			],
			"stateMutability": "view",
			"type": "function"
		},
		{
			"inputs": [
				{
					"internalType": "address",
					"name": "user",
					"type": "address"
				},
				{
					"internalType": "address",
					"name": "token",
					"type": "address"
				}
			],
			"name": "getRecipientsByToken",
			"outputs": [
				{
					"internalType": "address[]",
					"name": "",
					"type": "address[]"
				}
			],
			"stateMutability": "view",
			"type": "function"
		},
		{
			"inputs": [
				{
					"internalType": "address",
					"name": "user",
					"type": "address"
				},
				{
					"internalType": "address",
					"name": "token",
					"type": "address"
				},
				{
					"internalType": "address",
					"name": "recipient",
					"type": "address"
				}
			],
			"name": "isRecipientOfToken",
			"outputs": [
				{
					"internalType": "bool",
					"name": "",
					"type": "bool"
				}
			],
			"stateMutability": "view",
			"type": "function"
		},
		{
			"inputs": [
				{
					"internalType": "address",
					"name": "user",
					"type": "address"
				},
				{
					"internalType": "address",
					"name": "token",
					"type": "address"
				}
			],
			"name": "isTokenAllocatedByUser",
			"outputs": [
				{
					"internalType": "bool",
					"name": "",
					"type": "bool"
				}
			],
			"stateMutability": "view",
			"type": "function"
		},
		{
			"inputs": [],
			"name": "owner",
			"outputs": [
				{
					"internalType": "address",
					"name": "",
					"type": "address"
				}
			],
			"stateMutability": "view",
			"type": "function"
		},
		{
			"inputs": [
				{
					"internalType": "address",
					"name": "user",
					"type": "address"
				},
				{
					"internalType": "address",
					"name": "token",
					"type": "address"
				},
				{
					"internalType": "address",
					"name": "recipient",
					"type": "address"
				}
			],
			"name": "removeRecipientForToken",
			"outputs": [],
			"stateMutability": "nonpayable",
			"type": "function"
		},
		{
			"inputs": [
				{
					"internalType": "address",
					"name": "token",
					"type": "address"
				},
				{
					"internalType": "address",
					"name": "recipient",
					"type": "address"
				},
				{
					"internalType": "uint256",
					"name": "amount",
					"type": "uint256"
				}
			],
			"name": "setAllocation",
			"outputs": [],
			"stateMutability": "nonpayable",
			"type": "function"
		},
		{
			"inputs": [
				{
					"internalType": "address",
					"name": "",
					"type": "address"
				},
				{
					"internalType": "address",
					"name": "",
					"type": "address"
				},
				{
					"internalType": "address",
					"name": "",
					"type": "address"
				}
			],
			"name": "tokenAllocations",
			"outputs": [
				{
					"internalType": "uint256",
					"name": "",
					"type": "uint256"
				}
			],
			"stateMutability": "view",
			"type": "function"
		}
	]
}