{
  "_format": "hh-sol-artifact-1",
  "contractName": "DecentraWill",
  "sourceName": "contracts/DecentraWill.sol",
  "abi": [
    {
      "inputs": [],
      "stateMutability": "nonpayable",
      "type": "constructor"
    },
    {
      "inputs": [
        {
          "internalType": "address",
          "name": "token",
          "type": "address"
        },
        {
          "internalType": "address",
          "name": "recipient",
          "type": "address"
        },
        {
          "internalType": "uint256",
          "name": "amount",
          "type": "uint256"
        }
      ],
      "name": "adjustAllocation",
      "outputs": [],
      "stateMutability": "nonpayable",
      "type": "function"
    },
    {
      "inputs": [
        {
          "internalType": "address",
          "name": "user",
          "type": "address"
        }
      ],
      "name": "getAllocatedTokensByUser",
      "outputs": [
        {
          "internalType": "address[]",
          "name": "",
          "type": "address[]"
        }
      ],
      "stateMutability": "view",
      "type": "function"
    },
    {
      "inputs": [
        {
          "internalType": "address",
          "name": "user",
          "type": "address"
        },
        {
          "internalType": "address",
          "name": "token",
          "type": "address"
        }
      ],
      "name": "getRecipientsByToken",
      "outputs": [
        {
          "internalType": "address[]",
          "name": "",
          "type": "address[]"
        }
      ],
      "stateMutability": "view",
      "type": "function"
    },
    {
      "inputs": [
        {
          "internalType": "address",
          "name": "user",
          "type": "address"
        },
        {
          "internalType": "address",
          "name": "token",
          "type": "address"
        },
        {
          "internalType": "address",
          "name": "recipient",
          "type": "address"
        }
      ],
      "name": "isRecipientOfToken",
      "outputs": [
        {
          "internalType": "bool",
          "name": "",
          "type": "bool"
        }
      ],
      "stateMutability": "view",
      "type": "function"
    },
    {
      "inputs": [
        {
          "internalType": "address",
          "name": "user",
          "type": "address"
        },
        {
          "internalType": "address",
          "name": "token",
          "type": "address"
        }
      ],
      "name": "isTokenAllocatedByUser",
      "outputs": [
        {
          "internalType": "bool",
          "name": "",
          "type": "bool"
        }
      ],
      "stateMutability": "view",
      "type": "function"
    },
    {
      "inputs": [],
      "name": "owner",
      "outputs": [
        {
          "internalType": "address",
          "name": "",
          "type": "address"
        }
      ],
      "stateMutability": "view",
      "type": "function"
    },
    {
      "inputs": [
        {
          "internalType": "address",
          "name": "user",
          "type": "address"
        },
        {
          "internalType": "address",
          "name": "token",
          "type": "address"
        },
        {
          "internalType": "address",
          "name": "recipient",
          "type": "address"
        }
      ],
      "name": "removeRecipientForToken",
      "outputs": [],
      "stateMutability": "nonpayable",
      "type": "function"
    },
    {
      "inputs": [
        {
          "internalType": "address",
          "name": "token",
          "type": "address"
        },
        {
          "internalType": "address",
          "name": "recipient",
          "type": "address"
        },
        {
          "internalType": "uint256",
          "name": "amount",
          "type": "uint256"
        }
      ],
      "name": "setAllocation",
      "outputs": [],
      "stateMutability": "nonpayable",
      "type": "function"
    },
    {
      "inputs": [
        {
          "internalType": "address",
          "name": "",
          "type": "address"
        },
        {
          "internalType": "address",
          "name": "",
          "type": "address"
        },
        {
          "internalType": "address",
          "name": "",
          "type": "address"
        }
      ],
      "name": "tokenAllocations",
      "outputs": [
        {
          "internalType": "uint256",
          "name": "",
          "type": "uint256"
        }
      ],
      "stateMutability": "view",
      "type": "function"
    },
    {
      "inputs": [
        {
          "internalType": "address",
          "name": "creator",
          "type": "address"
        },
        {
          "internalType": "address",
          "name": "token",
          "type": "address"
        },
        {
          "internalType": "uint256",
          "name": "amount",
          "type": "uint256"
        }
      ],
      "name": "withdrawTokenForBeneficiary",
      "outputs": [],
      "stateMutability": "nonpayable",
      "type": "function"
    }
  ],
  "bytecode": "0x608060405234801561001057600080fd5b50336000806101000a81548173ffffffffffffffffffffffffffffffffffffffff021916908373ffffffffffffffffffffffffffffffffffffffff160217905550611a5e806100606000396000f3fe608060405234801561001057600080fd5b506004361061009e5760003560e01c80638da5cb5b116100665780638da5cb5b1461017f578063a2bdd08c1461019d578063bd042d2e146101b9578063c3698da4146101e9578063e94640c3146102055761009e565b80630ac0be3f146100a35780630db36379146100d35780630e6cc31f1461010357806317a436ed146101335780635f15b1d914610163575b600080fd5b6100bd60048036038101906100b8919061142f565b610221565b6040516100ca919061152d565b60405180910390f35b6100ed60048036038101906100e8919061154f565b61032c565b6040516100fa919061152d565b60405180910390f35b61011d6004803603810190610118919061142f565b6103f9565b60405161012a9190611597565b60405180910390f35b61014d600480360381019061014891906115b2565b61051c565b60405161015a919061161e565b60405180910390f35b61017d60048036038101906101789190611665565b61054e565b005b610187610626565b60405161019491906116c7565b60405180910390f35b6101b760048036038101906101b291906115b2565b61064a565b005b6101d360048036038101906101ce91906115b2565b610c6b565b6040516101e09190611597565b60405180910390f35b61020360048036038101906101fe9190611665565b610e09565b005b61021f600480360381019061021a9190611665565b611099565b005b6060600360008473ffffffffffffffffffffffffffffffffffffffff1673ffffffffffffffffffffffffffffffffffffffff16815260200190815260200160002060008373ffffffffffffffffffffffffffffffffffffffff1673ffffffffffffffffffffffffffffffffffffffff16815260200190815260200160002080548060200260200160405190810160405280929190818152602001828054801561031f57602002820191906000526020600020905b8160009054906101000a900473ffffffffffffffffffffffffffffffffffffffff1673ffffffffffffffffffffffffffffffffffffffff16815260200190600101908083116102d5575b5050505050905092915050565b6060600260008373ffffffffffffffffffffffffffffffffffffffff1673ffffffffffffffffffffffffffffffffffffffff1681526020019081526020016000208054806020026020016040519081016040528092919081815260200182805480156103ed57602002820191906000526020600020905b8160009054906101000a900473ffffffffffffffffffffffffffffffffffffffff1673ffffffffffffffffffffffffffffffffffffffff16815260200190600101908083116103a3575b50505050509050919050565b600080600090505b600260008573ffffffffffffffffffffffffffffffffffffffff1673ffffffffffffffffffffffffffffffffffffffff16815260200190815260200160002080549050811015610510578273ffffffffffffffffffffffffffffffffffffffff16600260008673ffffffffffffffffffffffffffffffffffffffff1673ffffffffffffffffffffffffffffffffffffffff16815260200190815260200160002082815481106104b3576104b26116e2565b5b9060005260206000200160009054906101000a900473ffffffffffffffffffffffffffffffffffffffff1673ffffffffffffffffffffffffffffffffffffffff1603610503576001915050610516565b8080600101915050610401565b50600090505b92915050565b600160205282600052604060002060205281600052604060002060205280600052604060002060009250925050505481565b80600160003373ffffffffffffffffffffffffffffffffffffffff1673ffffffffffffffffffffffffffffffffffffffff16815260200190815260200160002060008573ffffffffffffffffffffffffffffffffffffffff1673ffffffffffffffffffffffffffffffffffffffff16815260200190815260200160002060008473ffffffffffffffffffffffffffffffffffffffff1673ffffffffffffffffffffffffffffffffffffffff168152602001908152602001600020819055506106163384611227565b6106213384846112da565b505050565b60008054906101000a900473ffffffffffffffffffffffffffffffffffffffff1681565b60008054906101000a900473ffffffffffffffffffffffffffffffffffffffff1673ffffffffffffffffffffffffffffffffffffffff163373ffffffffffffffffffffffffffffffffffffffff16146106d8576040517f08c379a00000000000000000000000000000000000000000000000000000000081526004016106cf9061176e565b60405180910390fd5b6106e3838383610c6b565b610722576040517f08c379a0000000000000000000000000000000000000000000000000000000008152600401610719906117da565b60405180910390fd5b60005b600360008573ffffffffffffffffffffffffffffffffffffffff1673ffffffffffffffffffffffffffffffffffffffff16815260200190815260200160002060008473ffffffffffffffffffffffffffffffffffffffff1673ffffffffffffffffffffffffffffffffffffffff168152602001908152602001600020805490508110156108a5578173ffffffffffffffffffffffffffffffffffffffff16600360008673ffffffffffffffffffffffffffffffffffffffff1673ffffffffffffffffffffffffffffffffffffffff16815260200190815260200160002060008573ffffffffffffffffffffffffffffffffffffffff1673ffffffffffffffffffffffffffffffffffffffff1681526020019081526020016000208281548110610851576108506116e2565b5b9060005260206000200160009054906101000a900473ffffffffffffffffffffffffffffffffffffffff1673ffffffffffffffffffffffffffffffffffffffff1603156108a5578080600101915050610725565b60008190505b6001600360008773ffffffffffffffffffffffffffffffffffffffff1673ffffffffffffffffffffffffffffffffffffffff16815260200190815260200160002060008673ffffffffffffffffffffffffffffffffffffffff1673ffffffffffffffffffffffffffffffffffffffff168152602001908152602001600020805490506109379190611829565b811015610ae657600360008673ffffffffffffffffffffffffffffffffffffffff1673ffffffffffffffffffffffffffffffffffffffff16815260200190815260200160002060008573ffffffffffffffffffffffffffffffffffffffff1673ffffffffffffffffffffffffffffffffffffffff1681526020019081526020016000206001826109c7919061185d565b815481106109d8576109d76116e2565b5b9060005260206000200160009054906101000a900473ffffffffffffffffffffffffffffffffffffffff16600360008773ffffffffffffffffffffffffffffffffffffffff1673ffffffffffffffffffffffffffffffffffffffff16815260200190815260200160002060008673ffffffffffffffffffffffffffffffffffffffff1673ffffffffffffffffffffffffffffffffffffffff1681526020019081526020016000208281548110610a9157610a906116e2565b5b9060005260206000200160006101000a81548173ffffffffffffffffffffffffffffffffffffffff021916908373ffffffffffffffffffffffffffffffffffffffff16021790555080806001019150506108ab565b50600360008573ffffffffffffffffffffffffffffffffffffffff1673ffffffffffffffffffffffffffffffffffffffff16815260200190815260200160002060008473ffffffffffffffffffffffffffffffffffffffff1673ffffffffffffffffffffffffffffffffffffffff168152602001908152602001600020805480610b7357610b72611891565b5b6001900381819060005260206000200160006101000a81549073ffffffffffffffffffffffffffffffffffffffff02191690559055600160008573ffffffffffffffffffffffffffffffffffffffff1673ffffffffffffffffffffffffffffffffffffffff16815260200190815260200160002060008473ffffffffffffffffffffffffffffffffffffffff1673ffffffffffffffffffffffffffffffffffffffff16815260200190815260200160002060008373ffffffffffffffffffffffffffffffffffffffff1673ffffffffffffffffffffffffffffffffffffffff1681526020019081526020016000206000905550505050565b600080600090505b600360008673ffffffffffffffffffffffffffffffffffffffff1673ffffffffffffffffffffffffffffffffffffffff16815260200190815260200160002060008573ffffffffffffffffffffffffffffffffffffffff1673ffffffffffffffffffffffffffffffffffffffff16815260200190815260200160002080549050811015610dfc578273ffffffffffffffffffffffffffffffffffffffff16600360008773ffffffffffffffffffffffffffffffffffffffff1673ffffffffffffffffffffffffffffffffffffffff16815260200190815260200160002060008673ffffffffffffffffffffffffffffffffffffffff1673ffffffffffffffffffffffffffffffffffffffff1681526020019081526020016000208281548110610d9f57610d9e6116e2565b5b9060005260206000200160009054906101000a900473ffffffffffffffffffffffffffffffffffffffff1673ffffffffffffffffffffffffffffffffffffffff1603610def576001915050610e02565b8080600101915050610c73565b50600090505b9392505050565b80600160008573ffffffffffffffffffffffffffffffffffffffff1673ffffffffffffffffffffffffffffffffffffffff16815260200190815260200160002060008473ffffffffffffffffffffffffffffffffffffffff1673ffffffffffffffffffffffffffffffffffffffff16815260200190815260200160002060003373ffffffffffffffffffffffffffffffffffffffff1673ffffffffffffffffffffffffffffffffffffffff168152602001908152602001600020541015610f05576040517f08c379a0000000000000000000000000000000000000000000000000000000008152600401610efc9061190c565b60405180910390fd5b80600160008573ffffffffffffffffffffffffffffffffffffffff1673ffffffffffffffffffffffffffffffffffffffff16815260200190815260200160002060008473ffffffffffffffffffffffffffffffffffffffff1673ffffffffffffffffffffffffffffffffffffffff16815260200190815260200160002060003373ffffffffffffffffffffffffffffffffffffffff1673ffffffffffffffffffffffffffffffffffffffff1681526020019081526020016000206000828254610fce9190611829565b925050819055508173ffffffffffffffffffffffffffffffffffffffff166323b872dd8433846040518463ffffffff1660e01b81526004016110129392919061192c565b6020604051808303816000875af1158015611031573d6000803e3d6000fd5b505050506040513d601f19601f82011682018060405250810190611055919061198f565b611094576040517f08c379a000000000000000000000000000000000000000000000000000000000815260040161108b90611a08565b60405180910390fd5b505050565b6000810361116357600160003373ffffffffffffffffffffffffffffffffffffffff1673ffffffffffffffffffffffffffffffffffffffff16815260200190815260200160002060008473ffffffffffffffffffffffffffffffffffffffff1673ffffffffffffffffffffffffffffffffffffffff16815260200190815260200160002060008373ffffffffffffffffffffffffffffffffffffffff1673ffffffffffffffffffffffffffffffffffffffff16815260200190815260200160002060009055611222565b80600160003373ffffffffffffffffffffffffffffffffffffffff1673ffffffffffffffffffffffffffffffffffffffff16815260200190815260200160002060008573ffffffffffffffffffffffffffffffffffffffff1673ffffffffffffffffffffffffffffffffffffffff16815260200190815260200160002060008473ffffffffffffffffffffffffffffffffffffffff1673ffffffffffffffffffffffffffffffffffffffff168152602001908152602001600020819055505b505050565b61123182826103f9565b6112d657600260008373ffffffffffffffffffffffffffffffffffffffff1673ffffffffffffffffffffffffffffffffffffffff168152602001908152602001600020819080600181540180825580915050600190039060005260206000200160009091909190916101000a81548173ffffffffffffffffffffffffffffffffffffffff021916908373ffffffffffffffffffffffffffffffffffffffff1602179055505b5050565b6112e5838383610c6b565b6113c757600360008473ffffffffffffffffffffffffffffffffffffffff1673ffffffffffffffffffffffffffffffffffffffff16815260200190815260200160002060008373ffffffffffffffffffffffffffffffffffffffff1673ffffffffffffffffffffffffffffffffffffffff168152602001908152602001600020819080600181540180825580915050600190039060005260206000200160009091909190916101000a81548173ffffffffffffffffffffffffffffffffffffffff021916908373ffffffffffffffffffffffffffffffffffffffff1602179055505b505050565b600080fd5b600073ffffffffffffffffffffffffffffffffffffffff82169050919050565b60006113fc826113d1565b9050919050565b61140c816113f1565b811461141757600080fd5b50565b60008135905061142981611403565b92915050565b60008060408385031215611446576114456113cc565b5b60006114548582860161141a565b92505060206114658582860161141a565b9150509250929050565b600081519050919050565b600082825260208201905092915050565b6000819050602082019050919050565b6114a4816113f1565b82525050565b60006114b6838361149b565b60208301905092915050565b6000602082019050919050565b60006114da8261146f565b6114e4818561147a565b93506114ef8361148b565b8060005b8381101561152057815161150788826114aa565b9750611512836114c2565b9250506001810190506114f3565b5085935050505092915050565b6000602082019050818103600083015261154781846114cf565b905092915050565b600060208284031215611565576115646113cc565b5b60006115738482850161141a565b91505092915050565b60008115159050919050565b6115918161157c565b82525050565b60006020820190506115ac6000830184611588565b92915050565b6000806000606084860312156115cb576115ca6113cc565b5b60006115d98682870161141a565b93505060206115ea8682870161141a565b92505060406115fb8682870161141a565b9150509250925092565b6000819050919050565b61161881611605565b82525050565b6000602082019050611633600083018461160f565b92915050565b61164281611605565b811461164d57600080fd5b50565b60008135905061165f81611639565b92915050565b60008060006060848603121561167e5761167d6113cc565b5b600061168c8682870161141a565b935050602061169d8682870161141a565b92505060406116ae86828701611650565b9150509250925092565b6116c1816113f1565b82525050565b60006020820190506116dc60008301846116b8565b92915050565b7f4e487b7100000000000000000000000000000000000000000000000000000000600052603260045260246000fd5b600082825260208201905092915050565b7f4e6f74206f776e65720000000000000000000000000000000000000000000000600082015250565b6000611758600983611711565b915061176382611722565b602082019050919050565b600060208201905081810360008301526117878161174b565b9050919050565b7f526563697069656e74206e6f7420666f756e6400000000000000000000000000600082015250565b60006117c4601383611711565b91506117cf8261178e565b602082019050919050565b600060208201905081810360008301526117f3816117b7565b9050919050565b7f4e487b7100000000000000000000000000000000000000000000000000000000600052601160045260246000fd5b600061183482611605565b915061183f83611605565b9250828203905081811115611857576118566117fa565b5b92915050565b600061186882611605565b915061187383611605565b925082820190508082111561188b5761188a6117fa565b5b92915050565b7f4e487b7100000000000000000000000000000000000000000000000000000000600052603160045260246000fd5b7f496e73756666696369656e7420616c6c6f636174696f6e000000000000000000600082015250565b60006118f6601783611711565b9150611901826118c0565b602082019050919050565b60006020820190508181036000830152611925816118e9565b9050919050565b600060608201905061194160008301866116b8565b61194e60208301856116b8565b61195b604083018461160f565b949350505050565b61196c8161157c565b811461197757600080fd5b50565b60008151905061198981611963565b92915050565b6000602082840312156119a5576119a46113cc565b5b60006119b38482850161197a565b91505092915050565b7f5472616e73666572206661696c65640000000000000000000000000000000000600082015250565b60006119f2600f83611711565b91506119fd826119bc565b602082019050919050565b60006020820190508181036000830152611a21816119e5565b905091905056fea264697066735822122029b49375e0aa90a03d96c97d38b8accd8c677128f3b83c6e8e9029dc1194697d64736f6c63430008180033",
  "linkReferences": {},
  "deployedLinkReferences": {}
}